:020000040000FA
:10000000642FFF3FFF3FFF3FF7000308F800830125
:100010000A08E2008A110A128C19C1290B197A2BDD
:100020008B138312031362088A0078088300F70E8B
:10003000770E0900FF3FFF3FFF3FFF3FFF3FFF3FBE
:1000400082077934D634B034B134B234B334B434F2
:10005000B534B634B734B834B934D734D834BA3404
:10006000BB34BC34BD34D934DA347934793479349E
:10007000793479347934BE34BF34C034C134C234B5
:10008000C3347934793479347934793479347934BE
:10009000793479347934A334A034DB34DC34DD347E
:1000A000DE34DF34E034E134E234C434C534C63401
:1000B000C73479347934C834C934CD34E43479342C
:1000C0007934E534D43479347934E634E734E834B7
:1000D000E934EA34EB34EC34ED347934793479347E
:1000E0007934EE34EF34A534A634A734A834A934D7
:1000F000AA347934793482075A34693478348434B0
:10010000A53482077D347D348C348C348C34BB34FC
:10011000820793349334A634A634A634DD348207A0
:100120007934793479347934793479347934793467
:100130007934793479347934793479347934793457
:100140007934793479347934793479347934793447
:100150007934793479347934793479347934793437
:100160007934793479347934793479347934793427
:100170007934793479347934793479347934793417
:100180007934793479347934793479347934793407
:10019000793479347934C9347934793479347934A7
:1001A000E534D43479347934793479347934793420
:1001B00079347934793479347934793479347934D7
:1001C000EE34EF34A534A634A734A834A934AA34C5
:1001D00079347934FF3FFF3FFF3FFF3FFF3FFF3F51
:1001E000FF3FFF3FFF3FFF3FFF3FFF3FFF3FFF3F1F
:1001F000FF3FFF3FFF3FFF3FFF3FFF3FFF3FFF3F0F
:1002000082077834773476347534743473347134C7
:1002100070346F346E346D346C346B346A346934DA
:100220006834673466346534643463346234623409
:10023000613460345F345E345D345D345C345B342F
:100240005A345A345934583458345734563456344E
:10025000553454345334533452345234513450346A
:1002600050344F344E344E344D344C344C344B3483
:100270004B344A3449344934483448344734473499
:1002800046344634453445344434433443344234AC
:10029000423441344134403440343F343F343E34BE
:1002A0003E343D343D343C343C343B343B343A34CE
:1002B0003A343934393438343834373437343634DE
:1002C00036343534353434343434333433343234EE
:1002D0003234313431343034303430342F342F34FC
:1002E0002E342E342D342D342C342C342B342B340A
:1002F0002A342A342934293428342834273427341A
:100300002634263425342534243424342334233429
:100310002234223421342134203420341F341F3439
:100320001E341E341D341D341C341C341B341B3449
:100330001A341A341934183418341734173416345C
:10034000163415341534143413341334123412346F
:100350001134103410340F340E340E340D340C3488
:100360000C340B340A340A340934083407340734A3
:1003700006340534043403340234023401340034C6
:1003800000347708F3007808F4006208E400831270
:1003900003172630A800F930A7000313F9018316CC
:1003A000941A112A0313831213082B11AC12AB10E9
:1003B0008316141D6B2B8312AB14AC1DE229570856
:1003C00093006B2B2C1FE729570993006B2B2C1ADA
:1003D000EC29553093006B2B00308A005308583CB1
:1003E0000318F4295930D300530820208A018400CF
:1003F000000883139300C00000308A00D30A53081A
:10040000583C0318052A5930D300530820208A018C
:1004100084000008831303178316D000031383128C
:100420006B2B8312AB18182A2B19692A2B15562A05
:100430002B15AC1E332A2C1A202AFE3093006B2B6E
:100440004008FF3C013EC000400893005308373C81
:100450000319E0125308353C031960135308333C69
:100460000319E0136B2B2C1A392AAA309300AC160F
:100470006B2B5308573C031D4D2A83162908831202
:1004800003178D0083168C130C1483120C080313AE
:1004900083139300AC16C0076B2B03178316500809
:1004A000031383129300AC16C0076B2B1308D30001
:1004B000D400831613078312D7002C12AC112C130F
:1004C000D8011308013903196B2B5830D300D4001D
:1004D0006B2BD808031D762A5708FF3C013E1302F8
:1004E00003192C161308C100D707672B5808013CC5
:1004F000031D7E2A1308C200D707672B5808023C49
:10050000031D672B5708FF3C013ED7001308570215
:1005100003198E2A2C171308D700672BAC1500304F
:100520008A005408583C0318972A5930D4005408BC
:100530008F208A01840041088000D40A00308A009C
:100540005408583C0318A62A5930D40054088F2068
:100550008A018400420880005408553C031DB12ADA
:10056000A716C108031DD52AC208031DD52A5408A1
:10057000353C031DBF2A8316C401C50183125408EC
:10058000373C031DC72A8316C601C70183125408CE
:10059000333C031DCF2A8316E101E2018312540884
:1005A000313C031DD52A2C15AC175408413C031DC2
:1005B000DB2A83160C2B5408453C031DE22A8316C4
:1005C000A4140C2B5408473C031DE92A8316241558
:1005D0000C2B54083D3C031DFF2AC108031DF32AC0
:1005E000C2080319FF2AA817831648178312410867
:1005F0008316CD00831242088316E4000C2B5408A6
:10060000493C031D062B8316A4150C2B54084B3CA8
:10061000031D142B83162416831241088316CB0066
:10062000831242088316CA00831254083B3C031D00
:10063000672BA816C11A242B8316A41F212B481A36
:10064000242BC812831208138312411B2B2B8316F1
:10065000CD01E401481383121F30C10583164808F9
:100660008312C200C21AC116421B411741088316E9
:10067000C80083120730C1050730C2054108420691
:100680000319672B831648080739013A0319542BBD
:10069000053083160317D4000313D400DC3003178E
:1006A000D3000313E500672B8312A718612B831671
:1006B000031754080313D400031753080313E5006A
:1006C000672B83162330D4002830E500672B831274
:1006D0000313D80A6B2B8312941314138C11141662
:1006E0008B138312031364088A0074088300F30ECB
:1006F000730E09007708F5007808F6006208E30039
:100700008B120B1186308100831682308100831298
:100710008B1764006B0803198F2BEB03962B6C0867
:10072000031D942BAC14962BEC03EB099F18962B0E
:100730003D081E02BE00031CB52B0310BE0C03189F
:10074000BE0A0310BE0C0318BE0A0310BE0C031829
:10075000BE0A0310BE0C0318BE0A3E08BF07031CE6
:10076000CF2BBD0A0319BD09CF2BBE09BE0A03104A
:10077000BE0C0318BE0A0310BE0C0318BE0A0310F9
:10078000BE0C0318BE0A0310BE0C0318BE0A3E08B6
:10079000BF020318CF2B0130BD02031CBD01033083
:1007A0008A0000301F19013E9F19023E1F1A043EA5
:1007B0008207E12B862CAD2CE22CBD2CE22CC92C1F
:1007C000D62C1E08A60083161E0883120317AF003E
:1007D000831203131E08B03C831603176D10031C0D
:1007E0006D1483120313A718102C03132C148B13EE
:1007F000061587168B17A913502C03131E08A03C4F
:10080000031C502C9F149F18032C1E08A03C031C93
:10081000502C2C148B13061587168B17A913502CEC
:10082000281F232C1E08A03C031C232C9F149F1858
:10083000172C1E08A03C031C232C601403178316DE
:10084000AB0103138312A91A352C1E08B03C031CFC
:100850004C2C9F149F182A2C1E08B03C031C4C2CB7
:100860009530B5000130B6004C2C1E08A03C031C8E
:100870004C2C9F149F183A2C1E08A03C031C4C2C97
:100880002C148B13061587168B17A913A9129530F4
:10089000B5000130B600502CA9170317EE01AA01CC
:1008A00083120313E50A6508013C0319672C6508E8
:1008B000023C03196B2C6508033C0319752C650871
:1008C000043C03197B2C6508053C03197F2C1F127F
:1008D0009F111F15E62C4508BD004408BF001F12DC
:1008E0009F151F1183161F12E62C1F169F111F1133
:1008F00083161F12E62C1F169F151F11E62CE5010B
:100900001F169F151F1583161F12E62C1E08831233
:100910000317EA00831603131E0883120317EB0064
:10092000031383128618A72C2C18A72C081AA72C9F
:10093000831203130C301E02031CA72C9F149F1854
:100940009F2C0C301E02031CA72C0814A72C83120A
:1009500003131F129F111F11E62C2B1EB32C2B12F9
:100960001E08BD00C5003D08C5003F08C4001F1299
:100970009F111F1183161F16E62C1E0883120317E2
:10098000B300831203131F129F111F1183161F162A
:10099000E62C1E08AD3C83160317ED10031CED1466
:1009A000831203131F129F111F11E62C1E088312BE
:1009B0000317C700831203131F129F111F11831601
:1009C0001F16E62C9F121F129F111F118312031373
:1009D0008718F22C891D052D87141130ED0003179F
:1009E0002512052DED080319FF2CED038919FB2CA9
:1009F00003172516052D0317251A002D052D871021
:100A000003131130ED000317251283160317111D70
:100A1000172D4B0803190E2DCB03172D4C08031D62
:100A2000152D831203138817172DCC03CB098312BE
:100A30000313881F292D831603174E080319222D2F
:100A4000CE03292D4F08031D272D9114292DCF03E7
:100A5000CE098312031306183F2D000006183F2D00
:100A6000881A572D0000881A572D2810E7012811E1
:100A700003171030EC002730ED0003135D2D881AAA
:100A80005A2D0000881A5A2DE70A67080A3C0318F5
:100A90005D2DA718552D2810281D5D2D8316B01C1F
:100AA0005D2DB2158312AB155D2DAB155D2D281490
:100AB000E7015D2D2814AB11E701831203132918F8
:100AC000742D2818682DB630AE000330AF00742D99
:100AD0002E0803196D2DAE03742D2F08031D722DE2
:100AE00029147C2DAF03AE09291C7C2D281C29104C
:100AF000B630AE000330AF00861E8B2D32080319CE
:100B0000832DB203902D3308031D882D2915902DB8
:100B1000B303B209902D0230B2000030B3002911A6
:100B20005B080319952DDB039C2D5C08031D9A2D92
:100B300028179C2DDC03DB09291AB82D6018A52D78
:100B40006430B7001930B800B82D37080319AA2D42
:100B5000B703B82D3808031DB62D29168316321594
:100B600083126430B7001930B800D12DB803B7092B
:100B7000291ED12D601CC12D6430B7001930B8007A
:100B8000D12D37080319C62DB703D12D3808031D01
:100B9000CF2D29126430B7001930B800D12DB80319
:100BA000B7098618D92D03173C08031DDE2DA5169D
:100BB000DF2D0317A512C830BC00DF2DBC030313C3
:100BC0008312A91AFB2D861CEA2D9530B500013041
:100BD000B600FB2D35080319EF2DB503FB2D3608A4
:100BE000013C031CF92DE0143608031DF92DA9164C
:100BF000FB2DB603B509A91E052E8618A912861E5F
:100C0000A9129530B5000130B600230803190A2E49
:100C1000A303192E2408031D172E2A1E112E2A1293
:100C2000122E2A16E230A3000430A400192EA403C9
:100C3000A3092A1F1F2E2A1E232EAA12282E2A1A83
:100C4000262EAA12282E2A13AA16282E2A17AA16EA
:100C5000071C2C2EAA17372EAA1F372EAA13D50A27
:100C6000031D372ED60A031D372ED509D609AA1E15
:100C7000482E033056020318432E5508E900560843
:100C8000EA006016462E6016E901EA01D501D60198
:100C9000A81F572EEE0A6E08FA3C0318592EA91405
:100CA000EE01EF0A6F08133C0318592EA813EE014A
:100CB000EF01A81C772E061C8B2E0000061C8B2E25
:100CC0000000061C8B2E831632128312A810AC1063
:100CD0001030EB002730EC00A71C8B2E2C188B2E2D
:100CE000291B8B2E8B13061187128B178B2E061840
:100CF0008B2E000006188B2E000006188B2E8316F4
:100D000032168312A814A71C8B2E2C188B2E8B1333
:100D1000061587128B1703176C080319912EEC0325
:100D2000992E6D08031D972E03132815992EED0398
:100D3000EC090313590803199F2ED903A62E5A084C
:100D4000031DA42E2816A62EDA03D909A71CB92E36
:100D50002C18B22E2818B92E2C148B1308108614B8
:100D60008B1729102818B92E081086142717A710DA
:100D700027148B13831603171E080319C12E9E0315
:100D8000E72E1F08031DE52EBC309E0009309F0092
:100D90000313600A031DD02E5F0A031DD02EE72E19
:100DA000DF0A0319E00A5708DB07031CDD2EDC0A03
:100DB000031DDD2EDD0A0319DE0A5808DC07031CBB
:100DC000E72EDD0A0319DE0AE72E9F039E098B1723
:100DD000831203132C18192F8316031724080319E1
:100DE000F32EA403192F2508031D172F7B30A40011
:100DF0001330A500A60A26083C3C031D192FA601A6
:100E00000313AD0A0319AE0A0319AF0A0317A80AA0
:100E100028083C3C031D192FA801A70A2708183CE5
:100E2000031D192FA701AA140313AD03192FA5033E
:100E3000A40983120313071A3B2F0317270803196A
:100E4000232FA703452F2808031D412F83120313C7
:100E500094128316940107128711831207168715BF
:100E600036309400130893018316071687158312F2
:100E7000AA112A112B1003172630A800F930A70059
:100E8000452F83120317A803A7090313831286189B
:100E9000522FD20A5208A03C0318542FA030D2007F
:100EA0008811542FD2018815031383129F148B13BA
:100EB0008B160B118B138312031363088A007608B9
:100EC0008300F50E750E09008A150A16622C24306F
:100ED000450203186E2F0030E800742FE800BE3C76
:100EE0000318742FBE30E80001308A006808002122
:100EF0008A01D10024300317340203130318832F0F
:100F00000030E800892FE800BE3C0318892FBE306E
:100F1000E80001308A00680800218A01DD0003171B
:100F200024303D020318972F0030C2009D2FC200CD
:100F3000BE3C03189D2FBE30C20001308A0042081B
:100F400000218A01C3000313A71CE92F281FE92FE2
:100F50008316F00100308A0070087B208A0171023C
:100F6000031CB92FF00A7008043C0318AA2F05309F
:100F7000F00083126018D32F00308A0083167008A7
:100F800088208A017202031CCF2F0317AC0A2C0899
:100F9000C83C0318E92FAB01031383126014031735
:100FA0008316AC01E92F00308A0083167008812077
:100FB0008A0172020318E62F0317AB0A2B08C83CFC
:100FC0000318E92FAC010313831260100317831673
:100FD000AB018A150028FF3FFF3FFF3FFF3FFF3F68
:100FE000FF3FFF3FFF3FFF3FFF3FFF3FFF3FFF3F11
:100FF000FF3FFF3FFF3FFF3FFF3FFF3FFF3FFF3F01
:1010000003138312A7182728AB1A1A28AB19202814
:101010000317251B202803131430A0000317831681
:1010200011183628111403138312343095008316D7
:10103000CE003628C830A2000317831611142A28C0
:101040000313C830A1000317831611142A280317AD
:101050008316111003178316100803138312A000C0
:1010600020082202031C36282208A000031383163E
:10107000481F43288312200883166302031C462856
:1010800063088312A0008316301347283017831299
:101090001508143C0318572883164308003C031C0A
:1010A0005728031D60284208643C031860288312F7
:1010B000200883164E02031C60284E088312A000ED
:1010C0008312150820020319862815082002031828
:1010D0007E289508031986280317B10AB108031D55
:1010E0008628B20A32080A3C03188628B201031384
:1010F0001508163C03188628950386281508C73C52
:1011000003188528C73095008628950A831603178B
:10111000911C9E288312031386199E28000000004C
:1011200086199E280000000086199E281508A00038
:101130000317831611148A150A166F2C03138312D2
:10114000E0192029E01583160317A3012A108B1339
:101150001F300B268316A2001E300B2683160313A6
:10116000AC0019300B2683160313AD001A300B2682
:1011700083160313AE001B300B2683160313AF0038
:101180008312881CCA280000881CCA280000881CFA
:10119000CA28E328831203178317523084002130B2
:1011A000AD002D080B268000AD0A840A2D082E3CC8
:1011B000031DD128A5153430BE000930BF006630AC
:1011C000C0000030C1008313831603131C30A70036
:1011D000A80127080317A000031328080317A1007C
:1011E000182683160313A7018B17831603177B306A
:1011F000A4001330A50003132130D6000030E60010
:101200000A30E700C030E8002130E9000030EA0091
:101210000B30EB000030EC000D30ED008030EE00C4
:101220000C30EF008030A5001630A6002730A30058
:101230003330A000831203172630A800F930A7002E
:101240008312031364008B17271C8F29061E8F2916
:10125000291C8F29291D8F29061C8F290317831606
:10126000911C8F2903138312081403178316ED169C
:10127000D60103138312091486102C148B13061540
:1012800087168B17C430DB000930DC00281395303B
:10129000B5000130B600A9126430B7001930B800AB
:1012A000601029125030D900C330DA002812031719
:1012B00083162912AB01AC0103138312A812AB1BD6
:1012C000662908138316C8128312A816AA10AB1138
:1012D000AB122B130317251303138316B201B301AB
:1012E000B401B501AB01A11024108316CF1A8429D3
:1012F00048080739013A031D8A298B132330D4008B
:101300002830E5008B178A298B135308D400520824
:10131000E5008B178312AB1327132710A7140313B1
:101320008312A71C7D2A64008B17861AA829000047
:101330000000861AA82900000000861AA8292C148B
:101340008B13081086148B172717A710A7159D2A33
:101350000317A51BB6290313061ACF2900000000A6
:10136000061ACF2900000000061ACF2903132C14F7
:101370008B13081086148B17AA142B178316B2141C
:101380008312081086142717A71027150317831632
:101390002A140130A1001D30A00018267D2A291E24
:1013A000E7292C18D8292C148B13081086148B17B6
:1013B000081086142B172717A71027150317831655
:1013C0002A140130A1001D30A00018267D2AAB1E72
:1013D000032A281F032A2C18F5292C148B13081014
:1013E00086148B178316B2158312081086142717DC
:1013F000A7102715031783162A140130A1001D30EA
:10140000A00018267D2AAB1D1F2A281C1F2A2C1875
:10141000112A2C148B13081086148B178316B215FF
:101420008312081086142717A71027150317831691
:101430002A140130A1001D30A00018267D2A0317B0
:10144000251F3D2A0313281F3D2A2C182F2A2C1450
:101450008B13081086148B178316B215831208108D
:1014600086142717A7102715031783162A1401308F
:10147000A1001D30A00018267D2A031383164F1BE0
:101480005F2AC9185F2A8312281E5F2A2C18502A47
:101490002C148B13081086148B17831632178312A3
:1014A000081086142B172717A71027150317831664
:1014B0002A140130A1001D30A00018267D2A8312B5
:1014C0008B13AA187D2A2C1C7C2A291C7C2AA91E75
:1014D0007C2A291A7C2A281F6D2A061C7C2A0000D7
:1014E0000000061C7C2AA91F7C2A291B7C2A2C10A0
:1014F0008B13061187128B178B17031383128B170D
:10150000271D992A6400061C972A861E972AAB1A63
:10151000992AAB19992A0317251B992A03132B1B08
:10152000992AF430AE000130AF002910AB17271113
:10153000271403138312A71DA22A6400081086141F
:10154000A7112714031783162A18F92A03138312E5
:10155000A71CF02A8B132608FA0003172F08FB009C
:101560008B170310FA0CFB0C0310FA0CFB0C031086
:10157000FA0CFB0C0310FA0CFB0C0310FA0CFB0C1E
:101580000310FA0CFB0C7B08E7070318E80A7A083B
:10159000E807E90A691FF92AE9016708FB006808FA
:1015A000FA00E701E8010310FA0CFB0C0310FA0C37
:1015B000FB0C0310FA0CFB0C0310FA0CFB0C1E3096
:1015C000FB020318E72AFA080319F02AFA038B131F
:1015D0007B0883160313BA007A08BB008B17F92A1D
:1015E00003178312E701E801E90103138316BA0127
:1015F000BB01031383121230FE001508FD00CD2538
:101600007A0883164302831203190B2B0318142B39
:10161000281E1A2B1C2B7B088316420283120318E8
:10162000142B281E1A2B1C2B83125030D900C330C8
:10163000DA0028128312222B03138312A71C222BF9
:101640008316321783128312AC1C472B463051028B
:101650000318422B51083C3C031C472B4508FA3C1D
:10166000031C422BF53045020318472BAB12AB1974
:10167000472B0317251B472B0313A718472B83164C
:10168000B211472BAB16A71C472B8316B2150313B9
:1016900083128B13291B632B831632084E39031DCB
:1016A000532B3210652B4F1B582BC918582B602B0E
:1016B0003208403A0319652B3208503A0319652B5A
:1016C0008312861C652B831632148B1783125108E4
:1016D000FD004030FE00CD2583168B137A08BF0035
:1016E0007B08BE008B17031783124608BA3C031809
:1016F000872B03135108FD006630FE00CD2503172C
:101700007A08443EC4007A083A3EC5008B2B5F300D
:10171000C4005530C50003138312AC1CB12B031752
:10172000440843020318AB2B43084502031CB12BAA
:101730003D08FA3C031CAB2BF5303D020318B12BDE
:1017400025130313AB19B12BAB1AB12BA718B12B6F
:101750008316B211B12B25170313A71CB12B8316C7
:10176000B215031383125D08FD004030FE00CD2545
:1017700083168B137A08C1007B08C0008B17831275
:10178000AC1CF62BAB1AD72B5108831603172E026D
:1017900083120313031CD72B8316031748088312E5
:1017A000031351020318D92B83163412D92B831635
:1017B00034168312AB19F32B0317251BF32B0313DA
:1017C0005D0883160317120283120313031CF32B05
:1017D000831603171308831203135D020318F62BF5
:1017E0008316B412F62B03138316B416831632082D
:1017F0002B060319FD2B8312A81283163208AB00A7
:101800008312861E062C83163015082C8316301181
:1018100083122C1C0E2C83163010102C83163014BF
:1018200083128316B208031D172C24131B2C3208B5
:10183000103A031D241783128316B408031D222CAB
:10184000A413232CA41783128312601E372C8B132E
:101850006908FD007830FE00CD257A088316C300A4
:1018600083127B088316C2008B178312482C8316C1
:10187000CF1BC02C8312A819432C24080939031D3F
:10188000C02CA815482C240809390319C02CA8110C
:10189000A91C542C0317A60A2608053C0318582C2B
:1018A000A6010313A910582C15082002031DC02CF3
:1018B00003138316481F8E2C83120317FF30B100C9
:1018C0000B30B2000313831643086402031C882CF8
:1018D000031D7B2CCF1742084D020319922C031CC9
:1018E000922CCF1383120317A90A2908323C03183C
:1018F000922CA9010313831220088316E300CF134F
:10190000E30A6308C83C0318922CC830E300922C09
:101910008316E308031DE303CF17922CE301E401D0
:10192000CD01CF1303138316C308031D01304302F7
:101930005402031CB22C031D9E2CC02C83120317CF
:10194000FF30B1000B30B20003138312200883165E
:10195000CF13CE00CE0A4E08C83C0318C02CC830A6
:10196000CE00C02C83120317FF30B1000B30B20041
:101970000313831220088316CF17CE00031DCE0356
:101980008312A71EFC2CA71203138316CF19D12C88
:1019900020302702031CD12C27082D3C031CD12CFE
:1019A000FC2C27080317A000031328080317A10025
:1019B0001826031327081C3C031DED2CCF1183129E
:1019C0000317A5158316031328084B3C031DFC2C95
:1019D000CF1583120317A511FC2C031327081E3CF7
:1019E000031DF52C2808AC00FC2C27081F3C031D08
:1019F000FC2C28080317A20083160313321A5F2D4C
:101A00008312AC1C5F2D83166608FB006708FA0082
:101A10002030FB07031C132DFA0AFA08031D132DAF
:101A2000FF30FA00FB00FA0AFA08031D1A2DFF30F6
:101A3000FA00FB008316031367083702031C332DDB
:101A4000031D262D66083602031C332D37087A0243
:101A5000031C312D031D342D36087B02031C312D50
:101A6000342DB410342DB414831603136808FB000E
:101A70006908FA00A030FB020318452DFA037A0822
:101A8000FF3C031D452DFA01FB01831603133708A4
:101A90006902031C5E2D031D512D36086802031CCC
:101AA0005E2D7A083702031C5C2D031D5F2D7B0819
:101AB0003602031C5C2D5F2D34105F2D3414831609
:101AC00003138B13B010321EB0148B178316031739
:101AD000AA1C802DAA1003132D080317A10019308A
:101AE000A000182603132E080317A1001A30A00027
:101AF000182603132F080317A1001B30A000182677
:101B00002A1CCA2D2A19982D2A152E302202031DAF
:101B10008B2DE8308D2D183022020B264E3983167E
:101B200003133205031DC12DAC0A0317AA15AA140D
:101B300003178B13AC30230784000008A1008B1718
:101B400022082307A0001826A30A23081D3C031817
:101B5000CA2DA3012A102A11AA1DB52DAA111E30C3
:101B6000A207031CB52D2E30A2002208A1001F30B1
:101B7000A000182603132C080317A1001E30A00094
:101B80001826831603170030A1001D30A000182668
:101B90002A102A118A110A1600280310FA01FB01E3
:101BA0000830FC007D080310FE0C0318FA07FA0C3D
:101BB000FB0CFC0BD42D08009901031010309D0084
:101BC0009C0D9B0D9A0D990D1E081A020318EF2DFE
:101BD000980001301902031CF02D990018089A0092
:101BE0009D0BE02D9C0D9B0D08002510A5102108D4
:101BF0001F020319FF2D0318072E031C0A2E2208AB
:101C000020020319092E0318072E031C0A2E25147F
:101C10000A2EA5140800831603178C180D2E8312A4
:101C200003178D0083168C130C1483120C08080004
:101C3000831603178C181A2E8B13200883128D001D
:101C40008316210883128C0083168C130C155530D3
:101C50008D00AA308D008C140C118B170313831286
:101C60001A089A01980183169801831290309800FF
:101C7000831640309900203098000317831608001F
:101C8000FF3FFF3FFF3FFF3FFF3FFF3FFF3FFF3F64
:101C9000FF3FFF3FFF3FFF3FFF3FFF3FFF3FFF3F54
:101CA000FF3FFF3FFF3FFF3FFF3FFF3FFF3FFF3F44
:101CB000FF3FFF3FFF3FFF3FFF3FFF3FFF3FFF3F34
:10200000031383128C1E82281A08A500611A8228E5
:10201000611B822861181A28E1184E28493A0319D1
:1020200061142508563A0319E1146111E111611296
:102030006113822861192D282508343A031D2328AD
:102040006115A91182282508353A031D2A28611532
:10205000A91582286110611582286608053C0319BC
:102060003F288B134630660784002508800003173D
:102070008312970703138312E60A8B178228250819
:1020800003178312170603130319611661106111F8
:10209000E60103179701031383128228E1196028D0
:1020A0002508343A031D5728E115601182282508B8
:1020B000353A031D5E28E11560158228E11082285B
:1020C0006608063C031972288B134B3066078400A0
:1020D0002508800003178312960703138312E60A6C
:1020E0008B17822825080317831216060313831201
:1020F00003196117E110E111E6010317831296013C
:1021000003138312831603176D19DB28831203133D
:102110008B17A71B0929611AB928611FDB288316B1
:1021200003171115831203134E0803178316B20009
:10213000031383124D0803178316B300031383128E
:102140004C0803178316B400031383124B080317BC
:102150008316B500B701031383124F0803178316C4
:10216000B8008225031383126113E1175008DE00C3
:10217000DB28490803178316B200031383124808AB
:1021800003178316B300031383124708031783163C
:10219000B40003138312460803178316B500B70172
:1021A000031383124A0803178316B800822503130A
:1021B00083126112E116031783166D19E5280313C4
:1021C0008312E11AE528E11FCD2B03138312A71B0D
:1021D0000929A71703178316B308031DFA28B408A3
:1021E000031DFA283508013C031CFA28C201C3016B
:1021F000C40128293308BF00C2003408C000C3004E
:102200003508C100C4000310C20CC30CC40C0E304E
:10221000C500031783163F08B2004008B300410809
:10222000B4004208B7004308B8004408B900682663
:102230003408C4070318C30A3308C3070318C20AC3
:102240003208C2070310C20CC30CC40CC50BCD2B43
:1022500003138312A713031783166D1D35296D1100
:102260004408FB004308FA00B62B031383128B17B4
:10227000A713E11A9229E11FCD2B031783164408F7
:10228000831291070318900A83164308831290075C
:10229000920B8E29103092000310900C910C0310B9
:1022A000900C910C0310900C910C0310900C910C5D
:1022B00010088316B200831211088316B3000D3084
:1022C000B7004430B8004A273308FA003408FB004E
:1022D000831290019101031783162A188E29031384
:1022E00083168B137A08B7007B08B6008B17031090
:1022F000FB0DFA0DFB0DFA0DFB0DFA0DFE30031C64
:102300007A08D1003708FA003608FB000310FB0DED
:10231000FA0DFB0DFA0D7A080317980003138312C8
:10232000E113CD2B03178316440883129407031877
:10233000930A8316430883129307950BCA2B103018
:1023400095000310930C940C0310930C940C031041
:10235000930C940C0310930C940C1308FA001408BB
:10236000FB00831203136019C12903175908831650
:10237000B200831258088316B30083125A08AB00C8
:10238000CC29031756088316B2008312550883160A
:10239000B30083125708AB0083167A08B7007B0896
:1023A000B8004A278312AB1BE12983163308831236
:1023B000FA008316340883122B07FB000318FA0A6D
:1023C000F429AB13831633088312FA002B08831603
:1023D00034028312FB000318F429FA08031DF329C1
:1023E000FA01FB01F429FA0303178312A519FE2948
:1023F000031383167B08A5007A08A6008312031333
:1024000060190F2A0317831253088316B200831230
:1024100052088316B30083125408AB001B2A03171B
:1024200083125D088316B20083125C088316B30022
:1024300083125E08AB0083167A08B7007B08B800E9
:102440004A278312AB1B302A831633088312FA0003
:102450008316340883122B07FB000318FA0A432A59
:10246000AB13831633088312FA002B088316340249
:102470008312FB000318432AFA08031D422AFA01BB
:10248000FB01432AFA03831203136019542A8316AB
:102490000317FA08031D542A7B08143C031C542A12
:1024A0001430DC00DB015A2A831603177B08DC009A
:1024B0007A08DB00031783125B08FD0083161808F7
:1024C000FE008427FB1BFA0A7A08D8008312031344
:1024D0006019782A831603170030D900DB08031D22
:1024E000912B5C08193C031C912BFF30D900912BD8
:1024F00083160317DB08031D842A5C08143C031CA5
:10250000842A0030E000862AFF30E000DB08031D4B
:10251000B32A5C08203C031C902A1430DF00B52A43
:102520005C08283C031C972A5030DF00B52A5C0861
:102530002D3C031C9E2A6430DF00B52A5C08343C25
:10254000031CA52A8C30DF00B52A5C08393C031C2B
:10255000AC2AA030DF00B52A5C08543C031CB32A27
:10256000B430DF00B52AFF30DF00DE01412BDB088D
:10257000031D3F2B5C08133C031CC12A0E30DE00F8
:10258000412B5C08183C031CC82A1430DE00412B88
:102590005C081E3C031CCF2A1A30DE00412B5C086D
:1025A000243C031CD62A2030DE00412B5C08293C49
:1025B000031CDD2A3730DE00412B5C082E3C031C57
:1025C000E42A3C30DE00412B5C08333C031CEB2A40
:1025D0004130DE00412B5C08383C031CF22A4530B8
:1025E000DE00412B5C083E3C031CF92A5130DE0022
:1025F000412B5C08443C031C002B5F30DE00412B68
:102600005C08493C031C072B7230DE00412B5C0840
:102610004C3C031C0E2B7630DE00412B5C084F3CFB
:10262000031C152B7A30DE00412B5C08543C031C44
:102630001C2B7D30DE00412B5C08593C031C232BF6
:10264000AA30DE00412B5C085D3C031C2A2BAE3017
:10265000DE00412B5C08613C031C312BB030DE00F6
:10266000412B5C08663C031C382BB130DE00412B4B
:102670005C086B3C031C3F2BB430DE00412BB630B2
:10268000DE001808733C031C6F2BDD0060085F023E
:10269000031C5B2BFD005D08FE0084279327600868
:1026A0005F02FD007B087D02031C0030FB00600818
:1026B0007B07D900912B5F086002FD005D08FE00DA
:1026C000842793275F086002FD007B087D020318C2
:1026D0006B2B7D08FB005F087B07D900912B7330C3
:1026E0001802DD005F085E02031C7F2BFD005D0801
:1026F000FE00842793275F087B07D900912B5E0893
:102700005F02FD005D08FE00842793275E085F02DC
:10271000FD007B087D02031C0030FB005E087B0788
:10272000D9005908FF3CDA005808FD005A08FE009D
:1027300084270310FB0DFA0DFB1BFA0A7A08FD0033
:102740007A08FE0084275B08B2005C08B3005B08CF
:10275000B7005C08B8004A277B08B5070318FA0AD7
:102760007A08B4070318B30A6D15DB280317831220
:1027700093019401031783162A18CA2B7A08B20012
:102780007B08B300B7015030B8004A273408C900AD
:102790003308CA0003138312E112031783162A18A1
:1027A000FD2C03138312A71CF12C03178B136A084B
:1027B000FA006B08FB008B170310FA0CFB0C0310DC
:1027C000FA0CFB0C0310FA0CFB0C0310FA0CFB0CBC
:1027D0000310FA0CFB0C0310FA0CFB0C7B08E4074B
:1027E0000318E50A7A08E507E60A661FFD2CE601EC
:1027F0006408FB00B0006508FA0083120313F200BE
:1028000083120317E401E5010310FA0CFB0C03101B
:10281000FA0CFB0C0310FA0CFB0C0310FA0CFB0C6B
:102820000310FA0CFB0C0310FA0CFB0C83120317B9
:10283000A51DCA2C3F088316B20083123E088316DA
:10284000B300831241088316EF00831240088316F9
:10285000EE007A08B7007B08B8004A27EF1B392C36
:1028600033086F07FA0034086E07FB000318FA0AF2
:102870004E2CEF136F083302FA000318422CFA01B2
:10288000FB014E2C6E083402FB0003184E2CFA0894
:10289000031D4D2CFA01FB014E2CFA038312031782
:1028A00083167A08013C031C642C031D5B2C7B08F7
:1028B000543C031C642C0030B200B330B3008030B1
:1028C000EF001430EE00A52C7A08013C031C772C95
:1028D000031D6E2C7B08853C031C772C0030B20056
:1028E000C030B3000030EF000A30EE00A52C7A08AB
:1028F000023C031C8A2C031D812C7B08373C031CE3
:102900008A2C0030B200F030B3008030EF00163077
:10291000EE00A52C7A08033C031C9D2C031D942C6F
:102920007B086C3C031C9D2C0030B200F830B300D7
:102930008030EF001030EE00A52C0130B2000030E6
:10294000B3000030EF000230EE007A08B7007B08D9
:10295000B8004A27EF1BB52C33086F07FA0034087C
:102960006E07FB000318FA0ACA2CEF136F08330234
:10297000FA000318BE2CFA01FB01CA2C6E083402BF
:10298000FB000318CA2CFA08031DC92CFA01FB012D
:10299000CA2CFA03831603137A08003C031CDF2CAD
:1029A000031DD62C7B08BF3C031CDF2C8B13BD0101
:1029B000C030BC00031383168B174F16E82C8B1303
:1029C0007B0883160313BC007A08BD008B174F12D7
:1029D00083160310FB0DFA0D7A080317AD000313DD
:1029E000FD2C03178312E401E501E60103138316AE
:1029F000BC01BD010317AD01DA2C031783162A1899
:102A0000202D03138312A71C1D2D831647083D029A
:102A1000031C202D3D084706031D122D3C084602CD
:102A20000318202D8312E01A202D83168B133C08E7
:102A3000C6003D08C7008B17202D8316C601C701AD
:102A400003138316B01C442D37080317B200031379
:102A500036080317B3004A08B7004908B8004A27E8
:102A60000310B20CB30CB40C0310B20CB30CB40CC6
:102A70000310B20CB30CB40C8B1333080313A20075
:102A8000031734080313D0008B17031783162A1873
:102A90007F2D03138312A71C7B2D2C187B2D8316EF
:102AA0003B080317B20003133A080317B3000313DC
:102AB0003D080317B70003133C080317B8004A2763
:102AC0000310B40DB30DB20D0310B40DB30DB20D60
:102AD0008B13B208031D732D3308243C031C732D84
:102AE0002430B300B20132080313DA0003173308AD
:102AF0000313D9007F2D03138316D901DA018A1538
:102B00000A160028BB01BC01BA01320DBC0D380801
:102B1000BC023708031C370FBB020301031C013042
:102B2000BA02B20D0730BE00320DBC0DBB0DBA0D9E
:102B30003808321CA52DBC023708031C370FBB0216
:102B40000301031C0130BA02AE2DBC07370803187D
:102B5000370FBB07030103180130BA07B20DBE0BD4
:102B6000942D330DBC0DBB0DBA0D3808321CC22D8F
:102B7000BC023708031C370FBB020301031C0130E2
:102B8000BA02CB2DBC0737080318370FBB07030168
:102B900003180130BA07B30D0730BE00330DBC0D6A
:102BA000BB0DBA0D3808331CDF2DBC023708031CDF
:102BB000370FBB020301031C0130BA02E82DBC072A
:102BC00037080318370FBB07030103180130BA0792
:102BD000B30DBE0BCE2D340DBC0DBB0DBA0D380898
:102BE000331CFC2DBC023708031C370FBB0203014A
:102BF000031C0130BA02052EBC0737080318370F33
:102C0000BB07030103180130BA07B40D0730BE003B
:102C1000340DBC0DBB0DBA0D3808341C192EBC0286
:102C20003708031C370FBB020301031C0130BA0233
:102C3000222EBC0737080318370FBB070301031800
:102C40000130BA07B40DBE0B082E350DBC0DBB0DFF
:102C5000BA0D3808341C362EBC023708031C370F57
:102C6000BB020301031C0130BA023F2EBC07370828
:102C70000318370FBB07030103180130BA07B50D5E
:102C80000730BE00350DBC0DBB0DBA0D3808351C24
:102C9000532EBC023708031C370FBB020301031C71
:102CA0000130BA025C2EBC0737080318370FBB0788
:102CB000030103180130BA07B50DBE0B422E3518BB
:102CC000672E3808BC0737080318370FBB070034D6
:102CD000BB01BC01BD01BA01320DBD0D3908BD02F9
:102CE0003808031C380FBC023708031C370FBB021F
:102CF0000301031C0130BA02B20D0730BE00320DD1
:102D0000BD0DBC0DBB0DBA0D3908321C952EBD0290
:102D10003808031C380FBC023708031C370FBB02EE
:102D20000301031C0130BA02A22EBD0738080318A4
:102D3000380FBC0737080318370FBB070301031808
:102D40000130BA07B20DBE0B7F2E330DBD0DBC0D89
:102D5000BB0DBA0D3908321CBB2EBD023808031C4E
:102D6000380FBC023708031C370FBB020301031CDA
:102D70000130BA02C82EBD0738080318380FBC0747
:102D800037080318370FBB07030103180130BA07D0
:102D9000B30D0730BE00330DBD0DBC0DBB0DBA0D1C
:102DA0003908331CE12EBD023808031C380FBC0261
:102DB0003708031C370FBB020301031C0130BA02A2
:102DC000EE2EBD0738080318380FBC073708031864
:102DD000370FBB07030103180130BA07B30DBE0B51
:102DE000CB2E340DBD0DBC0DBB0DBA0D3908331CF7
:102DF000072FBD023808031C380FBC023708031C1C
:102E0000370FBB020301031C0130BA02142FBD07A8
:102E100038080318380FBC0737080318370FBB07EB
:102E2000030103180130BA07B40D0730BE00340D9A
:102E3000BD0DBC0DBB0DBA0D3908341C2D2FBD02C4
:102E40003808031C380FBC023708031C370FBB02BD
:102E50000301031C0130BA023A2FBD0738080318DA
:102E6000380FBC0737080318370FBB0703010318D7
:102E70000130BA07B40DBE0B172F3418492F39088B
:102E8000BD0738080318380FBC0737080318370F79
:102E9000BB070034B401B5013208C6003308C700CF
:102EA0000830BE00B80C0318622FBE0B522FBE00B4
:102EB000B70C0318602FBE0B582FB201B3010034BA
:102EC00003107D2F03106D2FB80C031C6D2F4708C6
:102ED000B30746080318460FB207B20CB30CB40C84
:102EE000BE0B642F0830BE00B70C031C7D2F4708B3
:102EF000B30746080318460FB207B20CB30CB40C64
:102F0000B50CBE0B742F00340310FA01FB0108301E
:102F1000FC007D080310FE0C0318FA07FA0CFB0CEA
:102F2000FC0B8B2F08000310FA0CFB0C0310FA0C9F
:102F3000FB0C0310FA0CFB0C0310FA0CFB0C03182F
:102F4000FB0A0800FF3FFF3FFF3FFF3FFF3FFF3F00
:102F5000FF3FFF3FFF3FFF3FFF3FFF3FFF3FFF3F81
:102F6000FF3FFF3FFF3FFF3FFF3FFF3FFF3FFF3F71
:102F7000FF3FFF3FFF3FFF3FFF3FFF3FFF3FFF3F61
:102F8000FF3FFF3FFF3FFF3FFF3FFF3FFF3FFF3F51
:102F9000FF3FFF3FFF3FFF3FFF3FFF3FFF3FFF3F41
:102FA000FF3FFF3FFF3FFF3FFF3FFF3FFF3FFF3F31
:102FB000FF3FFF3FFF3FFF3FFF3FFF3FFF3FFF3F21
:102FC000FF3FFF3FFF3FFF3FFF3FFF3FFF3FFF3F11
:102FD000FF3FFF3FFF3FFF3FFF3FFF3FFF3FFF3F01
:102FE000FF3FFF3FFF3FFF3FFF3FFF3FFF3FFF3FF1
:102FF000FF3FFF3FFF3FFF3FFF3FFF3FFF3FFF3FE1
:1030000003138316B01C4F28A208031D2B28500859
:10301000323C03181E288312601D2B28831650088B
:10302000643C031C2B285008FB00031383167B0809
:10303000323C03181E287B08D0002B28A201323016
:10304000D0008B1303174A080313B900031749086C
:103050000313B80035288B13831603174A0803138C
:10306000B900031749080313B8008B1722085A0246
:10307000031C4B28031D432859085002031C4328F6
:10308000031943284B285A08A2005908D0000310FE
:10309000D00A0319A20A2208D8005008D7008B17BB
:1030A00083120313601EA728A7185728A7285108C2
:1030B000413C03185E28C830A2007A2851083B3CE6
:1030C000031C7A285108393C031C72285108353CEE
:1030D00003188D285108373C0318842803178312DE
:1030E000EF01A72803178312EF0A6F08193C031892
:1030F000A728EF0103138312A20A2208C83C031871
:10310000A728C830A200A72803178312EF0A6F0868
:10311000643C0318A728EF019B280313831222089D
:10312000B43C031C9B2803178312EF0A6F080A3C68
:103130000318A728EF0103138312A2080319A72875
:10314000A2032208143C031CA7281430A2008312F7
:103150000313601E0029A718AE2800295D08553CFE
:103160000318B6282A14C830A100D3282A105D08F5
:103170003F3C031CD3285D083C3C031CCB285D0866
:10318000353C0318E6285D08383C0318DD28031792
:103190008316B001002903178316B00A30083C3C9F
:1031A00003180029B00103138312A10A2108C83CA7
:1031B00003180029C830A100002903178316B00A9C
:1031C0003008F03C03180029B001F42803138312DF
:1031D0002108B43C031CF42803178316B00A3008F6
:1031E000283C03180029B00103138312A108031916
:1031F0000029A1032108143C031C00291430A1005C
:1032000003138312210803178316900003138312FC
:10321000601E59296012271F1D29271383168B133F
:103220005408D3006508D200031754080313D400D0
:10323000031753080313E5008B178312A7183A29C5
:1032400083165408031754020313031C5929031D42
:103250002F296508031753020313031C59298B13E5
:10326000031754080313D400031753080313E5008E
:103270008B175929831648080739013A031D20295D
:103280005408031754020313031C5929031D4E2924
:103290006508031753020313031C59298B130317E3
:1032A00054080313D400031753080313E5008B17C6
:1032B000592983160313A41C7529A410013069022F
:1032C000FA004A087A02031C6B29031D7129680859
:1032D0004B02031C712901306902E7006808E6000F
:1032E00075294A08E7004B08E600A41D8F29A411A0
:1032F00001306D02FA004A087A02031C8529031D79
:103300008B296C084B02031C8B2901306D02EB00EA
:103310006C08EA008F294A08EB004B08EA00241DDC
:10332000A7292411013067074A02031C9D29031DA8
:10333000A3294B086602031CA32901306707E90093
:103340006608E800A7294A08E9004B08E800241E9F
:10335000BF29241201306B074A02031CB529031D43
:10336000BB294B086A02031CBB2901306B07ED0027
:103370006A08EC00BF294A08ED004B08EC00031373
:103380008312AA19CB29061FD229BC0BD529AA154D
:1033900083169314D229061BD229BC0BD529AA1156
:1033A0008316931083120330BC002A19DF29051EEF
:1033B000E629BB0BE9292A1583161315E629051AF8
:1033C000E629BB0BE9292A11831613118312033056
:1033D000BB002B18F329861FFA29AD0BFD292B14EE
:1033E00083169315FA29861BFA29AD0BFD292B109C
:1033F0008316931183120330AD0005303907720232
:103400000318082A053039027202031C082A0A2A06
:103410007208B90000303A0751020318152A033028
:103420003A025102031C152A172A5108BA00031345
:1034300083160030710751020318242A02307102EA
:103440005102031C242A262A5108F1000313831673
:103450008B13321A4C2A71086C3C031C362A7108F3
:103460005A3C03184C2A3114B110522A7108843C7A
:10347000031C3D2A3110B114522A7108B33C0318C1
:103480004C2A031718083102031C4C2A8330B10060
:1034900003133114B114522A03178330B1000313FC
:1034A0003110B1108B17031383164F1348080739D7
:1034B000023A03194F170313831648080739013AD4
:1034C0000319652A4918652A762AB01C732A8312C3
:1034D0002719732A861E702A8316B208031D732AC1
:1034E000831288147C2A831288107C2A8312871AFC
:1034F0007B2A88147C2A881003138312061C862AD0
:10350000AC1C9D2A8316241B8B2A952A8316C8126D
:10351000831208139D2A8312A81A952A8316C81DA0
:10352000952AC816831208179D2A8316A41F9D2A60
:10353000481E9D2AC8168312081703138316B01855
:10354000B82A031783162A18B82A03138316B6015C
:10355000B701B801B901D701D801DB01DC01DD01F8
:10356000DE01DF01E001E101E201C401C501CF128A
:10357000831603136E08FB006F08FA000310FB0D9F
:10358000FA0DFB0DFA0D7A080317AE0005302E0276
:10359000C800831603132508FB002608FA00031051
:1035A000FB0DFA0DFB0DFA0D7A080317920005309A
:1035B0001202930003138316301C412B6A08FB0090
:1035C0006B08FA000310FB0DFA0DFB0DFA0DFB0D55
:1035D000FA0D7A08031799005C309A0003133A0831
:1035E000FB003B08FA000310FB0DFA0DFB0DFA0D72
:1035F000FB0DFA0D7A0803179D008B138316031732
:103600001D081902831203130318132B83160317C3
:103610001A081D0283120313031C172B2C18172BD7
:103620008316B411172BA91E172B8316B4158B17ED
:10363000831603136C08FB006D08FA000310FB0DE2
:10364000FA0DFB0DFA0DFB0DFA0D7A0803179B001E
:1036500065309C00831603171D081B028312031399
:10366000031C3F2B831603171C081D028312031330
:103670000318412BA71C412B83163411412B8316B1
:103680003415031383122C1D502BAC1F502B2C11FF
:10369000AC138316DB01DC01DD01DE01DF01E0019B
:1036A00003138312061C6C2B831662085802031C3A
:1036B0006F2B58086206031D612B5708610203181F
:1036C0006F2B8312E01B6F2B83168B135708E100BF
:1036D0005808E2008B176F2B8316E101E2010317F4
:1036E00083162A18932B03138312061C902B831620
:1036F00045083902031C932B39084506031D842B0A
:10370000380844020318932B8312601B932B031376
:1037100083168B133908C5003808C4008B17932B08
:103720008316C401C5010313831648080739053AF7
:1037300003199F2B491A9F2B83120816A22B0313E0
:1037400083120812031383120819B12B861AB12BA6
:103750008316C91EB12B03176D18B12B03138312E7
:10376000081503138312081DC92B861AC32B831651
:10377000C91EC02B03176D18C32BED1CC02BC92B02
:1037800003138316C9120313831208110317831638
:103790001110031383163330C90503138316480829
:1037A0000739013A031DDB2B031783160C30D400B5
:1037B000E430D300E12B031783160530D400DC304E
:1037C000D300031383128618EB2B0317A51AEB2BD8
:1037D00003130914ED2B0313091083120317330885
:1037E000B5070318B60AB70A031D052C3608CC0026
:1037F00003135E02031C002C03173608B400032CCD
:103800005E080317B400B501B60183120317470819
:10381000C8070318C90ACA0A031D122C4908CB009D
:10382000C801C901831203174C084B0203181B2C53
:103830004B08BD001D2C4C08BD008B1383120317D1
:103840006A08B8070318B90ABA0A031D452C3908D3
:10385000C60003138618412C2C183B2C081A3B2C4D
:10386000831203173908083C03183E2C39080A3C18
:103870000318412C3B2C03130814412C831203130F
:10388000081083120317B801B9018B1703138312B1
:10389000A71C5A2C2608CD3C0318562CDF0A5F08BB
:1038A0000A3C03185D2C0317A5175D2C2608C73C9E
:1038B000031C5D2CDF010317A513031383128A1168
:1038C0000A12672F03138312A00114309500A10080
:1038D000A2000317831690011110111191106400BA
:1038E0008B13031383121F308500FF308600B9301D
:1038F000870003178316B830911C383003138312E6
:1039000088000E30890083163F308500F93086002C
:1039100099308700203088000E308900831283019F
:10392000233084008001840A841F922CA0308400FC
:103930008001840F982C8317103084008001840A42
:10394000841F9E2C923084008001840FA42C83134A
:1039500083169401B03093008312363094008C119A
:1039600083128630810083168230810083120B110E
:103970008B101A089A0198018316980183129030CF
:1039800098008316403099002030980010309F0036
:10399000831280309F00831603178901DF3088006F
:1039A00083120313910195019601003092000C30AF
:1039B00097008316C73092008312121583160B17D7
:1039C0008B168C1532168312A814B630AE00033055
:1039D000AF000230B2000030B3006430B7001930DD
:1039E000B800FA30B4009530B5000130B6000330AD
:1039F000BC00BB00AD00E230A3000430A400503096
:103A0000D900C330DA000030A50003171030EC00F5
:103A10002730ED0010309200103095008316BC3036
:103A20009E0009309F00031383122C14AC10103039
:103A3000EB002730EC00C430DB000930DC00203024
:103A4000C5002B162714E230DE0003178316900002
:103A5000B830CB000B30CC002C30CE000430CF007F
:103A60008830D1001330D2000530D400DC30D300D0
:103A7000911C462D03138312861D6F2C000000003D
:103A8000861D6F2C00000000861D6F2C031383120F
:103A9000061F4E2DAA15831693148312051E542D4E
:103AA0002A15831613158312861F5A2D2B1483167D
:103AB00093158312200895001F149F148B178A11E9
:103AC0000A12672FFF3FFF3FFF3FFF3FFF3FFF3FD0
:103AD000FF3FFF3FFF3FFF3FFF3FFF3FFF3FFF3FF6
:103AE000FF3FFF3FFF3FFF3FFF3FFF3FFF3FFF3FE6
:103AF000FF3FFF3FFF3FFF3FFF3FFF3FFF3FFF3FD6
:103B0000FF3FFF3FFF3FFF3FFF3FFF3FFF3FFF3FC5
:04400E00CA23FF3F83
:1042000000000000000000000000000000000000AE
:10421000000000000000000000000000000000009E
:10422000000000000000000000000000000000008E
:10423000000039007B002F000000000008004C0047
:104240000000000001000200620002000F00A80050
:1042500004000C00210000000100080008003900E3
:104260007B002F000600020041000000000000005B
:10427000DF000E000A00000087000C00250001008E
:10428000000006008000060000000000230000007F
:10429000BF00030000000000020030007B002F0080
:1042A000060002000500000008000000C4000E0027
:1042B00017000000CB000900AF00040080000700D9
:1042C000400008001800060023000000B8000400A9
:1042D00000000000030033007B002F0006000200F6
:1042E0000300000000000000EC000E000A000000C7
:1042F00036000C00C0000000C000070000000800ED
:10430000A8000C0023000000F700030000000000DC
:10431000040035007B002F000600020005000000AD
:1043200000000000F9000E0009000000000000007D
:104330002E002500800008004000090070000800E1
:104340000C0000002E0025000000000005003800D1
:104350007B002F00060002000300000000000000A8
:10436000F9000E000C00000035000C00C000000039
:104370008000080080000900F8000700210000000C
:10438000DB00030000000000060039007B002F0066
:10439000060002000500000000000000F9000E0009
:1043A0001500000084000900DD0004000000070083
:1043B000000007001800060027000000E6000400C7
:1043C00000000000070039007B002F0006000200FB
:1043D000030000000000000007000F000A000000BA
:1043E0003F000C00CD000000000006008000060029
:1043F0001800060027000000E40003000000000091
:08400000FF3FFF3FFF3FFF3FC0
:00000001FF
