:020000040000FA
:100000009CCF1895189518951895189518951895CA
:100010001895189518951895189518951895189578
:100020001895189518951895189518951895189568
:100030009CC41895D002B201000032008001CC1F90
:1000400021D00F7725D01ED004FD1FD018D017D097
:1000500016D005E81DD000E000937B0013D00064AB
:1000600017D010D004FFFDCF10D006E000937C0025
:1000700000E00093B20103D005D0006409C0000085
:100080000000089500917A00089500917A000061BF
:1000900000937A000895BD0100917A0004FF64C0C6
:1000A00000917A00006100937A000091780010912D
:1000B0007900EFE2F4E02EE034E0A2EBB1E04C9105
:1000C000442349F04A95A1F04A95A9F14A95B9F11E
:1000D0004A95E1F143C026E020937C0022853385D8
:1000E0004DD0238334830287138701E00C9336C0FD
:1000F000FD014181442329F442E04C9341E03BD08F
:100100000DC0413031F443E04C9347E034D042E03D
:1001100005C044E04C9343E02ED040E04183F90118
:1001200045815681400F511F56954795438354830F
:100130000583168313C01AD0008B118B0FC040E0CB
:100140004C9319D0F9010387148708C00FD0EEE74C
:10015000F4E02081318112D02083318300000091AE
:100160007A00006400937A00DB01089520E02C936C
:1001700020937C00089540937C000895200F311F48
:10018000369527950895E1EDF3E000E003834F9B5A
:1001900002C000E20383329B03C003810064038337
:1001A0004A9903C00381016003834B9B03C0038111
:1001B000026003834C9903C0038104600383189B8E
:1001C00003C00381086003831E9903C0038100619B
:1001D00003830895E1EDF3E0068101FD02C02B9A4F
:1001E00001C02B98068102FD02C02C9A01C02C98F8
:1001F000038100FF0DC0EFEEF3E0028113810936A9
:10020000114030F05D98E1EDF3E00581006105C03B
:100210005D9AE1EDF3E005810F7E0583058105FF21
:1002200002C05E9801C05E9A058100FF02C0599A23
:1002300001C05998058102FF02C02F9A01C02F9872
:10024000058101FF02C02D9A01C02D98058106FF8E
:1002500002C0299A089529980895F99B02C000E0E8
:100260000895F89430E032BD01BD10BDFA9AF99AB4
:10027000789401E00895F99B02C00FEF089510E013
:1002800012BD01BDF89A00B50895BA93AA938A9356
:1002900080E0A0E8B1E00C9108780838B1F53ED0D4
:1002A00000FD1AC0EFEEF3E01781E4EBF1E000810E
:1002B000101791F000E1D1DF002371F02FD0016021
:1002C0000283EFEEF3E026D0008381E0102F07E1F8
:1002D000E5E5F2E00083118321D001FD16C08823FB
:1002E000A1F417D02181E22FF0E03296E017F04020
:1002F00014F0021750F4102F01E1AFDF002329F0B2
:100300000DD00260028305D001838991A991B99132
:100310000895FD010781E4EBF1E00895E4EBF1E0DD
:1003200002810895AD01E1EDF3E005810F7B0583C6
:10033000E7EBF1E00091990207FF21C0A1E9B2E0EB
:1003400039D029F0258532D021F039D001C000E024
:100350000587A3E9B2E02ED029F0268527D021F029
:100360002ED001C000E00687A5E9B2E023D029F035
:1003700027851CD021F023D001C000E00787009121
:10038000990206FF08C0AFE8B2E014D011F017D010
:1003900001C000E004870091970207FF05C0E1ED6E
:1003A000F3E0058100640583DA01089530E0201749
:1003B000310708950D911C91202F212B0895A7E955
:1003C000B2E02C9120682C930895BD0100915E0449
:1003D00005FF06C0EDD003FF03C0F4D00061EBD0F1
:1003E00000915E0406FF06C0E3D003FF03C0EAD01D
:1003F0000062E1D0DDD003FF03C0E4D004600083DD
:10040000D7D0007621F400910E04007619F0DAD0EE
:100410000260008301ED13E0F801238D222311F027
:100420002A95238F278120FD09C02181213069F47D
:100430002081222351F4238D222339F427812E7F1A
:100440002783C3D0208128602083BFD020812E73D2
:1004500009F0AAD020912F04207921F420910E04D4
:10046000207909F0A1D0F801248D2B3A38F0E1E988
:10047000F2E09AD0F8012281216002C022812E7F11
:100480002283E7EBF1E02589222371F5D801159647
:100490002C9122FF12C020915E0424FF0EC0A3E124
:1004A000B2E079D038F4A1E9B2E02C91206192D089
:1004B000226002C075D02D7F2C93D80115962C9107
:1004C00022FF12C020915E0424FF0EC0A5E1B2E01D
:1004D00062D038F4A1E9B2E02C9120627BD0246094
:1004E00002C05ED02B7F2C9320813181213836438E
:1004F00020F420912F0425FF05C0A3E9B2E068D0C5
:10050000206102C04DD02F7E2C93D8012C91233036
:1005100031F52091800127FF22C0268137812F31BC
:10052000344028F0A5E9B2E053D0286003C0129609
:100530002C91277F2C93238D42855385403E554136
:1005400050F4243010F423950BC0E5E9F2E020814B
:100550002860208306C0222321F02A9501C020E0D4
:10056000238FF8012581E7E9F2E025FF03C0208110
:10057000206202C020812F7D2083F8010381E7E9FA
:10058000F2E002FF03C00081006402C000810F7B23
:100590000083DB0108952D913C912C3A3D40089554
:1005A000D80112962C91089520812160208308950E
:1005B00000912F0408950083EEE5F4E000810068C7
:1005C0000083089502D000810895EFE8F2E00895D5
:1005D0002C9121602C93D80112962C9108959A9217
:1005E0008A927A926A925A924A92B6D11C015CD14E
:1005F000258136810DE152D11695079516950795FF
:1006000016950795013320E0120730F00051104095
:100610009801028913894BD1F894E3E2F2E05AD1B0
:100620002381348104E43AD146E09ADC003420E0AE
:10063000120730F00551104098010585168537D115
:10064000F894E5E2F2E042D167EB71E081ED93E0EE
:100650002BD1008100FF19C0FC01078104FD15C0EA
:1006600023D14288538803E83CD1369527951795C6
:100670000795269517950795269517950795F8944C
:10068000E9E3F2E02BD11AD10EC0FC01058102FD95
:100690000AC0F89400E0E9E3F2E000830183789473
:1006A000FB0100830183FB010481158120813181DD
:1006B0000217130710F424833583F89404811581FD
:1006C000E9E7F2E007D1008100FF0CC045845684C1
:1006D0000DE007D145E04ADCF894EBE3F2E0FED010
:1006E000028313832FEE33E0F90187849088F89416
:1006F0000FE1402E7724B9D0E7E3F2E04082518247
:100700007894F90182809380402EAFD0FB0142861D
:100710005386F90105851685A3D0B4D0F894EDE48D
:10072000F2E0DCD006831783F9010081118198D0B3
:10073000A9D0FB01408551854017510710F400876F
:100740001187AEE5B4E0FD010285F89440E5409FD5
:10075000E3E1F2E080D00385F894409FE5E1F2E028
:100760007AD004811091990210FF05C04091970240
:10077000467009F40781F89410E0EBE1F2E0A6D0AE
:10078000FC01048D083228F00852104045E0E2DBFD
:1007900003C045E0DFDB1550F894E3EDF1E08ED0C7
:1007A000FB0100851185EDE8F2E090D0EEE7F4E082
:1007B00000811181E3E5F3E081D0FC011381058123
:1007C000E5E5F3E07ED010816FD00081E7E5F3E04E
:1007D00078D003811481E9E5F3E070D065D003811E
:1007E0001481EBE5F3E06AD000E811E05C91F801D8
:1007F0004481EDE5F3E0B0D1FC01448DEFE5F3E099
:1008000040837182FD0152854385E1E6F3E0A4D186
:1008100040918A0050918B00E3E6F3E09DD1F9010D
:1008200055814681E5E6F3E097D1F8010181128117
:10083000E7E6F3E043D0F9011781FC010681E9E620
:10084000F3E03CD0C10174D04990599069907990FF
:10085000899099900895008211827894FD010895FD
:10086000143010F00FEF13E00895499C502C612CC8
:10087000489C402C510C671C771C769467945794C5
:100880004794089542E3419F502D409F402D510DC4
:100890008A0145E065DB035F1F4F0895039F102D1C
:1008A000029F002D110D0895EFE2F4E0089546E057
:1008B00057DBA8018901041B150B089500831183E0
:1008C000089500831183EEE0F4E00895008311831E
:1008D00078940895FBDFEEE0F4E00895F7DFFB0184
:1008E000089530E0059D102D212D049D002D110D42
:1008F000231F331F089500E01091D40315FD01E07C
:1009000016FD0260089528D08A93AEECB1E08C9178
:100910005797F1DF801721F400E058960C9307C039
:1009200058960C9103950C93063008F004D08991E9
:10093000A991B991089510D0AEECB1E0DCDF0C9331
:10094000102F1296110F106B1C93139700E00C934D
:100950001093BA001CD1ECCFBA93AA9308951BD17F
:10096000016016D11FD1006813C1F6DF8A93FA9394
:10097000EA933A922A921A920A927A936A935A9333
:100980004A933A932A931A930A938FB7A7EBB1E04D
:1009900000E0FD01048B4091B900487F028D23EDFA
:1009A00031E012E0019F200D311D16894058A1F061
:1009B000405209F495C0485009F496C0405109F4DA
:1009C000A7C0485409F4B1C0405609F0ACC001E0DA
:1009D000068B00E0008BADC05091BB004089113008
:1009E00061F4442309F078C05F3F29F002E0068BF0
:1009F000528F01E0EFCF0FE09BC0123009F06CC0C6
:100A00004330C8F7413029F4528BC1D002E0008B4B
:100A100092C0423009F08FC0428970E0043258F031
:100A2000083248F4043219F4409365044EC055234B
:100A3000F90192D04AC0033541F4E9E7F2E070834E
:100A40007183FD017483758340C00D3541F4EDE879
:100A5000F2E070837183FD017087718736C00E35B7
:100A600059F4B3DD208124230FEF022720812023B6
:100A700033272083718329C00F3519F4E1E9F2E0AF
:100A8000F1CF003619F4E3E9F2E0ECCF013619F4C6
:100A9000E5E9F2E0E7CF023641F447FF16C0E7E9A7
:100AA000F2E000810F77008310C0033621F4E9E9FA
:100AB000F2E04083DFCF003C41F4413019F401E023
:100AC000058B03C04F3F09F4758B61D003E0FD0136
:100AD000008B09E0068B2FC00FE0068B05E82AC0CB
:100AE000103139F100E124C0103161F401E1068BCD
:100AF00001E0018BF90120813181FD01338B2093CD
:100B0000BB0017C00FE1068B0FEF0093BB00E6CFD1
:100B10001131C1F701890130A9F702E0018B038986
:100B20000093BB0006C000E003C019DF00E0FD0138
:100B3000068B05EC2DD08FBF099119912991399120
:100B40004991599169917991099019902990399019
:100B5000E991F991ECDE189540835183089522D0F4
:100B600007FD14C006B1E7EBF1E00073003311F4A8
:100B700000E004C00489093018F40395048B08953B
:100B800000E0048B08D0006803D001D0089505EC84
:100B90000093BC00089504E903D00F7D01D00F7EBF
:100BA0000093BC000091BC000895E0E8F1E00181F1
:100BB00012811093C5000093C40000E00093C000B0
:100BC00000E10093C10006E00093C200089570E0C8
:100BD000200F371FF9010081003328F00A3318F481
:100BE000402F405306C0013420F0073410F4402F4A
:100BF0004753123079F44295407F0181003320F051
:100C00000A3310F4005305C0013420F0073410F407
:100C10000753400F042F08955B2F0A2E402F612F9A
:100C2000D90100E010E06623B9F0A40FB01F262F11
:100C300016D015D0ED91E03328F0EA3318F4F0E047
:100C4000F09706C0E13430F0E73420F4F0E0F79795
:100C50000E0F1F1F2A9561F7A02DB52F0895000FC5
:100C6000111F000F111F089540E020E030E0F9014E
:100C7000E058FE4F6185460F23950217B8F7042F01
:100C800008953B2F4A2FA0E8B1E0FD0105810395AF
:100C90000583053008F444C000E005830381048324
:100CA000043058F000850230C8F100E006830C9152
:100CB00000680C9300E0038333C00230B0F7068174
:100CC000043118F40395068314C0EFEEF3E000E05E
:100CD00010E000830183058706870787008B038761
:100CE000048700870683058300E50093ED03FD017B
:100CF00010870C910F770C93078110E0E00FF11F24
:100D0000268DFD012183128303950783043108F0AA
:100D100017831093C5002093C400CCCF03950087A0
:100D2000A42FB32F08954A92BA93AA939A938A93C1
:100D3000C8D007FFA9C0A0E8B1E0C3D004FD9BC0A4
:100D4000C0D003FD98C0BDD002FD95C01091C60073
:100D5000123049F40C9101600C9302E0FD0101870F
:100D600001E0058F8DC0153029F40C9100610C93C2
:100D700005E0F4CFFD01058D30E0E00FF31F118792
:100D80008FEE93E01C9110FF51C00C3009F04EC063
:100D9000FD01358F0AE098D00BE019DF401609F00D
:100DA0005FC08AD001E085D02281338194D0228334
:100DB000338323853485200F311F238734877CD0EC
:100DC00004E077D02081318186D020833183218552
:100DD0003285200F311F21873287008503950087D8
:100DE0000632C8F0A9010BE130E0222453D0231FC2
:100DF000331F56D005871687218622864385548562
:100E00000BE130E047D0221D321D4AD00787108BFE
:100E10002386248620865AD007E04BD0068356D0FE
:100E200009E047D005835CD00E7F19C014FF18C0BD
:100E30000730B1F4FD01358F05E046D006E0C7DE8E
:100E4000401671F443D001E0E7DE0093ED033ED09D
:100E500003E0BDDEFC01078343D00F7E08600C93E6
:100E6000FD01058D0395058F033150F00C910E7E29
:100E70000C9300E076CF00E0FD01058F0091C600E5
:100E800020D0037E0093C00089919991A991B991D6
:100E900049900895059F102D212D049F110D08954F
:100EA000012F122F232F2695179507951695079535
:100EB0000895B2DEFC0108959D01275F3F4F13E0C6
:100EC00008950091C0000895CFDE402E9D01275F58
:100ED0003F4F12E00895200F311F36952795089552
:100EE000FD010381083C10F4039503830C910895E0
:100EF0000EEB04B900E005B907B908B902E60AB972
:100F000000E60BB901E010E008951B2F2A2FEEE058
:100F1000F4E0A6EDB3E00C9101FF09C004890023C1
:100F200019F00A95048B08C00081016004C006E92D
:100F3000048B00810E7F0083EFE2F4E00C9102FF4E
:100F400009C000A1002319F00A9500A308C0008180
:100F5000016004C00AEF00A300810E7F0083A22F6E
:100F6000B12F08955B2F6A2F00E0E1EDF3E016A9A1
:100F7000139516AB143611F406AB03C0123308F008
:100F800001E01681197F168310811330E1F532815B
:100F900010912F0410FF08C0158115FF05C03323E1
:100FA00019F4168112601683158115FF02C03323D0
:100FB00051F11181113041F0258121FF05C001302F
:100FC00019F426812260268340910E0420912F047B
:100FD000242B287F39F420915E0427FD03C023A130
:100FE00022FF03C025D014600DC0113061F43323FB
:100FF00019F41681126006C0013019F416811460CC
:10100000168316D01683A9E9B2E01C9114FF03C021
:101010000FD0146016831C9115FF07C009D01683EA
:10102000013019F4012F04600683A62FB52F08950F
:1010300016811D7F0895AC01DBD0008911892589B7
:101040003689200F311F258B368B04890395048B3D
:10105000083038F000E0048B1FD0828B938B058B17
:10106000068BCA010895AC01EEE0F4E00385148517
:1010700020893189200F311F208B318B0785039503
:101080000787083038F000E0078706D08587968705
:10109000008B018BCA010895C90104969695879526
:1010A00096958795969587950895592F682FA0D086
:1010B0000381148120853185200F311F20873187DE
:1010C000078103950783003260F000E00783C901C0
:1010D00040968C0145E044D70583168300E00087E5
:1010E0000187862F952F089583D007A11FD1223D18
:1010F00013E0310740F0023010F4039507C000817F
:101100000061008304C0002311F00A9507A3008149
:1011100000FF32C0243C310718F0046000830AC08D
:1011200061D0293F00D118F40081026005C024304D
:10113000310718F000810D7F00830091D80304FF70
:1011400020C002891389000F012F001F10E0111F1A
:10115000201B310B223FE7D018F40081026000838E
:101160002B3E324070F4E1EDF3E0058102FF09C04F
:1011700007810068078305C00260008309E001A7BA
:1011800002A7EEE0F4E0038DD1D02A3E13E0310750
:1011900040F0053010F4039507C000810061008322
:1011A00004C0002311F00A95038F008100FF14C0D2
:1011B0002C3A310718F0046000830AC013D0293894
:1011C000B2D018F40081026005C02639324048F0E0
:1011D00000810D7F008308950260008302E0078F85
:1011E00000A308952F39310710F40B7F0083089571
:1011F000EFE2F4E00895FCDF008100FF2FC003A1BF
:1012000095D0203B11E0310738F04789508D628935
:1012100073894617570740F4043610F4039507C046
:1012200000810062008304C0002311F00A9503A32B
:1012300005A116A1223F324060F4083E23E01207C8
:1012400020F426D105A316A30EC0008100680083F8
:101250000AC0012B41F005A1FDD2F4CF00E003A3A9
:1012600004A305A306A3EEE0F4E0008100FF41C063
:1012700007895CD0233F11E0310798F445855685F6
:10128000483F534070F010E0043F21E012071CF487
:101290000395078B0DC0008100620083148F158FAA
:1012A00007C0002311F00A95078B20373CD078F453
:1012B000018D128D083E23E0120710F4E9D013C00F
:1012C00000810068008300E0048F058F08952639AF
:1012D000300740F12F39334028F5018D128D012B55
:1012E00029F0018DB7D2018F128F089500810F77F9
:1012F00015C000E0008F078B10E0018F028F008186
:10130000007E71F0048D158D083823E1120720F45A
:10131000BFD0048F158F089500810F710083089549
:10132000148F158F089502E03007089523813481CA
:101330000895E1EDF3E0038100FF28C000E000879D
:10134000078104FD02C001E007AB0385023010F401
:10135000039503870285002319F00A95028705C0CB
:1013600007810860078302E003870081002359F4A6
:1013700004A9002329F00A9504ABD9F501E034C093
:1013800004E604AB36C00330A1F531C0078104FD8B
:101390000EC007A9013059F40085033018F40395F5
:1013A000008705C00781006107830CE30187028580
:1013B000043110F4039502870385002319F00A9580
:1013C000038705C00781077F078304E10287008147
:1013D000033049F405A9002351F00A9505AB49F4FF
:1013E00000E0008306C000E0008304E604AB06E4EE
:1013F00005AB0185002319F00A950187089507813F
:1014000004FF04C00F7E078300E007AB08955B2F45
:101410006A2FEEDE008100FF2FC0038D148D22891C
:101420003389273543E0334090F0193120F430D030
:10143000038F148F2AC0A8EDB3E00C9102600C93C7
:1014400006E5078B408F00E0018F028F1EC0012B45
:1014500021F0038DFFD1038F148F018D128D003C7D
:101460002DE5120720F414D0018F128F0EC013D077
:10147000078B408F00E007C00ED013E0078B108F62
:1014800000E0018F028F038F048FA62FB52F0895E0
:101490000F5F1F4F0895A8EDB3E00C910D7F0C93E3
:1014A00008E90895BD0120E0A7EBB1E001ED13E0EC
:1014B000EFE8F2E095D0C1F4E1E9F2E091D0A1F4D7
:1014C000E3E9F2E08DD081F4E5E9F2E089D061F45E
:1014D00030912F04307F41F430910E04307F21F49D
:1014E00030915E0437FF3DC0F801338132FF03C005
:1014F00030AD32FF21E03081332309F042C040E0BB
:1015000042AB43AB32893436C0F53395328B22235C
:1015100041F1EFE2F4E020812F702083EEE0F4E06F
:1015200020812F702083EEE5F4E020812F77208347
:1015300020E0EFE8F2E051D0E1E9F2E04ED0E3E95B
:10154000F2E04BD0E5E9F2E048D0E7E9F2E02081B3
:101550002F7730E020833183FD013487358736874C
:101560003787F801238122FF17C020AD22FD14C068
:1015700028EC30E022AB33AB15C035893160358BB8
:10158000C6CF333021F630E0328B358930FFBFCF04
:10159000232F2E7F258BBDCF22A933A9233040E0F6
:1015A000340738F022A933A92150304022AB33ABA5
:1015B00010C02230304069F42D913C911197FD010B
:1015C000248335832681378120873187F80142AB18
:1015D00043AB238120AFDB0108952083218308954D
:1015E00040815181452B08951D010C01502FAEE023
:1015F000B4E021ED33E00FE214E0552381F0F8016F
:101600004081487F39F440915E0447FD03C0F901F1
:10161000478147FD51E04C91487F09F050E0F901C6
:1016200042AD638161FF08C0453018F4439542AF75
:101630000AC04781406206C0442311F04A95F7CFA3
:1016400047814F7D4783478145FD0EC041AD62FF15
:1016500007C0423318F4439541AF08C041E005C0CC
:10166000442311F04A95F8CF40E041838485958565
:101670004181678163FF19C04130B9F45230A8F04D
:1016800064A16471643189F4883C60E0960730F4A9
:10169000BC016F5F7F4F6487758730C06581616073
:1016A000658360E06687678729C0892B21F06485A0
:1016B000C8D064877587658160FF20C0442329F006
:1016C000523018F064A164FD16C0868597858E316E
:1016D000904038F4682F77856F5F7F4F66877787F4
:1016E0000DC065816E7F658367816F77678360E07A
:1016F0006487658703C0678163FFF3CF658160FFFF
:1017000042C060897189672BC9F58389948964A176
:101710006F716F3171F5678163FF2BC0823360E0B9
:10172000960720F5BC016F5F7F4F638B748B618DD3
:10173000613049F464A16970693029F060E0618F1B
:1017400065816E7F65836581697F6583552359F166
:1017500064A164FF28C0678163FF25C0FD01678124
:101760007085672BC9F067816DD026C061E0618FFD
:10177000E1CF892BE1F2638964D0D7CF608962D051
:10178000608B718BD4CF60E0638B648B618F64EC72
:1017900079E0608B718BD7CF58D069EB70E0FD0199
:1017A000618772870BC06C91607FC9F060E0FD01BA
:1017B0006187628760E273E067837087523009F562
:1017C000F901518D5130E9F4F80164857585672B75
:1017D00089F00485172F3ED00487158717C0FD01B7
:1017E00061857285672B31F361852CD061877287A3
:1017F0002CD0E4CF413051F4F90105810460058318
:1018000005C040E951E0F80144875587F901058199
:1018100002FF07C003AD02FD0FC00689097F01600A
:101820000AC003AD02FF05C0078104FF02C00160CA
:1018300007830689087F068B058103AFC001D101AC
:101840000895792F615070400895F90165816260B3
:10185000658308950150104008959D01E1EDF3E086
:1018600000912F0400FF02C0067019F006890F7E58
:1018700002C006890061068B068900FF1EC004FFB6
:101880000CC0DF01DC960C9104FD07C004EF11E0F1
:10189000078B108F06890260068B068901FF0DC039
:1018A0000789108D012B29F00789D4DF078B108F52
:1018B00004C006890C7F0460068B068902FF0EC0F7
:1018C00010912F0400910E04012B0E7F39F4038137
:1018D00000FF04C000915E04007631F004E6028F40
:1018E00005810F7D058308C0028D002319F4058151
:1018F0000062F8CF0A95028F068904AFD9010895D6
:101900000BD2D3D2A89500916000086100936000CB
:1019100008E2009360000FD848D919D202E0009382
:10192000B0000093B10008EC0093B30000E0009316
:10193000B20010E000938B0000938A000FEF109329
:10194000870000938600109385001093840002E3C3
:10195000009380000AE10093810004E100937C047D
:101960006FD37894A1EDB3E010C08BD9CCD700E051
:10197000D1960C93D19700E0D0960C93D09700E0CD
:101980009F960C939F9769DF25D40C91013009F045
:1019900082D3B99BFACFB99AA895F5D3A5DB0C9160
:1019A000002329F00A9529F0025049F00AC000E00E
:1019B00007C046D300E018DE95D2F7D802C002E097
:1019C00013DE9F965BD09F970A9549F00A9549F0E0
:1019D0000A9551F00A9561F00A9569F0D4CF95DA2D
:1019E000D2CF50D0A6DCCFCF26DB3DDB9CD9CBCFEE
:1019F00049D001DCC8CFD09641D0D0970A9579F074
:101A0000025079F00A9579F00A9579F00A9579F003
:101A10000A9579F00A9539F0025069F0B0CFF7DCF9
:101A2000AECF69D0ACCF41DBAACF7CD4A8CF3ADD12
:101A3000A6CF98DAA4CFD19621D0D197025081F0C9
:101A40000A9581F00A9581F00A9581F00A9581F056
:101A50000A9581F00A9581F0025009F486CF8BCF68
:101A60007CD089CF7CD887CF0AD185CF0AD983CFC4
:101A70000CD481CFAAD47FCFB2D57DCF0C91039562
:101A80000C9308953B2F4A2FEEE5F4E0A4EDB3E06C
:101A90000C9103FD08C0078D03FF05C004850F3FAF
:101AA00011F0039504870C9104FD08C0078D04FF15
:101AB00005C005850F3F11F0039505870085118549
:101AC0000E3E22E0120728F40F5F1F4F0087118798
:101AD0000DC000E010E000870187048502870585BE
:101AE0000387008108600083148715870C91078F96
:101AF000A42FB32F0895EEE5F4E000912F0400FF2A
:101B000025C00789108D083E23E0120728F40F5FD7
:101B10001F4F078B108F089500810061008302859D
:101B2000093118F40081006204C0033318F0008109
:101B30000F7D00830385093118F40081006404C01F
:101B4000033350F000810F7B0083089500E0078B82
:101B5000008F00810F7E00830895AD0100910E0477
:101B600000FF7FC0A1E4B4E0ED91FC915397F6959E
:101B7000E795F695E795E13530F002E0E09FF0015A
:101B8000E055F04001C0F0E00C9103FF02C0E8EC2A
:101B900007C0E65AFF4FEF3F00E0F00710F0EEEF0E
:101BA000F0E0A2E6B4E00C911497E017F04050F496
:101BB000FD01068D002319F00A95068F0AC00481E5
:101BC0000A9506C004E15E960C935E970E2FFD0108
:101BD000048317810091CC0101300091990221F416
:101BE00000FF14C014830BC000FF09C0048101175B
:101BF000C8F3E7E9F2E000810660008307C0E7E987
:101C0000F2E00081097F10E0008311830C9103FF53
:101C100013C0077F0C93FD010285073318F003857D
:101C2000073328F4038D0F3F39F00D5F04C0038D97
:101C3000002311F00A95038FFD01248130E0038D0C
:101C400010E0020F131F10938B0000938A00009185
:101C50008A0010918B00113080F00FEF30938B00D1
:101C60000AC003FF05C008EC10E010938B0003C00E
:101C700000E000938B0000938A00DA010895AD0123
:101C8000EEE7F4E00091F4030871038111F00460C1
:101C900001C00B7F03830281208131812D3B12E043
:101CA000310740F00A3018F4039502830DC0038118
:101CB000016009C02A3F304038F4002311F00A9532
:101CC000F4CF03810E7F03830091ED030A3A18F4E9
:101CD00003810D7F04C0053B18F00381026003837C
:101CE0000381002369F0AFE2B4E00C9108600C932B
:101CF0000381067079F0EEE0F4E00081086009C02D
:101D0000EFE2F4E00081077F0083EEE0F4E0008181
:101D1000077F0083DA010895BA93AA9300E1ABD25A
:101D2000A4EBB1E00F3F09F400E10C9301E1A3D271
:101D3000043108F000E011960C93119700E0129620
:101D40000C930E9100938701A991B9910895E3ED49
:101D5000F1E02FEF00E010E0019301932A95D1F715
:101D600001E5E3EDF1E00487158701E006871787B9
:101D700001E81EE3048F158F02E51EE004A315A3FE
:101D80000FE310E004A715A701E706A717A701E1D5
:101D900013E000AB11AB01E918E102AB13AB00E5B6
:101DA00013E5EFE4F2E079D00DE419E4E1E5F2E0C7
:101DB00074D002E010E0E3E5F2E06FD01091B401DE
:101DC00007E1E5E5F2E069D000EC10E0E9E9F2E0D6
:101DD00064D000E410E1EBE9F2E05FD00CEA1DE032
:101DE000E3EAF2E05AD00CE51CE0EDEAF2E055D06F
:101DF00001EE1BE0EFEAF2E050D006E613E0E1EB83
:101E0000F2E04BD004E3E3EBF2E047D000E014E370
:101E1000E7ECF2E042D000E411E0E9ECF2E03DD082
:101E200000E014E0E3E0F3E038D000EE15E1E9E093
:101E3000F3E033D000EC19E0EFE0F3E02ED000E166
:101E400010E0E1E1F3E02CD0E5E1F3E026D002E19F
:101E500010E0E7E1F3E021D004E6EDE1F3E01DD08E
:101E6000EFE1F3E01AD006EF11E0E1E2F3E015D084
:101E700008EE14E0E3E2F3E013D0E5E2F3E00DD086
:101E80000DEC16EEE7E2F3E008D006EE10E0E9E232
:101E9000F3E003D000EDE5E3F3E000831183089560
:101EA0000083118300ED19E008959D01E0E8F1E061
:101EB000078138D00EEB00935B04E1EDF3E000E521
:101EC000048F02E3058F10932F0410930E041583E3
:101ED00004EC19E0008B118B04E1038F00E0008318
:101EE000D90108959D01E0E8F1E0008107FD08C0F7
:101EF0000091B501078316D01083158313831683D1
:101F000000E000930E04EFE2F4E000E911E0048742
:101F1000158700E000830093810403E00093D10360
:101F2000D901089510E0D801A256BE4F0C9101834B
:101F30001283089500008895FECF0FE70DBF01E0E2
:101F40000EBFC0E4D1E0D4D7002309F025D0D8DCFF
:101F5000F1DFF0CF4A951AF0000F111FFBCF089563
:101F60004A951AF016950795FBCF08954A952AF0E1
:101F70003695279517950795F9CF089520E006D057
:101F8000E9F70895259102D0E9F708952D930150BE
:101F90001040202F212B089584E390E0FC0105914F
:101FA0001491FC013296A591B491FC0134962591CF
:101FB0003491422F432B19F0F901E4DF01C0DEDF39
:101FC000069610E08034910748F308950000000061
:101FD0000000000000000000000000000000000001
:101FE00000000000000000000000CFCED0CDD1CC1A
:101FF000D2CBD3CAD4C9D5C8D6C7D7C6D8C5FFFF98
:02000004008278
:03000000E2C5F95D
:02000004008377
:01000000FF00
:02000004008179
:10000000FFFFFFFFFFFFFFFFFFFFFFFFFFFFFFFF00
:100010001101FFFFFFFFFFFFFFFFFFFFFFFFFFFFDC
:10002000FFFFFFFFFFFFFFFFFFFFFFFFFFFFFFFFE0
:10003000FFFFFFFFFFFFFFFFFFFFFFFFFFFFFFFFD0
:10004000FFFFFFFFFFFFFFFFFFFFFFFFFFFFFFFFC0
:10005000FFFFFFFFFFFFFFFFFFFFFFFFFFFFFFFFB0
:10006000FFFFFFFFFFFFFFFFFFFFFFFFFFFFFFFFA0
:10007000FFFFFFFFFFFFFFFFFFFFFFFFFFFFFFFF90
:10008000FFFFFFFFFFFFFFFFFFFFFFFFFFFFFFFF80
:10009000FFFFFFFFFFFFFFFFFFFFFFFFFFFFFFFF70
:1000A000FFFFFFFFFFFFFFFFFFFFFFFFFFFFFFFF60
:1000B000FFFFFFFFFFFFFFFFFFFFFFFFFFFFFFFF50
:1000C000FFFFFFFFFFFFFFFFFFFFFFFFFFFFFFFF40
:1000D000FFFFFFFFFFFFFFFFFFFFFFFFFFFFFFFF30
:1000E000FFFFFFFFFFFFFFFFFFFFFFFFFFFFFFFF20
:1000F000FFFFFFFFFFFFFFFFFFFFFFFFFFFFFFFF10
:10010000FFFFFFFFFFFFFFFFFFFFFFFFFFFFFFFFFF
:10011000FFFFFFFFFFFFFFFFFFFFFFFFFFFFFFFFEF
:10012000FFFFFFFFFFFFFFFFFFFFFFFFFFFFFFFFDF
:10013000FFFFFFFFFFFFFFFFFFFFFFFFFFFFFFFFCF
:10014000FFFFFFFFFFFFFFFFFFFFFFFFFFFFFFFFBF
:10015000FFFFFFFFFFFFFFFFFFFFFFFFFFFFFFFFAF
:10016000FFFFFFFFFFFFFFFFFFFFFFFFFFFFFFFF9F
:10017000FFFFFFFFFFFFFFFFFFFFFFFFFFFFFFFF8F
:10018000FFFFFFFFFFFFFFFFFFFFFFFFFFFFFFFF7F
:10019000FFFFFFFFFFFFFFFFFFFFFFFFFFFFFFFF6F
:1001A000FFFFFFFFFFFFFFFFFFFFFFFFFFFFFFFF5F
:1001B000FFFFFFFFFFFFFFFFFFFFFFFFFFFFFFFF4F
:1001C000FFFFFFFFFFFFFFFFFFFFFFFFFFFFFFFF3F
:1001D000FFFFFFFFFFFFFFFFFFFFFFFFFFFFFFFF2F
:1001E000FFFFFFFFFFFFFFFFFFFFFFFFFFFFFFFF1F
:1001F000FFFFFFFFFFFFFFFFFFFFFFFFFFFFFFFF0F
:00000001FF
