:020000040000fa
:080000000002040000000000f2
:020000040000fa
:100400004fa4200000ff2000000188000000000031
:100410000c00070080a02000010020001100070050
:10042000000020000000e000020032000000020096
:10043000000000003a080200000000000040da005e
:100440000000fe004440a900000020000000e00081
:100450000300320000002000a00188004440a800f2
:100460000000060091018800800078000000eb0089
:1004700015003700e280400032a0b4009101ba00bc
:10048000e280400032a0b4009102ba00e280400055
:1004900032a0b4000002eb00472bde00f507b200eb
:1004a000602ce10004003a000059eb008301e900f0
:1004b000fdff3e00040037006128e100010032002a
:1004c0000082eb00040007001101ba000200e00006
:1004d000e8ff3a00000006003159ba008301e90044
:1004e0000c0032002159ba008301e90008003200f3
:1004f0000400e00003003a00e280400032a0b400b3
:10050000f5ff370011d9ba008301e900faff3a007c
:100510008100e800e180400032a0b4000000060045
:10052000839f68000100e00002003d0060001000b1
:10053000e08018000300e00002003d0060011100af
:10054000e0811900050007004f00e00002003b00b9
:1005500060001000e0801800000006006022b80073
:10056000060220000000d0008180d2000482d20068
:100570008582d2000000a0000202520083825a004d
:10058000030031000202420083824a000000a10001
:0c0590000603e900f3ff3a00000006003b
:020000040000fa
:0200000401f009
:04000c00f8ff0000f9
:020000040000fa
:0200000401f009
:040010007dff000070
:020000040000fa
:0200000401f009
:040014007fff00006a
:020000040000fa
:0200000401f009
:04001800ffff0000e6
:020000040000fa
:0200000401f009
:04001c00deff000003
:020000040000fa
:10000800da0b0000a20b0000aa0b0000b20b0000e4
:10001800ba0b0000da0b0000da0b0000da0b000064
:10002800da0b0000da0b0000da0b000014080000fd
:10003800da0b0000da0b0000da0b0000da0b000024
:10004800da0b0000da0b0000da0b0000da0b000014
:10005800da0b0000da0b0000da0b0000da0b000004
:10006800da0b0000da0b000026080000da0b0000ab
:10007800da0b0000da0b0000da0b0000da0b0000e4
:10008800da0b0000da0b0000da0b0000da0b0000d4
:10009800da0b0000da0b0000da0b0000da0b0000c4
:1000a800da0b0000da0b0000da0b0000da0b0000b4
:1000b800da0b0000da0b0000da0b0000da0b0000a4
:1000c800da0b0000da0b0000da0b0000da0b000094
:1000d800da0b0000da0b0000da0b0000da0b000084
:1000e800da0b0000da0b0000da0b0000da0b000074
:1000f800da0b0000da0b0000da0b0000da0b000064
:10010800da0b0000da0b0000da0b0000da0b000053
:10011800da0b0000da0b0000da0b0000da0b000043
:10012800da0b0000da0b0000da0b0000da0b000033
:10013800da0b0000da0b0000da0b0000da0b000023
:10014800da0b0000da0b0000da0b0000da0b000013
:10015800da0b0000da0b0000da0b0000da0b000003
:10016800da0b0000da0b0000da0b0000da0b0000f3
:10017800da0b0000da0b0000da0b0000da0b0000e3
:10018800da0b0000da0b0000da0b0000da0b0000d3
:10019800da0b0000da0b0000da0b0000da0b0000c3
:1001a800da0b0000da0b0000da0b0000da0b0000b3
:1001b800da0b0000da0b0000da0b0000da0b0000a3
:1001c800da0b0000da0b0000da0b0000da0b000093
:1001d800da0b0000da0b0000ee050000a6070000ad
:1001e800da0b0000da0b0000da0b0000da0b000073
:0801f800da0b0000da0b000035
:020000040000fa
:10020800da0b0000c20b0000c80b0000ce0b000088
:10021800d40b0000da0b0000da0b0000da0b000048
:10022800da0b0000da0b0000da0b000014080000fb
:10023800da0b0000da0b0000da0b0000da0b000022
:10024800da0b0000da0b0000da0b0000da0b000012
:10025800da0b0000da0b0000da0b0000da0b000002
:10026800da0b0000da0b000026080000da0b0000a9
:10027800da0b0000da0b0000da0b0000da0b0000e2
:10028800da0b0000da0b0000da0b0000da0b0000d2
:10029800da0b0000da0b0000da0b0000da0b0000c2
:1002a800da0b0000da0b0000da0b0000da0b0000b2
:1002b800da0b0000da0b0000da0b0000da0b0000a2
:1002c800da0b0000da0b0000da0b0000da0b000092
:1002d800da0b0000da0b0000da0b0000da0b000082
:1002e800da0b0000da0b0000da0b0000da0b000072
:1002f800da0b0000da0b0000da0b0000da0b000062
:10030800da0b0000da0b0000da0b0000da0b000051
:10031800da0b0000da0b0000da0b0000da0b000041
:10032800da0b0000da0b0000da0b0000da0b000031
:10033800da0b0000da0b0000da0b0000da0b000021
:10034800da0b0000da0b0000da0b0000da0b000011
:10035800da0b0000da0b0000da0b0000da0b000001
:10036800da0b0000da0b0000da0b0000da0b0000f1
:10037800da0b0000da0b0000da0b0000da0b0000e1
:10038800da0b0000da0b0000da0b0000da0b0000d1
:10039800da0b0000da0b0000da0b0000da0b0000c1
:1003a800da0b0000da0b0000da0b0000da0b0000b1
:1003b800da0b0000da0b0000da0b0000da0b0000a1
:1003c800da0b0000da0b0000da0b0000da0b000091
:1003d800da0b0000da0b0000ee050000a6070000ab
:1003e800da0b0000da0b0000da0b0000da0b000071
:0803f800da0b0000da0b000033
:020000040000fa
:10059c000000fa0090022000303a880044c7bf00e7
:1005ac00f043b20044e7b70041742000914078005a
:1005bc0000ceb30000c0600044e7b700320020005a
:1005cc0081072000a00920003374200081497800a5
:1005dc0080497800824978001200200061042000d4
:1005ec007005200023742000814978008049780030
:1005fc008249780043c7bf0002c7b3008240600045
:10060c0000c3b30080cf5000faff3a0042c7bf00ce
:10061c000042b2000004e000fcff320050e7a800ea
:10062c0050c7a90051a7a80051c7bf007040b30024
:10063c0051e7b70051e7a80051c7bf000044b20012
:10064c000004e000fcff32000080fa00000006000d
:10065c000000fa00c8a2a900c962a900c982a900b9
:10066c00c9e2a900cd82a900cca2a800cd62a90044
:10067c00cde2a800b16b20009140780000ccb30013
:10068c0000c0600001c2b30001407000bbe6b700bf
:10069c00016f20009140780000ccb30000c06000d6
:1006ac0071c2b30001407000f0e6b7000080fa00a0
:1006bc00000006000000fa00806120002020880065
:1006cc0023e4a90023c4a900314220009140780002
:1006dc0030cfb30000c060000034a00023e4b700aa
:1006ec0022c4bf00f043b20022e4b70020c4bf0014
:1006fc00f043b20001c8b3000140700020e4b70021
:10070c002004a9002124a900414220009140780036
:10071c00c0cfb30000c0600024e4b70024c4bf0005
:10072c006740600024e4b7002444a90000012000c5
:10073c0040218800000120008021880090002000ca
:10074c0030218800c06c200090218800414320009b
:10075c009140780000ccb30000c060007040b30042
:10076c0034e4b70035c4bf006f40600001c9b3006a
:10077c000140700035e4b70043e4a90043c4a9006c
:10078c00314420009140780030cfb30000c06000ad
:10079c000034a00043e4b7004224a80042c4bf00c8
:1007ac00f043b20042e4b70040c4bf00f043b200d3
:1007bc0001c8b3000140700040e4b7004004a90038
:1007cc004124a9004144200091407800c0cfb300df
:1007dc0000c0600044e4b70044c4bf006740600040
:1007ec0044e4b7004444a900900020003022880063
:1007fc00414520009140780000ccb30000c060005f
:10080c000004a00054e4b70055c4bf006f40600062
:10081c0001c7b3000140700055e4b70020208000f0
:10082c000000d100902288000080fa000000060031
:10083c000000fa000103a90000e3a90000c3a8000e
:10084c0000a3a9000183a8000083a90001302000a7
:10085c009140780080cfb30000c060005040b300de
:10086c0000e3b700a13020009140780000ceb30027
:10087c0000c060005040b3000ae3b700b130200064
:10088c009140780000ceb30000c060000024a000ae
:10089c000be3b70091c0a90091e0a900a1c0a90089
:1008ac00a1e0a900b10d20009140780080cfb300e9
:1008bc0000c060005040b300dbe0b70001e3a800cb
:1008cc000080fa00000006000000fa0040c5bf00de
:1008dc00f043b20040e5b7004005a800803e200080
:1008ec00102a88008640a900d10a20009140780087
:1008fc0080cfb30000c060006040b300ade0b70033
:10090c009640a80041e5a8000080fa00000006000f
:10091c000200fa0010c0b3003eeab70091c0a90073
:10092c0091e0a900a1c0a800a1e0a8002700370011
:10093c0031218000401f2000808f500006003e00b7
:10094c00302180007e004000302188003021800062
:10095c00302288001300370031218000401f200016
:10096c00808f50000a0036003121800000322000b8
:10097c00808f500006003e00302180006a0040004d
:10098c00302188003021800030228800050037009b
:10099c00302180004006b0003021880030218000da
:1009ac00302288003121800030512000808f50008f
:1009bc000400360040512000302188003021800096
:1009cc003022880030002000c70107003121800050
:1009dc0030512000808f5000d5ff3600b15180007f
:1009ec000040eb0010479800006b2300808f5000f4
:1009fc0002003e0011c0b30011479800b1518000b5
:100a0c000041eb00024f7800d06f2600808f500021
:100a1c000200360010c0b300004f78009e409000da
:100a2c001e41780002c070000004e0003600320065
:100a3c0010c0b30031eab7005c0207003200370087
:100a4c00202080007400400020208800212080009d
:100a5c0050c92000808f50000500360060c920006e
:100a6c002020880060c0b30031eab7004f020700b5
:100a7c002120800060f02f00008040003021880091
:100a8c0021208000708b2000808f500018003600d1
:100a9c00202080008040780080cfb30000c0600030
:100aac008044b000fce9b700fcc9bf000004e000c2
:100abc0002003a000040eb00fce9b700fcc9bf00a3
:100acc000080fb004300de000080fb004200dd00e4
:100adc008080e800008020000080400090007800ba
:100aec0020ea2f00008040003022880004003700ec
:100afc002020800021ea2f000100400030228800d5
:100b0c002000200078010700b151800000a42600cd
:100b1c00808f5000caff36002020800080007800b3
:100b2c00305f2f0000804000cf80de000052880034
:100b3c001152880000528000115280004f09dd00d4
:100b4c00c100de00810071004f00dd000052880002
:100b5c00115288000052800011528000c292210074
:100b6c00030020006bfe0700005288001152880021
:100b7c0000528000115280004f09dd00c100de00e0
:100b8c00810071004f00dd00005288001152880076
:100b9c000452800015528000e05080006101b900c1
:100bac000400be005bfe0700005288001152880052
:100bbc000052800011528000405088005150880033
:100bcc000040eb003eeab7000080fa00000006008f
:100bdc00809fbe00829fbe00841f78000000fa0038
:100bec00001980004500dd00d051880010198000ec
:100bfc004500dd00b0518800b1518000c0b6260020
:100c0c0001005000f04f88003ecabf000004e00015
:100c1c00c4003a00fdc9bf00e44f50000f003a0079
:100c2c00f14f800000cc20000180b900cf89de009c
:100c3c00410add004f01de000201720040508000cd
:100c4c0051508000020040008380480040508800d2
:100c5c00515088000040eb00fde9b700fdc9bf0012
:100c6c000040e800fde9b70042508000535080007e
:100c7c00f0ff270001002000800f5100818f5900e8
:100c8c0004003400f0ff27000100200040508800d1
:100c9c0051508800425080005350800010002800b2
:100cac00f1ff2f00800f5100818f590004003d008f
:100cbc0010002800f1ff2f00405088005150880090
:100ccc00f14f800030e622000180b9004109dd00bf
:100cdc004f00de0000007100cf88de00105088004d
:100cec00b051800080007800401426000180b900cb
:100cfc00410add004f00de0000007200cf88de00ec
:100d0c0020508800105080006101b90040508000d4
:100d1c005150800002014000838148002050800027
:100d2c00cf80de00020140008381480000e62a00eb
:100d3c00f1ff2f00020040008380480060508800c3
:100d4c00715088006250800073508000f0ff2300c7
:100d5c0001002000800f5100818f590005003400e4
:100d6c00f0ff2300010020006050880071508800c3
:100d7c000b003700625080007350800010002c0074
:100d8c00f1ff2f00800f5100818f590004003d00ae
:100d9c0010002c00f1ff2f0060508800715088006b
:100dac00e250800060508000715080000280b900d9
:100dbc004109dd004f00de0000007100cf88de002d
:100dcc0080508800915088008050800091508000a5
:100ddc0080007800c09221000088b900ce89de0026
:100dec00420add004e01de0002017200b04121001a
:100dfc000100200002004000838048008180d10067
:100e0c000080d300d04f8800d14f800050c9200003
:100e1c00808f50000900360060c920002020880017
:100e2c002120800060f02f000080400030218800dd
:100e3c00408920003022880035003700d14f8000d7
:100e4c00e0742000808f50000b003e00e074200006
:100e5c00202088002120800060f02f0000804000be
:100e6c00302188002120800020ea2f0000804000e3
:100e7c003022880026003700d04f800020208800c8
:100e8c002120800060f02f0000804000302188007d
:100e9c00d14f8000708b2000808f500018003600de
:100eac00202080008040780080cfb30000c060001c
:100ebc008044b000fce9b700fcc9bf000004e000ae
:100ecc0002003a000040eb00fce9b700fcc9bf008f
:100edc000080fb004300de000080fb004200dd00d0
:100eec008080e800008020000080400090007800a6
:100efc0020ea2f00008040003022880004003700d8
:100f0c002020800021ea2f000100400030228800c0
:100f1c00202080000000d10090228800f04f80003b
:100f2c000050880091c0a9000603a9000080fa00b7
:100f3c004f0278004f01be004f00be00004006007b
:100f4c00809fbe00829fbe000000fa002019800026
:100f5c00c500dd00007d200000804000d0508800de
:100f6c0030198000c0518800d05080006101b80059
:100f7c00b0508000c15080000201400083814800c5
:100f8c0014cabf000080fb0080004000e0a12000dc
:100f9c00008040001000780001002000000051008b
:100fac0081805900b0508800c1508800b05080003a
:100fbc00c15080004d09dd004300de0000007100cf
:100fcc00c308de00a051880042a120001241780025
:100fdc000280fb00d350800080004000e0a1200084
:100fec0000804000030878000240e80014eab700d3
:100ffc0014cabf00e84f500002003a000040eb005a
:10100c0014eab70091e0a9000623a9000080fa00b9
:10101c004f01be004f00be0000400600801f78004c
:10102c000000fa00c04f80000000e800c04f8800ac
:10103c008460a9000080fa004f0078000040060090
:10104c00801f78000000fa00cde2a80001e4a9009e
:10105c008640a90020c0b30031eab7000080fa0036
:10106c004f007800004006000000fa0048fd070021
:10107c0077fd07008ffd0700edfd070012fe07004e
:10108c00005327001800070001e4a80023e4a8007f
:10109c0023c4a80043e4a80043c4a8001cfe070016
:1010ac00cde2a9000000370033cabf00e44f500066
:1010bc0004003a00210007000040eb0033eab700bf
:1010cc00f9ff3700000000000000000000000000e5
:1010dc00000000000000000033cabf000040e80020
:1010ec0033eab700f0ff37000200fa00000f780077
:1010fc000000eb00c04f880000fa200010088800a8
:10110c009460a800510a200091407800f0c8b30008
:10111c0000c0600001c5b30001407000a5e0b7003d
:10112c0005e1a800c04f80009e0f5000fdff390064
:10113c0005e1a9000080fa00000006000400fa0096
:10114c00c151800060172000808f50000a003600cb
:10115c0030cabf000040e80030eab70030cabf0018
:10116c00e74f400006003600cde2a80050c0b300a7
:10117c0031eab700020037000040eb0030eab7005c
:10118c00a15180000040eb0030479800f020270070
:10119c00808f50000200360011c0b3003147980018
:1011ac00a15180000041eb0022479800000e260060
:1011bc00808f500002003e0010c0b3002047980002
:1011cc00be4090002e41900002c070000004e00070
:1011dc000a0032002ecabf000040e8002eeab70019
:1011ec002ecabf00e74f400006003600cde2a80033
:1011fc0010c0b30031eab700020037000040eb002a
:10120c002eeab700b15180000040eb001047980067
:10121c00708e2700808f50000200360011c0b30082
:10122c0011479800b15180000041eb00024f78004b
:10123c00a0e02500808f500002003e0010c0b300db
:10124c00004f78009e4090001e41780002c0700054
:10125c000004e000110032002fcabf000040e8007b
:10126c002feab7002fcabf00e74f40000d00360031
:10127c00cde2a800b1518000708e2700808f500005
:10128c000300360030c0b30031eab7000500370068
:10129c0040c0b30031eab700020037000040eb0059
:1012ac002feab700a1518000d0f82600808f5000a3
:1012bc0003003600c0ed2100e05188002500370006
:1012cc00a151800040cd2600808f500003003600d5
:1012dc0000f92100e05188001e003700a151800068
:1012ec00c0a12600808f500003003600300522007c
:1012fc00e051880017003700a1518000307626009d
:10130c00808f500003003600b0112200e05188009d
:10131c0010003700a1518000a04a2600808f500099
:10132c0003003600201f2200e0518800090037001e
:10133c00a1518000301f2600808f50000300360022
:10134c00e02c2200e051880002003700e03b220034
:10135c00e0518800d1518000e0518000808f500016
:10136c000a00390032cabf000040e80032eab70078
:10137c0032cabf00e74f400006003600cde2a8009d
:10138c0020c0b30031eab700020037000040eb0088
:10139c0032eab70031cabf000004e000010032009d
:1013ac00020007000080fa00000006000200fa00ac
:1013bc000040eb00004f780001e4a90001e3a90014
:1013cc0031cabf00004f780007003700cd82a8005b
:1013dc00409c200044ff0700cd82a900409c2000c7
:1013ec0041ff07001e4fe9001e04e000f7ff3a0022
:1013fc0031cabf00004f7800803821003aff070047
:04140c00f9ff3700ad
:020000040000fa
:101410003e0a00000600000002000000000000007c
:1014200000000000f8090000260000000200000093
:1014300000000000000004000000000000000000a8
:10144000000000000000000000000000000000009c
:10145000000000000000000000000000000000008c
:10146000de7f00001e0a00001000000000000000e7
:101470002e0a000010000000020000000000000022
:10148000000000000000000000000000000000005c
:101490000000000000080000f80100000200000049
:1014a000b808b20008c00800b408c80008b60800b0
:1014b000d008b80008d80800ba08e00008bc080046
:1014c000e808be0008f00800c008f80008c20800dc
:1014d0000009c60008080900c808100009ca080069
:1014e0001809cc0008200900ce08280009d20800fd
:1014f0003009d40008380900d608400009d808008f
:101500004809dc0008500900de08580009e008001e
:101510006009e20008680900e608700009e80800b0
:101520007809ea0008800900ec08880009f0080042
:101530009009f20008980900f408a00009f60800d4
:10154000a809f80008b00900fa08b80009fc08006a
:10155000c009000009c809000209d00009040900f7
:10156000d809060009e009000a09e800090c090089
:10157000f0090e0009f80900120900000a14090018
:10158000080a160009100a00180918000a1c0900a8
:10159000200a1e0009280a00200930000a2209003a
:1015a000380a240009400a00260948000a2a0900ce
:1015b000500a2c0009580a002e0960000a3209005e
:1015c000680a340009700a00360978000a380900f0
:1015d000800a3a0009880a003e0990000a40090082
:1015e000980a420009a00a004609a8000a48090012
:1015f000b00a4a0009b80a004c09c0000a500900a4
:10160000c80a520009d00a005409d8000a58090033
:10161000e00a5a0009e80a005c09f0000a600900c3
:10162000f80a620009000b00640908000b66090053
:10163000100b6a0009180b006c0920000b6e0900e2
:10164000280b700009300b00740938000b76090074
:10165000400b7a0009480b007c0950000b7e090002
:10166000580b800009600b00840968000b86090094
:10167000700b880009780b008c0980000b8e090024
:10168000880b900009900b00940998000b960900b4
:10169000a00b980009a80b009c09b0000b9e090044
:1016a000b80ba00009c00b00a409c8000ba80900d2
:1016b000d00baa0009d80b00ac09e0000bae090062
:1016c000e80bb20009f00b00b409f8000bb60900f2
:1016d000000cba0009080c00bc0910000cc009007d
:1016e000180cc20009200c00c40928000cc809000d
:1016f000300cca0009380c00ce0940000cd009009b
:10170000480cd40009500c00d60958000cd8090028
:10171000600cdc0009680c00de0970000ce20900b6
:10172000780ce40009800c00e80988000cea090044
:10173000900cee0009980c00f009a0000cf20900d2
:0417400000000000a5
:020000040000fa
:101744000000fa008020a90001e4a900ffff37008f
:101754000000fa008060a90001e4a900ffff37003f
:101764000000fa008040a90001e4a900ffff37004f
:101774000000fa008080a90001e4a900ffff3700ff
:101784000000fa008020a900ffff37000000fa00e3
:101794008060a900ffff37000000fa008040a90024
:1017a400ffff37000000fa008080a900ffff370028
:020000040000fa
:0417b4000000fe0033
:00000001FF
