:020000040000fa
:080000000002040000000000f2
:020000040000fa
:04000800d40500001b
:020000040000fa
:04000c009c0500004f
:020000040000fa
:04001000a405000043
:020000040000fa
:04001400ac05000037
:020000040000fa
:04001800b40500002b
:020000040000fa
:04001c00d405000007
:020000040000fa
:04002000d405000003
:020000040000fa
:04002400d4050000ff
:020000040000fa
:04002800d4050000fb
:020000040000fa
:04002c00d4050000f7
:020000040000fa
:04003000d4050000f3
:020000040000fa
:040034008a05000039
:020000040000fa
:04003800d4050000eb
:020000040000fa
:04003c00d4050000e7
:020000040000fa
:04004000d4050000e3
:020000040000fa
:04004400d4050000df
:020000040000fa
:04004800d4050000db
:020000040000fa
:04004c00d4050000d7
:020000040000fa
:04005000d4050000d3
:020000040000fa
:04005400d4050000cf
:020000040000fa
:04005800d4050000cb
:020000040000fa
:04005c00d4050000c7
:020000040000fa
:04006000d4050000c3
:020000040000fa
:04006400d4050000bf
:020000040000fa
:04006800d4050000bb
:020000040000fa
:04006c00d4050000b7
:020000040000fa
:04007000d4050000b3
:020000040000fa
:04007400d4050000af
:020000040000fa
:04007800d4050000ab
:020000040000fa
:04007c00d4050000a7
:020000040000fa
:04008000d4050000a3
:020000040000fa
:04008400d40500009f
:020000040000fa
:04008800d40500009b
:020000040000fa
:04008c00d405000097
:020000040000fa
:04009000d405000093
:020000040000fa
:04009400d40500008f
:020000040000fa
:04009800d40500008b
:020000040000fa
:04009c00d405000087
:020000040000fa
:0400a000d405000083
:020000040000fa
:0400a400d40500007f
:020000040000fa
:0400a800d40500007b
:020000040000fa
:0400ac00d405000077
:020000040000fa
:0400b000d405000073
:020000040000fa
:0400b400d40500006f
:020000040000fa
:0400b800d40500006b
:020000040000fa
:0400bc00d405000067
:020000040000fa
:0400c000d405000063
:020000040000fa
:0400c400d40500005f
:020000040000fa
:0400c800d40500005b
:020000040000fa
:0400cc00d405000057
:020000040000fa
:0400d000d405000053
:020000040000fa
:0400d400d40500004f
:020000040000fa
:0400d800d40500004b
:020000040000fa
:0400dc00d405000047
:020000040000fa
:0400e000d405000043
:020000040000fa
:0400e400d40500003f
:020000040000fa
:0400e800d40500003b
:020000040000fa
:0400ec00d405000037
:020000040000fa
:0400f000d405000033
:020000040000fa
:0400f400d40500002f
:020000040000fa
:0400f800d40500002b
:020000040000fa
:0400fc00d405000027
:020000040000fa
:04010000d405000022
:020000040000fa
:04010400d40500001e
:020000040000fa
:04010800d40500001a
:020000040000fa
:04010c00d405000016
:020000040000fa
:04011000d405000012
:020000040000fa
:04011400d40500000e
:020000040000fa
:04011800d40500000a
:020000040000fa
:04011c00d405000006
:020000040000fa
:04012000d405000002
:020000040000fa
:04012400d4050000fe
:020000040000fa
:04012800d4050000fa
:020000040000fa
:04012c00d4050000f6
:020000040000fa
:04013000d4050000f2
:020000040000fa
:04013400d4050000ee
:020000040000fa
:04013800d4050000ea
:020000040000fa
:04013c00d4050000e6
:020000040000fa
:04014000d4050000e2
:020000040000fa
:04014400d4050000de
:020000040000fa
:04014800d4050000da
:020000040000fa
:04014c00d4050000d6
:020000040000fa
:04015000d4050000d2
:020000040000fa
:04015400d4050000ce
:020000040000fa
:04015800d4050000ca
:020000040000fa
:04015c00d4050000c6
:020000040000fa
:04016000d4050000c2
:020000040000fa
:04016400d4050000be
:020000040000fa
:04016800d4050000ba
:020000040000fa
:04016c00d4050000b6
:020000040000fa
:04017000d4050000b2
:020000040000fa
:04017400d4050000ae
:020000040000fa
:04017800d4050000aa
:020000040000fa
:04017c00d4050000a6
:020000040000fa
:04018000d4050000a2
:020000040000fa
:04018400d40500009e
:020000040000fa
:04018800d40500009a
:020000040000fa
:04018c00d405000096
:020000040000fa
:04019000d405000092
:020000040000fa
:04019400d40500008e
:020000040000fa
:04019800d40500008a
:020000040000fa
:04019c00d405000086
:020000040000fa
:0401a000d405000082
:020000040000fa
:0401a400d40500007e
:020000040000fa
:0401a800d40500007a
:020000040000fa
:0401ac00d405000076
:020000040000fa
:0401b000d405000072
:020000040000fa
:0401b400d40500006e
:020000040000fa
:0401b800d40500006a
:020000040000fa
:0401bc00d405000066
:020000040000fa
:0401c000d405000062
:020000040000fa
:0401c400d40500005e
:020000040000fa
:0401c800d40500005a
:020000040000fa
:0401cc00d405000056
:020000040000fa
:0401d000d405000052
:020000040000fa
:0401d400d40500004e
:020000040000fa
:0401d800d40500004a
:020000040000fa
:0401dc00d405000046
:020000040000fa
:0401e000c802000051
:020000040000fa
:0401e400780500009a
:020000040000fa
:0401e800d40500003a
:020000040000fa
:0401ec00d405000036
:020000040000fa
:0401f000d405000032
:020000040000fa
:0401f400d40500002e
:020000040000fa
:0401f800d40500002a
:020000040000fa
:04020800d405000019
:020000040000fa
:04020c00bc0500002d
:020000040000fa
:04021000c205000023
:020000040000fa
:04021400c805000019
:020000040000fa
:04021800ce0500000f
:020000040000fa
:04021c00d405000005
:020000040000fa
:04022000d405000001
:020000040000fa
:04022400d4050000fd
:020000040000fa
:04022800d4050000f9
:020000040000fa
:04022c00d4050000f5
:020000040000fa
:04023000d4050000f1
:020000040000fa
:040234008a05000037
:020000040000fa
:04023800d4050000e9
:020000040000fa
:04023c00d4050000e5
:020000040000fa
:04024000d4050000e1
:020000040000fa
:04024400d4050000dd
:020000040000fa
:04024800d4050000d9
:020000040000fa
:04024c00d4050000d5
:020000040000fa
:04025000d4050000d1
:020000040000fa
:04025400d4050000cd
:020000040000fa
:04025800d4050000c9
:020000040000fa
:04025c00d4050000c5
:020000040000fa
:04026000d4050000c1
:020000040000fa
:04026400d4050000bd
:020000040000fa
:04026800d4050000b9
:020000040000fa
:04026c00d4050000b5
:020000040000fa
:04027000d4050000b1
:020000040000fa
:04027400d4050000ad
:020000040000fa
:04027800d4050000a9
:020000040000fa
:04027c00d4050000a5
:020000040000fa
:04028000d4050000a1
:020000040000fa
:04028400d40500009d
:020000040000fa
:04028800d405000099
:020000040000fa
:04028c00d405000095
:020000040000fa
:04029000d405000091
:020000040000fa
:04029400d40500008d
:020000040000fa
:04029800d405000089
:020000040000fa
:04029c00d405000085
:020000040000fa
:0402a000d405000081
:020000040000fa
:0402a400d40500007d
:020000040000fa
:0402a800d405000079
:020000040000fa
:0402ac00d405000075
:020000040000fa
:0402b000d405000071
:020000040000fa
:0402b400d40500006d
:020000040000fa
:0402b800d405000069
:020000040000fa
:0402bc00d405000065
:020000040000fa
:0402c000d405000061
:020000040000fa
:0402c400d40500005d
:020000040000fa
:0402c800d405000059
:020000040000fa
:0402cc00d405000055
:020000040000fa
:0402d000d405000051
:020000040000fa
:0402d400d40500004d
:020000040000fa
:0402d800d405000049
:020000040000fa
:0402dc00d405000045
:020000040000fa
:0402e000d405000041
:020000040000fa
:0402e400d40500003d
:020000040000fa
:0402e800d405000039
:020000040000fa
:0402ec00d405000035
:020000040000fa
:0402f000d405000031
:020000040000fa
:0402f400d40500002d
:020000040000fa
:0402f800d405000029
:020000040000fa
:0402fc00d405000025
:020000040000fa
:04030000d405000020
:020000040000fa
:04030400d40500001c
:020000040000fa
:04030800d405000018
:020000040000fa
:04030c00d405000014
:020000040000fa
:04031000d405000010
:020000040000fa
:04031400d40500000c
:020000040000fa
:04031800d405000008
:020000040000fa
:04031c00d405000004
:020000040000fa
:04032000d405000000
:020000040000fa
:04032400d4050000fc
:020000040000fa
:04032800d4050000f8
:020000040000fa
:04032c00d4050000f4
:020000040000fa
:04033000d4050000f0
:020000040000fa
:04033400d4050000ec
:020000040000fa
:04033800d4050000e8
:020000040000fa
:04033c00d4050000e4
:020000040000fa
:04034000d4050000e0
:020000040000fa
:04034400d4050000dc
:020000040000fa
:04034800d4050000d8
:020000040000fa
:04034c00d4050000d4
:020000040000fa
:04035000d4050000d0
:020000040000fa
:04035400d4050000cc
:020000040000fa
:04035800d4050000c8
:020000040000fa
:04035c00d4050000c4
:020000040000fa
:04036000d4050000c0
:020000040000fa
:04036400d4050000bc
:020000040000fa
:04036800d4050000b8
:020000040000fa
:04036c00d4050000b4
:020000040000fa
:04037000d4050000b0
:020000040000fa
:04037400d4050000ac
:020000040000fa
:04037800d4050000a8
:020000040000fa
:04037c00d4050000a4
:020000040000fa
:04038000d4050000a0
:020000040000fa
:04038400d40500009c
:020000040000fa
:04038800d405000098
:020000040000fa
:04038c00d405000094
:020000040000fa
:04039000d405000090
:020000040000fa
:04039400d40500008c
:020000040000fa
:04039800d405000088
:020000040000fa
:04039c00d405000084
:020000040000fa
:0403a000d405000080
:020000040000fa
:0403a400d40500007c
:020000040000fa
:0403a800d405000078
:020000040000fa
:0403ac00d405000074
:020000040000fa
:0403b000d405000070
:020000040000fa
:0403b400d40500006c
:020000040000fa
:0403b800d405000068
:020000040000fa
:0403bc00d405000064
:020000040000fa
:0403c000d405000060
:020000040000fa
:0403c400d40500005c
:020000040000fa
:0403c800d405000058
:020000040000fa
:0403cc00d405000054
:020000040000fa
:0403d000d405000050
:020000040000fa
:0403d400d40500004c
:020000040000fa
:0403d800d405000048
:020000040000fa
:0403dc00d405000044
:020000040000fa
:0403e000c80200004f
:020000040000fa
:0403e4007805000098
:020000040000fa
:0403e800d405000038
:020000040000fa
:0403ec00d405000034
:020000040000fa
:0403f000d405000030
:020000040000fa
:0403f400d40500002c
:020000040000fa
:0403f800d405000028
:020000040000fa
:100400006fdb20000eff20000e01880000000000be
:10041000000020000000e000020032000001200087
:100420002002880014000700e10107000000e0003e
:1004300003003a00a09a20000100200002003700cb
:100440000000200001002000810f70000100320038
:1004500014000700000020000000e000020032004d
:100460000000020000000000ea0702000000000097
:100470000040da000000fe004440a9000000200017
:100480000000e0000300320000002000a00188000e
:100490004440a800000006008a1f78008b1f7800e7
:1004a0000000060091018800800478000000eb0045
:1004b0001a003700e284440032a0b4009905ba0063
:1004c000e284440032a0b4009906ba00e2844400f9
:1004d00032a0b4000006eb00476fde00fd07b2005b
:1004e000636ce10003003a00ebff07000000eb0043
:1004f0000a003700606ce10004003a00005deb0088
:100500008b05e900fdff3e00040037006168e10053
:10051000010032000086eb000b00070019c7ba008b
:100520001905ba000e04e00003003a000a00e000da
:10053000e0ff3a0000000600fe07b2009e018800be
:100540008a047800f5ff3700395dba008b05e900b1
:100550000c003200295dba008b05e900080032006a
:100560000c00e00003003a00e284440032a0b40032
:10057000f5ff370019ddba008b05e900faff3a00f4
:100580008904e800e184440032a0b40000000600c1
:10059000809fbe00829fbe00849fbe00869fbe00db
:1005a000889fbe008a9fbe008c9fbe000800fa0094
:1005b000001980004500dd00606d88001019800082
:1005c0004500dd00406d8800416d800000b82600c8
:1005d0000100500030408800b4cdbf000004e000ae
:1005e0001a013a00b0cdbf00e44f50004b003a0072
:1005f00031408000302b22000180b9004109dd002c
:100600004f02de0004027100cf8ade00414080000c
:10061000906c21000180b900410cdd004f01de002b
:1006200002017400cf89de000201520083815a006a
:1006300051408000607621000180b900c10add00d0
:100640004f02de0004827200040f78004f8cde003f
:10065000180798001e02be00040151008581590050
:1006600061408000602122000180b900410cdd0062
:10067000cf02de0085027400250798004f8ade0055
:10068000340798002e029000be0290000200420043
:1006900083804a00e0408800f1408800814080006b
:1006a000c06e25000180b900c10add004f06de00e2
:1006b0000c867200cf8ede00e0408000f1408000aa
:1006c0000c0140008d81480091408000a0df250092
:1006d0000180b900410cdd004f05de000a05740001
:1006e000cf8dde000201450083814d00a1408000d6
:1006f000704e23000180b900410add004f04de0086
:1007000008047200cf8cde00080051008980590077
:10071000e0408800f1408800b06def00b0cdbf0030
:100720000040e800b0edb700e0408000f1408000fc
:10073000c0408800d1408800c2408000d340800083
:10074000f0ff270001002000800f5100818f590029
:1007500005003400f0ff270001002000c0408800a1
:10076000d14088000b003700c2408000d340800099
:1007700010002800f1ff2f00800f5100818f5900d9
:1007800004003d0010002800f1ff2f00c040880049
:10079000d1408800c0408000d14080000000780037
:1007a000818920000180b900c20add004e03de000d
:1007b00006837200ce8bde00404121000100200044
:1007c00006004000878048008180d1000080d3006f
:1007d00000007800104088001140800050c92000bf
:1007e000808f50000800360060c92000202088005b
:1007f00020208000a00fb100302188004089200017
:10080000302288003000370011408000e074200062
:10081000808f500009003e00e074200020208800f6
:1008200020208000a00fb10030218800202080000f
:10083000e015b1003022880023003700104080000e
:100840002020880020208000a00fb10030218800e7
:1008500011408000708b2000808f50001700360000
:10086000202080008040780080cfb30000c060006e
:100870008044b00004e8b70004c8bf000004e000f2
:1008800001003a000468ef0004c8bf000080fb00cc
:100890004300de00004078000080fb004200dd00e5
:1008a0008080e800a0ba200000804000100078009e
:1008b000e015b100302288000300370020208000be
:1008c000e015b10030228800202080000000d10017
:1008d0004006b000902288003040800040408800f0
:1008e00040408000504088005040800060408800b8
:1008f0006040800070408800e0408000f14080004f
:10090000000078008040880080408000904088008f
:1009100090408000a0408800616d8000f07621004a
:10092000808f500013003e0021208000f07c2000ca
:10093000808f500004003e00a8cbbf000040e800bc
:10094000a8ebb700340037002120800020b220003f
:10095000808f500004003600a9cbbf000040e800a3
:10096000a9ebb7002c003700a86bef00a96bef00d4
:1009700029003700616d800070af2200808f500029
:1009800013003e002120800050862000808f500000
:1009900004003e00a8cbbf000040e800a8ebb70071
:1009a0001d0037002120800080b62000808f50007d
:1009b00004003600a9cbbf000040e800a9ebb70057
:1009c00015003700a86bef00a96bef00120037008d
:1009d00021208000f08b2000808f500004003e001a
:1009e000a8cbbf000040e800a8ebb7000a00370022
:1009f00021208000c0c12000808f500004003600fc
:100a0000a9cbbf000040e800a9ebb7000200370007
:100a1000a86bef00a96bef0081ba2000914078002d
:100a200070ccb30080cf500005003e0091ba20008a
:100a30009140780070ccb30080cf500003003600a6
:100a4000cde2a80010c0b300a4edb700b4cdbf0044
:100a50000004e0001b003a00305d8000e10f500010
:100a600010003a00205d8000011980000001400064
:100a7000008220000000410001087800205d800015
:100a8000616d800000014000c09420000000410022
:100a900001087800205d80000000e800205d8800eb
:100aa000a62bef00305d80000000e800305d88007c
:100ab000215d800060092000808f500001003a0015
:100ac000a42bef0091c0a9000603a9000080fa0042
:100ad0004f06be004f05be004f04be004f03be00d0
:100ae0004f02be004f01be004f00be000040060096
:100af000801f78000000fa0030198000506d8800d7
:100b000091e0a9000623a9000080fa004f007800b8
:100b100000400600801f78000000fa0000408000be
:100b20000000e800004088008460a9000080fa000e
:100b30004f007800004006000000fa008020a90065
:100b400001e4a900ffff37000000fa008060a9005f
:100b500001e4a900ffff37000000fa008040a9006f
:100b600001e4a900ffff37000000fa008080a9001f
:100b700001e4a900ffff37000000fa008020a9006f
:100b8000ffff37000000fa008060a900ffff370078
:100b90000000fa008040a900ffff37000000fa00c3
:100ba0008080a900ffff37000040da000000fe004f
:040bb000000005003c
:020000040000fa
:100bb4000000fa0090022000303a8800213a8000b8
:100bc400f0f32f0000806000203a8800213a800072
:100bd40000fe2f0000806000203a880032002000d0
:100be40080072000a1092000337420008049780088
:100bf40081497800824978001200200060042000b6
:100c04007105200023742000804978008149780010
:100c14008249780000000000113a8000000027009b
:100c24008080600000002300808f5000faff3a00ab
:100c340000000000113a80000002200000806000e3
:100c44000000e000fbff320050e7a80050c7a900f5
:100c540051a7a800813a80000070200001007000b4
:100c6400803a880051e7a80000000000813a800023
:100c740000002400008060000000e000fbff320060
:100c84000080fa00000006000000fa00c8a2a900d3
:100c9400c962a900c982a900c9e2a900cd82a9003c
:100ca400cca2a800cd62a900cde2a800d135800075
:100cb400f00f2c000080600000d0a000d035880028
:100cc4008137800000fc2f008080600070022000cb
:100cd40001007000803788000080fa0000000600e0
:100ce4000000fa00806120002020880023e4a9008d
:100cf40023c4a90011218000f03f2f000080600070
:100d040000b0a0001021880011218000f0f32f0012
:100d1400008060001021880001218000f0f32f0082
:100d2400008060000070a000002188002004a90059
:100d34002124a90021218000c0ff2f000080600031
:100d4400202188002121800070f02f0000806000a5
:100d5400202188002444a9000001200040218800ab
:100d640000012000802188009000200030218800ac
:100d7400c06c200090218800a121800000fc2f007d
:100d8400008060000000a000a0218800a121800054
:100d9400f0ff200000806000a021880043e4a90047
:100da40043c4a90011228000f03f2f00008060009e
:100db40000b0a000102288004224a8001122800064
:100dc400f0f32f00008060001022880001228000d0
:100dd400f0f32f00008060000070a0000022880063
:100de4004004a9004124a90021228000c0ff2f0053
:100df40000806000202288002122800070f02f00f3
:100e040000806000202288004444a9009000200053
:100e140030228800a122800000fc2f0000806000a6
:100e24000000a000a0228800a1228000f0ff200082
:100e340000806000a0228800202080004200de00a4
:100e4400902288000080fa00000006000000fa00ea
:100e54000103a90000e3a90000c3a80000a3a9009e
:100e64000183a8000083a9000118800080ff2f00df
:100e7400008060005000b300001888005118800002
:100e840000fe2f00008060005000b300501888005e
:100e940051188000f00f2e000080600000a0a00018
:100ea4005018880091c0a90091e0a900a1c0a90030
:100eb400a1e0a900d1068000f08f2f00808060009f
:100ec4000050200001007000d006880001e3a80053
:100ed4000080fa00000006000000fa0010c0b30011
:100ee400b4edb70091c0a90091e0a900a1c0a80089
:100ef400a1e0a8002f003700202080002003b000cc
:100f0400202088002120800050c92000808f5000bc
:100f14000500360060c920002020880060c0b300ae
:100f2400a4edb700f000070020208000a00fb1005e
:100f34003021880021208000708b2000808f500099
:100f440017003600202080008040780080cfb30056
:100f540000c060008044b00004e8b70004c8bf00cb
:100f64000004e00001003a000468ef0004c8bf0078
:100f74000080fb004300de00004078000080fb009e
:100f84004200dd008080e800a0ba2000008040001c
:100f940010007800e015b10030228800030037000b
:100fa40020208000e015b1003022880020002000bd
:100fb40024000700416d800080ab2600808f500024
:100fc400cdff3600b46def000080fa00000006008b
:100fd4000000fa00f6fe07002bff070040ff0700a1
:100fe4009aff0700005327001600070001e4a80039
:100ff40023e4a80023c4a80043e4a80043c4a80031
:10100400b5ff0700cde2a900a6cdbf00e44f500014
:1010140003003a001f000700a66def00faff370037
:1010240000000000000000000000000000000000bc
:1010340000000000a6cdbf000040e800a6edb70008
:10104400f1ff37000200fa00000f78000028ef00db
:1010540000fa2000100888009460a8002105800090
:10106400f0ff28008080600000002500010070006f
:101074002005880005e1a800000000000040800071
:101084009e0f5000fdff390005e1a9000080fa0021
:10109400000006000000fa00516d80006017200077
:1010a400808f50000a003600a3cdbf000040e80046
:1010b400a3edb700a3cdbf00e74f40000500360005
:1010c400cde2a80050c0b300a4edb7000100370082
:1010d400a36def00426d800011c0b300708e270035
:1010e400800f510001003e008040eb00436d800002
:1010f40010c0b300a2e02500828f51000100360029
:101104000040eb0000c070000004e0001100320059
:10111400a2cdbf000040e800a2edb700a2cdbf0001
:10112400e74f40000c003600cde2a800416d80007e
:10113400708e2700808f50000300360030c0b3004b
:10114400a4edb7000400370040c0b300a4edb7001d
:1011540001003700a26def0031218000c0a82000fb
:10116400808f500007003600616d800080a9230045
:10117400808f50000300360000cf2300706d88007c
:101184004400370031218000e0a12000808f50000e
:1011940007003600616d800060d82300808f500006
:1011a4000300360080db2300706d880039003700af
:1011b40031218000409c2000808f500007003600c1
:1011c400616d800040ee2300808f500003003600e4
:1011d40040ee2300706d88002e003700312180001e
:1011e40000962000808f500007003600616d80005b
:1011f40080f42300808f50000300360080f4230025
:10120400706d88002300370031218000c08f2000da
:10121400808f500007003600616d8000c0fa230003
:10122400808f500003003600c0fa2300706d8800e0
:10123400180037003121800080892000808f500001
:1012440007003600616d800000012400808f50008b
:101254000300360000012400706d88000d00370083
:101264003121800040832000808f50000700360029
:10127400616d800040072400808f50000300360019
:1012840040072400706d880002003700800d2400a0
:10129400706d8800616d8000706d8000808f5000db
:1012a4000a003900a5cdbf000040e800a5edb70055
:1012b400a5cdbf00e74f400005003600cde2a800f1
:1012c40020c0b300a4edb70001003700a56def0006
:1012d400a4cdbf000004e0000100320002000700ba
:1012e4000080fa00000006000200fa000040eb0053
:1012f400004f780001e4a90001e3a90041da2000cd
:1013040091407800014f780007003700cd82a80093
:10131400409c20004bff0700cd82a900409c200088
:1013240048ff07001e4fe9001e4078000004e0005b
:10133400f6ff3a0041da200091407800014f78002e
:10134400803821003fff070000000000f6ff37004f
:020000040000fa
:10135400b40d0000020000000000000000080000be
:10136400aa03000000000000b00d0000040000000b
:10137400020000000400de007f000000a20d000057
:101384000e00000000000000aa0b0000f80100009d
:1013940002000000b808b20008c00800b408c80081
:1013a40008b60800d008b80008d80800ba08e00059
:1013b40008bc0800e808be0008f00800c008f800ef
:1013c40008c208000009c60008080900c80810007f
:1013d40009ca08001809cc0008200900ce08280012
:1013e40009d208003009d40008380900d6084000a2
:1013f40009d808004809dc0008500900de08580034
:1014040009e008006009e20008680900e6087000c5
:1014140009e808007809ea0008800900ec08880057
:1014240009f008009009f20008980900f408a000e7
:1014340009f60800a809f80008b00900fa08b8007d
:1014440009fc0800c009000009c809000209d0000d
:1014540009040900d809060009e009000a09e8009e
:10146400090c0900f0090e0009f80900120900002e
:101474000a140900080a160009100a0018091800bd
:101484000a1c0900200a1e0009280a00200930004d
:101494000a220900380a240009400a0026094800e3
:1014a4000a2a0900500a2c0009580a002e09600073
:1014b4000a320900680a340009700a003609780003
:1014c4000a380900800a3a0009880a003e09900097
:1014d4000a400900980a420009a00a004609a80027
:1014e4000a480900b00a4a0009b80a004c09c000b9
:1014f4000a500900c80a520009d00a005409d80049
:101504000a580900e00a5a0009e80a005c09f000d8
:101514000a600900f80a620009000b006409080067
:101524000b660900100b6a0009180b006c092000f7
:101534000b6e0900280b700009300b007409380089
:101544000b760900400b7a0009480b007c09500017
:101554000b7e0900580b800009600b0084096800a9
:101564000b860900700b880009780b008c09800039
:101574000b8e0900880b900009900b0094099800c9
:101584000b960900a00b980009a80b009c09b00059
:101594000b9e0900b80ba00009c00b00a409c800e9
:1015a4000ba80900d00baa0009d80b00ac09e00075
:1015b4000bae0900e80bb20009f00b00b409f80007
:1015c4000bb60900000cba0009080c00bc09100095
:1015d4000cc00900180cc20009200c00c409280022
:1015e4000cc80900300cca0009380c00ce094000b0
:1015f4000cd00900480cd40009500c00d60958003e
:101604000cd80900600cdc0009680c00de097000cd
:101614000ce20900780ce40009800c00e809880059
:101624000cea0900900cee0009980c00f009a000e7
:081634000cf2090000000000a7
:020000040000fa
:0200000401f009
:04000c008000000070
:020000040000fa
:0200000401f009
:040010006500000087
:020000040000fa
:0200000401f009
:040014005f00000089
:020000040000fa
:0200000401f009
:040018000f000000d5
:020000040000fa
:0200000401f009
:04001c00c20000001e
:00000001FF
