:020000040000FA
:100000000002040000000000D20F0000D20F000028
:10001000D20F0000D20F0000D20F0000D20F00005C
:10002000D20F0000D20F0000000D0000DA0D00001A
:10003000DE0D00001C0D0000B40D0000DC0D000002
:10004000E00D0000400D0000580D0000D20F000030
:10005000B00D0000BA0D0000BC0D0000C20D000084
:10006000B60D0000D20F0000700D0000880D0000DA
:10007000E20D0000D20F0000020D0000D20F0000C0
:10008000D20F0000D20F0000B80D0000D20F000008
:10009000D20F0000D20F0000D20F0000D20F0000DC
:1000A000BE0D0000C00D0000D20F0000B20D000018
:1000B000D20F0000D20F0000D20F0000D20F0000BC
:1000C000D20F0000D20F0000D20F0000D20F0000AC
:1000D000D20F0000D20F0000D20F0000D20F00009C
:1000E000D20F0000D20F0000D20F00008A0D0000D6
:1000F000AE0D0000D20F0000D20F0000D20F0000A2
:10010000D20F0000D20F0000D20F0000040D00003B
:10011000D20F0000D20F0000D20F0000D20F00005B
:10012000D20F0000D20F0000D20F0000D20F00004B
:10013000D20F0000D20F0000D20F0000D20F00003B
:10014000D20F0000D20F0000D20F0000D20F00002B
:10015000D20F0000D20F0000D20F0000D20F00001B
:10016000D20F0000D20F0000D20F0000D20F00000B
:10017000D20F0000D20F0000D20F0000D20F0000FB
:10018000D20F0000D20F0000D20F0000D20F0000EB
:10019000D20F0000D20F0000D20F0000D20F0000DB
:1001A000D20F0000D20F0000D20F0000D20F0000CB
:1001B000D20F0000D20F0000D20F0000D20F0000BB
:1001C000D20F0000E40D0000D20F0000D20F00009B
:1001D000D20F0000D20F0000D20F0000D20F00009B
:1001E000D20F0000D20F0000D20F0000D20F00008B
:1001F000D20F0000D20F0000D20F0000D20F00007B
:10020000FFFFFF00FFFFFF00D20F0000D20F000032
:10021000D20F0000D20F0000D20F0000D20F00005A
:10022000D20F0000D20F0000D20F0000D20F00004A
:10023000D20F0000D20F0000D20F0000D20F00003A
:10024000D20F0000D20F0000D20F0000D20F00002A
:10025000D20F0000D20F0000D20F0000D20F00001A
:10026000D20F0000D20F0000D20F0000D20F00000A
:10027000D20F0000D20F0000D20F0000D20F0000FA
:10028000D20F0000D20F0000D20F0000D20F0000EA
:10029000D20F0000D20F0000D20F0000D20F0000DA
:1002A000D20F0000D20F0000D20F0000D20F0000CA
:1002B000D20F0000D20F0000D20F0000D20F0000BA
:1002C000D20F0000D20F0000D20F0000D20F0000AA
:1002D000D20F0000D20F0000D20F0000D20F00009A
:1002E000D20F0000D20F0000D20F0000D20F00008A
:1002F000D20F0000D20F0000D20F0000D20F00007A
:10030000D20F0000D20F0000D20F0000D20F000069
:10031000D20F0000D20F0000D20F0000D20F000059
:10032000D20F0000D20F0000D20F0000D20F000049
:10033000D20F0000D20F0000D20F0000D20F000039
:10034000D20F0000D20F0000D20F0000D20F000029
:10035000D20F0000D20F0000D20F0000D20F000019
:10036000D20F0000D20F0000D20F0000D20F000009
:10037000D20F0000D20F0000D20F0000D20F0000F9
:10038000D20F0000D20F0000D20F0000D20F0000E9
:10039000D20F0000D20F0000D20F0000D20F0000D9
:1003A000D20F0000D20F0000D20F0000D20F0000C9
:1003B000D20F0000D20F0000D20F0000D20F0000B9
:1003C000D20F0000D20F0000D20F0000D20F0000A9
:1003D000D20F0000D20F0000D20F0000D20F000099
:1003E000D20F0000D20F0000D20F0000D20F000089
:1003F000D20F0000D20F0000D20F0000D20F000079
:10040000CF8520000E7E22000E0188000000000033
:100410000C000700E0FB2000010020001100070095
:10042000000020000000E000020032000000020096
:1004300000000000FE0A0200000000000040DA0098
:100440000000FE004440A900802220000000E000DF
:100450000300320000002000A00188004440A800F2
:100460000000060091018800800078000000EB0089
:1004700015003700E280400032A0B4009101BA00BC
:10048000E280400032A0B4009102BA00E280400055
:1004900032A0B4000002EB00472BDE00F507B200EB
:1004A000602CE10004003A000059EB008301E900F0
:1004B000FDFF3E00040037006128E100010032002A
:1004C0000082EB00040007001101BA000200E00006
:1004D000E8FF3A00000006003159BA008301E90044
:1004E0000C0032002159BA008301E90008003200F3
:1004F0000400E00003003A00E280400032A0B400B3
:10050000F5FF370011D9BA008301E900FAFF3A007C
:100510008100E800E180400032A0B4000000060045
:10052000D207040000000000D6070400000000000D
:10053000DA07040000000000DE07040000000000ED
:10054000E207040000000000CA06040000000000EA
:10055000F006040000000000160704000000000080
:100560003C070400000000006207040000000000D7
:100570008001EB0002003700817178008301E80000
:10058000828F5100FCFF3A000000060000000000CE
:10059000C1C0000081C100004001000001C3000093
:1005A000C00300008002000041C2000001C600003C
:1005B000C00600008007000041C7000000050000E1
:1005C000C1C5000081C400004004000001CC00004F
:1005D000C00C0000800D000041CD0000000F0000A5
:1005E000C1CF000081CE0000400E0000000A0000D4
:1005F000C1CA000081CB0000400B000001C900000F
:10060000C00900008008000041C8000001D80000B7
:10061000C01800008019000041D90000001B000034
:10062000C1DB000081DA0000401A0000001E00005B
:10063000C1DE000081DF0000401F000001DD00007E
:10064000C01D0000801C000041DC00000014000000
:10065000C1D4000081D500004015000001D7000082
:10066000C01700008016000041D6000001D2000033
:10067000C01200008013000041D3000000110000F0
:10068000C1D1000081D000004010000001F0000046
:10069000C03000008031000041F100000033000054
:1006A000C1F3000081F2000040320000003600007B
:1006B000C1F6000081F700004037000001F500009E
:1006C000C03500008034000041F40000003C000010
:1006D000C1FC000081FD0000403D000001FF000062
:1006E000C03F0000803E000041FE000001FA000013
:1006F000C03A0000803B000041FB000000390000D0
:10070000C1F9000081F80000403800000028000016
:10071000C1E8000081E900004029000001EB000071
:10072000C02B0000802A000041EA000001EE00001A
:10073000C02E0000802F000041EF0000002D0000BF
:10074000C1ED000081EC0000402C000001E400003D
:10075000C02400008025000041E5000000270000C3
:10076000C1E7000081E600004026000000220000F2
:10077000C1E2000081E300004023000001E100002D
:10078000C02100008020000041E0000001A0000026
:10079000C06000008061000041A100000063000013
:1007A000C1A3000081A200004062000000660000BA
:1007B000C1A6000081A700004067000001A500005D
:1007C000C06500008064000041A40000006C0000CF
:1007D000C1AC000081AD0000406D000001AF000021
:1007E000C06F0000806E000041AE000001AA000052
:1007F000C06A0000806B000041AB0000006900008F
:10080000C1A9000081A80000406800000078000035
:10081000C1B8000081B900004079000001BB0000B0
:10082000C07B0000807A000041BA000001BE0000D9
:10083000C07E0000807F000041BF0000007D0000FE
:10084000C1BD000081BC0000407C000001B400007C
:10085000C07400008075000041B500000077000002
:10086000C1B7000081B600004076000000720000B1
:10087000C1B2000081B300004073000001B100006C
:10088000C07100008070000041B000000050000006
:10089000C1900000819100004051000001930000D0
:1008A000C0530000805200004192000001960000F9
:1008B000C05600008057000041970000005500001E
:1008C000C19500008194000040540000019C00008C
:1008D000C05C0000805D0000419D0000005F0000E2
:1008E000C19F0000819E0000405E0000005A000091
:1008F000C19A0000819B0000405B0000019900004C
:10090000C059000080580000419800000188000094
:10091000C04800008049000041890000004B0000F1
:10092000C18B0000818A0000404A0000004E000098
:10093000C18E0000818F0000404F0000018D00003B
:10094000C04D0000804C0000418C000000440000BD
:10095000C18400008185000040450000018700003F
:10096000C047000080460000418600000182000070
:10097000C0420000804300004183000000410000AD
:10098000C181000081800000404000006001000043
:10099000D207000061010000D607000062010000DC
:1009A000DA07000063010000DE07000064010000B8
:1009B000E207000060000000CA06000061000000BD
:1009C000F00600006200000016070000630000004F
:1009D0003C0700006400000062070000DBC2BF00AB
:1009E000E4006000D3C2BF000058A3000100320041
:1009F0008180E800D3C2BF000068A300010032007C
:100A00008100E800F10FB2008005200001004000E5
:100A1000D010880000000600F0FF070016C2A800F2
:100A20001782A80017E2A80000C7B300BC60B70097
:100A30008A20A9009A20A800000006005268EF0052
:100A4000F5FF370017E2A900000006003600F800A5
:100A5000809FBE00829FBE00849FBE00869FBE0016
:100A60003400F80000002000A00188008010800001
:100A70004FE8B70018C2A90018C2BF000028A300A1
:100A800009003A0018C2BF000042B20006003A0056
:100A900050E8B7005288A900D01080000000400044
:100AA00050428800B200370018C2BF000028A300DF
:100AB0000D003A0018C2BF000058A3000A0032001F
:100AC00083108000030078004FE8B70050C8BF00D3
:100AD0000081FB000180200003F178000040E80065
:100AE00050E8B700A200370018C2BF000028A300DA
:100AF0009F00320003852000934178000048E20007
:100B0000190032005168EF000382FB008401E90004
:100B1000514280000041EB000580200004003700B6
:100B200060C07A000080FB00808040000241E80045
:100B30000280FB00830F5000F9FF350002007800AF
:100B400051E8B7008100EA00F10FB200514288007D
:100B500064C07A000080FB00810F500026003A003C
:100B600052A8A8002900370063C05100E44F50008C
:100B700023003E005168EF00514280000041EB002D
:100B80000380FB000002E90005802000040037001C
:100B900060C07A000080FB00808040000241E800D5
:100BA0000280FB00840F5000F9FF3500020078003E
:100BB00051E8B7008100EA00F10FB200514288000D
:100BC00064C07A000080FB00810F50000A003A00E8
:100BD0005168EF005228A900030078004EE8B700E2
:100BE00052A8A90052C8A90052E8A9005248A90079
:100BF0004A28EF000500370052C8A800030037005C
:100C00000304E0000100320052E8A8002385200020
:100C100093417800500520000358A30003003A00D8
:100C20000368A30003003200A00F2000901088008A
:100C30004E003700E00F20000304E000FBFF35000A
:100C4000E00C20000328A300F8FF3A0012852000E2
:100C5000124178000280FB000000D1008042E800D1
:100C6000050078004CE8B7004EC8ED000042400097
:100C7000040078004DE8B700E1406100C308DD00E2
:100C8000034078000034A1000140700052E8B70032
:100C9000844F5100300031008580FB00008020002F
:100CA000E140780020C6B30080CF5000150032002C
:100CB00007003E0000C0E90080CF50000B0032006A
:100CC0000040E80080CF500017003A000A003700CB
:100CD00030C6B30080CF50000D0032000040E80065
:100CE00080CF500010003A000C003700F20E0200D6
:100CF000000000000D003700FA0E020000000000A6
:100D00000A003700020F0200000000000700370051
:100D10000A0F02000000000004003700120F02005A
:100D200000000000010037005055250040428800B7
:100D3000404280005268AB00020032004800DE00F2
:100D400001003700F00FB200901088009010800072
:100D50004A28B400040037004A08EE00F00FB20041
:100D6000901088005248A8005168EC005068EF00CD
:100D70008A20A9001782A8003400F9004F03BE00A2
:100D80004F02BE004F01BE004F00BE003600F9000A
:100D90000040060052C8BF0071406000F04F500094
:100DA00007003A00F20E02000000000024E8B7003D
:100DB0004800DE0025E8B70020C0B3000600370079
:100DC000A0CFB30024E8B70025E8B70026E8B700B5
:100DD0005228A80030C0B3004EE8B700000006005B
:100DE00052C8BF0071406000F04F500007003A0049
:100DF000FA0E02000000000024E8B7004800DE0000
:100E000025E8B70020C0B30006003700A0CFB3002C
:100E100024E8B70025E8B70026E8B7005228A80064
:100E200030C0B3004EE8B7000000060052C8BF0053
:100E300071406000F04F500007003A00020F0200BE
:100E40000000000024E8B7004800DE0025E8B700F5
:100E500020C0B30006003700A0CFB30024E8B700DD
:100E600025E8B70026E8B7005228A80030C0B30034
:100E70004EE8B7000000060052C8BF007140600095
:100E8000F04F500007003A000A0F02000000000077
:100E900024E8B7004800DE0025E8B70020C0B30012
:100EA00006003700A0CFB30024E8B70025E8B7005C
:100EB00026E8B7005228A80030C0B3004EE8B700BB
:100EC0000000060052C8BF0071406000F04F5000A3
:100ED00007003A00120F02000000000024E8B700EB
:100EE0004800DE0025E8B70020C0B3000600370048
:100EF000A0CFB30024E8B70025E8B70026E8B70084
:100F00005228A80030C0B3004EE8B7000000060029
:100F1000881F78005048E2002000320001C8BF005E
:100F20000080FB000880200018447800A24D2800B3
:100F30008000EB0023002000920F50000A003A00CE
:100F40000804E00008003A00A04D28006300780083
:100F50000000E000010032000000010008007800FD
:100F600050E8B7000D0037008100E800E48141003F
:100F700064014100E58F5000EFFF3A00420220007B
:100F80005105200040822000B8020200000000004D
:100F900040C2B3004EE8B7005068EF004F0478003D
:100FA000000006005288A800000006005288A80031
:100FB000000006005288A800000006005288A80021
:100FC000000006005288A8000000060000852000EE
:100FD00021C0B30090CF100022003A0016802000FC
:100FE000164378000580200095427800634C280065
:100FF0000001EB002400200013007800C800DE0090
:10100000804F530011003A000504E0000F003A0041
:10101000E1CF500014003A004A48EE0080407800CA
:1010200002C8BF0080CF500006003A005208A90055
:10103000604C2800640078000000E0000A003200E4
:10104000004001005208A800000006000201E8006C
:1010500064024200E4814100E50F510002003200C9
:10106000E5FF37005208A80000000600DC42A90096
:10107000D842A900D1C2A800D1A2A800D942A80094
:10108000E8A2A800E882A800F522A800F122A900A1
:101090000000060003032000333A880044C7BF0065
:1010A00001CEB300014060000014A00044E7B70087
:1010B00044C7BF00F043B20044E7B700320020004D
:1010C000A10920008007200034742000004A780025
:1010D000014A7800024A78001200200071052000C1
:1010E0006004200024742000004A7800014A78003F
:1010F000024A78008340780043C7BF000047B2002F
:10110000814F5000FCFF3A0042C7BF000058A300C7
:10111000FDFF320050E7A90050C7A80051A7A80062
:1011200070C0B3005167B70051E7A80051C7BF00B6
:101130000068A300FDFF3200000006000000EB0085
:10114000200888000008880050C32000100888008C
:10115000A5C0BF00F1C8B300014060000044A0007A
:10116000A5E0B7008460A9009460A80004C1BF0096
:10117000F1CCB300014060000044A00004E1B700DE
:1011800005E1A80000000600ECFF07001E050200B4
:1011900000000000EA0C0400000000005868EF00A6
:1011A000000006000400FA000001BE00110020004B
:1011B00064805700640E0200000000006FB89700C2
:1011C0000080FA00000006000208FA00889FBE00B6
:1011D0008A1F7800807F2F000F0040000018EB006E
:1011E0000800210009002000028020008000EB00A0
:1011F000B8020200000000001C003700A07F2F0092
:1012000000854700012020000801BE000A00780088
:10121000640E0200000000000040200001002000D9
:101220000804400089844800F1BF2500810F540064
:10123000E08F5C0005003E00817F2F008F80400022
:10124000028020000300200004003700817F2F006F
:101250008F804000C27F2000030020000A00780039
:10126000960F0200000000000060FE00F0BF2500A5
:10127000800F5400E08F5C00E0FF3600817F2F007C
:101280006F8078004F0578004F04BE000080FA00A0
:1012900000000600889FBE008A9FBE00E0BF2500B8
:1012A00001002000BFFF070000047800C6FF070010
:1012B00080047800A0BF250001002000B9FF0700CE
:1012C00080057800A07F2A0001002000B5FF0700FC
:1012D00000057800160F020000000000890F54007E
:1012E0000D003A00402321008A8F55000B003A0080
:1012F00009007800FE0E020000000000C0BF2500BB
:1013000001002000A7FF0700F60E02000000000009
:10131000100020000900370009007800FE0E0200CE
:1013200000000000C07F2A00010020009DFF070090
:10133000F60E0200000000000000EB004F05BE00AA
:101340004F04BE0000000600881F7800D1FF070090
:10135000000478000000E0000E00320020002000B1
:10136000BE0E02000000000010002000BA0E0200B5
:10137000000000000041EB008240780020C0B30074
:10138000C20E020000000000001004000000000077
:101390000D00370030002000BE0E020000000000EB
:1013A00010002000BA0E0200000000000841780082
:1013B0008840780030C0B300C20E02000000000078
:1013C000005C0400000000004F04780000000600EC
:1013D00040C7BF000008A30003003A0040C7BF0099
:1013E0000018A300190032000000EB00BE0E02003E
:1013F000000000000000EB00BA0E02000000000038
:101400000041EB008240780002407800C20E0200EA
:10141000000000000000EB00F60E020000000000DB
:101420000000EB00FE0E0200000000000000EB00D8
:10143000060F0200000000000000EB000E0F02008B
:10144000000000004007A9004027A9004027EF0046
:10145000B60E020000000000E10F500002003A004A
:1014600002FF070048FF3700B7FF3700CF3FB0004B
:10147000CF3FB000EE874700889FBE008A9FBE0026
:101480008C9FBE008E1F7800000778000206BE0009
:10149000F4B79F0085BF9F000204BE0027003700FD
:1014A000022020000800BE009C0E02000000000088
:1014B000028020008000EB00E07E2F000F00400043
:1014C000B8020200000000000C0054008D805C0097
:1014D0004909DD004700DE0000007100C708DE009A
:1014E0000E054000EB7E2F008F8545000A00BE00F0
:1014F000680C0200000000000A05E8000B10B000B4
:1015000000802000E37E2F008F8141000080410099
:10151000808F5500F5FF3A000801BE00E07E2F00E5
:101520000F004000E60D0200000000000040200017
:101530000100200008044000898448007FB1970022
:101540008FB997000C0041008D804900800F540036
:10155000818F5C00D2FF39004F0778004F06BE0034
:101560004F05BE004F04BE00EF1FB100EF1FB100DA
:10157000EF1FB100EF1FB100EF00B1000000060047
:101580003600F800809FBE00829FBE00849FBE0090
:10159000869FBE003400F80000002000A0018800F3
:1015A000B14280008100E800B1428800F07C200058
:1015B000808F5000090036005628EF00A1428000BD
:1015C0008100E800A142880080252000808F500023
:1015D000020036005428EF005BFF07008460A9007A
:1015E0003400F9004F03BE004F02BE004F01BE00A1
:1015F0004F00BE003600F9000040060000CEB300E8
:101600004260B700A3FE07005868EF0070FF0700B4
:1016100042C0BF007F40600042E0B7000060FE00B3
:10162000EE0402000000000004C0240005002000B9
:101630000200210003002000800020008BFF070033
:1016400041FF0700F5FF37008000EB000113880021
:1016500020122000101388002113880061E2A800E6
:1016600000000600F522A90040138000700D200044
:101670004013880060C2BF000008A300FDFF3200D5
:10168000401380006822EF0060C2BF000008A30082
:10169000FDFF320040138000F522A8000080FB000F
:1016A00000000600EFFF07005AE8B7000004E00062
:1016B000FCFF3D00F522A90040138000D00320006C
:1016C0004013880060C2BF000008A300FDFF320085
:1016D00040138000A00220004013880060C2BF00B9
:1016E0000008A300FDFF3200401380000008200026
:1016F0004013880060C2BF000008A300FDFF320055
:1017000040138000600A20004013880060C2BF00C0
:101710000008A300FDFF3200F522A800000006002B
:10172000881F780000047800CEFF07005AE8B70051
:101730000004E000FCFF3D00F522A90040138000FA
:10174000100820004013880060C2BF000008A300FA
:10175000FDFF3200401380004840DE004013880047
:1017600060C2BF000008A300FDFF320040138000EC
:10177000F80FB2004813880060C2BF000008A30041
:10178000FDFF3200401380006822EF0060C2BF00FE
:101790000008A300FDFF3200F522A8004F047800E6
:1017A00000000600889FBE000004BE00ADFF0700D9
:1017B0005AE8B7000004E000FCFF3D00F522A90054
:1017C00040138000400820004013880060C2BF0022
:1017D0000008A300FDFF3200401380006822EF00E4
:1017E00060C2BF000008A300FDFF3200401380006C
:1017F0006822EF0060C2BF000008A300FDFF3200B6
:10180000401380006822EF0060C2BF000008A30000
:10181000FDFF32008000EB0002102000401380002A
:1018200069C078000080FB004013880060C2BF00E0
:101830000008A300FDFF32008100E800828F500005
:10184000F6FF3A00F522A8000000000000000000AA
:101850000000000083FF07005AE8B7000004E00022
:10186000FCFF3D00F522A900401380008008200005
:101870004013880060C2BF000008A300FDFF3200D3
:10188000401380004840DE004013880060C2BF0063
:101890000008A300FDFF320040138000F80FB200E3
:1018A0004813880060C2BF000008A300FDFF32009B
:1018B000401380006822EF0060C2BF000008A30050
:1018C000FDFF3200F522A8004F04BE000000060014
:1018D000889FBE000004BE0062FF07005AE8B70000
:1018E0000004E000FCFF3D00F522A9004013800049
:1018F000200D20004013880060C2BF000008A30034
:10190000FDFF3200401380004840DE004013880095
:1019100060C2BF000008A300FDFF3200401380003A
:10192000F80FB2004813880060C2BF000008A3008F
:10193000FDFF3200401380006822EF0060C2BF004C
:101940000008A300FDFF3200401380006822EF0072
:1019500060C2BF000008A300FDFF320040138000FA
:101960006822EF0060C2BF000008A300FDFF320044
:10197000401380006822EF0060C2BF000008A3008F
:10198000FDFF3200401380006822EF0060C2BF00FC
:101990000008A300FDFF32008000EB0002102000D1
:1019A000401380006822EF0060C2BF000008A3005F
:1019B000FDFF32004013800080F478008100E800D1
:1019C000828F5000F6FF3A00F522A8004F04BE00B7
:1019D000000006006022EF00201220001013880093
:1019E0006422EF0061E2A8001EFF07005AE8B7007A
:1019F0000008A30001003A002AFF070000000600CB
:101A00000000060000000600801F7800F03F810003
:101A1000E20F500004003A004F0078000C10040060
:101A200000000000000006004F0078000C5C04007D
:101A30000000000000000600801F7800F03F8100D9
:101A4000E20F500004003A004F007800101004002C
:101A50000000000000000600E30F500004003A0000
:101A60004F007800105C0400000000000000060039
:101A70004F007800C00A04000000000000000600CB
:101A8000801F7800F03F8100E20F500004003A0010
:101A90004F00780014100400000000000000060051
:101AA0004F007800145C04000000000000000600F5
:101AB000801F7800F03F8100E20F500004003A00E0
:101AC0004F0078001810040000000000000006001D
:101AD0004F007800185C04000000000000000600C1
:101AE000801F7800F03F8100E20F500004003A00B0
:101AF0004F0078001C1004000000000000000600E9
:101B00004F0078001C5C040000000000000006008C
:101B100000000600801F7800F03F8100E20F5000B7
:101B200004003A004F007800241004000000000078
:101B300000000600E30F500004003A004F00780058
:101B4000245C040000000000000006004F00780044
:101B5000260504000000000000000600000006004A
:101B6000000006000000060000000600000006005D
:101B7000000006000000060000000600000006004D
:101B800000000600801F7800F03F8100E20F500047
:101B900004003A004F0078005010040000000000DC
:101BA000000006004F007800505C040000000000B8
:101BB000000006000000060000000600000006000D
:101BC0000000060000000600000006000800FA0001
:101BD000889FBE008A9FBE008C9FBE006044B800F4
:101BE0000205BE00000678008006EB001C80FB00AA
:101BF00001F02F0001046400000474001C409000F8
:101C00004800DD00F80FB200000474002C40900082
:101C10000080FB0081846400808474003C4090005C
:101C20004800DD00F90FB20080847400880178005C
:101C3000090178008A0078000B0078004E0F02003E
:101C4000000000007F006500F80F500004003A001B
:101C5000EAB79F00FBB79F0088BF9F0099BF9F0016
:101C60000D00E0000C0032000D00E800F003B200AF
:101C700009003A008FB997001FB99700EFB097009D
:101C80007FB097004E0F02000000000010002400FB
:101C9000360F02000000000062054500E0854D009F
:101CA0008D06E8006406460000202000808F560064
:101CB000CEFF3A004F06BE004F05BE004F04BE00E7
:101CC0000080FA0000000600889FBE008A9FBE00C8
:101CD0008C1F7800000578000204BE000106780021
:101CE0008005EB000E0037008800780009007800BE
:101CF000560F020000000000004D78004881DE0011
:101D000012459800214598000040EB0030459800AE
:101D10006405450062044400E0844C008B05E80043
:101D20008C8F5500F0FF35004F0678004F05BE0040
:101D30004F04BE00000006000002BE008000EB0061
:101D400000202000800F510006003A0022042400E9
:101D50008400780005007800640F02000000000095
:101D6000110020000100780000000600F03F810013
:101D700000000600E03F890000000600F03F8900F7
:101D800000000600D33F8100130FB200E14F400076
:101D900004003200630060004400DD00130CB20058
:101DA00080817100E1CF4000050032006380600057
:101DB0004600DD00F1F32F00818161008081710018
:101DC000E14F410003003200610061000300A10007
:101DD00080817100D33F890000000600E03F810050
:101DE00000000600D03F810000000600C03F8900CF
:101DF00000000600C03F810000000600B03F8900DF
:101E000000000600B03F810000000600A03F8900EE
:101E100000000600A03F810000000600903F8900FE
:101E200000000600903F810000000600803F89000E
:101E300000000600803F810000000600F03F8100A6
:101E4000E03F890010002000F03F89000041EB00D6
:101E500080C0EB00CBFF07000000FE000000060082
:101E6000900188008100780000000600003B880097
:101E70000600FC0050052000303B8800A00A20002E
:101E8000303B880061E7A80000000000000000006F
:101E900061E7AF00FEFF37000000060090018800F8
:101EA0008308BB008288BB00000006009001880008
:101EB0001100BA009180BA0000000600020C040074
:101EC00000000000000006003200F800023B88001D
:101ED000900188008108BB000600FC00500520002E
:101EE000303B8800A00A2000303B880061E7A80052
:101EF000000000000000000061E7AF00FEFF3700B7
:101F00003200F9000000060011017800C811DE005F
:101F1000024068000080FB0000004000622C2800A6
:101F2000600079008088690000000600889FBE007C
:101F30008A9FBE008C9FBE00800678000205BE000E
:101F4000010678006044B800050037008C00780076
:101F50006D407C00ECFF070061044400E0844C000D
:101F60008A0F54008B8F5C00F8FF39004F06BE00CB
:101F70004F05BE004F04BE00000006000008000030
:101F8000540000000000000054080000060000009B
:101F9000000000005A0800000200000000000000DD
:101FA000000000000040DA000000FE00FFFFFF001C
:101FB000FFFFFF00FFFFFF00FFFFFF00FFFFFF002D
:101FC000FFFFFF00FFFFFF00FFFFFF00FFFFFF001D
:101FD000FFFFFF00FFFFFF00FFFFFF00FFFFFF000D
:101FE000FFFFFF00FFFFFF00FFFFFF00FFFFFF00FD
:101FF000FFFFFF000000000000010000CA03000016
:102000007010040000000000E25B0400000000000B
:10201000E25B040000000000385B040000000000E8
:10202000F6370400000000006E45040000000000C8
:10203000E25B040000000000E25B0400000000001E
:10204000E25B040000000000B02904000000000072
:10205000E25B040000000000E25B040000000000FE
:10206000E25B040000000000E25B040000000000EE
:10207000E25B040000000000E25B040000000000DE
:10208000E25B040000000000E25B040000000000CE
:10209000E25B040000000000E25B040000000000BE
:1020A000E25B040000000000E25B040000000000AE
:1020B000E25B040000000000E25B0400000000009E
:1020C000E25B040000000000E25B0400000000008E
:1020D000E25B040000000000FFFFFF00FFFFFF00C5
:1020E0008FE521000E7E22000E0188000000000016
:1020F0000C000700208425000100200011000700CB
:10210000000020000000E000020032000000020099
:10211000000000001C5A0200000000000040DA002D
:102120000000FE004440A900802720000000E000DD
:102130000300320000002000A00188004440A800F5
:102140000000060091018800800078000000EB008C
:1021500015003700E280400032A0B4009101BA00BF
:10216000E280400032A0B4009102BA00E280400058
:1021700032A0B4000002EB00472BDE00F507B200EE
:10218000602CE10004003A000059EB008301E900F3
:10219000FDFF3E00040037006128E100010032002D
:1021A0000082EB00040007001101BA000200E00009
:1021B000E8FF3A00000006003159BA008301E90047
:1021C0000C0032002159BA008301E90008003200F6
:1021D0000400E00003003A00E280400032A0B400B6
:1021E000F5FF370011D9BA008301E900FAFF3A0080
:1021F0008100E800E180400032A0B4000000060049
:10220000020AB900001BB9000200B80081004200B8
:102210008100430000000600839F68000100E00089
:1022200002003D0060001000E08018000300E000A4
:1022300002003D0060011100E08119000500070067
:102240004F00E00002003B0060001000E08018003A
:10225000000006006022B800060220000000D00046
:102260008180D2000482D2008582D2000000A000CA
:102270000202520083825A0003003100020242002F
:1022800083824A000000A1000603E900F3FF3A0040
:102290000000060000000000C1C0000081C1000075
:1022A0004001000001C30000C003000080020000E4
:1022B00041C2000001C60000C00600008007000007
:1022C00041C7000000050000C1C5000081C4000036
:1022D0004004000001CC0000C00C0000800D000094
:1022E00041CD0000000F0000C1CF000081CE0000F2
:1022F000400E0000000A0000C1CA000081CB0000AF
:10230000400B000001C90000C00900008008000067
:1023100041C8000001D80000C0180000801900006A
:1023200041D90000001B0000C1DB000081DA000081
:10233000401A0000001E0000C1DE000081DF000026
:10234000401F000001DD0000C01D0000801C0000D7
:1023500041DC000000140000C1D4000081D5000061
:102360004015000001D70000C017000080160000D3
:1023700041D6000001D20000C0120000801300000E
:1023800041D3000000110000C1D1000081D0000045
:102390004010000001F00000C0300000803100005B
:1023A00041F1000000330000C1F3000081F20000A1
:1023B0004032000000360000C1F6000081F7000046
:1023C0004037000001F50000C035000080340000F7
:1023D00041F40000003C0000C1FC000081FD000051
:1023E000403D000001FF0000C03F0000803E0000B3
:1023F00041FE000001FA0000C03A0000803B0000EE
:1024000041FB000000390000C1F9000081F8000024
:102410004038000000280000C1E8000081E9000009
:102420004029000001EB0000C02B0000802A0000C2
:1024300041EA000001EE0000C02E0000802F0000E5
:1024400041EF0000002D0000C1ED000081EC000014
:10245000402C000001E40000C024000080250000A2
:1024600041E5000000270000C1E7000081E6000010
:102470004026000000220000C1E2000081E30000CD
:102480004023000001E10000C02100008020000086
:1024900041E0000001A00000C06000008061000079
:1024A00041A1000000630000C1A3000081A2000060
:1024B0004062000000660000C1A6000081A7000085
:1024C0004067000001A50000C065000080640000B6
:1024D00041A40000006C0000C1AC000081AD000010
:1024E000406D000001AF0000C06F0000806E000072
:1024F00041AE000001AA0000C06A0000806B00002D
:1025000041AB000000690000C1A9000081A80000E3
:102510004068000000780000C1B8000081B90000E8
:102520004079000001BB0000C07B0000807A000001
:1025300041BA000001BE0000C07E0000807F0000A4
:1025400041BF0000007D0000C1BD000081BC000053
:10255000407C000001B40000C074000080750000E1
:1025600041B5000000770000C1B7000081B600004F
:102570004076000000720000C1B2000081B300008C
:102580004073000001B10000C071000080700000C5
:1025900041B0000000500000C19000008191000097
:1025A0004051000001930000C05300008052000021
:1025B0004192000001960000C056000080570000C4
:1025C0004197000000550000C19500008194000073
:1025D00040540000019C0000C05C0000805D0000D1
:1025E000419D0000005F0000C19F0000819E00002F
:1025F000405E0000005A0000C19A0000819B00006C
:10260000405B000001990000C059000080580000A4
:102610004198000001880000C04800008049000087
:1026200041890000004B0000C18B0000818A00003E
:10263000404A0000004E0000C18E0000818F000063
:10264000404F0000018D0000C04D0000804C000094
:10265000418C000000440000C1840000818500001E
:102660004045000001870000C04700008046000090
:102670004186000001820000C0420000804300004B
:102680004183000000410000C18100008180000002
:102690004040000032000000050000000000000083
:1026A0009CFF00000CFE000032000000050000004E
:1026B00000000000BAFF0000D4FE0000320000005D
:1026C0000500000000000000D8FF000038FF0000F7
:1026D0003C0000000500000000000000ECFF0000CE
:1026E0006AFF00005000000005000000000000002C
:1026F000F6FF000083FF0000640000000A000000F5
:1027000000000000FBFF000097FF00007D000000BC
:102710000A00000000000000FBFF0000A6FF000010
:10272000960000001E00000000000000FBFF0000FB
:10273000B0FF0000C80000002800000000000000FA
:10274000FBFF0000C4FF0000900100005A000000E1
:1027500000000000FBFF0000D8FF0000F4010000B3
:102760006400000000000000FBFF0000E2FF00002A
:1027700001040000070A00000D10000013160000FD
:102780001900000040BF210080CD880020BF21003B
:1027900090CD8800E0BE2100A0CD8800C0BE210001
:1027A000B0CD880060942100D0CD880040942100F5
:1027B000E0CD880020942100F0CD880080BE21006B
:1027C00080CE880060BE210090CE880040BE2100EF
:1027D000A0CE8800409A2100B0CE8800C09421008D
:1027E000C0CE8800A0942100D0CE880020BD21005A
:1027F000E0CE880080BC2100F0CE880020BE210001
:1028000080CF8800E0BD210090CF880000BC21006F
:10281000A0CF880000BD2100B0CF8800E0BC21001F
:10282000C0CF8800A0972100D0CF8800A0BE210093
:1028300080D0880020BB210090D0880060BC21009F
:10284000A0D0880060BB2100B0D0880040BB210030
:10285000C0D08800209A2100D0D08800009A2100A2
:10286000E0D08800E0992100F0D08800C0992100D4
:1028700000D18800A099210010D188008099210002
:1028800020D188006099210030D188004099210032
:1028900040D18800A0BC210050D1880040BD21005B
:1028A00080D18800609A210090D18800C0BD2100AD
:1028B000A0D18800E09A2100B0D18800A0BD2100FD
:1028C000C0D18800C09A2100D0D1880080BD2100ED
:1028D000E0D18800A09A2100F0D1880060BD2100DD
:1028E00000D28800809A210010D28800209921000F
:1028F00030D288000099210040D28800C0BB21005E
:1029000080D38800A0BB210090D3880080BB210029
:10291000A0D38800E0982100B0D38800C09821009F
:10292000C0D38800A098210080DC88008098210016
:1029300090DC880060982100A0DC8800409821008D
:10294000B0DC880020982100C0DC8800E0972100DE
:10295000E0DC8800019B210002BB210031007800EF
:102960000008EB00828F5000FCFF3A0010002000AE
:10297000A0DF8800C05D2000E0CB8800015C210062
:1029800011CD8800001C220000CD880000B020007E
:10299000F0CC88000020B000E0CC8800000CB00033
:1029A000C0CC8800B1CC8800A1CC88008010200069
:1029B00050DE88003013230030DE880000642000E1
:1029C000B0DD880000182100A0DD88005013200031
:1029D00090CC88006600400080CC8800F00E20007B
:1029E00050CC88007000400040CC8800F1012000ED
:1029F00031CC8800F0FF230020CC880010CC880068
:102A0000F1CB8800B00A2100D0CC88004E39EF000D
:102A10004839EF00000006005AFF070000042900B3
:102A2000B010880080052000D0108800BCC0BF0016
:102A3000F1C8B300014060000043B300BCE0B70040
:102A40008A20EF009A20A8000000060002F2800011
:102A500010022000800F510003003A008010800017
:102A600079F9B700050037008010800081952100BA
:102A700000F178000200E80000F288003E3EEF001E
:102A800081952100914078000104E00010003A0097
:102A900000F28000E10F50000D0036008010800031
:102AA000F30F500001003A004039A8008010800068
:102AB000F40F500001003A004059A8008010800037
:102AC000F50F500003003A004079A80001003700DC
:102AD0004039EF0002F28000E40F510014003A0088
:102AE000B0C3B30080CF500039003A005AD9BF00BC
:102AF0004800DD00B1952100914078008180FB0005
:102B00008100400011C98800E07F2F00808F5000B5
:102B1000020036000000E8000200370000802000BC
:102B20000080400010C988002839A8000000060075
:102B3000E30F510026003A0000C2B30080CF5000DE
:102B400023003A005AD9BF00EA4F500020003E004F
:102B50009195210091407800E2CF50000E003A009C
:102B60008080FB00E74F500004003E001000200072
:102B700060B088004508DD00040037002000200018
:102B800060B08800688050004500DD0050B08800CB
:102B900028B9A80000000600E3CF50000C003A005E
:102BA0008080FB00E74F500003003E0062B08800C9
:102BB0004508DD00040037004000200060B08800B8
:102BC000688050004500DD0050B0880028B9A8009A
:102BD0000000060080027800D01080000001400054
:102BE0008001EB000102E9000400370065C07900B4
:102BF0000080FB00000141008301E800848F510048
:102C0000FAFF39008041EB0001804200F0F89700A4
:102C10000200EA0080CF500001003A0013C0B30068
:102C20000304A2000380FB0000000600E40F500034
:102C30001000320005003E00E10F50000900320094
:102C4000E20F500005003A0008003700E80F50007E
:102C50000A003200F00F50000A00320010C0B3002A
:102C60000B003700E00F200007003700E00C2000C9
:102C700005003700A00F200003003700500520009A
:102C800001003700A00A2000901088000040EB00EF
:102C90000080FB0000000600500520009010880016
:102CA0000000060000F28000E20F5000060036002F
:102CB0000080E90060C98800EF0F50000500360071
:102CC0005039A800030037000000E0000100320086
:102CD0005019A80080CA8000D4FF07000004E0005B
:102CE00024003200F1F180000100D1000001E80071
:102CF0002C19D400810F500019003600618060004B
:102D000003003200E10F50001A003A0008003700BB
:102D100080952100624078000080FB0000004000A8
:102D2000019B2100608078001080FB0008003700C4
:102D300080952100624078000080FB000000400088
:102D4000019B210060807800100078004800DE00C0
:102D500090108800901080005639B40000000600E2
:102D60005039A8004039EF005619EE00F00FB200BC
:102D700090108800000006000080FB008000E80042
:102D80008395210061C179000281FB008080E80009
:102D9000E1C07900C808DD000101410060C0790090
:102DA0000080FB000100200065005000E08058001A
:102DB00083032000830F5000E08F5800B4003E00D2
:102DC0000060010038003700390037003A00370052
:102DD000AF003700AE003700AD003700AC00370061
:102DE000AB003700AA003700A9003700A800370061
:102DF000A7003700A6003700A500370030003700D5
:102E0000A3003700A200370033003700340037003A
:102E10009F0037009E0037009D0037009C00370060
:102E20009B0037009A003700990037009800370060
:102E30009700370096003700950037002A003700CA
:102E40002B003700920037009100370090003700C8
:102E50008F0037008E0037008D0037008C00370060
:102E60008B0037008A003700890037008800370060
:102E700022003700550037006B0037006C00370028
:102E80006D0037006E0037006F00370070003700AC
:102E9000710037007200370073003700740037008C
:102EA0007600370078003700D0CD80001100370061
:102EB000E0CD80000F003700F0CD80000D0037001E
:102EC000B0CE80000008EB00C0CE80000008EB0010
:102ED000D0CE800007003700E0CE8000050037002C
:102EE000F0CE800003003700B0CF80000100370033
:102EF000C0CF80000008EB00000006001C7EA80088
:102F00000228A30010003A00EC1BE20001003A0086
:102F1000EA5BA900EA3BAB0001003A00EA5BA900CA
:102F200010F18000E20F50000700320060DF8000E7
:102F30000028A30001003200EA5BA9000038A300CA
:102F400001003200EA5BA900E80061000B003A00D2
:102F5000605F210013C0B30090CF11000700320062
:102F600002A8A30002003200EB5BAB0003003200BA
:102F700091DD8800EA7BA90019BEA90030FE20007F
:102F80008000610050DF80000028A30001003200B3
:102F90000120A0000038A300010032000130A00091
:102FA000605F210012C0B300904F110001003A0091
:102FB00001A0A00080D0800001087800EB5BAB008E
:102FC00033003A00181EA90000000600EB5BAB00BE
:102FD0001100320091D0800000002800800F5100C5
:102FE00005003A008208780010C0B300F6F5B7007B
:102FF00028D9A8000600370082087800EF0F51009A
:1030000002003E0019BEA8000100370019BEA90049
:10301000181EA8000200370090D080000208780037
:10302000EA7BA80000000600A0D080001400370052
:10303000B0D0800012003700C0D0800010003700F0
:10304000D0D080000E003700E0D080000C003700A8
:10305000F0D080000A00370000D18000080037005F
:1030600010D180000600370020D180000400370016
:103070001BDEA80030D180000100370040D1800065
:10308000020878000000060050D180000208780095
:10309000000006000080FB008000E800839521000E
:1030A00061C179000281FB008080E800E1C0790005
:1030B000C808DD0001014100E0C0790000C3B30091
:1030C00080CF50003500320017003E00F3CF500093
:1030D0002F00320007003E00E6CF50002C003200E7
:1030E000E7CF50002A003200E5CF500066003A00DA
:1030F00027003700F7CF50002500320003003E00C4
:10310000F6CF500060003A002100370030C2B30013
:1031100080CF50001E0032000040E80080CF5000F9
:1031200059003A001A00370050C3B30080CF500056
:103130003C0032000B003E006340500080CF500046
:103140002A003200190039000040E80080CF50000A
:103150002B0032000040E80080CF50004A003A00C7
:103160002900370070C3B30080CF50003100320017
:103170002E0039000040E80080CF500033003200BC
:103180006540400080CF50003F003A0035003700D6
:103190000200E0003E003A003B00370000012F0033
:1031A000000061003A003A0037003700605F2100FC
:1031B00011C0B30090CF100035003200EB5BAB00C4
:1031C00007003200F00F2000800F51002E00360063
:1031D00000002800800F51002D003A002A0037001F
:1031E0000200E0002A0032002700370030132300DD
:1031F000800F510026003E00F0FF2200060037003D
:10320000006420000100370000182100800F5100E9
:103210001F003E00F0032000800F51001C0036000C
:1032200019003700E1D0800003003700D0D08000C3
:103230000700370001D1800000F02F00110040008E
:10324000800F510012003E000F003700F0D08000C8
:103250000110200010804000800F51000C00390048
:103260000900370082007800F10FB2000800320038
:10327000F00E2000808F5000030036006B004000ED
:10328000808F500002003A000000EB000100370080
:10329000100020000080FB00000006000080FB0002
:1032A00081952100E0C07800F7CF500009003E0072
:1032B000F6CF500011003100E5CF5000100039006A
:1032C000E7CF50000D003600F3CF50000C003A005D
:1032D0000A00370030C2B30080CF50000800390028
:1032E0000040E80080CF50000400360000CDB3005D
:1032F00000C04000ED4F500001003E0000000500FE
:103300001000050000F28000E30F500006003A00B4
:1033100090952100F1C0B30090CF100014003E0042
:103320002E39EF0017003700E40F50000E003A006E
:103330005AD9BF0091952100914078008180FB000F
:103340000081FB00828040000004E00008003200A1
:1033500000102000808F500005003E00100020006B
:1033600070C9880007003700E40F500002003600E3
:103370005039A800030037000000E00001003200CF
:103380005019A80080CA800028FE07000004E00051
:1033900023003200F1F180002E19E2000C003A0007
:1033A000B2CA8000EF8F500004003E0059D9BF0020
:1033B0000080FB004400DD000C0037005039A800FD
:1033C0000200EA00F00FB200901088000000060032
:1033D0005AD9BF000080FB00B2CA8000808F500025
:1033E0000B00310059D9BF000080FB0001004000F4
:1033F000E160210060C078000080FB009010880030
:10340000020078001202B400B0CA88000000060072
:103410005039A8000200EA00F00FB20090108800B6
:1034200000000600881F780001F28000E38F500042
:103430000900360059D9BF000080FB0001004000A0
:1034400064005000F10F2000810F5000050036008D
:103450005039A800030037000100E00001003200ED
:103460005019A80080CA8000F0FD07000004E000A9
:103470002A00320000F28000E300500059D9BF005A
:103480008082FB00A4DF80000410B20040C98000ED
:103490004400DE00614060008001EB00780C2000F9
:1034A000E7602100869521000C003700038142006F
:1034B0000400E00004003A00880F510002003E00C2
:1034C00081017800040037000380E80060407B0041
:1034D00000F17B0010C0B3008301E800818F510030
:1034E000F2FF3900E1006000C408DD0040C980003F
:1034F0000040A1000100700040C988000048A300FE
:10350000030032005039A8001003200002003700E9
:103510005039A800A00A2000901088004F047800BD
:103520000000060000F28000E80F500002003A00A0
:103530000000000007003700E80F500002003600CE
:103540005039A800030037000000E00001003200FD
:103550005019A80080CA8000B4FD07000004E000F4
:103560003B0032005039A8009095210051C0B300B3
:1035700090CF10002B003A0060CAB3005A59E30004
:1035800028003A00C095210011C0B30090CF100070
:1035900024003A00B095210021C0B30090CF100064
:1035A00014003A00D2DD80005DD9BF000080FB002E
:1035B000C810DE00810F50000E003A005ED9BF0037
:1035C000824F50000B003A001B3EA80012C0B3000F
:1035D00080C0EB0001407800885A02000000000023
:1035E000B85A020000000000E0DD8800100320004F
:1035F0000A0037001B3EA9000041EB0080C0EB0031
:1036000001407800885A020000000000B85A020009
:1036100000000000E0DD8800E00C20009010880031
:10362000000006001B3EA9000041EB0080C0EB003B
:1036300001407800885A020000000000B85A0200D9
:1036400000000000E0DD8800E00C20009010880001
:103650000000060000F28000E40F500004003A0071
:103660001B3EAB0009003A005099A8000700370044
:10367000E40F5000020036005039A8000300370064
:103680000000E000010032005019A80080CA80004C
:1036900066FD07000004E0000D0032005039A8006C
:1036A00000C5B3005959E30007003A0068405000D4
:1036B0005A59E30004003A001A1EA8001003200023
:1036C0009010880000000600E00C20009010880098
:1036D0000000060001F2800067805000F00F5000EB
:1036E00008003E009095210001C1B30090CF10006A
:1036F00006003E001B3EAB0009003A005099A800AE
:1037000007003700F78F5000020036005039A8003C
:10371000030037000100E000010032005019A8004A
:1037200080CA800041FD07000004E000570032001D
:103730005039A8005639EF009495210014427800C2
:103740000480FB00E4014000120020008000EB0038
:103750008595210004003700654079000080FB005A
:10376000808040000201E800830F5100FAFF36001C
:103770008100EA00F10FB200B1CA88000300E8003E
:1037800060C07A000080FB00808F50003D003A004E
:103790005C59E20033003A0000F28000E70F50006D
:1037A0002E0036000404E0002C00320050002000FF
:1037B000829521009170210002003700E2707800AC
:1037C0000000E800830F5000FCFF36008482FB00FD
:1037D00045B088005AD9BF004800DD00B1952100EE
:1037E000914078008180FB008100400001C9880081
:1037F000E07F2F00808F5000020036000000E800BC
:1038000002003700008020000080400000C98800CE
:1038100020D9BF008081FB0081C98000E0712100B8
:10382000008141000000EB00E4702100030037003C
:103830008300400060597A000000E800850F5000C6
:10384000FBFF390081C98800F00F2000808F5000F5
:1038500004003A002819A80002003700E00C2000FC
:103860000600370000C1EB008040EB00024078000A
:10387000885A020000000000100320009010880009
:1038800000000600E00C20009010880000000600F8
:1038900000F28000E50F500005003A0090952100ED
:1038A00001C1B30090CF10000800360002003700BD
:1038B000E50F5000020036005039A8000300370021
:1038C0000000E000010032005019A80080CA80000A
:1038D000D6FC07000004E00012003200F1F1800085
:1038E00059D9BF000080FB00B2CA8000808F500011
:1038F00005003A005039A8000200EA00F00FB200BB
:103900009010880000000600E081210061407800EE
:103910000080FB0090108800020078001202B400C2
:10392000B0CA88000000060000F28000E20F5000DC
:1039300002003A000000000007003700E20F5000CC
:10394000020036005039A800030037000000E000F4
:10395000010032005079A80080CA8000B3FC070043
:103960000004E0000F0032005039A80010032000CE
:1039700090108800D0F080000010B20009003A00DA
:103980001B1EA80030B0880000802000F0C888000E
:1039900000C1EB0011C0B30002407800885A020059
:1039A000000000000000060000F28000E30F50005D
:1039B00004003A0000CEB3005959E300040032007D
:1039C000020037000000E000010032005079A8003A
:1039D00080CA800095FC07000004E000100032005F
:1039E000F1F18000B2CA8000EA8F500005003A0071
:1039F0000200EA00F00FB200901088005039A800D1
:103A00000000060030D02100614078000080FB00FB
:103A100090108800020078001202B400B0CA88003A
:103A20000000060000F28000E50F500002003A009E
:103A30000000000007003700E50F500002003600CC
:103A40005039A800030037000000E00001003200F8
:103A50005019A80080CA800074FC07000004E00030
:103A6000150032005039A80000C5B3005959E300D1
:103A70000E003A00684050005A59E3000B003A002B
:103A80005BD9BF00E14F500002003A00F51BA800CF
:103A9000030037000004E00004003A00F51BA90011
:103AA000100320009010880000000600F51BA900FC
:103AB000E00C2000901088000000060000F280005A
:103AC000E10F500002003600000000000300370044
:103AD0000000E000010032005079A80080CA800098
:103AE00052FC07000004E00028003200F51BAB0088
:103AF0002400320000F28000EB0F50000B003A006F
:103B00005059A8000000EB008295210091CF2100C0
:103B10000000E800E2707800E90F5000FCFF3A0076
:103B2000183EA800100320000D003700F1F18000BE
:103B30000180E900A2CF210060407900EA4F5000E7
:103B400009003A000100E90060407900ED4F5000A3
:103B500005003A005059A8005619EE00F00FB200C7
:103B60009010880000000600A0CF2100614078007E
:103B70000080FB0090108800901080005639B4003F
:103B8000000006005005200090108800000006008C
:103B900000F28000E10F500002003600000000003B
:103BA000030037000000E000010032005079A80057
:103BB00080CA80001DFC07000004E00054003200B1
:103BC000F51BAB005000320000F28000F60F5000F1
:103BD0002D003A005059A80059D9BF00F7F5B70099
:103BE0005AD9BF00F8F5B7005BD9BF00F9F5B700A7
:103BF0005CD9BF00FAF5B7005DD9BF00E6F5B700A4
:103C00005ED9BF00E7F5B7005FD9BF00E8F5B700A0
:103C100060D9BF00E9F5B70061D9BF00EAF5B70088
:103C200062D9BF00EBF5B70063D9BF00ECF5B70070
:103C300064D9BF00EDF5B70065D9BF00EEF5B70058
:103C400066D9BF00EFF5B70067D9BF00F0F5B70040
:103C500068D9BF00F1F5B70069D9BF00F2F5B70028
:103C60006AD9BF00F3F5B7006BD9BF00F4F5B70010
:103C70006CD9BF00F5F5B70028D9A8005AD2A80022
:103C80001003200006003700F0F18000F40F500010
:103C900005003A005059A8005619EE00F00FB20086
:103CA00090108800000006000000E00002003A00CA
:103CB000F7D5BF000F003700E10F500002003A00B7
:103CC000F8D5BF000B003700E20F500002003A00A9
:103CD000F9D5BF0007003700E30F500002003A009B
:103CE000FAD5BF0003003700E4005000605E2100F9
:103CF000614078000080FB009010880090108000E8
:103D00005639B400000006005005200090108800CD
:103D100000000600F0F18000F50F50000B003E009F
:103D20005A59E20005003A00B042020000000000CB
:103D30000080FB0090108800010037001222EF0085
:103D4000901080005639B400000006005039A800D9
:103D50005619EE00F00FB200901088000000060027
:103D600059D9BF00E24F500004003A00F1F1800041
:103D7000FB8F500014003E0005003700E34F500059
:103D800011003A00F1F18000FC8F50000E003E005F
:103D9000A0952100A2C0B300904F110006003E0084
:103DA00001007800B8420200000000000080FB0023
:103DB00090108800010037001222EF009010800060
:103DC0005639B400000006005039A8005619EE001C
:103DD000F00FB2009010880000000600F0F18000A3
:103DE000F70F50000B003E005A59E20005003A0060
:103DF000C0420200000000000080FB00901088001C
:103E0000010037001222EF00901080005639B400F4
:103E1000000006005039A8005619EE00F00FB2005D
:103E200090108800000006001222EF00000006003B
:103E300000F28000E30F500005003A009095210049
:103E400011C0B30090CF100008003200020037000C
:103E5000E30F5000020036005039A800030037007D
:103E60000000E000010032005019A80080CA800064
:103E70006EFB07000004E0000A0032005039A80081
:103E8000F51BAB00050032001ADEA8001A7EA80060
:103E9000100320009010880000000600A00A2000F7
:103EA000901088000000060000F28000E30F500030
:103EB00009003A00191EAB0009003A0010F1800019
:103EC000E50F500006003200A0CAB3005959E300C4
:103ED0000800320002003700E30F500002003600F5
:103EE0005039A800030037000000E0000100320054
:103EF0005019A80080CA80004CFB07000004E000B5
:103F0000060032005039A800191EA80050DE8000BB
:103F100060DE88001003200090108800000006007A
:103F200000F28000E30F500005003A009095210058
:103F300011C0B30090CF100008003200020037001B
:103F4000E30F5000020036005039A800030037008C
:103F50000000E000010032005019A80080CA800073
:103F600032FB07000004E0000F0032005039A800C7
:103F7000F51BAB000A00320080D080000008EB0087
:103F800090D080000008EB00F675EF00EA7BA900F6
:103F900028D9A80010032000901088000000060017
:103FA000A00A2000901088000000060003F18000A5
:103FB0004318DE006200600081DF80000110A10074
:103FC00080807000618061004200DD000120A1005E
:103FD000808070004319DE000300D10002007000F1
:103FE000610060004300DD000130A10080807000AE
:103FF00081DF88000328A30008003200DCC2BF0074
:104000000058A30005003200ED1BA800EABBAB007E
:1040100003003200F0DBA80001003700ED1BA9000F
:104020001C3EAB0003003200F23BA800F09BA9004D
:1040300004003700F23BA900EB7BAB0001003A0023
:10404000F09BA800B85A020000000000E0DD8800E4
:10405000C05A020000000000D0DD8800C85A0200EB
:1040600000000000C0DD8800D05A020000000000FF
:1040700070CC8800D85A02000000000060CC880094
:1040800000000600889FBE008A1F78001AF1800099
:10409000E20F55003F003A0000938000010020002D
:1040A0004209DD00CE01DE00830171004201DD0026
:1040B0000202780002DF8800F092800001002000F8
:1040C000C20ADD00CE00DE00818072004200DD0009
:1040D000F51BAB0002003A001A1DE20002003A0094
:1040E00010DF88000100370012DF8800F0E8800050
:1040F00002E821000280B9004609DD004A00DE0026
:1041000000007100CA08DE0070E88800020220008A
:10411000800F510002003900F2DE880001003700F4
:10412000F0DE8800F0DE80006104B8006120B80095
:104130000801BE000011020000000000C20ADD00FC
:104140004E00DE0000807200CE08DE00E60F500058
:1041500001003E0060002000F0DD880010DF8000DC
:10416000010020000801BE00001102000000000054
:104170004209DD004E00DE0000007100CE08DE00C6
:10418000E60F500001003E006000200000DE8800C5
:1041900005003700E23BEF00DE3BEF00C03BEF00E5
:1041A000E03BEF00BE3BEF0090DF8000E1026000EB
:1041B00023003200E20F550021003A00F2CC8000CB
:1041C000C3FC2F00B0FC2F00800F510002003E0006
:1041D0003303200082814100E0CC800031032000C5
:1041E0000002EB00810F5000010036000102500078
:1041F00011DF8000828F500002003100EC7BA800AC
:10420000050037006472AB0003003A00838F500052
:1042100001003900EC7BA900808F500002003600BD
:10422000EC5BA8000600370080C92000808F50009A
:1042300003003E00848F500001003E00EC5BA900AB
:10424000D3CC8000D00320000018B8004A09DD005C
:104250004600DE0000007100C608DE000500E00038
:1042600009003200E20F550007003A00F2DE80003C
:10427000830F510002003600ECDBA800030037007A
:10428000800F510001003E00ECDBA900A0DF8000A0
:104290000010B2000300320005DF8000D5CB88009B
:1042A00001003700D0CB88004F0578004F04BE00D6
:1042B00000000600B0F08000C600DD00E1DE8800EE
:1042C000B0E88000C601DD00D3DE880090F08000F9
:1042D0004602DD00C4DE880030F280004600DD00CA
:1042E000B0DE8800C01CE20043003A00C0CC800071
:1042F000021420008002EB00820F50000100360003
:104300008202500006F18000E803630002003A00D8
:10431000808F500002003900EC9BA800030037009A
:10432000858F500001003E00EC9BA900B0CC8000BE
:10433000011420000001EB00810F50000100360045
:1043400001015000808F5100020039004F19A80070
:1043500003003700828F510001003E004F19A90071
:10436000A0CC8000011420000001EB00810F500060
:104370000100360001015000800F52000200390098
:104380004F39A80003003700820F520001003E00A1
:104390004F39A9000618A30003003A0070CA800034
:1043A0000030B20002003200ECBBA8000100370070
:1043B000ECBBA9000700E00002003200193EA80093
:1043C00001003700193EA90065D2AB00030032009E
:1043D000F11BA800F13BA900000006001A1EE20034
:1043E00003003D00F11BA900F13BA80000000600FE
:1043F000F11BA900F13BA9000000060081DF80004D
:1044000090C98000808F50000200320091C988005E
:104410001C7EA9000100E00002003A004E19A9002C
:1044200003003700F08F5000010032004E19A80041
:10443000EC1BE20002003A004E39A9000000060021
:104440004E39A8000000060090DF80006200600086
:104450004D003200A3E8800043DF880000C8200040
:10446000808F510001003E0080017800F2DD800065
:10447000B0082000800F510002003E006F02410092
:1044800007003700204720000010B800460ADD0072
:104490004A00DE0000007200CA08DE000002780058
:1044A0006110B8004B09DD00C500DE00810071001D
:1044B0004B00DD00809FBE00110009004308D800BA
:1044C000800278004F00BE006120B8004B09DD007B
:1044D000C500DE00810071004B00DD00809FBE0042
:1044E000110009004308D800800178004F00BE0089
:1044F000F2DD8000B0082000800F510003003E0074
:10450000F35BAB0001003A00E781410081E88000E5
:1045100000002F00808F50000B003E00828F500063
:1045200004003100EE8F50000600360022DF8800C4
:1045300005003700848F50000200360024DF880019
:104540000100370021DF880090E88000850F5000CF
:104550000200310035DF880005003700830F50006E
:104560000200360033DF88000100370030DF8800AA
:1045700030DF8000E30F500006003E0040002000C6
:1045800030DF88000300370040DF880030DF88001C
:1045900020DF8800F23BAB001E003200C01CE200AE
:1045A0001C003A0011CD80008081EB00E0ED2F006F
:1045B000808F500002003E000312200081814100E4
:1045C00042DF8000810F510002003100EC3BA80067
:1045D00003003700830F510001003600EC3BA900B7
:1045E00000CD8000010A20008001EB00810F500007
:1045F0000100360081015000800F5100020036009A
:10460000EC1BA80000000600830F510001003100E0
:10461000EC1BA90000000600B1F080000100E000E2
:1046200002003A0071CD880008003700704A20006F
:104630000008B8004809DD004800DE0000007100F5
:10464000C808DE000000E80070CD88000001EB0023
:10465000A1DE800000322000808F50000B00360069
:10466000300C8000420C22000200B8004008DE003E
:104670000001E800E00F2000800F51000300360029
:104680000000E80030CD88000100370032CD8800FE
:10469000B1E880000100E00002003A0061CD88002E
:1046A00008003700102F20000008B8004809DD007E
:1046B0004800DE0000007100C808DE000000E800CD
:1046C00060CD880091F080000100E00002003A0017
:1046D00051CD880008003700102F20000008B800D6
:1046E0004809DD004800DE0000007100C808DE0057
:1046F0000000E80050CD880031F280000100E000A9
:1047000002003A0041CD880000000600803A2000F7
:104710000008B8004809DD004800DE000000710014
:10472000C808DE000000E80040CD88000000060058
:104730002140200090DF800001006000E20F500067
:104740002E003A00A0C98000E10F500004003A009A
:1047500000562F00E81BB400013220000B00370088
:10476000E20F500004003A00002E2F00E81BB400B6
:104770000140200005003700E30F500005003A001B
:1047800000A22E00E81BB400010E2100810F500092
:10479000010036003439EF003419E2003E003A00DF
:1047A00041DF8000F0B32000808F50003A003600D7
:1047B0001024B000808F500002003E001000200046
:1047C0000C00370000082100808F500002003E00DE
:1047D0002000200007003700F0672100808F500084
:1047E0002D00360000622200808F50002A003E001B
:1047F00030002000A0C9880027003700810F50003A
:1048000020003A00A0C98000E20F500004003A00E6
:10481000001A2F00E81BB400019A210005003700A0
:10482000E30F500006003A0000A82D00E81BB4007A
:1048300001FA2000810F5000010036003439EF00EA
:104840003419E20011003A0041DF8000F0EF20004F
:10485000808F50000D003600006C2200808F5000C9
:1048600002003E0020002000040037000048230022
:10487000808F500005003E0030002000A0C9880055
:10488000020037003439EF0003003700A0C9800070
:104890000024A0000100370034D9BF00F3FBB700AB
:1048A00000000600DCC2BF000038A30004003A008C
:1048B0001C3EAB0002003200DC42A80000000600F3
:1048C000DC42A9000000060090DF8000620060006A
:1048D0000B00320021DF800040DE8000808F50001E
:1048E0000100390041DE880031DF800090DE800069
:1048F000808F50000400390091DE8800000006001F
:1049000040DE880090DE88000000060090DF800016
:104910006100600006003200F1DE800080DE800071
:10492000808F50000300390081DE880000000600FF
:1049300080DE88000000060090DF800061006000DB
:104940000600320001DE800070DE8000808F5000A3
:104950000300390071DE88000000060070DE880068
:10496000000006002A19AB0027003A0090DF800003
:10497000620060001F003200B2C98000C3C980001D
:1049800061004100E0804900B0C98800C1C98800C9
:10499000349C2000840F5000E08F58001A0036002D
:1049A0004019E20018003A00309C2000010020006D
:1049B0000000510081805900B0C98800C1C9880039
:1049C00020CD8000E10F40000F0032000000E80021
:1049D00020CD880020DF800052CA800063CA80009A
:1049E00000004100E080490050CA880061CA880088
:1049F000000006003639EF003839EF004A39EF0081
:104A00004C39EF0020CD88000000060018C2BF001E
:104A10000038A300020032004EF9A800070037005A
:104A200018C2BF000048A3000400320018C2BF0033
:104A30000028A300010032004EF9A900F2C2BF0015
:104A40000028A30006003200F2C2BF000038A30015
:104A50000300320070CA80000008B2000200320079
:104A60003A39EC0001003700D0C98800D1C9800074
:104A7000F0702200808F50000D0036003A39EF00B0
:104A80004EF9A9009A20A9001622EF00000429007F
:104A9000B010880080108000E882A800E8A2A8007A
:104AA000403EEF003E3EEF008A20EF009A20A80033
:104AB00000000600F0DBBF00E004B20002003A0094
:104AC000F01BA90007003700EABBAB0002003A0068
:104AD000F0DBAB0003003A004344E20001003D007C
:104AE000F01BA800E0F0800001002600010060003B
:104AF00001003200F01BA80000000600EA5BA800DD
:104B00006252A90040938000E30F500002003A0077
:104B10006232A80000000600E40F500001003A00D5
:104B20006232A90000000600F23BAB002C0032000C
:104B3000C01CE2002A003A0070CA80000008A300EE
:104B4000040032001C7EAB0002003A00EA1BAB00FE
:104B50000A003A000018A3000A003200EA3BAB004A
:104B60000800320010F18000E20F50000300320014
:104B700060DF80006C00600019003A00DFFF070072
:104B800017003700EA5BAB0019003200C0F080006C
:104B90006232AB000300320000B8A3000400320010
:104BA0000200370000B8A30001003A006252A800DA
:104BB000119380000128A3000B003200C0F0800098
:104BC0000118A3000300320000B8A30006003A0059
:104BD0000200370000B8A30003003200EA5BA9001E
:104BE000EA5BAB0002003200E4E2A800000006002D
:104BF000E4E2A90000000600C25D200092CA88001D
:104C000071CA800010F18000E20F500004003A00E9
:104C10000128A30006003A004E59A80003003700FF
:104C20000128A300020032004E59A900E2CB8800FF
:104C300080DD8000181EAB0003003A0091DD80008B
:104C4000810F50000200390061092000808040007F
:104C50001BBEAB000400320000EE2200808F50002B
:104C600001003E0080007800A2DE8000700C200071
:104C7000800F510028003600DCC2BF000058A3009E
:104C800025003200810F51001200390081005100CF
:104C9000E2C98000703E2000808F50000500360081
:104CA0000200E800E0C98800E90F50001A00360051
:104CB000050037008200E800E1C9880010032000E9
:104CC000808F5000140036003C39EF003C3EED0070
:104CD0001100370082805000E2C98000703E200041
:104CE000808F5000050036000200E800E0C988000F
:104CF000E90F500008003600050037008200E80088
:104D0000E1C9880010032000808F500002003600A7
:104D10003C39EF003C3EEC00C0E32100125302009E
:104D200000000000E1F18000007D2000808F500035
:104D3000020036000000E800E0F1880000000600F4
:104D4000EA7BAB000E003200181EAB000D003A00EB
:104D5000E1F18000A0F28000808F50000400390053
:104D600081DD800090DD8000808F500002003900DE
:104D7000F2FBA80000000600F2FBA90000000600FC
:104D8000F2FBA90000000600E1CB8000B05D20002E
:104D9000808F50000200360081DD88000000060090
:104DA000C05D200080DD88000000060082DF8000FA
:104DB0000208A30007003A00D0F08000000AB20009
:104DC00004003A0001F18000005C200000806000D7
:104DD0000100320000C8B300EFFBB70010C0B30001
:104DE0000218A30027003A0001F1800020C0B300A0
:104DF0000178A30023003A000288A30005003A00CE
:104E00000298A30007003A00D0F080000058A300E9
:104E10000200320040C0B3001A0037000078A3003F
:104E20000200320050C0B3001600370070C0B3005B
:104E300002C8A30013003A0080C0B30002D8A30048
:104E400010003A00E0C0B3000268A3000D003A0071
:104E500010F18000E50F500002003A0040C1B3009D
:104E6000080037000054200000806000020032007B
:104E7000F0C0B30003003700700061000100320091
:104E8000B0C0B300EEFBB7000000060063DF800097
:104E9000F2C98000830F51003F003200F0806100B2
:104EA00070006100810F5000070032000100E00037
:104EB0000500320046D9BF00E14F40000200320039
:104EC0000040E80046F9B700830078000102B20014
:104ED000020078000002B200810F5000070032008B
:104EE0000100E0000500320047D9BF00E14F40005B
:104EF000020032000040E80047F9B7008300780064
:104F00000104B200020078000004B200810F5000DA
:104F1000070032000100E0000500320044D9BF0064
:104F2000E14F4000020032000040E80044F9B700C1
:104F3000830078000108B200020078000008B20087
:104F4000810F5000070032000100E0000500320030
:104F500045D9BF00E14F4000020032000040E800A8
:104F600045F9B700030078000010B2000210B2004B
:104F7000800F5100070032000000E0000500320001
:104F800042D9BF00E14F4000020032000040E8007B
:104F900042F9B700F3C9880000000600889FBE00F0
:104FA0008A1F780002F2800065005100F80F50005F
:104FB00037003E002000200011C0B3006300400015
:104FC000800F510001003A008040EB00FD0F5000BF
:104FD000FAFF3A00E180600080CA80000000A10072
:104FE0000100700080CA88000008A3002F003A006A
:104FF000843B29008895210037C2B30046C2B30024
:1050000005CDB3009481FB0063407C00F74F500056
:1050100009003E00F64F50000E003100E54F5000F1
:105020000E003900E74F50000A003600F34F5000E1
:105030000A003A0007003700874F50000700390088
:10504000864F50000300360005404000ED4F5000F1
:1050500002003E000000EB000100370010002000BD
:105060000000400081CA80000110A1008080700013
:1050700081CA880064804100820F50000B0031001B
:105080000402E8000118A30008003A00DDFF370021
:10509000FD0F5100020036005039A8000300370010
:1050A0000200E000010032005019A80080CA800010
:1050B000DEF607000004E0001B0032000AF2800068
:1050C000893B29001944780008407800F1F707006F
:1050D0000004E000010032005039A8008904E80013
:1050E0000880FB00640040008A0F5000F5FF390083
:1050F000E00C20005039AB0009003A00893B290040
:105100003984FB00084078001BF707006404440062
:1051100000F28000800F5400F9FF390010032000D6
:10512000901088005039A8004F0578004F04BE0049
:105130000000060000F28000E40F500002003A0078
:105140000000000007003700E40F500002003600A6
:105150005039A800030037000000E00001003200D1
:105160005019A80080CA8000B0F607000004E000D3
:105170000D00320059D9BF00E14F50000700320046
:1051800005003900E24F500005003200E34F5000A7
:1051900004003A0002003700DEFA37000FFB370048
:1051A000EFFA37001222EF000000060001F2800043
:1051B0000100E0000A0032005639EF005039EF00DC
:1051C0008095210083F60700610060004200DD0049
:1051D00081CA80000120A1008080700081CA8800FF
:1051E000A00F20005059AB0059003A0081952100D2
:1051F0009140780040C2B30080CF5000410032009F
:1052000018003E00F2CF50003400320006003E008D
:10521000E1CF50002D0032002A003900F1CF5000BC
:105220004A003A002B00370010C2B30080CF500074
:105230002E00320004003E000040E90080CF500004
:1052400042003A002700370020C2B30080CF500050
:10525000280032000040E80080CF50003B003A00B8
:1052600026003700D0C3B30080CF50002D0032009D
:1052700008003E0000C0E90080CF50002500320049
:1052800026003E000040E90080CF50002F003A0089
:105290001E003700FECF40002600320004003E0012
:1052A00000CEB30080CF500028003A001F00370026
:1052B000FDCF400021003200E1CF400023003A0042
:1052C0002000370077F607002200370033FF070081
:1052D00020003700F4FA07001E00370010FB07001B
:1052E0001C00370093FF07001A003700D0FA0700B0
:1052F0001800370003F807001600370049F80700C8
:1053000014003700C7F9070012003700F1F8070052
:10531000100037005EF907000E003700CDF80700D7
:105320000C00370080F907000A0037009EF90700DB
:1053300008003700E1F907000600370014FA0700FB
:105340000400370077F807000200370050052000FE
:1053500090108800403EEF003E3EEC00000006004A
:105360003600F800809FBE00829FBE00849FBE0072
:10537000869FBE0018C2A90018C2BF000028A30063
:1053800005003A0018C2BF000058A30002003A000E
:10539000801080000D00370018C2BF000028A30055
:1053A00005003A0018C2BF000058A30002003200F6
:1053B000A6F507000500370018C2BF000028A300AB
:1053C000020032008010800078FF07002819E200F8
:1053D00001003A001782A8008A20A9004F03BE00EE
:1053E0004F02BE004F01BE004F00BE003600F90064
:1053F000004006002BFD070087FC0700A3FE070006
:10540000FDFD07004EFE0700C9FC0700E1CB800050
:10541000B05D2000808F50000200360081DD8800E2
:1054200002003700C05D200080DD88002A19AB0033
:105430000A003A00DDFA070012FB070002FC070031
:105440009CFB0700EDFB07001FFD07002FFD070079
:1054500039FD070097FD0700B3FD070000000600B7
:105460005AD2AB00630032005AD2A900815F2100FA
:1054700091407800C808DD00F7D5BF000080FB0030
:105480008080400051E98800FAD5BF004800DD0067
:10549000915F2100914078008180FB000100400075
:1054A0004480DE000000E80040E98800715E2100D1
:1054B00091407800C808DD00E6D5BF000080FB0001
:1054C0008080400091E98800E9D5BF004800DD00F8
:1054D000815E2100914078008180FB000100400046
:1054E0004480DE000000E80080E98800B15E210011
:1054F00091407800C808DD00EAD5BF000080FB00BD
:105500008080400071E98800EDD5BF004800DD00D3
:10551000C15E2100914078008180FB0001004000C5
:105520004480DE000000E80060E98800F35E2100AE
:1055300093417800E25E2100124178004818DD00B6
:105540008280FB000100400030E988000204E00096
:1055500007003A0000C2B30080CF510004003A00B7
:10556000F055E20002003A00F155E2000C00320072
:10557000F1D5BF004800DD00015F210091407800B7
:105580008180FB0001004000A207200011000900FB
:105590000200D8000000E80020E988000100370080
:1055A000243DEF00315F210091407800C808DD0004
:1055B000F2D5BF000080FB000081400022F288008D
:1055C000F0CD2F0000004100E1092000810F5000C4
:1055D00001003E0032258800515F21009140780093
:1055E000C808DD00F4D5BF000080FB0080804000CB
:1055F00011F2880000000600889FBE008A1F780014
:1056000098928000A9928000080044000188200040
:10561000521A800002B078003C3DEF000000EB0021
:105620000290200031004000828F5000FDFF3A00C0
:105630004600DE000100200072E98000CF91DE000C
:1056400000110200000000000001BE004318DD0050
:105650004D11DE0002017000CD99DE0060E980008E
:10566000000541000A9388000800440001802000E2
:10567000321A800002B078003C3DEF000000EB00E1
:105680000288200031004000828F5000FDFF3A0068
:10569000E0E988004600DE000100200052E98000B9
:1056A000CF91DE0000110200000000000001BE00EA
:1056B0004318DD004D11DE0002017000CD99DE00BF
:1056C00040E9800000014100F2928800020155008B
:1056D000629388004F0578004F04BE00000006006A
:1056E000889FBE008A1F7800401A80009292800036
:1056F0004211DD00A3102100030141000100200040
:105700000089BE005632EF005832EF006022B80028
:1057100003007800A120210030014200B0814A003E
:105720000202BE00810F5000FBFF3A00B2928800D7
:10573000C392880030E980006104B9002AE9800042
:10574000CA29DD004620DE0000807100C628DE0088
:10575000010020000801BE0000110200000000004E
:105760004309DD004D00DE0000007100CD88DE0041
:10577000000045004088880002003B004E3EEF00DC
:105780000100370070F2880030EA8000CF80DE0030
:105790000801BE000011020000000000C309DD0086
:1057A0004D00DE0000807100CD88DE000000450065
:1057B0003088880002003B00443DEF0001003700C4
:1057C00020EA880020EA800002E821000280B90077
:1057D0004609DD004A00DE0000007100CA08DE0054
:1057E00010EA88000288800073F280000200410005
:1057F0000690200003307B00108880002188800004
:1058000003024000E0824800148888002588880050
:10581000C629DD004A20DE0000807100CAA8DE0033
:10582000F0E888000201E80002888800F03F2000CC
:10583000800F5100010034000031EF00008880002B
:105840000000400060007B0000005200E0805A0031
:1058500010888800218888004F0578004F04BE001A
:105860000000060081908000B01A80008081400016
:105870008390880071908000A01A80000081400011
:105880007290880061908000101A80008080400033
:10589000619088000A12EC0050908800FF0F5000C1
:1058A0000A0036000A32EF004718DE0040F2880096
:1058B0004710DE0060F288004708DE0050F28800E2
:1058C0001032EF000E32EF000C32EF000000060045
:1058D000E11A8000800F2000808F500002003E00FF
:1058E00066F2A8000000060066F2A90000000600AB
:1058F000889FBE0021EA800040938000E40F5000A2
:1059000003003A0050B023000088B90015003700AA
:105910001232EF00610CB900A2F020000300200059
:105920000800BE0000110200000000004109DD0077
:105930004F00DE0000007100CF88DE00A0908800DC
:1059400051EA8000306B2000808F50000A003A003E
:1059500052B02300030020000800BE000011020026
:10596000000000004109DD004F00DE000000710072
:10597000CF88DE00A0908800A0908000D104200095
:10598000810F500002003400A1908800030037000E
:105990000000E00001003D001432EF00A090800004
:1059A000D0E988004F04BE0000000600E6874700EB
:1059B000889FBE008A9FBE008C9FBE008E1F78000D
:1059C00000ED80004280DE0032C020000280B9007D
:1059D00002E82F0093FF2F00000041008180490062
:1059E0004609DD004A00DE0000007100CA88DE00C2
:1059F000024020008000510081EA8800828F500020
:105A00000200340082EA880005003700F00F200011
:105A1000808F500002003C000000E80080EA88000F
:105A200088EA8000CFC4DE0002EE220003002000DE
:105A30000800BE000011020000000000C609DD00E1
:105A40004A00DE0000807100CA88DE006105B900EE
:105A5000BAEA8800CBEA880002AF200003002000E9
:105A60000800BE0000110200000000004609DD0031
:105A70004A00DE0000007100CA88DE0000077800DE
:105A8000A0EA8800B0908000C1908000F0B79F002D
:105A900081BF9F00B0E98000441DB5006106B900D8
:105AA0000A01BE000C00BE00001102000000000050
:105AB0007FB197008FB997000200400083804800B3
:105AC000C309DD004D00DE0000807100CD88DE00DE
:105AD00000017800E0908800D09088000000E0008D
