:020000040000FA
:1000000000020400000000008210000082100000C6
:100010008210000082100000821000008210000098
:100020008210000082100000CA070000C209000010
:10003000F20900001208000002090000DA090000BD
:100040000A0A0000360800004E0800008210000076
:10005000D20800004A09000062090000AA09000055
:100060001A09000082100000660800007E080000E7
:10007000220A000082100000E20700008210000047
:10008000821000008210000032090000821000007F
:10009000821000008210000082100000FA070000A9
:1000A0007A0900009209000082100000EA080000AE
:1000B00082100000821000008210000082100000F8
:1000C00082100000821000008210000082100000E8
:1000D00082100000821000008210000082100000D8
:1000E00082100000821000008210000096080000BC
:1000F000BA08000082100000821000008210000088
:1001000082100000821000008210000082100000A7
:100110008210000082100000821000008210000097
:100120008210000082100000821000008210000087
:100130008210000082100000821000008210000077
:100140008210000082100000821000008210000067
:100150008210000082100000821000008210000057
:100160008210000082100000821000008210000047
:100170008210000082100000821000008210000037
:100180008210000082100000821000008210000027
:100190008210000082100000821000008210000017
:1001A0008210000082100000821000008210000007
:1001B00082100000821000008210000082100000F7
:1001C000821000003A0A0000821000008210000035
:1001D00082100000821000008210000082100000D7
:1001E00082100000821000008210000082100000C7
:1001F00082100000821000008210000082100000B7
:10020000FFFFFF00FFFFFF008210000082100000D0
:100210008210000082100000821000008210000096
:100220008210000082100000821000008210000086
:100230008210000082100000821000008210000076
:100240008210000082100000821000008210000066
:100250008210000082100000821000008210000056
:100260008210000082100000821000008210000046
:100270008210000082100000821000008210000036
:100280008210000082100000821000008210000026
:100290008210000082100000821000008210000016
:1002A0008210000082100000821000008210000006
:1002B00082100000821000008210000082100000F6
:1002C00082100000821000008210000082100000E6
:1002D00082100000821000008210000082100000D6
:1002E00082100000821000008210000082100000C6
:1002F00082100000821000008210000082100000B6
:1003000082100000821000008210000082100000A5
:100310008210000082100000821000008210000095
:100320008210000082100000821000008210000085
:100330008210000082100000821000008210000075
:100340008210000082100000821000008210000065
:100350008210000082100000821000008210000055
:100360008210000082100000821000008210000045
:100370008210000082100000821000008210000035
:100380008210000082100000821000008210000025
:100390008210000082100000821000008210000015
:1003A0008210000082100000821000008210000005
:1003B00082100000821000008210000082100000F5
:1003C00082100000821000008210000082100000E5
:1003D00082100000821000008210000082100000D5
:1003E00082100000821000008210000082100000C5
:1003F00082100000821000008210000082100000B5
:100400008F852000207E220000018800000000006F
:100410000C000700E0062100010020001100070089
:10042000000020000000E000020032000000020096
:1004300000000000A4070200000000000040DA00F5
:100440000000FE004440A900802220000000E000DF
:100450000300320000002000A00188004440A800F2
:100460000000060091018800800078000000EB0089
:1004700015003700E280400032A0B4009101BA00BC
:10048000E280400032A0B4009102BA00E280400055
:1004900032A0B4000002EB00472BDE00F507B200EB
:1004A000602CE10004003A000059EB008301E900F0
:1004B000FDFF3E00040037006128E100010032002A
:1004C0000082EB00040007001101BA000200E00006
:1004D000E8FF3A00000006003159BA008301E90044
:1004E0000C0032002159BA008301E90008003200F3
:1004F0000400E00003003A00E280400032A0B400B3
:10050000F5FF370011D9BA008301E900FAFF3A007C
:100510008100E800E180400032A0B4000000060045
:10052000AE0C040000000000B20C0400000000004B
:10053000B60C040000000000BA0C0400000000002B
:10054000BE0C040000000000D40A040000000000FB
:10055000FE0A040000000000280B04000000000058
:10056000520B0400000000007C0B0400000000009F
:100570008001EB0002003700817178008301E80000
:10058000828F5100FCFF3A000000060000000000CE
:10059000C1C0000081C100004001000001C3000093
:1005A000C00300008002000041C2000001C600003C
:1005B000C00600008007000041C7000000050000E1
:1005C000C1C5000081C400004004000001CC00004F
:1005D000C00C0000800D000041CD0000000F0000A5
:1005E000C1CF000081CE0000400E0000000A0000D4
:1005F000C1CA000081CB0000400B000001C900000F
:10060000C00900008008000041C8000001D80000B7
:10061000C01800008019000041D90000001B000034
:10062000C1DB000081DA0000401A0000001E00005B
:10063000C1DE000081DF0000401F000001DD00007E
:10064000C01D0000801C000041DC00000014000000
:10065000C1D4000081D500004015000001D7000082
:10066000C01700008016000041D6000001D2000033
:10067000C01200008013000041D3000000110000F0
:10068000C1D1000081D000004010000001F0000046
:10069000C03000008031000041F100000033000054
:1006A000C1F3000081F2000040320000003600007B
:1006B000C1F6000081F700004037000001F500009E
:1006C000C03500008034000041F40000003C000010
:1006D000C1FC000081FD0000403D000001FF000062
:1006E000C03F0000803E000041FE000001FA000013
:1006F000C03A0000803B000041FB000000390000D0
:10070000C1F9000081F80000403800000028000016
:10071000C1E8000081E900004029000001EB000071
:10072000C02B0000802A000041EA000001EE00001A
:10073000C02E0000802F000041EF0000002D0000BF
:10074000C1ED000081EC0000402C000001E400003D
:10075000C02400008025000041E5000000270000C3
:10076000C1E7000081E600004026000000220000F2
:10077000C1E2000081E300004023000001E100002D
:10078000C02100008020000041E0000001A0000026
:10079000C06000008061000041A100000063000013
:1007A000C1A3000081A200004062000000660000BA
:1007B000C1A6000081A700004067000001A500005D
:1007C000C06500008064000041A40000006C0000CF
:1007D000C1AC000081AD0000406D000001AF000021
:1007E000C06F0000806E000041AE000001AA000052
:1007F000C06A0000806B000041AB0000006900008F
:10080000C1A9000081A80000406800000078000035
:10081000C1B8000081B900004079000001BB0000B0
:10082000C07B0000807A000041BA000001BE0000D9
:10083000C07E0000807F000041BF0000007D0000FE
:10084000C1BD000081BC0000407C000001B400007C
:10085000C07400008075000041B500000077000002
:10086000C1B7000081B600004076000000720000B1
:10087000C1B2000081B300004073000001B100006C
:10088000C07100008070000041B000000050000006
:10089000C1900000819100004051000001930000D0
:1008A000C0530000805200004192000001960000F9
:1008B000C05600008057000041970000005500001E
:1008C000C19500008194000040540000019C00008C
:1008D000C05C0000805D0000419D0000005F0000E2
:1008E000C19F0000819E0000405E0000005A000091
:1008F000C19A0000819B0000405B0000019900004C
:10090000C059000080580000419800000188000094
:10091000C04800008049000041890000004B0000F1
:10092000C18B0000818A0000404A0000004E000098
:10093000C18E0000818F0000404F0000018D00003B
:10094000C04D0000804C0000418C000000440000BD
:10095000C18400008185000040450000018700003F
:10096000C047000080460000418600000182000070
:10097000C0420000804300004183000000410000AD
:10098000C181000081800000404000006000000044
:10099000AE0C000062000000B20C00006400000019
:1009A000B60C000066000000BA0C000068000000F1
:1009B000BE0C000060000000D40A000062000000CD
:1009C000FE0A000064000000280B00006600000022
:1009D000520B0000680000007C0B0000DC82A900C4
:1009E000D882A900D902A800D922A800D942A8001B
:1009F000E8A2A800E882A800E4E2A800E0E2A900DA
:100A00000000060060012000303A880000CEB300EC
:100A10004467B600F0C3B3004467B600320020005C
:100A2000A10920008007200033742000804978004D
:100A30008149780082497800120020007105200069
:100A400060042000237420008049780081497800E8
:100A50008249780043C7BF000047B20001C3B3001A
:100A6000814F5000FBFF3A0042C7BF000058A3006F
:100A7000FDFF3200000006000000EB0020088800A7
:100A8000000888003075200010088800A5C0BF004D
:100A9000F1C8B300014060000044A000A5E0B70029
:100AA0008460A9009460A80004C1BF00F1CCB30029
:100AB000014060000044A00004E1B70005E1A80087
:100AC00000000600ECFF0700820A020000000000A0
:100AD000880E0400000000005468EF0000000600CB
:100AE0000400FA000001BE001100200064805700DD
:100AF0001C0F0200000000006FB897000080FA0091
:100B0000000006000208FA00889FBE008A1F7800D5
:100B1000807F2F000F0040000018EB00080022002B
:100B200009002000028020008000EB00B8020200D3
:100B3000000000001C003700A07F2F000F054000C0
:100B4000012020000801BE000A0078001C0F0200EE
:100B500000000000004020000100200008044000C8
:100B600089844800F13F2600810F5400E08F5C002B
:100B700005003E00817F2F008F8040000280200012
:100B80000300200004003700817F2F008F80400089
:100B9000C27F2000030020000A00780046100200F7
:100BA000000000000060FE00F03F2600800F5400AF
:100BB000E08F5C00E0FF3600817F2F0061807F00C6
:100BC0004F0578004F04BE000080FA0000000600C8
:100BD000889FBE008A1F7800E03F260001002000A9
:100BE000BFFF070000047800C6FF070080047800FC
:100BF000A03F260001002000B9FF07000005780093
:100C0000A07F2A0001002000B5FF0700890F5400D3
:100C10000E003A00800F55000A003A0009007800E3
:100C2000B60F020000000000C03F260001002000B7
:100C3000ABFF0700AE0F0200000000001000200014
:100C40000B00370040232100010037000900780025
:100C5000B60F020000000000C07F2A000100200043
:100C60009FFF0700AE0F0200000000000000EB0035
:100C70004F0578004F04BE0000000600881F780072
:100C8000D3FF0700000478000000E0000E003200EF
:100C900020002000760F020000000000100020005D
:100CA000720F0200000000000041EB00824078005B
:100CB00020C0B3007A0F02000000000000200400F2
:100CC000000000000D00370030002000760F020009
:100CD0000000000010002000720F02000000000061
:100CE000084178008840780030C0B3007A0F0200D5
:100CF0000000000000640400000000004F047800C1
:100D00000000060040C7BF000008A30003003A002F
:100D100040C7BF000018A300190032000000EB001C
:100D2000760F0200000000000000EB00720F0200CE
:100D3000000000000041EB00824078000240780093
:100D40007A0F0200000000000000EB00AE0F02006E
:100D5000000000000000EB00B60F020000000000E1
:100D60000000EB00BE0F0200000000000000EB00DE
:100D7000C60F0200000000004007A9004027A9009C
:100D80004027EF006E0F020000000000E10F50004E
:100D900002003A0011FF07004AFF3700B7FF370093
:100DA00040C7BF000068A30002003200CDE2A800E7
:100DB000C9E2A90000000600CF3FB000CF3FB0005D
:100DC000EE874700889FBE008A9FBE008C9FBE00B2
:100DD0008E1F7800000778000206BE00F4B79F005F
:100DE00085BF9F000204BE002700370002202000BC
:100DF0000800BE00540F0200000000000280200026
:100E00008000EB00E07E2F000F004000B8020200DF
:100E1000000000000C0054008D805C004909DD00DA
:100E20004700DE0000007100C708DE000E0540002C
:100E3000EB7E2F008F8545000A00BE00060E0200E3
:100E4000000000000A05E8000B10B0000080200040
:100E5000E37E2F008F81410000804100808F55008C
:100E6000F5FF3A000801BE00E07E2F000F004000B1
:100E70009E0E020000000000004020000100200043
:100E800008044000898448007FB197008FB997001B
:100E90000C0041008D804900800F5400818F5C0060
:100EA000D2FF39004F0778004F06BE004F05BE0045
:100EB0004F04BE00EF1FB100EF1FB100EF1FB100E4
:100EC000EF1FB100EF00B100000006003600F8008F
:100ED000809FBE00829FBE00849FBE00869FBE0092
:100EE0003400F80000002000A0018800914280003A
:100EF0008100E80091428800F07C2000808F500043
:100F0000090036005228EF00814280008100E8008D
:100F10008142880080252000808F5000020036002A
:100F20005028EF0055FF07008460A9003400F90045
:100F30004F03BE004F02BE004F01BE004F00BE0077
:100F40003600F9000040060000CEB3004260B70052
:100F500093FF0700ABFE07005468EF0069FF07002E
:100F6000F0C1B3004260B6000060FE00520A020009
:100F700000000000044024000500200002002200C0
:100F800003002000800020008BFF07003BFF0700CC
:100F9000F5FF3700801F7800F03F8100E20F50001E
:100FA00004003A004F007800042004000000000014
:100FB000000006004F0078000464040000000000F8
:100FC00000000600801F7800F03F8100E20F500013
:100FD00004003A004F0078000820040000000000E0
:100FE000000006004F0078000864040000000000C4
:100FF00000000600801F7800F03F8100E20F5000E3
:1010000004003A004F0078000C20040000000000AB
:10101000000006004F0078000C640400000000008F
:1010200000000600801F7800F03F8100E20F5000B2
:1010300004003A004F007800102004000000000077
:1010400000000600E30F500004003A004F00780053
:101050001064040000000000000006004F0078004B
:10106000660704000000000000000600801F7800F2
:10107000F03F8100E20F500004003A004F0078007A
:101080001420040000000000000006004F0078005B
:10109000146404000000000000000600801F7800B7
:1010A000F03F8100E20F500004003A004F0078004A
:1010B0001820040000000000000006004F00780027
:1010C000186404000000000000000600801F780083
:1010D000F03F8100E20F500004003A004F0078001A
:1010E0001C20040000000000000006004F007800F3
:1010F0001C6404000000000000000600801F78004F
:10110000F03F8100E20F500004003A004F007800E9
:101110002020040000000000000006004F007800BE
:10112000206404000000000000000600801F78001A
:10113000F03F8100E20F500004003A004F007800B9
:10114000242004000000000000000600E30F50000F
:1011500004003A004F0078002464040000000000FE
:10116000000006004F007800E80B040000000000BB
:1011700000000600801F7800F03F8100E20F500061
:1011800004003A004F00780028200400000000000E
:10119000000006004F0078002864040000000000F2
:1011A00000000600801F7800F03F8100E20F500031
:1011B00004003A004F0078002C20040000000000DA
:1011C000000006004F0078002C64040000000000BE
:1011D00000000600801F7800F03F8100E20F500001
:1011E00004003A004F0078003020040000000000A6
:1011F000000006004F00780030640400000000008A
:1012000000000600801F7800F03F8100E20F5000D0
:1012100004003A004F007800342004000000000071
:10122000000006004F007800346404000000000055
:1012300000000600801F7800F03F8100E20F5000A0
:1012400004003A004F00780038200400000000003D
:10125000000006004F007800386404000000000021
:1012600000000600801F7800F03F8100E20F500070
:1012700004003A004F0078003C2004000000000009
:10128000000006004F0078003C64040000000000ED
:1012900000000600801F7800F03F8100E20F500040
:1012A00004003A004F0078004020040000000000D5
:1012B000000006004F0078004064040000000000B9
:1012C00000000600801F7800F03F8100E20F500010
:1012D00004003A004F0078004420040000000000A1
:1012E000000006004F007800446404000000000085
:1012F00000000600801F7800F03F8100E20F5000E0
:1013000004003A004F00780048200400000000006C
:10131000000006004F007800486404000000000050
:1013200000000600801F7800F03F8100E20F5000AF
:1013300004003A004F0078004C2004000000000038
:10134000000006004F0078004C640400000000001C
:1013500000000600801F7800F03F8100E20F50007F
:1013600004003A004F007800502004000000000004
:10137000000006004F0078005064040000000000E8
:1013800000000600801F7800F03F8100E20F50004F
:1013900004003A004F0078005420040000000000D0
:1013A000000006004F0078005464040000000000B4
:1013B00000000600801F7800F03F8100E20F50001F
:1013C00004003A004F00780058200400000000009C
:1013D000000006004F007800586404000000000080
:1013E00000000600801F7800F03F8100E20F5000EF
:1013F00004003A004F0078005C2004000000000068
:10140000000006004F0078005C640400000000004B
:1014100000000600801F7800F03F8100E20F5000BE
:1014200004003A004F007800602004000000000033
:10143000000006004F007800606404000000000017
:1014400000000600801F7800F03F8100E20F50008E
:1014500004003A004F0078006420040000000000FF
:10146000000006004F0078006464040000000000E3
:1014700000000600801F7800F03F8100E20F50005E
:1014800004003A004F0078006820040000000000CB
:10149000000006004F0078006864040000000000AF
:1014A00000000600DBC2BF00E4006000DBC2BF003A
:1014B0000018A300010032008180E800DBC2BF00F9
:1014C0000008A300010032008100E800F10FB20023
:1014D0008005200001004000D010880000000600B8
:1014E000F0FF070016C2A8001782A80017E2A800A4
:1014F00000C7B300BC60B7008A20A9009A20A800EA
:10150000000006004E68EF00F5FF370017E2A90063
:1015100000000600C1842000914078000104E00032
:10152000200032000680200016437800634C28001B
:101530000001EB0025002000130078004802DE00C7
:10154000E4814100804F530012003A000181FB000A
:101550008200E9000480FB00808F500011003A00F7
:1015600000802000E24078004848EE00814F5000A3
:1015700006003A004E08A900604C280060807A00FE
:101580000000E00007003200004001004E08A80003
:10159000000006000201E800E4824200E50F51006D
:1015A000E5FF3A00000006004EC8BF007140600031
:1015B000F04F500007003A00AA0F020000000000A0
:1015C00024E8B7004800DE0025E8B70020C0B300DB
:1015D0000800370050C5B30024E8B700A0CAB30024
:1015E00025E8B700E0CFB30026E8B7004E28A800F2
:1015F00030C0B3004AE8B700000006004EC8BF0084
:1016000071406000F04F500007003A00B20F020036
:101610000000000024E8B7004800DE0025E8B7001D
:1016200020C0B3000800370050C5B30024E8B7005D
:10163000A0CAB30025E8B700E0CFB30026E8B700A2
:101640004E28A80030C0B3004AE8B70000000600EA
:101650004EC8BF0071406000F04F500007003A00D4
:10166000BA0F02000000000024E8B7004800DE00C6
:1016700025E8B70020C0B3000800370050C5B3000C
:1016800024E8B700A0CAB30025E8B700E0CFB30054
:1016900026E8B7004E28A80030C0B3004AE8B700DB
:1016A000000006004EC8BF0071406000F04F5000BF
:1016B00007003A00C20F02000000000024E8B70053
:1016C0004800DE0025E8B70020C0B300080037005E
:1016D00050C5B30024E8B700A0CAB30025E8B7009E
:1016E000E0CFB30026E8B7004E28A80030C0B30012
:1016F0004AE8B700000006004EC8BF007140600015
:10170000F04F500007003A00CA0F0200000000002E
:1017100024E8B7004800DE0025E8B70020C0B30089
:101720000800370050C5B30024E8B700A0CAB300D2
:1017300025E8B700E0CFB30026E8B7004E28A800A0
:1017400030C0B3004AE8B70000000600881F7800E8
:101750004C48E2001C00320000C8BF000082FB00C1
:10176000A24D28008000EB0023002000120078002A
:1017700064014100800F520006003A00A04D28008D
:10178000608079000000E0000E00320000000100DF
:101790000C0037008100E800E4814100E58F500033
:1017A000F2FF3A0048022000080178008000EB00B8
:1017B00040822000B802020000000000080078000B
:1017C0004AE8B7004C68EF004F04780000000600BC
:1017D0003600F800809FBE00829FBE00849FBE003E
:1017E000869FBE003400F80000002000A0018800A1
:1017F000801080004BE8B70018C2A90018C2BF00D3
:101800000028A30009003A0018C2BF000042B2003D
:1018100006003A004CE8B7004E88A900D0108000BE
:1018200000004000404288004300370018C2BF005B
:101830000028A30016003A0018C2BF000058A300F9
:101840001300320082108000020078004BE8B700DD
:101850004CC8BF000080FB000180200002F078002F
:101860002CFF07004BC8BF000080FB004828B400D5
:101870004C48EC004CE8B70031C2B300814F500037
:101880002D003600010078004CE8B7002A00370030
:1018900018C2BF000028A3000800320018C2BF0011
:1018A0000042B20005003A004DE8B7004828EF00BA
:1018B0004E28A900A5FF07000600370018C2BF0088
:1018C0000028A3001C00320018C2BF000058A3006B
:1018D00019003200D2842000124178004AC8BF00AB
:1018E000804F5100070031008280FB0040822000C1
:1018F000614078000080FB00901088004828B40008
:1019000009003700804F51000A003A004E28AB0012
:10191000020032001222EF00030037004848EE00B8
:101920000080FB00901088000240E8004DE8B700FE
:10193000010037001222EF008A20A9001782A800B8
:101940003400F9004F03BE004F02BE004F01BE003D
:101950004F00BE003600F900004006004E88A80087
:10196000000006004E88A800000006004E88A8006F
:10197000000006004E88A800000006004E88A8005F
:10198000000006008000EB000113880020122000F8
:10199000101388002113880061E2A80000000600EF
:1019A000E4E2A90040138000700D2000401388007D
:1019B00060C2BF000008A300FDFF3200401380009A
:1019C0006822EF0060C2BF000008A300FDFF3200E4
:1019D00040138000E4E2A8000080FB000000060045
:1019E000EFFF070056E8B7000004E000FCFF3D00F1
:1019F000E4E2A90040138000D003200040138800D7
:101A000060C2BF000008A300FDFF32004013800049
:101A1000A00220004013880060C2BF000008A3009D
:101A2000FDFF3200401380000008200040138800B2
:101A300060C2BF000008A300FDFF32004013800019
:101A4000600A20004013880060C2BF000008A300A5
:101A5000FDFF3200E4E2A80000000600881F7800C5
:101A600000047800CEFF070056E8B7000004E0004D
:101A7000FCFF3D00E4E2A9004013800010082000B4
:101A80004013880060C2BF000008A300FDFF3200C1
:101A9000401380004840DE004013880060C2BF0051
:101AA0000008A300FDFF320040138000F80FB200D1
:101AB0004813880060C2BF000008A300FDFF320089
:101AC000401380006822EF0060C2BF000008A3003E
:101AD000FDFF3200E4E2A8004F0478000000060099
:101AE000889FBE000004BE00ADFF070056E8B700A7
:101AF0000004E000FCFF3D00E4E2A9004013800088
:101B0000400820004013880060C2BF000008A30006
:101B1000FDFF3200401380006822EF0060C2BF006A
:101B20000008A300FDFF3200401380006822EF0090
:101B300060C2BF000008A300FDFF32004013800018
:101B40006822EF0060C2BF000008A300FDFF320062
:101B50008000EB004013800069C078000080FB002B
:101B60004013880060C2BF000008A300FDFF3200E0
:101B70008100E80000102000808F5000F5FF3A003F
:101B8000E4E2A800000000000000000000000000E7
:101B900083FF070056E8B7000004E000FCFF3D00AB
:101BA000E4E2A90040138000800820004013880070
:101BB00060C2BF000008A300FDFF32004013800098
:101BC0004840DE004013880060C2BF000008A30048
:101BD000FDFF320040138000F80FB2004813880068
:101BE00060C2BF000008A300FDFF32004013800068
:101BF0006822EF0060C2BF000008A300FDFF3200B2
:101C0000E4E2A8004F04BE0000000600889FBE006A
:101C10000004BE0062FF070056E8B7000004E000C1
:101C2000FCFF3D00E4E2A90040138000200D2000ED
:101C30004013880060C2BF000008A300FDFF32000F
:101C4000401380004840DE004013880060C2BF009F
:101C50000008A300FDFF320040138000F80FB2001F
:101C60004813880060C2BF000008A300FDFF3200D7
:101C7000401380006822EF0060C2BF000008A3008C
:101C8000FDFF3200401380006822EF0060C2BF00F9
:101C90000008A300FDFF3200401380006822EF001F
:101CA00060C2BF000008A300FDFF320040138000A7
:101CB0006822EF0060C2BF000008A300FDFF3200F1
:101CC000401380006822EF0060C2BF000008A3003C
:101CD000FDFF32008000EB00401380006822EF001F
:101CE00060C2BF000008A300FDFF32004013800067
:101CF00080F478008100E80000102000808F500000
:101D0000F5FF3A00E4E2A8004F04BE000000060020
:101D10006022EF0020122000101388006422EF00E0
:101D200061E2A8001EFF070056E8B7000008A30004
:101D300001003A002AFF0700000006000800FA0030
:101D4000889FBE008A9FBE008C9FBE006044B80082
:101D50000205BE00000678008006EB001C80FB0038
:101D600001F02F0001046400000474001C40900086
:101D70004800DD00F80FB200000474002C40900011
:101D80000080FB0081846400808474003C409000EB
:101D90004800DD00F90FB2008084740088017800EB
:101DA000090178008A0078000B007800FE0F02001D
:101DB000000000007F006500F80F500004003A00AA
:101DC000EAB79F00FBB79F0088BF9F0099BF9F00A5
:101DD0000D00E0000C0032000D00E800F003B2003E
:101DE00009003A008FB997001FB99700EFB097002C
:101DF0007FB09700FE0F02000000000010002400DA
:101E0000E60F02000000000062054500E0854D007D
:101E10008D06E8006406460000202000808F5600F2
:101E2000CEFF3A004F06BE004F05BE004F04BE0075
:101E30000080FA0000000600889FBE008A9FBE0056
:101E40008C1F7800000578000204BE0001067800AF
:101E50008005EB000E00370088007800090078004C
:101E60000610020000000000004D78004881DE00EE
:101E700012459800214598000040EB00304598003D
:101E80006405450062044400E0844C008B05E800D2
:101E90008C8F5500F0FF35004F0678004F05BE00CF
:101EA0004F04BE00000006000002BE008000EB00F0
:101EB00000202000800F510006003A002204240078
:101EC0008400780005007800141002000000000073
:101ED000110020000100780000000600F03F8100A2
:101EE00000000600E03F890000000600F03F890086
:101EF00000000600D33F8100FF816100E14F4000F8
:101F00000300320063006000FC8161008081710089
:101F1000E1CF400005003200638060004200DD0038
:101F200031FF2F008181610080817100E14F41000C
:101F300004003200610061004400DD000340A100A4
:101F400080817100D33F890000000600E03F8100DE
:101F500000000600D03F810000000600C03F89005D
:101F600000000600C03F810000000600B03F89006D
:101F700000000600B03F810000000600A03F89007D
:101F800000000600A03F810000000600903F89008D
:101F900000000600903F810000000600F03F810035
:101FA000E03F890010002000F03F89000041EB0075
:101FB00080C0EB00CFFF07000000FE00000006001D
:101FC000900188008100780000000600003B880036
:101FD0000600FC0050052000303B8800A00A2000CD
:101FE000303B880061E7A80000000000000000000E
:101FF00061E7AF00FEFF3700000006009001880097
:102000008308BB008288BB000000060090018800A6
:102010001100BA009180BA0000000600020C040012
:1020200000000000000006003200F800023B8800BB
:10203000900188008108BB000600FC0050052000CC
:10204000303B8800A00A2000303B880061E7A800F0
:10205000000000000000000061E7AF00FEFF370055
:102060003200F9000000060011017800C811DE00FE
:10207000024068000080FB0000004000622C280045
:10208000020040009088690000000600889FBE00A2
:102090008A9FBE008C9FBE00800678000205BE00AD
:1020A000010678006044B800050037008C00780015
:1020B0006D407C00ECFF070061044400E0844C00AC
:1020C0008A0F54008B8F5C00F8FF39004F06BE006A
:1020D0004F05BE004F04BE000000060000080000CF
:1020E0005000000000000000500800000600000042
:1020F0000000000056080000020000000000000080
:10210000000000000000FE00FFFFFF00FFFFFF00D7
:10211000FFFFFF00FFFFFF00FFFFFF00FFFFFF00CB
:10212000FFFFFF00FFFFFF00FFFFFF00FFFFFF00BB
:10213000FFFFFF00FFFFFF00FFFFFF00FFFFFF00AB
:10214000FFFFFF00FFFFFF00FFFFFF00FFFFFF009B
:103FF000FFFFFF000000000000010000A09700008C
:104000007020040000000000CA51040000000000FD
:10401000CA51040000000000CA5104000000000062
:10402000CA44040000000000CA510400000000005F
:10403000CA51040000000000CA5104000000000042
:10404000CA51040000000000E43504000000000034
:10405000CA51040000000000CA5104000000000022
:10406000CA51040000000000CA5104000000000012
:10407000CA51040000000000CA5104000000000002
:10408000CA51040000000000CA51040000000000F2
:10409000CA51040000000000CA51040000000000E2
:1040A000CA51040000000000CA51040000000000D2
:1040B000CA51040000000000CA51040000000000C2
:1040C000CA51040000000000CA51040000000000B2
:1040D000CA51040000000000FFFFFF00FFFFFF00C7
:1040E000EF602100207E2200000188000000000017
:1040F0000C000700A011250001002000110007009E
:10410000000020000000E000020032000000020079
:104110000000000052500200000000000040DA00E1
:104120000000FE004440A900403020000000E000F4
:104130000300320000002000A00188004440A800D5
:104140000000060091018800800078000000EB006C
:1041500015003700E280400032A0B4009101BA009F
:10416000E280400032A0B4009102BA00E280400038
:1041700032A0B4000002EB00472BDE00F507B200CE
:10418000602CE10004003A000059EB008301E900D3
:10419000FDFF3E00040037006128E100010032000D
:1041A0000082EB00040007001101BA000200E000E9
:1041B000E8FF3A00000006003159BA008301E90027
:1041C0000C0032002159BA008301E90008003200D6
:1041D0000400E00003003A00E280400032A0B40096
:1041E000F5FF370011D9BA008301E900FAFF3A0060
:1041F0008100E800E180400032A0B4000000060029
:1042000000000000C1C0000081C1000040010000AA
:1042100001C30000C00300008002000041C2000092
:1042200001C60000C00600008007000041C7000072
:1042300000050000C1C5000081C40000400400006A
:1042400001CC0000C00C0000800D000041CD00003A
:10425000000F0000C1CF000081CE0000400E000022
:10426000000A0000C1CA000081CB0000400B000022
:1042700001C90000C00900008008000041C800001A
:1042800001D80000C01800008019000041D90000CA
:10429000001B0000C1DB000081DA0000401A0000B2
:1042A000001E0000C1DE000081DF0000401F000092
:1042B00001DD0000C01D0000801C000041DC00008A
:1042C00000140000C1D4000081D50000401500009A
:1042D00001D70000C01700008016000041D6000082
:1042E00001D20000C01200008013000041D3000082
:1042F00000110000C1D1000081D00000401000007A
:1043000001F00000C03000008031000041F10000E9
:1043100000330000C1F3000081F2000040320000D1
:1043200000360000C1F6000081F7000040370000B1
:1043300001F50000C03500008034000041F40000A9
:10434000003C0000C1FC000081FD0000403D000079
:1043500001FF0000C03F0000803E000041FE000061
:1043600001FA0000C03A0000803B000041FB000061
:1043700000390000C1F9000081F800004038000059
:1043800000280000C1E8000081E900004029000089
:1043900001EB0000C02B0000802A000041EA000071
:1043A00001EE0000C02E0000802F000041EF000051
:1043B000002D0000C1ED000081EC0000402C000049
:1043C00001E40000C02400008025000041E5000059
:1043D00000270000C1E7000081E600004026000041
:1043E00000220000C1E2000081E300004023000041
:1043F00001E10000C02100008020000041E0000039
:1044000001A00000C06000008061000041A1000028
:1044100000630000C1A3000081A200004062000010
:1044200000660000C1A6000081A7000040670000F0
:1044300001A50000C06500008064000041A40000E8
:10444000006C0000C1AC000081AD0000406D0000B8
:1044500001AF0000C06F0000806E000041AE0000A0
:1044600001AA0000C06A0000806B000041AB0000A0
:1044700000690000C1A9000081A800004068000098
:1044800000780000C1B8000081B900004079000048
:1044900001BB0000C07B0000807A000041BA000030
:1044A00001BE0000C07E0000807F000041BF000010
:1044B000007D0000C1BD000081BC0000407C000008
:1044C00001B40000C07400008075000041B5000018
:1044D00000770000C1B7000081B600004076000000
:1044E00000720000C1B2000081B300004073000000
:1044F00001B10000C07100008070000041B00000F8
:1045000000500000C1900000819100004051000067
:1045100001930000C053000080520000419200004F
:1045200001960000C056000080570000419700002F
:1045300000550000C1950000819400004054000027
:10454000019C0000C05C0000805D0000419D0000F7
:10455000005F0000C19F0000819E0000405E0000DF
:10456000005A0000C19A0000819B0000405B0000DF
:1045700001990000C05900008058000041980000D7
:1045800001880000C0480000804900004189000007
:10459000004B0000C18B0000818A0000404A0000EF
:1045A000004E0000C18E0000818F0000404F0000CF
:1045B000018D0000C04D0000804C0000418C0000C7
:1045C00000440000C18400008185000040450000D7
:1045D00001870000C04700008046000041860000BF
:1045E00001820000C04200008043000041830000BF
:1045F00000410000C18100008180000040400000B7
:1046000000000000010000000100000002000000A6
:104610000300000004000000050000000600000088
:10462000060000000700000008000000090000006C
:10463000090000000A0000000B0000000B00000051
:104640000C0000000D0000000D0000000E00000036
:104650000F0000000F00000010000000110000001B
:104660001100000012000000120000001300000002
:1046700014000000140000001500000015000000E8
:1046800016000000160000001700000017000000D0
:104690001800000019000000190000001A000000B6
:1046A0001A0000001B0000001B0000001C0000009E
:1046B0001C0000001D0000001D0000001E00000086
:1046C0001E0000001F0000001F000000200000006E
:1046D0002000000021000000210000002200000056
:1046E000220000002300000023000000240000003E
:1046F0002400000025000000250000002600000026
:10470000260000002700000027000000280000000D
:104710002800000029000000290000002A000000F5
:104720002A0000002B0000002B0000002C000000DD
:104730002C0000002D0000002D0000002E000000C5
:104740002E0000002F0000002F0000002F000000AE
:104750003000000030000000310000003100000097
:10476000320000003200000033000000330000007F
:104770003400000034000000350000003500000067
:10478000360000003600000037000000370000004F
:104790003800000038000000390000003900000037
:1047A0003A0000003A0000003B0000003B0000001F
:1047B0003C0000003C0000003D0000003D00000007
:1047C0003E0000003E0000003F0000003F000000EF
:1047D00040000000400000004100000041000000D7
:1047E00042000000420000004300000044000000BE
:1047F00044000000450000004500000046000000A5
:104800004600000046000000002A210010958800A4
:10481000C04F210030958800A04F2100509588009E
:10482000804F210070958800404F210090958800AE
:10483000204F2100B0958800004F2100D0958800BE
:10484000E04E2100F0958800C04E210010968800AF
:10485000804A210030968800A04E2100B096880042
:10486000804E2100D0968800604E2100F09688008E
:10487000E029210030978800C02921005097880046
:10488000A029210070978800802921009097880036
:1048900060292100B0978800C0252100D0978800AA
:1048A000E0252100F0978800402921001098880019
:1048B000004E210030988800404E2100509888001A
:1048C000204E210070988800604F2100B098880029
:1048D00020292100D0988800002921001099880003
:1048E000E028210050998800C02821007099880094
:1048F000A02821009099880080282100B099880084
:1049000060282100109A8800204A2100309A8800EF
:1049100040282100509A880020282100709A8800A1
:10492000E04A2100909A880000282100B09A88006F
:10493000E0272100D09A8800404A2100109B88007F
:10494000C0272100309B8800A0272100509B8800B1
:1049500080272100709B880060272100909B8800A1
:104960004027210010A488002027210030A48800BF
:104970000027210050A48800E026210070A48800B0
:10498000212A2100310078000008EB00204A210094
:10499000808F5000FBFF3A00001022000095880035
:1049A00070B32700B0948800C05D20006093880039
:1049B00000A0200070948800001C220060948800F1
:1049C00000B02000509488000020B000409488007F
:1049D00000C82000309488000090210010A58800B5
:1049E0003013230070A58800003022000094880056
:1049F000F0938800E45002000000000020A5880029
:104A0000EC50020000000000E0938800F450020027
:104A100000000000D0938800FC500200000000005D
:104A2000C09388000451020000000000B093880089
:104A3000E03F2E00A093880000E0220090938800C1
:104A4000000026008093880070002000709388008A
:104A50006232EF006032EF005A32EF0000000600D1
:104A600069FF070000002800B010880080052000C2
:104A7000D0108800BCC0BF000044A1000046B300B5
:104A8000BCE0B7008A20EF009A20A80000000600D2
:104A9000881F780091A58000A5A580004828DD002A
:104AA0000082400080A580006101B8000203B100CF
:104AB0000380B100C0022000800F5100E08F590038
:104AC000F3003E00026001002C003700F0003700C8
:104AD00032003700EE00370035003700EC003700B9
:104AE00037003700EA003700E9003700E8003700F8
:104AF00037003700E60037008A003700E40037004F
:104B0000E3003700E20037008C003700E000370098
:104B1000DF003700DE00370094003700DC0037008C
:104B200097003700DA0037009A003700D8003700C6
:104B30009F003700D6003700D5003700D40037007B
:104B4000D3003700D2003700A0003700D000370074
:104B5000A0003700CE003700A1003700CC0037009E
:104B6000AF003700CA003700B3003700C800370075
:104B7000BD003700C6003700BD0037000400E0006C
:104B8000C3003A00D097800004087800F0978000B6
:104B90000408780010988000030037000400E0004B
:104BA000BB003A003098800004087800B800370055
:104BB0000400E000B6003A0050988000FAFF370089
:104BC0000400E000B2003A0070988000F6FF370061
:104BD000CE75A8000458A30010003A00F814E200B3
:104BE00001003A00F6B4A900F694AB0001003A00C7
:104BF000F6B4A90090AE8000E10F5000070032002B
:104C0000C0A780000028A30001003200F6B4A9006C
:104C10000038A30001003200F6B4A90004007800B7
:104C20000004B20002003A0090948800F6D4A90073
:104C3000E7006200E38F500004003200E68F50006E
:104C400002003200E78F500002003A0060D2A80054
:104C50000100370060D2A900B0A78000E701600022
:104C6000818F51000C00320060D2AB000A003A0084
:104C7000C05D2000E18F500006003A0090AE800039
:104C8000E10F500002003A0080322200010037009C
:104C900040CE200060938800F0F92F008000620071
:104CA000B0A780000058A300010032000150A0000E
:104CB0000068A300010032000160A000B2988000EB
:104CC00060D2AB000400320080B723000080600097
:104CD0000309400002003700F0B72300008960009C
:104CE000F6D4BF0067006000B1A7800001B8A30040
:104CF00002003A00E40F500002003A00CC55A80030
:104D00006300370001C8A30002003A00E50F50001D
:104D100002003A00CC95A9005D003700CC95A800B0
:104D20005B0037000400E00059003200D09880009A
:104D300004087800F6D4A8005500370030A580009C
:104D4000E10F500002003A0040CE20000100370081
:104D5000C05D2000800F520002003E00609388007A
:104D60004B00370064938800490037007199800038
:104D700000F02F0011004000519980000900370019
:104D8000509980000110200010804000719980002F
:104D90000B003700B199800000F02F001100400097
:104DA00091998000800F52003600310037003700A3
:104DB000909980000110200010804000B19980007F
:104DC000800F52002F00360030003700109A80000C
:104DD00075FF3700CDD5A800309A800072FF3700EC
:104DE00061A5880055A58800CC75A800C0B1240035
:104DF000800F520005003A00CEF5A80081804000E7
:104E000080D820008530780021003700FC8F5000CA
:104E10001F003A00CEF5A900056E88001C0037007F
:104E2000789A800004007800143A02000000000024
:104E3000000C78001600370020132300800F52006A
:104E40000200360034132300040037000000230062
:104E5000800F520001003E0000027800CC55A800EF
:104E6000909A800050FF3700B19A8000010037000F
:104E7000D19A8000F02F2200800F520003003600EC
:104E80000000E800800878000100370084087800FE
:104E90004F047800000006000600FA00FE35EF001F
:104EA00062B2A90002B08000F80F510003003A007E
:104EB0008010800000A788000600370082014100B2
:104EC000014B21008010800080B178008200E80052
:104ED00001B0880083A5800002B08000E1052000B9
:104EE000818F510062003A0062B2A800E20F5100C7
:104EF0002D003A0091A58000F20F2000828F500013
:104F000002003A004100200004003700A203200004
:104F1000828F500003003A00510020003193880036
:104F200067003700B2032000828F500002003A0071
:104F300061002000F9FF3700C2032000828F50007B
:104F400002003A0071002000F4FF3700D203200075
:104F5000828F500002003A0081002000EFFF3700EE
:104F60000100E000EDFF3200E18F5000EBFF320066
:104F7000020E2000828F500004003A0091002000B1
:104F8000CEF5AB00E5FF3A0003003700F20E20003B
:104F9000828F50000200360031002000DFFF370012
:104FA00021002000DDFF3700E50F510012003A001C
:104FB00031938000E68F500041003A00B1A5800097
:104FC0004809DD00C1A5800081004100617C8800A6
:104FD000E27F2F00828F500002003600F17F2F0009
:104FE000020037000280200082804000617C88003F
:104FF000CCD5A80032003700EA0F510030003A004B
:1050000031938000E98F50002D003A00D2108000CB
:105010008200410051938800024B2100B280400081
:10502000204C2100800F5100FCFF3A008100EA0073
:1050300001017800F20FB2005293880011A680009F
:10504000810F510008003A008001EB00414B210024
:10505000C259210061B179008381E800EE8F5100CF
:10506000FAFF3A00CD55A8000036EF0014003700D3
:10507000E40F510012003A000036EF006212A8005F
:10508000D0108000800040000381400091A5800086
:1050900081004100B414EE0081005000F10FB20015
:1050A00051938800B2A58000828F500003003A001F
:1050B0006252A80076FE0700010037006252A90084
:1050C0000080FA00000006000C00FA0000B080002A
:1050D000E50F50001D003A000036EF00D0108000B0
:1050E0000001400081A580000101410091A58000E0
:1050F00001014100A1A5800081004100B614EE002D
:1051000081005000F10FB20051938800C2A58000C9
:10511000828F500002003A006292A800010037001E
:105120006292A9006A32EF00219580008008EB00AE
:10513000A1A5800001814000212A2100E2807800A1
:105140009100780041938800040037000000E000DF
:10515000020032000036EF006292A900A4A5800090
:10516000B2A5800082004100810042008181E900F7
:105170008200E900EE8F500005003E00F10F200094
:10518000818F510002003E0062D2A800010037006A
:1051900062D2A900119380000105B200D1BF9F0027
:1051A000010520005FB89700810F500027003A00EA
:1051B000F3AF800082004100818F510005003A006A
:1051C0006A12EE00E0BF9F00F00FB200901088005E
:1051D000200037006180610003003200E10F5000C1
:1051E0001C003A000700370041938000F1BF9F0088
:1051F000F10FB20091108800901080006A32B40064
:105200001400370041938000C808DE009110880028
:10521000901080006A32B400830042008100E800F0
:10522000A1BF9F00219580008008EB00AFB89700D8
:10523000F10FB20001814000212A2100E2807800B4
:10524000910078004193880002003700A10F2000F0
:1052500091108800B1A58000818040000101E80024
:10526000F1AF80008100E800F1AF8800828F50002C
:10527000020039006292A900FE35EF000080FA00BA
:105280000000060003B08000E38F510028003600C4
:10529000D010800000004000509388008000EB0098
:1052A000044B210001003700340040000301E900F5
:1052B0008100E800838F5000FBFF3A008000EA0085
:1052C000F10FB2005193880002014100004B210010
:1052D00062007800808F500002003A006292A800BD
:1052E000010037006292A90063805100609288003B
:1052F000EF0F500002003E006272A800010037006C
:105300006272A9006A32EF000036EF00209580003B
:105310000008EB00A0A5800000004000212A210029
:105320006080780010007800409388000400370007
:105330000300E000020032000036EF006292A90094
:105340001093800078006000F80F50002A003A00A7
:10535000F1AF80006092800000004000808F50001C
:1053600003003A006A12EE00F00FB200230037008B
:105370006180600003003200E10F500020003A001D
:105380000600370040938000F00FB20090108800B4
:10539000901080006A32B40019003700F20F20002C
:1053A000409380004800DE0090108800901080003C
:1053B0006A32B4000100E8000000D1008080E800FB
:1053C000828F500001003600820078002095800016
:1053D0000008EB0081804000004B21006100780054
:1053E00000004000212A2100608078001000780031
:1053F0004093880002003700A00F20009010880022
:1054000060928000000040000000E800F1AF8000E2
:105410008100E800F1AF8800808F50000200390061
:105420006292A900FE35EF000000060001B0800086
:10543000E28F500019003600D010800000004000BC
:10544000509388008001EB00044B210001003700DD
:10545000340040000101E9008301E800818F510020
:10546000FBFF3A008000EA00F10FB2005193880080
:1054700002014100004B210062007800808F500043
:1054800002003A006292A800010037006292A9006F
:105490000036EF006A32EF00040037000100E00040
:1054A000020032000036EF006292A9005005200091
:1054B0006292AB0001003A00A00F2000901088001B
:1054C0000000060000B08000E80F50001D0036000C
:1054D0000036EF00D01080000000400081A5800061
:1054E0000100400091A5800001004000A1A58000BE
:1054F00001004000B1A5800001004000C1A580006E
:1055000001004000D1A5800001004000E1A580001D
:1055100001014000BE14EE0082005000F10FB20005
:105520005193880000A68000808F500002003A004E
:105530006292A800010037006292A9006A32EF006F
:10554000040037000000E000020032000036EF00E7
:105550006292A900A00F20006292AB0036003200D8
:10556000A0A58000E50F50001D003A00B1A5800005
:10557000D0082000808F500019003A00C0A580009C
:10558000E20F500016003A00BA14E20014003A008C
:10559000E2938000C810DE00E0A58000810F50007B
:1055A0000F003A00F20FB200F0A58000820F500009
:1055B0000B003A00F1AF8000100320000100E00072
:1055C0001D003200E18F500019003A00F00C20005D
:1055D00090108800CD35A800014178000C003700FC
:1055E000F0AF80000000E00003003200E10F500047
:1055F0000F003A0002003700500520000E0037006F
:10560000B00A200090108800CD35A9000041EB00C1
:1056100080C0EB0001407800B450020000000000A0
:10562000E45002000000000020A5880003003700BD
:10563000FE35EF000100370090108800FE15EC00E9
:10564000F0AF8800E10F5000020036006292A9001E
:10565000FE35EF000000060004B08000E70F5200A6
:105660003D003600D01080000000400050938800BC
:105670008000EB00034B21000100370033004000A5
:105680000401E9008100E800848F5000FBFF3A002C
:105690008000EA00F10FB20051938800020141003E
:1056A000004B210062007800808F500002003A0019
:1056B0006292A800010037006292A9006A32EF00EE
:1056C000A3A5800065814100200020008000EB0040
:1056D000454B210002003700B58040000000E80083
:1056E000820F5000FCFF36000101EA00F20FB20009
:1056F00052938800038041006C004000014B210060
:1057000060807800800F510002003A005A32A800F1
:10571000010037005A32A900E80F52000500360098
:105720000300E900EF0F5000020036005A52A900B2
:10573000010037005A52A800BA14E20002003A00F1
:105740005A72A800010037005A72A9000036EF0013
:105750006A32EF00040037000400E000020032006B
:105760000036EF006292A9006292AB003A0032006C
:10577000D0928000E6006000E68F500036003A00CC
:10578000CD35AB00340032000038A3002B003200CE
:10579000A4A580006501420001007800C34B2100F0
:1057A0008196200002003700B31878000000E8005E
:1057B000820F5000FCFF3600344B8800B0A58000FB
:1057C0004800DD00C1A5800081004000517C8800B8
:1057D000E07F2F00808F5000020036000000E800BC
:1057E000020037000080200000804000507C8800CC
:1057F0008ACFBF000081FB007392800082004100CD
:1058000080982000808040000000EB0085962000FA
:105810000300370082014000B51878000000E8005E
:10582000840F5000FBFF390073928800F00F2000B6
:10583000808F510001003A00CCF5A80000C1EB00B8
:105840008040EB0002407800B450020000000000ED
:10585000A00A200001003700A00F2000901088004F
:10586000FE15EC00F0AF8800020032006292A90041
:10587000FE35EF000000060000B08000E50F50008C
:10588000210036000036EF00D0108000A4A5800073
:10589000B2A58000C3A580000000400081A5800063
:1058A0000100400091A5800001004000040040007C
:1058B00002004000030040000000EA00F00FB200C8
:1058C00050938800D1A58000810F500002003A005B
:1058D0006292A800010037006292A9000200E00075
:1058E00006003A000300E00004003A00F00F520006
:1058F000020032005A72A900010037005A72A80053
:105900006A32EF00040037000000E00002003200BD
:105910000036EF006292A900A00F20006292AB0057
:1059200013003200D0928000680060001000320046
:10593000F1AF800052938000A0A58000808F5000BE
:1059400003003A000200EA00F00FB200080037003E
:105950000180400081B82000E0807800911088002C
:10596000020078001202B400509388000100370052
:1059700090108800A1A580008100E800FE15EC00D1
:10598000F0AF8800810F5000020039006292A90038
:10599000FE35EF00000006000400FA0000B08000B1
:1059A000E40F5000150036000036EF00D0108000E4
:1059B0000001400081A580000101410091A5800007
:1059C00001014100A1A5800081004100B614EE0054
:1059D00081005000F10FB20051938800C2A58000F1
:1059E000828F500002003A006292A8000100370046
:1059F0006292A9006A32EF00040037000000E00064
:105A0000020032000036EF006292A9006292AB0001
:105A100020003200CD35AB001E003200A1A5800071
:105A200002052000828F50000E003A00B1A58000D0
:105A300068015100828F50000A003A00F0AF8000E8
:105A4000110320000000E00013003200E10F5000BD
:105A50000E003A00F10C200091108800CC15A8002F
:105A60000E003700F0AF8000510520000000E0007C
:105A700009003200E10F500004003A00B10A200092
:105A800091108800CC15A90004003700FE35EF0006
:105A900002003700A10F200091108800FE15EC00D5
:105AA000F0AF8800E10F5000020036006292A900BA
:105AB000FE35EF000080FA000000060000B0800014
:105AC000E20F5000110036000036EF00D0108000C9
:105AD0000000400081A5800001014000B214EE00EA
:105AE00082005000F10FB20051938800A0A5800001
:105AF000808F500002003A006292A8000100370037
:105B00006292A9006A32EF00040037000000E00052
:105B1000020032000036EF006292A900F0AF800070
:105B20006292AB00180032000000E0000300320077
:105B3000E10F500012003A0002003700100320006D
:105B40001B003700F00C20009010880060AE800031
:105B50000010B20017003A00CD15A800204B8800B5
:105B600000802000407C880000C1EB0011C0B30021
:105B700002407800B4500200000000000D00370021
:105B8000FE35EF000B0037000000E000030032009C
:105B9000E10F500005003A000200370050052000D8
:105BA00003003700B00A200001003700A00F2000DA
:105BB00090108800FE15EC00F0AF8800E10F500057
:105BC000030036006292A90020002000F0AF880098
:105BD000000006000400FA0000B08000E20F500050
:105BE00011003600D01080000001400081A5800027
:105BF00081004100B214EE0081005000F10FB200AC
:105C000051938800A2A58000828F500002003A00C4
:105C10006292A800010037006292A9000036EF00EE
:105C20006A32EF00040037000000E000020032009A
:105C30000036EF006292A9006292AB0019003200B8
:105C4000F2AF8000820141008380E900C455210049
:105C5000E1007A00EA8F50000B003A00E480510026
:105C6000E1007A00ED8F500007003A006A12EE0062
:105C7000F0BF9F00F00FB200901088006292A90060
:105C8000FE35EF000900370002014100C155210037
:105C9000E280780091108800901080006A32B40091
:105CA00002003700A10F200091108800FE35EC00A3
:105CB0000080FA0000000600109380000008A30096
:105CC0000D0032000036EF006212A900FE35EF0031
:105CD000B1A580006252AB00020032009110880032
:105CE00003003700F00F20000100500090108800E2
:105CF0006252A90000000600000178000202B20012
:105D0000190032003093800001002000E90F50009C
:105D1000E08F580059003E00006001000900370084
:105D20000900370009003700080037000800370075
:105D30000800370008003700080037000800370067
:105D400008003700E0FC37004EFD3700B7FD370094
:105D5000DCFD370040FE3700C7FE37000EFF37007E
:105D600056FF37009BFF370002B08800FE15E200A7
:105D700014003A00D010800080014000B014EE0002
:105D800083005000F10FB2005193880090A580006D
:105D9000808F50000A003A006232A80020958000EF
:105DA0000208780080A5800000004000212A210020
:105DB0006080780010007800409388000100370070
:105DC0006232A900F1AF8000109380006200600091
:105DD00017003200E18F50000A0032000300390042
:105DE000E28F500010003A000C0037004093800012
:105DF000F00FB2009010880090108000509388003F
:105E000019003700409380004800DE0090108800A1
:105E1000901080006A32B400130037006A12EE005E
:105E2000F00FB20009003700FE35EF000E0037001A
:105E3000E18F50000700320003003900E28F50006C
:105E400008003A0005003700500520009010880037
:105E500005003700A00A2000FCFF3700E00F2000FB
:105E6000FAFF3700F0AF8800FE15EC00F0AF8800B5
:105E7000E20F500001003600FE35EF000000060082
:105E800083AE80004318DE0062006000D1A780006E
:105E90000110A10080807000618061004200DD007F
:105EA0000120A100808070004319DE000300D100B2
:105EB00002007000610060004300DD000130A100BD
:105EC00080807000D1A7880030A58000E20F5000CC
:105ED00002003200F734AB00040032000328A300B4
:105EE00005003200D055A900020037000328A300A6
:105EF00001003200FAD4A80072AE8000E100610017
:105F0000C208DD00E0A780000020A10001007000B1
:105F1000E0A78800F6D4BF006700600030A58800C5
:105F20000218A30003003200FC34A800FA94A90070
:105F300004003700FC34A900F7B4AB0001003A00BC
:105F4000FA94A800E45002000000000020A5880098
:105F5000EC50020000000000E0938800F4500200C2
:105F600000000000D0938800FC50020000000000F8
:105F7000C09388000451020000000000B093880024
:105F80000000060093AE8000E18F510028003A0027
:105F900050928000E20F20000200B8004A09DD00A4
:105FA0004600DE0000007100C608DE00E80F500069
:105FB00002003E00EE34EF0002003700680050009F
:105FC00070A7880040928000129622000200B8005C
:105FD0004609DD004A00DE0000007100CA08DE004C
:105FE0000004B000010C2000810F500002003E00B0
:105FF00061A788000100370060A7880070A78000B3
:106000004600DE0062A780004311DE000280B90076
:106010004500DE0041022000810F500002003E00DA
:1060200041A588000500370040A58800030037001F
:10603000EE34EF00EC34EF00A834EF00E0A780006E
:106040006103600026003200E18F510024003A0015
:1060500052948000C4FC2F00B0FC2F00800F510030
:1060600002003E00340320000202420043948000FC
:10607000300320008002EB00808F510001003600C9
:106080008082510071A78000828F50000200310091
:10609000F874A8000800370000B82000808F500076
:1060A00005003600DA42E20003003500848F50001C
:1060B00001003900F874A900838F500002003600F7
:1060C000F854A8000600370080C92000808F5000D7
:1060D00003003E00858F500001003E00F854A900E7
:1060E000E4C2BF000028A300030032000290210098
:1060F000017C210008003700E4C2BF000038A30083
:1061000003003200022C2100011D21000200370093
:10611000C20A210071FD20000600E00009003200E3
:1061200060A78000820F500002003600F914A8001A
:1061300000000600810F500003003E00F914A90082
:1061400000000600F914A9000000060050AE80000F
:106150004601DD0052A7880070AD80004600DD00DA
:1061600040A788000C16E20036003A003194800007
:10617000031420008002EB00838F500001003600E2
:106180008382500084AE80006803620002003A00FF
:10619000810F510002003900F894A8000300370075
:1061A000850F510001003E00F894A90011A5800060
:1061B000021420008001EB00828F500001003600A5
:1061C000828150006201620002003A00810F50009B
:1061D00002003900F8B4A80003003700830F500014
:1061E00001003E00F8B4A9000600E0000200320001
:1061F000FB14A80001003700FB14A9000200E00016
:106200000E00320061AD80000100E00005003200A8
:1062100050AD80000000E00005003200808F50008B
:1062200003003600FB34A800FB54A9000000060060
:10623000FB34A900FB54A80000000600FB34A900B1
:10624000FB54A90000000600D1A7800080928000C6
:10625000808F50000200320081928800CE75A90024
:106260000100E00002003A006012A90003003700BC
:10627000F08F5000010032006012A800F814E20014
:1062800002003A006032A900000006006032A80057
:1062900000000600E0A78000620060000A003200F3
:1062A000D2AA8000A2A78800C0AA800090A7880078
:1062B000B1AA800000002F00808F500006003E0031
:1062C00081A7880004003700A0A7880090A7880055
:1062D00080A78800000006000C16E2001B003A00B0
:1062E000719480008081EB00E0ED2F00808F5000E2
:1062F00002003E000312200081814100810F510005
:1063000002003100F834A80003003700830F510069
:1063100001003600F834A90060948000010A2000D2
:106320008001EB00810F5000010036008101500018
:10633000800F510002003600F814A800000006008B
:10634000830F510001003100F814A900000006007D
:1063500051AE80000100E00002003A00F194880094
:1063600008003700E05120000008B8004809DD00AF
:106370004800DE0000007100C808DE000000E800F0
:10638000F094880031A7800000322000808F5000F8
:1063900002003E009832EF0008003700300C800009
:1063A000120420000200B8004809DD004800DE00A9
:1063B00000007100C808DE00C094880061AD800054
:1063C000CC15E20011003D000100E00002003A009F
:1063D000E194880008003700004120000008B80060
:1063E0004809DD004800DE0000007100C808DE003A
:1063F0000000E800E094880051AD800000412000DA
:106400000100E00013003A00100037000100E00036
:1064100002003A00E194880008003700103820009C
:106420000008B8004809DD004800DE0000007100E7
:10643000C808DE000000E800E094880051AD80004C
:10644000103820000100E00002003A00D1948800DA
:10645000000006000008B8004809DD004800DE0022
:1064600000007100C808DE000000E800D094880039
:106470000000060071AE80000104B2000B00320083
:106480005232EF006072A9000030220020B0880074
:1064900010B088009A20A900E462A8000000000063
:1064A00000000000E442A8001000370000938000C4
:1064B000680060001E003200A2A78000F0CD20001E
:1064C000800F51000B0036009192880000A421003B
:1064D00020B0880010B088009A20A900E462A800CB
:1064E0000000000000000000E442A9009A20A8007B
:1064F0001400370000CA2000800F510011003E0038
:10650000919280008100E80091928800703821000B
:10651000808F50000B003600103DB00020B0880086
:1065200010B088009A20A900E462A900ECFF3700AF
:10653000909288006072A80000A4210020B088001A
:1065400010B0880070AE80000008A30002003A007E
:1065500060B2A80005003700FC14AB0002003A004E
:106560000018A30001003A0060B2A900FC14AB00BF
:1065700002003A0060B2AB0002003A006092A9004B
:10658000010037006092A80000938000F0026000D4
:10659000040032000194800020B0800084072000B5
:1065A00003003700F193800010B08000C444200045
:1065B000808F5000010039008000780063A78000C0
:1065C000818F510001003900CFF5A8000001EB00D8
:1065D000F01F2000808F50000200360000E02F00E6
:1065E00000814000828F510001003E00CFF5A900DC
:1065F00090AE8000E10F500011003A0071AE8000B3
:1066000040002800008060000B0032005412EC00B3
:10661000A0928800840F50000A003900D015A8000D
:106620000500E00002003200FB74A8000000060034
:10663000FB94A80000000600A0928800000006005D
:106640005432EF0000000600E0A780006200600006
:106650002E003200FDD4BF00E14F500004003A008C
:1066600000562F00F414B400013220000B00370054
:10667000E24F500004003A00002E2F00F414B40042
:106680000140200005003700E34F500005003A00AC
:1066900000A22E00F414B40001BC2000810F5000B1
:1066A00001003600FD74EF00FD54E20018003A00CE
:1066B000A1A78000F0B32000808F500014003600A6
:1066C0001024B000808F500002003E0010C0B300C4
:1066D0000C00370000082100808F500002003E00AF
:1066E00020C0B30007003700F0672100808F500002
:1066F0000700360000102200808F500004003E008A
:1067000030C0B300FDF4B70000000600FDF4B70090
:1067100000000600E0A780000008A30009003A007E
:10672000FA14E20009003A000018A3000700320042
:10673000F714AB0003003A0030A58000E10F5000D1
:1067400002003A00DC82A80000000600DC82A900FA
:1067500000000600E0A78000620060000B0032002D
:1067600081A7800000A78000808F500001003900C1
:1067700001A7880091A7800020A78000808F50008B
:106780000400390021A788000000060000A7880047
:1067900020A7880000000600FC14AB0006003200B1
:1067A00061A7800010A78000808F5000060039008C
:1067B00011A788000000060070AE80006100600034
:1067C00001003A0010A7880000000600707C8000DD
:1067D000610160001B003A00E0A7800062006000D9
:1067E00014003200B19280008100E800B19288006C
:1067F00070382100808F500012003600B29288005D
:10680000A0948000E10F40000E0032000000E8007C
:10681000A094880080A78000E2928000F39280001C
:1068200000004100E0804900E0928800F192880079
:1068300000000600B09288005C32EF005E32EF008C
:10684000A09488000000060018C2BF000038A30012
:106850000200320060F2A8000700370018C2BF0033
:106860000048A3000400320018C2BF000028A300A3
:106870000100320060F2A900F2C2BF000028A300AC
:1068800006003200F2C2BF000038A300030032004D
:10689000009380000008B20002003200FC35EC00DA
:1068A00001003700E0AF8800E1AF8000F0E1240094
:1068B000808F50000D003600FC35EF0060F2A9001B
:1068C0009A20A9001622EF0000002800B0108800CE
:1068D00080108000E882A800E8A2A8000036EF003F
:1068E000FE35EF008A20EF009A20A8000000060085
:1068F000FAD4BF00E004B20002003A00FA14A90082
:106900000B00370030A58000E20F5000020032007B
:10691000F734AB0002003200FAD4AB0004003A00B6
:10692000DCC2BF000058A30001003200FA14A80026
:1069300070AE8000010026000100600001003200FE
:10694000FA14A80000000600FC34AB001500320069
:106950000C16E20014003A00009380000008A30027
:1069600004003200CE75AB0002003A00F674AB00B2
:106970000A003A000018A3000B003200F694AB00A6
:106980000900320090AE8000E10F50000300320099
:10699000C0A780006C00600003003A00F6B4A800B5
:1069A00001003700F6B4A900F6B4AB0002003200D3
:1069B000CDC2A80000000600CDC2A900000006005C
:1069C00030A58000E10F500008003A0090AE800032
:1069D000E10F500002003A0080322200040037002C
:1069E00040CE20002093880009003700C05D2000C1
:1069F0002093880090AE8000E10F500004003A0020
:106A00006052AB0007003A006052A8000300370054
:106A10006052AB00030032006052A9002093800056
:106A2000609388008094800092948000820F5000D0
:106A300002003900620920000001410060AE8000C0
:106A400000D8A30002003200409C20000300370061
:106A500000C8A3000400320080892000800F51008C
:106A600001003E000001780031A780007025200061
:106A7000808F500011003600C0928000828F50003D
:106A8000080039008000E800C1928800300620002C
:106A9000808F5000090036005832EF00FA35ED00C3
:106AA000060037000000E800C0928800E90F50009F
:106AB000020036005832EF00FA35EC00D1AF80000A
:106AC000004B2000808F5000020036000000E800DC
:106AD000D0AF880071072000D0AF8000810F500038
:106AE00001003E00D1AF880000000600F6D4AB00E4
:106AF0000D003200D1AF800050B08000808F500078
:106B00000700390040B08000808F50000400390039
:106B10008194800090948000808F500002003900A2
:106B2000FCD4A80000000600FCD4A9000000060068
:106B300050AE800082022000C15D2000820F500014
:106B40000800360082005000E98F50000100360036
:106B5000A1002000206720000088B900C25D20004D
:106B60008000410060938000808F500002003E0052
:106B700080948800000006008194880000000600D0
:106B8000E4FE0700F2FD07008DFF0700D7FF0700B6
:106B9000ADFE0700E6FF07008E0FAB0009003A00CC
:106BA000B7FC0700F7FC0700BAFD070067FD070008
:106BB000A5FD0700E7FE0700F7FE07004CFF0700F2
:106BC00061FF0700000006003600F800809FBE004D
:106BD000829FBE00849FBE00869FBE0018C2A9008F
:106BE00018C2BF000028A30005003A0018C2BF0069
:106BF0000058A30002003A00801080000D0037000A
:106C000018C2BF000028A30005003A0018C2BF0048
:106C10000058A300020032009FF80700050037006B
:106C200018C2BF000028A3000200320080108000BC
:106C300021FC070060AE8000814C20000100600054
:106C400001003A001782A8008A20A9004F03BE0065
:106C50004F02BE004F01BE004F00BE003600F900DB
:106C6000004006008000EB00011388002012200085
:106C7000101388002113880061E2A800F140880009
:106C80000000060080007800E4E2A90040138000C4
:106C900010498800700D20004013880060C2BF00BA
:106CA0000008A300FDFF3200401380001049880057
:106CB0006822EF0060C2BF000008A300FDFF3200A1
:106CC0004013800080087800E4E2A800000006007D
:106CD000E0812000EBFF07001EE8AB00FCFF320064
:106CE000E4E2A9004013800010498800D00320008E
:106CF0004013880060C2BF000008A300FDFF3200FF
:106D00004013800010498800A00220004013880032
:106D100060C2BF000008A300FDFF320040138000E6
:106D200010498800000820004013880060C2BF009E
:106D30000008A300FDFF32004013800010498800C6
:106D4000600A20004013880060C2BF000008A30052
:106D5000FDFF3200E4E2A80000000600881F780072
:106D600000047800E0812000C6FF07001EE8AB00A9
:106D7000FCFF3200E4E2A9004013800010498800C3
:106D8000100820004013880060C2BF000008A30064
:106D9000FDFF320040138000104988006822EF0098
:106DA00060C2BF000008A300FDFF32004013800056
:106DB000104988004813880060C2BF000008A30083
:106DC000FDFF320040138000104988006822EF0068
:106DD00060C2BF000008A300FDFF3200E4E2A8008B
:106DE0004F04780000000600E0812000A5FF0700A6
:106DF0001EE8AB00FCFF3200E4E2A9004013800073
:106E000010498800400820004013880060C2BF007D
:106E10000008A300FDFF32004013800010498800E5
:106E20006822EF0060C2BF000008A300FDFF32002F
:106E300040138000104988006822EF0060C2BF0044
:106E40000008A300FDFF32004013800010498800B5
:106E50006822EF0060C2BF000008A300FDFF3200FF
:106E600081D8200042138000110078004013880070
:106E700060C2BF000008A300FDFF32008180E8006F
:106E800080F82000808F5000F6FF3A0012498800F9
:106E9000E4E2A80000000600881F780000047800E3
:106EA000E081200077FF07001EE8AB00FCFF320006
:106EB000E4E2A90040138000104988008008200007
:106EC0004013880060C2BF000008A300FDFF32002D
:106ED00040138000104988006822EF0060C2BF00A4
:106EE0000008A300FDFF3200401380001049880015
:106EF0004813880060C2BF000008A300FDFF3200F5
:106F000040138000104988006822EF0060C2BF0073
:106F10000008A300FDFF3200E4E2A8004F0478005F
:106F200000000600E081200056FF07001EE8AB00CD
:106F3000FCFF3200E4E2A900401380001049880001
:106F4000200D20004013880060C2BF000008A3008D
:106F5000FDFF320040138000104988006822EF00D6
:106F600060C2BF000008A300FDFF32004013800094
:106F7000104988006822EF0060C2BF000008A3002B
:106F8000FDFF320040138000104988006822EF00A6
:106F900060C2BF000008A300FDFF32004013800064
:106FA000104988006822EF0060C2BF000008A300FB
:106FB000FDFF320040138000104988006822EF0076
:106FC00060C2BF000008A300FDFF32004013800034
:106FD000104988006822EF0060C2BF000008A300CB
:106FE000FDFF320040138000104988006822EF0046
:106FF00060C2BF000008A300FDFF320081D820005E
:10700000421380006822EF0060C2BF000008A300A6
:10701000FDFF3200401380008018780080F82000C7
:10702000808F5000F6FF3A0012498800E4E2A80081
:107030000000060081D820008018EB0080F82000B6
:10704000808F5000FCFF3A00E0022000306E880084
:1070500065FF07002029EF000000EB008EFF3700DE
:1070600088CDBF0016E8B7008ACDBF0017E8B7008B
:107070008CCDBF0014E8B7008ECDBF0015E8B70077
:1070800090CDBF0012E8B70092CDBF0013E8B70063
:1070900094CDBF0010E8B70096CDBF0011E8B7004F
:1070A00098CDBF000EE8B7009ACDBF000FE8B7003B
:1070B0009CCDBF000CE8B7009ECDBF000DE8B70027
:1070C000A0CDBF000AE8B700A2CDBF000BE8B70013
:1070D000A4CDBF0008E8B700A6CDBF0009E8B700FF
:1070E000A8CDBF0006E8B700AACDBF0007E8B700EB
:1070F00000000600881F7800E04080006204600005
:107100001B003A001C28A800E0812000DDFE0700DB
:107110001E08AB001300320082FF0700BACDBF008B
:1071200018E8B700BCCDBF0019E8B700BECDBF005E
:107130001AE8B700206E800030498800306E800069
:1071400020498800086E88000849880008007800F7
:1071500002FF070024FF0700004980004EFF0700E0
:1071600002003700DAFE0700B2FF0700BCFF07008D
:107170004F04780000000600304980004049880034
:1071800018C8BF000080FB005049880019C8BF0024
:107190000080FB00604988001AC8BF000080FB0027
:1071A00070498800FCD4BF000080FB008049880043
:1071B000FDD4BF000080FB0090498800FAD4BF00D6
:1071C0000080FB00A0498800FBD4BF000080FB00CA
:1071D000B0498800F8D4BF000080FB00C049880097
:1071E000F9D4BF000080FB00D0498800F4D4BF0070
:1071F0000080FB00E0498800F5D4BF000080FB0060
:10720000F0498800F2D4BF000080FB00004A8800EB
:10721000F3D4BF000080FB00104A8800EED4BF000A
:107220000080FB00204A8800EFD4BF000080FB00F4
:10723000304A8800ECD4BF000080FB00404A880040
:10724000EDD4BF000080FB00504A8800EAD4BF00A4
:107250000080FB00604A8800EBD4BF000080FB0088
:10726000704A8800E8D4BF000080FB00804A880094
:10727000E9D4BF000080FB00904A8800E6D4BF003C
:107280000080FB00A04A8800E7D4BF000080FB001C
:10729000B04A8800E4D4BF000080FB00C04A8800E8
:1072A000E5D4BF000080FB00D04A8800E2D4BF00D4
:1072B0000080FB00E04A8800E3D4BF000080FB00B0
:1072C000F04A8800F6D4BF000080FB00004B880025
:1072D000F7D4BF000080FB00104B880000000600C0
:1072E000FC14AB002E0032001040800021408000D2
:1072F00061014000E081480012408800234088007E
:10730000F07B220091002000800F5100818F5900F6
:10731000230036000228EF000428EF00C24080005E
:10732000D3408000E0FF2F00F10F2000800F5100BC
:10733000818F590004003E0061014100E081490055
:10734000C2408800D3408800014080008100E800EE
:1073500001408800F0592000808F50001000360056
:107360000028EF0018C8BF000080FB00D06D880027
:1073700019C8BF000080FB00E06D88001AC8BF007C
:107380000080FB00F06D88002029EF000000EB007A
:1073900072FE070094FE070000498000BEFE070051
:1073A00000000600CC75AB001E003200CEF5AB002D
:1073B00003003A0060A58000F80F500017003E005F
:1073C000D8FE070062A5800053A58000820041001E
:1073D00080D8200083307800FE0F510002003A0070
:1073E0003349880003003700FF0F510001003A00C5
:1073F000234988002029EF000000EB0057FE07001A
:1074000079FE070000498000A3FE070060A5800008
:10741000F80F500001003E0011FF0700CC75A900D5
:107420001782A800000006000080FB000001400059
:1074300081D82000E2807800C808DD00010040000B
:1074400000000600881F78008E0FAB003900320064
:107450008E0FA90022498000810E2000E00220004A
:10746000800F510001003200F800510001814000FE
:1074700088D82000FAD4BF000080FB00E2007C0026
:10748000808F500007003A000280E800B14F2100D1
:10749000914078008180FB0060007C00810F5000EB
:1074A000240032002629EC0033FF07002149800028
:1074B000018040008801400082922000B2197800CB
:1074C0008100E80040962000800F5100FBFF3A0049
:1074D00021498800F00F2000808F50000200360004
:1074E000E00220002049880018C8BF000080FB008F
:1074F000D06D880019C8BF000080FB00E06D8800D7
:107500001AC8BF000080FB00F06D88003049800081
:10751000206E880020498000306E88002029EF000E
:107520000000EB000DFE07002FFE07000049800061
:1075300059FE07004F0478000000060016C8BF007F
:107540000080FB00406C880017C8BF000080FB0073
:10755000506C880014C8BF000080FB00606C88007D
:1075600015C8BF000080FB00706C880012C8BF0007
:107570000080FB00806C880013C8BF000080FB0007
:10758000906C880010C8BF000080FB00A06C8800D1
:1075900011C8BF000080FB00B06C88000EC8BF009F
:1075A0000080FB00C06C88000FC8BF000080FB009B
:1075B000D06C88000CC8BF000080FB00E06C880025
:1075C0000DC8BF000080FB00F06C88000AC8BF0037
:1075D0000080FB00006D88000BC8BF000080FB002E
:1075E000106D880008C8BF000080FB00206D880077
:1075F00009C8BF000080FB00306D880006C8BF00CE
:107600000080FB00406D880007C8BF000080FB00C1
:10761000506D88000000060070AE80000078A30066
:1076200049003A000018A30012003200A1A7800010
:10763000B0408000808F500002003600B1408800CA
:107640001C48A80021A78000A0408000808F500027
:1076500002003600A14088001C48A80001A7800055
:1076600090408000808F50000200360091408800DA
:107670001C48A800FC14AB001200320071A7800067
:1076800080408000808F50000200360081408800DA
:107690001C48A80011A7800070408000808F500017
:1076A00002003600714088001C48A80041A58000F7
:1076B00060408000808F50000200360061408800EA
:1076C0001C48A80051A7800050408000808F5000C7
:1076D00002003600514088001C48A80041A78000E5
:1076E00040408000808F50000200360041408800FA
:1076F0001C48A80031A7800030408000808F5000D7
:107700000500390070252000808F500002003600EF
:10771000314088001C48A8001C48AB00080032001B
:107720001C48A90085FF07002029EF000000EB009E
:107730008AFD0700ACFD070000498000D6FD070068
:107740001C68A900000006001C68AB000D003A0090
:107750001C68A80081D820008018EB00C0DA200047
:10776000808F5000FCFF3A003DFE07002029EF000B
:107770000000EB0079FD07009BFD07000049800039
:10778000C5FD070000000600CCD5AB004900320063
:10779000E08120003BFD07001EE8AB00FCFF32004B
:1077A000E4E2A9004013800010498800200D200069
:1077B0004013880060C2BF000008A300FDFF320034
:1077C00040138000104988006822EF0060C2BF00AB
:1077D0000008A300FDFF320040138000104988001C
:1077E0008DCFBF000080FB004013880060C2BF0047
:1077F0000008A300FDFF32004013800010498800FC
:107800008CCFBF000080FB004013880060C2BF0027
:107810000008A300FDFF32004013800010498800DB
:107820006822EF0060C2BF000008A300FDFF320025
:1078300040138000104988006822EF0060C2BF003A
:107840000008A300FDFF32004013800010498800AB
:107850006822EF0060C2BF000008A300FDFF3200F5
:1078600040138000104988006822EF0060C2BF000A
:107870000008A300FDFF320081B820004213800001
:107880006822EF0060C2BF000008A300FDFF3200C5
:10789000401380008018780080D82000808F50002E
:1078A000F6FF3A0012498800E4E2A8001782A80017
:1078B000CCD5A90000000600E0812000F1FC070003
:1078C0001EE8AB00FCFF3200E4E2A9004013800098
:1078D00010498800200D20004013880060C2BF00BE
:1078E0000008A300FDFF320040138000104988000B
:1078F0006822EF0060C2BF000008A300FDFF320055
:1079000040138000104988008BCFBF000080FB002F
:107910004013880060C2BF000008A300FDFF3200D2
:1079200040138000104988006822EF0060C2BF0049
:107930000008A300FDFF32004013800010498800BA
:107940006822EF0060C2BF000008A300FDFF320004
:1079500040138000104988006822EF0060C2BF0019
:107960000008A300FDFF320040138000104988008A
:107970006822EF0060C2BF000008A300FDFF3200D4
