:020000040000FA
:100000005828FF3FFF3FFF3FFD000308FE000A089E
:10001000FF000408FC008A11831203138D1E1428AC
:100020008D128A1575248A11831203138C1D2128C1
:100030008C118A15AD258A1183120313141394139E
:1000400014160B1D27280B118A158E248A11831272
:1000500003138C1E2E288A1517258A118B1C4F28F6
:100060008B1083160313ED17B501B6016D1F4928D8
:100070006D138312031310100E0883120317BF00B1
:10008000831203130F088F018E0183120317C00020
:100090004F28831203131014831603136D177C0863
:1000A00084007F088A007E088300FD0E7D0E090013
:1000B0007130831603138F000F1D5C2805148C010B
:1000C0008D018316031712308800073089008316CC
:1000D00003139F01831203138501860130308700CB
:1000E00083160313AE3085008613831603139A011B
:1000F0009901181218158C168312031318169817E5
:1001000083160317871107148312031381016400F8
:1001100083160313D0300105433881004F30831616
:10012000031392000C30831203139D0011309B00C7
:100130000C3083120317E3008030E400453083164F
:100140000313C400C301C501831203138C100430D0
:100150009200303090008C1CAB288316031387105C
:1001600083120317FF30D700DC01831203133E30E4
:1001700094008316031394018C1511148312031732
:10018000C630870089160912831603138F30970033
:100190008D1683160313A0012017A016A101A50137
:1001A000A601E701F601AA01DC01AB01AC01AD013A
:1001B000AE01AF012F14B0013014B1010530B2000F
:1001C000B7013714B8013814B9013914BA01013034
:1001D000BB00D001BC01BD01BF01C0010130BE00A8
:1001E000BE30D700BA30DA00C101C201D601DE014B
:1001F0000A30D500B301EB01EC010C30A40007304C
:10020000C800C901CA01CB01D401D101CC01CD0183
:10021000DD01E901ED01ED17B501B601D901DB0101
:10022000D801B401E40183120317C301C401C5015D
:10023000AC01AD01AE01AF01B001B101B201C1012C
:10024000C201E001E101B7013714F101F7018312A6
:1002500003175030D8002030840083130030800012
:10026000840AD80B2F290B30D80020308400831744
:1002700000308000840AD80B392983120313203000
:100280000038A10022160A30E500C030E600213017
:10029000E7000B30E9000D30EB00E430E0000C30FB
:1002A000E100831203178030A0000C30A100193048
:1002B000A300A201F0308B0064008A2197212D2237
:1002C0009222B8228826212375238127E9278A15BF
:1002D0001D21592300205E208A117E23A2239E2403
:1002E0002F258F25D826F7255C2900000000000067
:1002F00000000000000000000000000000000000FE
:1003000000000000000000000000000000000000ED
:1003100000000800BE3083120313851FFD39891DBC
:10032000FB39061FF7398316031393000800831661
:1003300003139F13A530831203139F0075219F148D
:100340009F18A0291E0883160313A200E900831238
:100350000313051ED929831603132B18C1299D30B9
:10036000831603132202031CB8292B14AE01F129B2
:100370000130831603132D02031CF1290130AD0057
:10038000DC2998308316031322020318CA29AB0113
:10039000AD01F1294B30831603132E02031CF12902
:1003A0002C144B30AE0083120313051405172214CE
:1003B000F12983160313AE01AC018312031322103B
:1003C00005108312031307305A05013C031DEE2963
:1003D0002418EE29A21CEE290517F1298312031314
:1003E000051383160313A008031DFC2983160313AA
:1003F0005C08323C031CFE29A5012C2A25180D2A75
:10040000831603136908573C031C0A2A2514A60106
:10041000E7012C2AA50120122C2A5C308316031335
:100420006902031C152AA5012C2A831603136708E9
:10043000043C03182C2A0530E7002016A017A1144D
:10044000AE01AC0183120313051205102415241408
:100450003108FA003008F9000800913083120313C4
:100460009F0075219F149F18332A1E0883160313BB
:10047000A2002F186A2A6630831603132202031C77
:10048000442A2F14B201912A01308316031331023A
:10049000031C912A0130B100B001A0128312031392
:1004A000221583160313A11F912AA1012010ED1715
:1004B000B501B601201283120313A401A601DA12BA
:1004C000F10183120317C101C201AC01AD01AE01FC
:1004D000AF01912A831603132208333C031C722AAE
:1004E000AF01B1010530831603133202031C912AB8
:1004F0000530B2003014A016A013A117AE01AC0154
:10050000A601E701831203130512051083120313DA
:100510002211D601D701AE01AF01B001B101B20184
:10052000B3010800831603133818A42A371C9B2A2A
:100530003814BB01B72A3A08963C0318B72A9630FC
:10054000BA00B9012013B72A3718A92AB801BA018D
:10055000B72A3B08013C0318B72A0130BB00391405
:100560002017AE01AC018312031305120510080019
:1005700083160313201A08004C08853C031CD92A53
:100580004C08803C031CE22A5708883C0318CC2AFC
:100590008830D7008630DA004C08583C031CDE2A2D
:1005A0004C08563C031CE22A7C30D7007A30DA0033
:1005B000E22ABE30D700BC30DA00E22A8830D70009
:1005C0008630DA008530831203139F0075219F1453
:1005D0009F18E82A1E0883160313A200AA003C18DD
:1005E000032B220857020318F92A3C14BF01C0014B
:1005F000202B3E08013C0318202B0130BE00A01127
:10060000211DBD01202B22085A02031C0A2BBC010C
:10061000BE01202B3F08033C0318202B0330BF00F2
:100620003D14A015A0172115AE01AC0183120313D0
:1006300005120510241524143108FA003008F900B9
:100640000800A130831203139F0075219F149F1887
:10065000272B1E0883160313EE004118532B9930E5
:100660006E0203183B2BA330330203183B2B693077
:100670006F02031C3F2B4114D601DE01742B0A309C
:10068000831603135502031C742B0A30D500201166
:10069000C20183120313A4112408EE39031D742B25
:1006A0002410F101742B6E08943C031C622B9E30C5
:1006B00033020318622B64306F020318622BC101EE
:1006C000D501742B0A30831603135E02031C742BAE
:1006D0000A30DE0042142015AE01AC018312031370
:1006E00005120510A4152414080083160313A0088E
:1006F000031D7D2B831203130516080083120313B9
:10070000DA1AA12B83120313861B9E2B8312031369
:10071000DA1D902B24080319902B7106031D952BCD
:100720005A1EA12B26080319A12B2408F1008312BD
:100730000313861783120313DA16080083120313B8
:100740008613080064008316031363083C3C0318F7
:10075000AE2B371483120317B715CF2B8312031751
:10076000B71DCF2BB71183160313A101A001ED17FD
:10077000B501B60183120313A401A601DA12F10137
:1007800083120317C101C201AC01AD01AE01AF017B
:100790001C30B300B4018A154D248A11F71083125E
:1007A00003176208093C0318F52B83160313CC01C9
:1007B00083120313A210A801A901AA01AB01AC0185
:1007C000AD01AE01AF01B001B101B201B301CC0185
:1007D000CD01CE01CF01D001D101D201D301D4018D
:1007E000D501D601D7012416782C831203132412C5
:1007F00083120313A21C092C4730831603134C02E7
:10080000031C162CE230831603134C020318162C1B
:100810001F2C4830831603134C02031C162CE130A6
:10082000831603134C020318162C1C2C831203137B
:10083000A210A3102310612C83120313A214913071
:10084000831603134C0203185C2C83120313A318A2
:10085000302C7230831603134C02031C3F2C612C86
:100860002318462C5A30831603134C02031C522CB7
:100870007230831603134C0203184D2C612C5B302D
:10088000831603134C020318572C522C91308316F5
:1008900003134C02031C4D2C612C831203132310F1
:1008A000A310612C831203132314A310612C831251
:1008B00003132310A314612C831203132314A31412
:1008C0007714831603134C0883120317BC00C0303F
:1008D000BB0078260530B900BA0152263D088312C4
:1008E0000313A900831203173E0883120313A80001
:1008F00029086502031C8A2C031D842C2808640225
:10090000031C872C03198B2CA218A6148B2CA03C3B
:1009100003188B2CA61067082902031C9C2C031DAE
:10092000972C66082802031C992C03199D2C261469
:100930009D2CA03C03189D2C261008008312031345
:10094000A218A72CD401D501AA01AB010800F71CFD
:100950002E2D831603135D08F500F3004D08F400F7
:10096000F2000430E8000310F20DF30DE80BB32C95
:100970007208F4070318F50A7308F5070310F20D5F
:10098000F30D7208F4070318F50A7308F50706302B
:10099000E8000310F50CF40CE80BC92C7718DA2CDE
:1009A0002830F800F508031DD82C7408283C031CD7
:1009B000F80A042D77102030F800F508031D022DE9
:1009C00074081B3C0318042DF80A74081E3C031815
:1009D000042DF80A7408233C0318042DF80A74083F
:1009E0002A3C0318042DF80A7408303C0318042D1F
:1009F000F80A7408363C0318042DF80A74083D3CC4
:100A00000318042D2730F800780883120317B30069
:100A10008A1566248A11340A0319B401B41F162DED
:100A20007F303405F402031CF5031A2D3408F40753
:100A30000318F50A750883120313AB007408AA00A3
:100A40002B085502031C2A2D031D08002A085402F6
:100A5000031808002A08D4002B08D50008008312C8
:100A60000313A218382DD201D301AC01AD01080047
:100A7000771D8E2D77112908F3002808F2002A0827
:100A80000317BC000630CA000310F30CF20CCA0BAB
:100A9000442D7208BB0078263D08F3003E08F200A2
:100AA00003132B080317BC0078263D08F4003E080A
:100AB000F3070318F40A0530CA000310F40CF30C12
:100AC000F20CCA0B5D2DF308031D6C2D7208323C2D
:100AD000031C6C2D3230F200031373083302031C25
:100AE0007C2D031D772D72083202031C7C2D3208E9
:100AF000AC003308AD00802D7308AD007208AC0067
:100B00002D085302031C8A2D031D08002C085202D5
:100B1000031808002C08D2002D08D3000800831603
:100B200003133918080030180800761C9E2DF6149F
:100B300083120D30AF00CC30AE00CC2D9F17A53006
:100B4000831203139F0075219F149F18A52D1E0863
:100B5000F500F300831603131E08F400F2009F1340
:100B60000310F20DF30D0310F20DF30D7408F207EC
:100B70000318F30A7508F3070310F50CF40C0310BF
:100B8000F50C740CF202031CF30375087302831254
:100B90000313AF007208AE0083120313221CF62D5C
:100BA0002F086902031CE12D031DDC2D2E086802AD
:100BB000031CDE2D0319E32DA615E32D333C03188A
:100BC0008B2CDA1EA6116B082F02031CF42D031DBB
:100BD000EF2D6A082E02031CF12D0319F62D2615A0
:100BE000F62D333C0318F62DDA1E2611080064009A
:100BF00083120317D31C512ED310831203132C0816
:100C000083120317C307031C082EC40A0319C50A5D
:100C1000831203132D0883120317C4070318C50A90
:100C200083160313F3306A02031C512EEA01831268
:100C30000313510A031D1F2E500A0319512E83124C
:100C400003174408BE004508BD000630CA00031063
:100C5000BE0DBD0DCA0B272E3D30B900BA0152267C
:100C60003E0883120313CC07031C3D2ECD0A031D3F
:100C70003D2ECE0A031D3D2ECF0A831203173D08D9
:100C800083120313CD07031C492ECE0A031D492EE0
:100C9000CF0AD00A0319D10A83120317C301C40172
:100CA000C5010800831203171030CA003D08C900AF
:100CB0003E08C800BD01BE010030C701C6010310D7
:100CC000C80DC90DC60DC70D3A084702031D6A2E8F
:100CD00039084602031C732E3908C602031CC703D9
:100CE0003A08C7020314BE0DBD0DCA0B5F2E0034B7
:100CF00083120317BD01BE010830CA003B08031070
:100D0000BC0C0318BD07BD0CBE0CCA0B802E0034F2
:100D1000831603133918B22E3018B22E3608123C3F
:100D20000318B22E8312031307305A05023C03192D
:100D3000A72E831603132014AE01AC01ED1383120A
:100D400003130512051083120313BE01BF018312A2
:100D50000313241A0800241707305A05023C031D08
:100D600024140800831203174008BA003F08B90092
:100D7000FF30BD00FF30BE0052263D08F4003E08A3
:100D8000BC007430BB0078263E0883120313BE00FB
:100D9000831203173D08F3007408BC007826BD08D1
:100DA000031DD72E3E08730783120313BF000800EC
:100DB000831603133C18E02E2518E02E2C1C080087
:100DC0009F178530831203139F0075219F149F186E
:100DD000E72E1E08F300831603131E08F2009F136C
:100DE00058080F3C031CFC2E7208DB070318D90AB5
:100DF0007308D907D80A562FD8010310D90CDB0C79
:100E00000310D90CDB0C0310D90CDB0C0310D90C2C
:100E1000DB0C5B08F400F2005908F500F300031046
:100E2000D90CDB0C0310D90C5B0CDC00D901DB0105
:100E30000310F40DF50D7408F2070318F30A750892
:100E4000F3070310F40DF50D0310F40DF50D740800
:100E5000F2070318F30A7508730783120313B1002E
:100E60007208B0003F08F2000C30F202031C3D2F64
:100E70000310720CB002031CB103B108031D462F0E
:100E80003008D03C031C462FC030B0005708310258
:100E9000031C562F031D522F56083002031C562FD9
:100EA0000319562F3108D7003008D60003138312D8
:100EB0003108F3003008F2002E080317BC000310BD
:100EC000F20DF30D0310F20D730DBB0078263D08F3
:100ED000F30003132F080317BC0078263E08F3071E
:100EE0000318BD0ABD08031D7B2F7308243C031C97
:100EF0007B2F2430F3003D080313B3007308B200C6
:100F0000080083120317B718080083160313A008FC
:100F1000031DE22F831203135A080739013C031DF6
:100F2000982F283083120313E0002330E100E82FCC
:100F300083160313ED1DA52F83120313B1080319A4
:100F4000AE2F83160313ED11E22F83120313B108A2
:100F5000031DE22F3008D03C031CE22F831603133D
:100F6000ED15831603132B306F02031CDB2F831246
:100F70000317BC00B430BB0078268830BE070318C6
:100F8000BD0A13303D0783120313E10083120317D8
:100F90003E0883120313E0006108433C031CD62F74
:100FA000031DE82F6008303C0318E82F4330E100B0
:100FB0003030E000E82F831203131330E100883053
:100FC000E000E82F831203130C30E100E430E0006E
:100FD0000800831603136B080C3C031CF52FEC0A66
:100FE0000319EB0A6D18ED1408000F30EB00ED103B
:100FF0000800FF3FFF3FFF3FFF3FFF3FFF3FFF3F37
:10100000A930831203139F000A30F200F20B062866
:101010009F149F1809281E0883160313EF006F08FA
:10102000433C03181D286F0883120317BC0030309F
:10103000BB008A1178268A152C286F0883120317A3
:10104000BC004230BB008A1178268A159C30BE0253
:10105000031CBD030430BD023D0883120313BB0013
:10106000F300831203173E0883120313BA00F20041
:10107000261E4E284030F2070318F30A730A831223
:1010800003172102031C0800031D4A2872082002CE
:10109000031C08008312031326120800730883122E
:1010A00003172102031C5A28031D0800720820029E
:1010B000031808008312031326160800831603136F
:1010C0003308B63C031C78283308443C03188828AE
:1010D000330883120317BC002630BB008A11782620
:1010E0008A153030BE070318BD0A0230BD079D289F
:1010F000330883120317BC003E30BB008A117826E8
:101100008A15D830BE02031CBD030E30BD029D28D7
:10111000330883120317BC003B30BB008A117826CA
:101120008A156030BE02031CBD030330BD023D08BA
:10113000E03C03189D28BD01BE013D08F3003E08B8
:10114000F200831603136E08AC3C031CBB286E0828
:101150003A3C0318CB286E0883120317BC002230D8
:10116000BB008A1178268A152830BE070318BD0AED
:101170000530BD07DA286E0883120317BC0035302E
:10118000BB008A1178268A158A30BE02031CBD0373
:101190000730BD02DA286E0883120317BC00303016
:1011A000BB008A1178268A153C30BE070318BD0A99
:1011B0000230BD073D08F5003E08F40075087302D3
:1011C000031CEF28031DE82874087202031CEF2893
:1011D000730883120313BD007208BC00F72875085A
:1011E000F30083120313BD007408F200BC00A61EB6
:1011F0000D294030F2070318F30A730A831203170C
:101200002302031C0800031D092972082202031C83
:10121000080083120313A612080073088312031731
:101220002302031C1929031D080072082202031857
:10123000080083120313A616080083160313201C4C
:10124000362983120313E430E0000C30E100BF08BC
:10125000031D422983120317E111831203130C307B
:101260009D00831203130B309B00582B201D3F2938
:10127000831203174630BD005030BE00322AA0084A
:101280000319472983120317BE01BD01322A24081E
:101290000A3C031C5129A30A0319A40A6D18AF299B
:1012A0002C2AA401A30183120313AB08031D702988
:1012B0008312031737196329831203132A08333C57
:1012C000031C70296929831203132A08403C031C5C
:1012D000702983160313B4018312031737159E294F
:1012E000831203173711831603136D1D79296D11AE
:1012F0009E296D152B306F02031C8D298312031755
:10130000BC006430BB008A1178268A158830BE077D
:101310000318BD0A1330BD079329831203178830C1
:10132000BE001330BD003D08831203133F020318B3
:101330009E2983160313340A031DB40A831603136C
:101340003308783C031CAF2934020318AF2950300E
:101350006F020318AF295A306E02031CE22983166C
:1013600003136D146508013C031CBA29E60A03192E
:10137000E50A582BE601E501B408031DB403ED1C92
:10138000CA2983120317D030E4070318E30A073091
:10139000E3071C2A831603132A08993C0318D9294A
:1013A00083120317D030E4070318E30A0730E3077A
:1013B0001C2A83120317C830E4070318E30A00301D
:1013C000E3071C2A831603136D106E08463C031CAA
:1013D0001C2A6230330203181C2A3308623C340290
:1013E00003181C2A46306F0203181C2A83120313A9
:1013F0003F080C3C03181C2A83160313ED10E40A63
:101400006408043C0318082AE401340A031DB40AE2
:10141000831203177830E402031CE30363080C3CD7
:10142000031C1C2A031D182A6408803C031C1C2A68
:101430000C30E3008030E400831203176308463C5D
:10144000031C282A031D2C2A6408503C03182C2A4C
:101450004630E3005030E400831203176408BE00F6
:101460006308BD00831203135A1F8D2A83120313CE
:101470005D08831203173D02031C4E2A031D4A2AEE
:10148000831203135C08831203173E02031C4E2AC7
:1014900003194E2A831203132217962A8312031369
:1014A000221383120317E118652A831203135D08C0
:1014B00083120317BD00831203135C088312031702
:1014C000BE0083120317E114962AE119962A8312AB
:1014D00003175508BE005408BD00CB0B962A0130F7
:1014E000CB00831203133F085D02031C862A031DF1
:1014F0007F2A3E085C02031C862A0319962A83125F
:1015000003170230BE070318BD0A962A8312031779
:101510000230BE02031CBD03962A83120313DC01B2
:10152000DD01221383120317E110CB018312031391
:101530005A1BAB2A6108831203173D02031CB92A08
:10154000031DF42A831203136008831203173E025B
:101550000318F42AB92A83120313221B9A2A61085A
:101560005D02031CB92A031DF42A60085C020318FB
:10157000F42A83120317E119CB2A8312031361089B
:1015800083120317BD00831203136008831203172D
:10159000BE00E115052B831203175108BD00520848
:1015A000BE00CC0B582B0230CC00831203133F0833
:1015B0006102031CEA2A031DE32A3E086002031CA1
:1015C000EA2A0319052B831203170230BE070318FA
:1015D000BD0AF72A831203170230BE020318052B37
:1015E000BD08031DBD03052B83120317E1113D0840
:1015F000463C031C012B031D052B3E08503C0318E1
:10160000052B4630BD005030BE00831203173D0845
:10161000D400D1003E08D500D200831203173B301E
:10162000B900BA018A1152268A153E08831603139F
:10163000C400831203173D0883160313C3008312EB
:101640000317611B402B013C031C2E2B031D352B64
:10165000831603134408403C0318352B83160313E9
:101660000130C3004030C400402B83160313C3086D
:10167000031D402B4408453C031C402B4530C4004F
:10168000831603130C30C50044184516C418C5163C
:101690004508831203139D00831603130310C30C24
:1016A000C40C0310C30CC40C4408831203139B0026
:1016B0000800640083120317371C742B37101F3087
:1016C000B30066242E303402031D692BE830B300CA
:1016D0006C2B18303402B30066243408B6001E3078
:1016E000B30066243408B800761C782BF61C402C16
:1016F00083120313241C872B240883120317360636
:10170000EF390319872B8312031761148C2BF60111
:1017100083120317371E402C37121930B3003030B4
:10172000840083170330B500662434088000B30AB0
:10173000840AB50B942B4108B0070318B10A42087C
:10174000B1070318B20AC101C201AC01AD01AE017B
:10175000AF01300831073207F2001930B3003030E2
:1017600084008317831203170330B50041248312CA
:1017700003171930B3000330B500F30166243408B1
:10178000F307B30AB50BBE2B73087202031DAD2B12
:10179000611C402C6110F60183120313240883128C
:1017A0000317B6001D3083120317B3000130B400D5
:1017B0004D241F3083120317B30066243408B3008E
:1017C000B80A3808B4004D2483120317B30A303026
:1017D000840083170330B500412422308400831332
:1017E000831203170A30B50041242E30840083127F
:1017F00003170230B500412483120313241D032C68
:1018000079308400052C30308400831203170230B5
:10181000B50041243A308400831203170630B50026
:10182000412454308400831203170430B50041244E
:101830005A308400831203170230B500412483120A
:10184000031733080319262CB400282C2E30B400BB
:101850001F30B3004D241E3083120317B3006624DB
:1018600083120317B40A4D241D3083120317B300EB
:10187000B4014D2483120313B001B101B201B301CD
:1018800008000008B4004D2483120317B30A840A29
:1018900083120317B50B412C08008B138B1B4D2CA7
:1018A0008312031733088D0034088C008316031746
:1018B0008C130C1555308D00AA308D008C148C18AB
:1018C0005F2C0C118B178B1F622C080033088312BE
:1018D00003178D00831603178C130C148312031740
:1018E0000C0883120317B400080083120317071BA8
:1018F0008A2C061E8A2C83120313831205120510EC
:10190000A41424148316A014A0172114AE01AC0152
:1019100076148D2C83160313A010080064000B119D
:1019200083120317601EB22C83120317D00303190E
:10193000CF03CF08031DB22CD008031DB22C831295
:1019400003139412831203138C1183120317E00103
:10195000FF30D700DC01D601831203133930940025
:101960003E30940083120313241AB92C83120317F8
:10197000E20A83160313E30A63083C3C0318C22CF3
:101980003D30E30083160313251CCA2CA60AA60AC1
:101990000319E70A2B18AE0A2B1CAD0A2F1CB10A3B
:1019A0002F18B20A381CBA0A3818BB0A3C1CBE0AE7
:1019B0003C18C00A0319BF0A411CD50A411CE32C7C
:1019C000D60A0319DE0AED1FE82CB50A0319B60A78
:1019D00083120317D318F02CD31483160313EA0AC7
:1019E000831603132C1C162D83120317AF0A2F081E
:1019F000F43C0318162DAF01AE0A2E08773C0318ED
:101A0000162DC10A031D052DC20AAE01AD0A2D080F
:101A10003B3C0318162DAD01AC0A2C08173C0318EB
:101A2000162DAC01AD01AE01AF01371608008312CF
:101A30000317E20183160313E30183120313181D36
:101A4000272D98130000000000009817080083124B
:101A500003131A0883160313C90083120313981C77
:101A6000372D181200000000000018160800831619
:101A700003134818462DC8185A2D4819772DC81930
:101A80007C2D0F3083160313C8000800C0304902B4
:101A90000319522D4908093C0318572D49080E3CDB
:101AA000031C572D48104908CA00D20008000F3007
:101AB000C80008004A08C03C031D722D49084A07A7
:101AC000031D722D831603130130BB003914201738
:101AD000AE01AC0137140F30C80083120313051296
:101AE00005100800C8104908CB00D20708004811AB
:101AF0004908D400D20708000F30C800490852072F
:101B0000031D08000A30831603134A020319952D9A
:101B10000B30831603134A020319982D0E308316D7
:101B200003134A020319A22DA42D4B08CC00A42DA7
:101B30004B08CD0003305405DD004D04031DF714A0
:101B40007715A42D4B08B3005408F039C03C031D91
:101B5000AB2D37140800B701080083160313141EB9
:101B6000EB2D83120317601CE22DE018E22D831287
:101B70000313141EBE2D83160313141183120317AF
:101B80005719CD2DD71DD92DD71183120313130843
:101B900083120317DB00D607D92DD71CD72DD710FA
:101BA00083120313130883120317D900D607CE2715
:101BB000DA2D822683120317E001E015D601FF30EB
:101BC000D7000800E001FF30D700DC01D601831602
:101BD00003139401080083160313141CF12D941AA7
:101BE000322E83120317601683120317CC30D000F5
:101BF0000430CF00831603131408053903190800B5
:101C0000831203131308831603131419102E83125F
:101C10000317D6006014E010E011FF30D700080071
:101C200083120317E0185D2E6014E014E019202ED3
:101C3000D71D1C2ECE271D2E822683120317E015DA
:101C400083120317DC0803192D2E5D08831203137A
:101C50009300831203175C10080083120313FF30F4
:101C60009300080083160313141D3A2E83120317E2
:101C7000E0185D2E83160313141C0800831203134F
:101C8000130883120317571C492E5710D800D60784
:101C90000800D71C4F2ED710D900D6070800571DB3
:101CA000552E5711DA00D6070800D71D5B2ED71125
:101CB000DB00D6070800D6070800831203175C1C58
:101CC000692E5D08831203139300831203175C10BF
:101CD0000800DC1C732E5E0883120313930083122A
:101CE0000317DC1008005C1D7D2E5F0883120313B0
:101CF0009300831203175C110800FF308312031353
:101D00009300080083120317DC015C14D608031D3E
:101D1000C92F5B08DD005818080058082F3C03182D
:101D20000800831203175808583C031C080044306D
:101D30008312031758020319C62E4630580203199E
:101D4000A92E483058020319C62E4A305802031DE6
:101D5000DF2E58081F3E8400831300085A02031C1C
:101D6000BA2E031DDF2E840300085902031CBA2E6D
:101D7000031DDF2E58081F3E84000008DA00DA0A2F
:101D80000319DA0384030008D900DF2E5808233E24
:101D90008400831300085A02031CDF2E031DD52E76
:101DA000840300085902031CDF2E5808233E8400D8
:101DB0000008DA00031DDA0384030008D900831247
:101DC00003175808303C031DF42ED908031D0800E2
:101DD000DA08031D080083120313D001D101CC01DE
:101DE000CD01CE01CF01080058083A3C031D172F42
:101DF00083120317D91B0800591F022F83120313E4
:101E00005A1F080083120317D91E0A2F83120313C7
:101E1000DA1E08008312031759080739043C031C13
:101E20000800590883120313DA00DB010800580880
:101E30003C3C031D342FDA08031D212FD908031958
:101E40000800831203175A0883120313DD0083125C
:101E50000317590883120313DC00831203135A1764
:101E600083120317E11008005808403C031D652F3A
:101E700083120317E111831203135A080739013C37
:101E8000031D452F83120317E116831203175A0807
:101E90000C3C031C592F031D512F5908E33C031C14
:101EA000592FB7100C3083120313E100E430E00027
:101EB0000800B7145A0883120313E10083120317B2
:101EC000590883120313E000080083120317393006
:101ED0005802031C7B2F58083E3C03197B2F5808DF
:101EE000423C03197B2F58084C3C03197B2F5808A0
:101EF0004E3C031D812FDA08031D0800D908031D7D
:101F0000080058084F3C031C872F83138A2F50303A
:101F1000D80283175808203E840059088000840A9C
:101F20005A0880005808063C0319BB2F5808043C87
:101F3000031D080059081F3C0318AC2F59082D3CFD
:101F4000031CAC2F1C308D0083168C130C148312D1
:101F50004B300C06031D080059088D005A088C00F0
:101F600083168C118C130C1555308D00AA308D0002
:101F70008C140C11080059088D00831603178C135C
:101F80000C14831203170C0883120317A700A60171
:101F90000800831203175B09DD0008008312031792
:101FA0000730DC00D608031DF12F5818FA2F580807
:101FB000563C031CFA2F58084F3C031CE12F831397
:101FC000E42F5030D80283175808203E84000008C0
:101FD000DD00840A0008DE005D07FF3CDF00DF0A49
:101FE0000800553083120317DD00AA30DE00FE30F2
:101FF000DF000800DD01DE01DF010800FF3FFF3FD9
:04400E00C42BFF3888
:08400000FF3FFF3FFF3FFF3FC0
:1042000000000000000000000000000000000000AE
:10421000000000000000000000000000000000009E
:10422000000000000000000000000000000000008E
:1042300000006000A70039000000000000002E0010
:10424000060005000500030004000200030003004F
:10425000010001000100010000000000000000005A
:10426000000000000000000000000000000000004E
:10427000000000000000000000000000000000003E
:10428000000000000000000000000000000000002E
:10429000000000000000000000000000000000001E
:1042A000000000000000000000000000000000000E
:1042B00000000000000000000000000000000000FE
:1042C00000000000000000000000000000000000EE
:1042D00000000000000000000000000000000000DE
:1042E00000000000000000000000000000000000CE
:1042F00000000000000000000000000000000000BE
:1043000000000000000000000000000000000000AD
:10431000000000000000000000000000000000009D
:10432000000000000000000000000000000000008D
:10433000000000000000000000000000000000007D
:10434000000000000000000000000000000000006D
:10435000000000000000000000000000000000005D
:10436000000000000000000000000000000000004D
:10437000000000000000000000000000000000003D
:10438000000000000000000000000000000000002D
:10439000000000000000000000000000000000001D
:1043A000000000000000000000000000000000000D
:1043B00000000000000000000000000000000000FD
:1043C00000000000000000000000000000000000ED
:1043D00000000000000000000000000000000000DD
:1043E00000000000000000000000000000000000CD
:1043F00000000000000000000000000000000000BD
:00000001FF
