:020000040000FA
:10000000005004000000000042A100001AA10000FE
:1000100020A1000026A100002CA1000042A10000A8
:1000200042A1000042A1000042A10000CE8C0000CD
:1000300042A10000F47A000042A1000042A10000A9
:1000400042A1000042A1000042A1000042A1000024
:1000500042A10000D685000042A1000042A100009C
:1000600042A1000042A100006C6B000042A1000010
:1000700042A1000042A1000042A1000042A10000F4
:1000800042A1000042A1000042A1000042A10000E4
:1000900042A1000042A1000042A1000042A10000D4
:1000A00042A1000042A1000042A1000042A10000C4
:1000B00042A1000042A1000042A1000042A10000B4
:1000C00042A1000042A1000042A1000042A10000A4
:1000D00042A1000042A1000042A1000042A1000094
:1000E00042A1000042A1000042A1000042A1000084
:1000F0004C75000042A1000042A1000042A1000096
:1001000042A1000042A1000042A1000042A1000063
:1001100042A1000042A1000042A1000042A1000053
:1001200042A1000042A1000042A1000042A1000043
:1001300042A1000042A1000042A1000042A1000033
:1001400042A1000042A1000042A1000042A1000023
:1001500042A1000042A1000042A1000042A1000013
:1001600042A1000042A1000042A1000042A1000003
:1001700042A1000042A1000042A1000042A10000F3
:1001800042A1000042A1000042A1000042A10000E3
:1001900042A1000042A1000042A1000042A10000D3
:1001A00042A1000042A1000042A1000042A10000C3
:1001B00042A1000042A1000042A1000042A10000B3
:1001C00042A1000042A1000042A1000042A10000A3
:1001D00042A1000042A1000042A1000042A1000093
:1001E000029400000A97000042A10000627E000015
:1001F0005C9C00007297000042A1000042A1000038
:10020000FFFFFF00FFFFFF006A4500005A450000A6
:100210005E45000062450000664500006A4500003A
:100220006A4500006A4500006A450000E4300000AD
:100230006A450000F41E00006A4500006A4500009F
:100240006A4500006A4500006A4500006A450000F2
:100250006A450000DA2900006A4500006A4500008E
:100260006A4500006A4500006C0F00006A45000006
:100270006A4500006A4500006A4500006A450000C2
:100280006A4500006A4500006A4500006A450000B2
:100290006A4500006A4500006A4500006A450000A2
:1002A0006A4500006A4500006A4500006A45000092
:1002B0006A4500006A4500006A4500006A45000082
:1002C0006A4500006A4500006A4500006A45000072
:1002D0006A4500006A4500006A4500006A45000062
:1002E0006A4500006A4500006A4500006A45000052
:1002F0004C1900006A4500006A4500006A4500008C
:100300006A4500006A4500006A4500006A45000031
:100310006A4500006A4500006A4500006A45000021
:100320006A4500006A4500006A4500006A45000011
:100330006A4500006A4500006A4500006A45000001
:100340006A4500006A4500006A4500006A450000F1
:100350006A4500006A4500006A4500006A450000E1
:100360006A4500006A4500006A4500006A450000D1
:100370006A4500006A4500006A4500006A450000C1
:100380006A4500006A4500006A4500006A450000B1
:100390006A4500006A4500006A4500006A450000A1
:1003A0006A4500006A4500006A4500006A45000091
:1003B0006A4500006A4500006A4500006A45000081
:1003C0006A4500006A4500006A4500006A45000071
:1003D0006A4500006A4500006A4500006A45000061
:1003E00018380000203B00006A450000662200002B
:1003F00084400000883B00006A4500006A45000018
:10040000FFFFFF00FFFFFF00FFFFFF00FFFFFF00F8
:10041000FFFFFF00FFFFFF00FFFFFF00FFFFFF00E8
:10042000FFFFFF00FFFFFF00FFFFFF00FFFFFF00D8
:10043000FFFFFF00FFFFFF00FFFFFF00FFFFFF00C8
:10080000EFEA200040FE2100000188000000000007
:100810000C00070000442400010020001100070024
:10082000000020000000E000020032000000020092
:1008300000000000A2340200000000000040DA00C6
:100840000000FE004440A900200020000000E0005D
:100850000300320000002000A00188004440A800EE
:100860000000060091018800800078000000EB0085
:1008700015003700E280400032A0B4009101BA00B8
:10088000E280400032A0B4009102BA00E280400051
:1008900032A0B4000002EB00472BDE00F507B200E7
:1008A000602CE10004003A000059EB008301E900EC
:1008B000FDFF3E00040037006128E1000100320026
:1008C0000082EB00040007001101BA000200E00002
:1008D000E8FF3A00000006003159BA008301E90040
:1008E0000C0032002159BA008301E90008003200EF
:1008F0000400E00003003A00E280400032A0B400AF
:10090000F5FF370011D9BA008301E900FAFF3A0078
:100910008100E800E180400032A0B4000000060041
:10092000889FBE008A9FBE00010578000100E0009C
:100930000400350008003C000000E0002000320008
:100940000500370060001000E080180002003B0046
:1009500001F02C001A0037000004BE006011B8003E
:100960006B0920000982CF00020039000882CF0005
:100970000441B000694252000E00320008003B0002
:1009800082817100610164008904D1000884D30070
:100990008B05E8000442E800F9FF3A000500370043
:1009A0000804440089844C008B05E9000442E900F6
:1009B000FBFF3A00920007000AF0A70001F0A00038
:1009C0004F05BE004F04BE000000060003F0A20069
:1009D000889FBE008A9FBE008C1F7800AE00070073
:1009E000B50033006450E1004F0032006420E100A4
:1009F0005200320003826C0007003B000905D00062
:100A00000306D000820F54000C065D00020039007E
:100A100002003200890178000306780085825500C3
:100A200004003D000003FD008103FD008502EA0093
:100A30008B854200840F720002003B0060001000B2
:100A4000E08018006011B8000005EB007A28E10092
:100A50000A00390006007800C75DDD00F707B20024
:100A6000878075002D003700828171000A017800AF
:100A7000610560008180D1000080D3008502E9001B
:100A8000F9FF3B00060440008784480002003B0059
:100A900060041400E0841C000988A30007003200F1
:100AA0008A81710082817100610164008904D10032
:100AB0000884D3008B05E800170037000978A300ED
:100AC00013003A000B00E000130034008B05E9002E
:100AD0000804440089844C000A4474000978A30087
:100AE0000D003A000B00E000070034008B05E90020
:100AF0000804440089844C0001003A000B002000E7
:100B00000978A300F7FF32000001EB000200370074
:100B1000828171000A017800390007000CF0A700FB
:100B200001F0A0006D0037006420E10002003A00EF
:100B3000838F6C006D0033000801BE000200BE0010
:100B400066003700F4FF2F006B0037001400200010
:100B5000690037006022B800060220000000D000C3
:100B60008180D2000482D2008582D2000000A000E1
:100B70000202520083825A00030031000202420046
:100B800083824A000000A1000603E900F3FF3A0057
:100B9000000006000001BE00720007000470A700FC
:100BA00003F0A10003F8A30013003A006509B100A7
:100BB00010003200090035006928E100020035000C
:100BC000010028000000050000004000818048006E
:100BD0008502E900FCFF3A0000000600F88F4200A1
:100BE000050035008100D1000080D3008502E800B7
:100BF000FCFF3A00000006008000EB00000005004A
:100C000081002000618055000B003D000B0020009A
:100C100061FE2F000100E1001D003400828171009F
:100C2000610164008904D1000884D3000000E80059
:100C3000FAFF3A00710020006100640003007000B8
:100C4000020060000900320061044400E0844C00AE
:100C50000988A500050032008B05E8006808E1005E
:100C600002003A008904D1000884D300F20F20006A
:100C70000258E10005003D00C75DDD00F907B20044
:100C80008980750008007800000006000BF8270036
:100C90008B007800000005000004BE003100070052
:100CA0000003BE000405BE000200BE002D000700C8
:100CB000844F7500000006000200BE006450E10091
:100CC000050036006420E100020036000968A30038
:100CD00001003A000800BE000160A0004F06780045
:100CE0004F05BE004F04BE0000000600F0FF2F00BD
:100CF000F1FF2700F9FF3700889FBE008A9FBE00E2
:100D0000841F7800E4FF07004F00780011003300D3
:100D1000F0FF2F00838F6C0006003B000405650088
:100D20000A00A7000800370009F0A6001000200004
:100D300008003700820F5400838F5C0003003900E5
:100D40001000200001003E000000200009F0A70074
:100D50000000EA004F05BE004F04BE000000E000A6
:100D600000000600C70ADE00F107B200F50FB2006E
:100D700008003200E1CF4200020032000170A00002
:100D800024000500810F70000100320004080500F6
:100D900044000500810F700002003A0014000500B5
:100DA0008502E9000000400081C04800FCFF3B00D4
:100DB0000170A0002400050000A0FE00841F780040
:100DC000851F7800881F78008A1F78004400F8008B
:100DD000080F2000280288000004900010059000F1
:100DE000A000900030019000C00190000300CA00F4
:100DF0000280CA000030CB001A00CD004604C300B8
:100E00000100CA004604C0001E04C0000605C00060
:100E10000100CD0021009800050D7800EABA970086
:100E2000052578004400F9004F0578004F0478004C
:100E3000CF0278004F0278000080FE00000006001C
:100E4000801F78004000B0000008EB004F007800E1
:100E5000801F7800100090000018EB000018EB00D5
:100E60000008EB004F007800000006003100000091
:100E7000606DA800704380008080FB00116A8800CC
:100E80004800DE00206A8800000006000400FA0026
:100E9000881F780041002000B11788008688A900CB
:100EA000000022004044880070B32700904588006D
:100EB000C2A8A9008A08A9008A68A9008A88A8008F
:100EC0008AA8A9000004EB006844880078448800E0
:100ED00000A0200060468800001C220070468800A8
:100EE00000B02000804688000020B00090468800B6
:100EF00000C82000C046880000902100D04688002D
:100F0000301323000047880070D620001047880067
:100F100020478800E808A900E828A800F00F200072
:100F2000806988005000200090698800B008200087
:100F3000A069880020002000B0698800C06988008E
:100F4000A2FF240003002000D2BF9F00E3BF9F0048
:100F500066815700C0CD2000141D0700DECCBF0005
:100F60000080FB00D0698800DDCCBF000080FB0062
:100F7000E069880086A8A900E03F2E00C04B8800E9
:100F800000E02200D04B880000002600E04B8800E3
:100F900070002000F04B8800084C8800184C880036
:100FA000284C8800384C88004F0478000080FA00F4
:100FB00000000600D0508000E10F500026003A00EB
:100FC000B1728000301F2000808F50002200360058
:100FD000562EEF00F005200070668800DBC2BF00CF
:100FE0000018A30002003A00E005200070668800A7
:100FF000DBC2BF000028A30002003A00D007200097
:10100000CE2CB600DBC2BF000038A30002003A00BD
:10101000B0072000CE2CB600F007200071668000DB
:1010200080806000511088008688AB000A003A007A
:1010300000042900301088008600A900ACC0BF0061
:1010400081CFB300014060000024A000ACE0B700F5
:101050009600A8008688A800000006000000EB00AB
:10106000F043880000448800006780001044880036
:1010700000678000E10F5000040036000167800027
:1010800090032000808F5000100036000167800020
:10109000D0032000808F50000400360001678000DC
:1010A000F00D2000808F500008003600016780009E
:1010B000F00E2000808F500007003600016780008E
:1010C0006F004000808F500003003E002000200091
:1010D00010448800120037007CC8BF00E24F500067
:1010E0000B003A0001678000F00D2000808F500057
:1010F0000B0036000167800070004000808F5000B8
:1011000007003E0030002000104488000400370033
:10111000E14F500002003A004000200010448800D7
:101120001144800060FC2F0000804000E30F50005D
:1011300005003E00C2CDA900C22DA900C2ADA90084
:10114000C24DA900C28DA900E48F5000AC0032004E
:1011500004003E00E18F50005D003200A3003E001D
:101160000F003700B0032000808F50000A013200CA
:1011700004003E000000E900808F50004F013A005B
:10118000A3003700C0032000808F500027013200E9
:101190000000E800808F500048013A003A01370013
:1011A000E40CE2001100320020678000EF0F5000D5
:1011B0000E003E00206780001167800000004000A4
:1011C0000100400001102000810F500007003E0088
:1011D0007948E20005003A008000EB00C08720005B
:1011E00042C0B300904F11000100320011002000F6
:1011F000C808DD00304480000080A10001007000BC
:1012000030448800E40CE20003003A0010002000A3
:10121000206788000500370020678000EF0F50002E
:1012200002003600F0002000206788003E2DEF000D
:1012300021678000F0698000808F50001F01360018
:10124000354480000510B20024D120000344800002
:101250000500E00005003200F06980000000400059
:10126000A1AF2F0001307A0011003700E20CAB0073
:1012700005003200F0698000000040008000EB00B3
:1012800001307A000A003700F269800010678000A0
:10129000F16980000000D100010040000000400022
:1012A0000201410081882000E080780001317A004D
:1012B0008381E8003E2DEC0021678000F06980000A
:1012C000808F5000E2FF3E0003448800FB0037009F
:1012D0007CC8BF0063405000EE4F500003003E004A
:1012E0000000EB007948E20001003200100020000D
:1012F000C800DD00304480000080A10001007000C3
:10130000304488007CC8BF00E24F500003003E001C
:1013100030C0B3007CE8B70004003700F14F500044
:101320000200360010C1B3007CE8B7003E2DEF008C
:10133000F16980007CC8BF000080FB000080E900EC
:10134000810F5000DD003600364480000610B200E8
:1013500025D1200007CE20007CC8BF000080FB0004
:101360000082E900034480000600E000050032002E
:10137000F069800000004000A1AF2F0001B07A00AA
:10138000130037003E0DEC000000400060807B0041
:101390000008A30005003200F06980000000400052
:1013A0008000EB0001B07A0009003700F26980008C
:1013B0003E0DEC000000400060807B000000A100BA
:1013C0000201410081882000E080780001B17A00AC
:1013D0008381E8003E2DEC00F0698000800F520010
:1013E000E1FF3E0003448800B4003700505525005B
:1013F000906888002000200000448800AF0037007B
:10140000122DEF002000200000448800AB003700C0
:10141000C22DA800C26DA9007948E2005C003A0024
:101420007A48E2005A003A0086C8AB005800320001
:10143000B60DE20056003A00C2ADA8004067800039
:10144000E40F50009D003200456780000500E00079
:101450004D003A0010678000F00F50004A003A003B
:1014600020678000316780004800DD0001004000F7
:101470004402DE00E46C88000004200000005200FA
:10148000F1032000810F50008C003600C3ADA9008D
:10149000C34DA9005168800010678000226780005A
:1014A000336780000200400003004000808040005D
:1014B000516888008401780000022000800F5200EB
:1014C00010003A00D566880050002000C0668800F1
:1014D000800078000501780004CE200001804000E3
:1014E00060007A00000141008100E800ED8F5000AB
:1014F000FAFF3A00C1668800D266880002007800D0
:101500000A2DB40052002000110009008281D80089
:1015100001007800E40F500003003A004001200071
:10152000206D88000200370060012000206D8800D7
:10153000E26C800053002000110009000381D800F4
:101540000001780001007800526D88004611DD002E
:101550006D00B90000014100E26C88004810DE0017
:10156000206788000281FB0032678800C2EDA80076
:10157000902DEF0010002000B06D8800E848A90011
:10158000E868A9004D003700406780004B00370035
:10159000C2ADA900490037007948E2000E003A00C8
:1015A00010678000F00F50000B003E00B06D80000F
:1015B0000000E00008003A00C4EDA80021678000A8
:1015C000116D880032678000026D8800F06C880021
:1015D0006B00070039003700C4EDA9003E2DEF0075
:1015E00010678000F16980000000D100808F5000FA
:1015F0000B00310023D12000A2AF2F00F069800042
:101600000000400002B079003E2DEC001067800021
:10161000F16980000000D100810F5000F7FF3E000B
:1016200010678000004488002400370086C8AB00A3
:10163000120032007948E2000C003A001167800085
:1016400000052000808F500008003A0021678000CC
:1016500068005000808F500004003A00770050006E
:1016600090688800C24DA800140037005005200083
:1016700090688800C24DA90010003700A00F20001C
:10168000906888000D0037007948E20006003A00B3
:10169000B60DE20004003A001003200090688800B4
:1016A000C28DA80003003700500520009068880014
:1016B000C28DA90010002000004488000000060030
:1016C000106D80004800DD00016D800001004000C9
:1016D0004400DE00E06C8800520020001100090088
:1016E0000280D800506D8800E48F500003003A005B
:1016F00000012000C06D88000200370010012000AA
:10170000C06D8800E36C80005200200011000900C9
:101710008281D8008001780001007800C619DD00C0
:101720006D00B90080814100E36C88004818DE003C
:10173000206788000380FB00306788000000EB0012
:10174000806C8800606D8800C3CDA900C36DA900BE
:10175000C42DA900706C880020738800C44DA900B6
:10176000C46DA900C0CC2F0080814100203320002F
:10177000808F510001003E00C44DA800000006000B
:10178000CFFF070020002000B06D880010678000A8
:10179000004488007E28EF00C4ADA80000000600C9
:1017A000E848A800E868A900C00020001067880089
:1017B0008000EB00816C8800716C8800A16D88004E
:1017C00031738800C16C880099CDBF000080FB0098
:1017D0002067880098CDBF000080FB00306788003C
:1017E000C2CDA900D16D8800D0002000C06D880056
:1017F000C40DA900F16C8800316D8800C3EDA9000B
:10180000316E880030002000B06D88001602A800FC
:10181000C26DA900000006007948E20018003A00F5
:10182000B60DE20016003A00818720009140780052
:1018300060C6B30080CF50000300320000C0E80053
:1018400080CF50000E003A00902DEF00C26DA9002D
:10185000F007200020678800800F20003067880094
:1018600020002000B06D880000448800A000200007
:10187000C06D8800C30DA800C32DA8001602A800E3
:10188000000006000800FA0070C0B30074E8B7005A
:101890007948E20036003A008187200091407800C4
:1018A0000108A300040032000000EB008043880020
:1018B00077E8B7003200370040C6B30080CF500051
:1018C0000F003A0068815700E0FF2400010020006B
:1018D00000A9BE0041002000C0CD2000B31A0700BF
:1018E000E1CD200091407800C808DD00DDCCBF00CC
:1018F0000080FB00808040006147880012003700B4
:1019000020C6B30080CF50000F003A00A0FF240093
:1019100001002000C0BF9F00D1BF9F006881570019
:1019200041002000C0CD2000A01A0700E1CD20001A
:1019300091407800C808DD00DDCCBF000080FB00CE
:10194000808040005147880078C8BF00E00FB20097
:1019500081882000608078008043880071C8BF00C3
:101960007048B4000040EA0077E8B7000400370090
:1019700050A52A0080438800E0CFB30077E8B70085
:101980000080FA0000000600E0C5B3007848E300DC
:1019900003003A0020C0B30074E8B700020037002B
:1019A00010C0B30074E8B7007948E2003E013A0085
:1019B0007BC8BF0070E8B700828720001241780022
:1019C0000208A30043013A00F0C2B300804F510067
:1019D00040013600E0C5B300804F51003D013E009C
:1019E0000280FB00010020002002B1000180B10054
:1019F000C3032000830F5000E08F580023013E00F6
:101A0000006001001B013700200137001901370079
:101A10001E013700170137001C0137001501370080
:101A20001A01370019013700180137001701370074
:101A30001601370015013700140137006300370025
:101A40001201370011013700100137000F01370074
:101A50000E0137000D0137000C0137000B01370074
:101A60000A01370062003700080137008C00370098
:101A70000601370005013700040137008E003700EA
:101A80000201370001013700000137001A0037005A
:101A9000FE00370025003700FC003700300037001B
:101AA000FA0037003C003700F8003700F700370035
:101AB000F6003700F5003700F400370082003700E9
:101AC000F200370080003700F00037009200370046
:101AD000EE003700AE003700EC0037008000370022
:101AE000EA003700AE003700E8003700AC003700EE
:101AF000E6003700B80037007146800000F02F0084
:101B00000081400070438000820F500004003900C3
:101B1000F00F2000808F50000100360072438800D3
:101B20007043800060468800EA003700614680000C
:101B3000021020000101410070438000820F50001C
:101B400004003E00F0EF2F00808F500001003E00A7
:101B5000724388007143800071468800DD003700C1
:101B600091468000704380000010B000810F50004B
:101B700006003900F00F2000808F5000030036006F
:101B800000F02F0000804000704388007243800006
:101B900082468800CF003700814680000210200076
:101BA0000101410070438000820F500004003E009C
:101BB000F0EF2F00808F500001003E00724388003C
:101BC0007343800093468800C20037006E08E2002D
:101BD000C0003A000000EB00C04588005C2EEF001A
:101BE0005E2EEF00A0458800B0458800B9003700A0
:101BF000E1862000914078000181FB00020078001E
:101C0000000AB200B3003A006FC8BF00400CB20037
:101C1000B0003A0067016100E50F5100AD003C00E3
:101C2000E30F5100AB00320074438000F037230013
:101C30008001620000042000808F510003003A0000
:101C40001046800003006000A20032008180FB008B
:101C5000104680000080FB00808F5000050032009D
:101C6000E20F510002003400E50F510001003A007C
:101C70006028A800C2C8AB0004003A000400780045
:101C80000060A1001046880001003700144688005B
:101C9000C2A8AB008F003A00DC22A9008D003700FB
:101CA000704380000000E0008A0032002046880077
:101CB000C2C8A800870037007043800040468800F3
:101CC0006048A8008300370082007800E10FB2006E
:101CD0008088200072438000823078007D003700C9
:101CE0007143800030132300808F500002003600C3
:101CF0000047880077003700F0FF2200808F5000F7
:101D000003003E000000E800004788007100370033
:101D1000014788006F0037006EC8BF00FC4F5000BD
:101D200008003200F84F50000D003600C1C1B3006A
:101D30000040EB00F3020700B1C4B300814F500034
:101D400003003A00702EEF0049FC070061003700E5
:101D5000E086200083C1B30090CF11005D003E00FB
:101D6000C1C1B3000040EB00E6020700B1C4B300FC
:101D7000814F500003003A0020002000807388004B
:101D800001003700702EEF0039FC070051003700CA
:101D9000608DA80070438000006A88004D00370005
:101DA0007343800070D62000808F510005003E00F4
:101DB00082007800E10FB200808820008330780034
:101DC00044003700E20FB20071D620008088200066
:101DD000013178003F00370086A8A8003E2DEF00B3
:101DE000F0698000E60F500016003E0014C0B300FA
:101DF00003CE200002D32000F069800000004000E4
:101E0000E0807900F0698000000040006000790007
:101E1000808F5000010032000042EB003E2DEC00AC
:101E2000F0698000E60F5000F3FF3600E100620029
:101E3000C508DD00304480000050A10001007000A2
:101E40003044880086A8AB000500320010C3B30000
:101E500070E8B700F0CCB30071E8B7001D003700A0
:101E600050C5B30070E8B700B0CAB30071E8B7005E
:101E70001800370082007800E10FB200808820004F
:101E80007243800082307800120037006E08E20052
:101E900010003A00E20FB2008000EB0080882000C2
:101EA000013178000B0037007BC8BF000080EA00DA
:101EB0008180EA0070E8B700E0C5B3007848E3002D
:101EC00004003A006940500070E8B700B0CAB3009F
:101ED00071E8B700000006003600F800809FBE00E1
:101EE000829FBE00849FBE00869FBE006428EF00D4
:101EF00008C2BF000048A3002C003200304480001C
:101F000063006000E10F50001D003A0007C2BF00EF
:101F10000048A300010032000842A9006CC8BF00BD
:101F20008080FB000128A300090032000118A300F3
:101F3000050032000014A1006CE8B700001080001A
:101F40006EE8B7007968B4004EFE0700080037005D
:101F50000138A300050032000034A1006CE8B7008E
:101F6000001080007BE8B7007968B40086FE0700A7
:101F70008648A8007968EF006CE8EF00B7013700E9
:101F80008608A9008628A9008648A9008668A900B5
:101F90006CE8EF000040EB0074E8B70079E8B700A8
:101FA00000FC2F000822B600AC01370008C2BF00B9
:101FB0000018A300BF00320008C2BF000058A300F1
:101FC000BC00320008C2BF000028A300230032007A
:101FD0008628AB0021003200418720009140780024
:101FE0000108A3000700320070C8BF000080FB009A
:101FF00010108800014078000004A10074E8B700C8
:10200000AA0037000180FB000018A300070032007F
:1020100071C8BF000080FB001010880001407800EC
:102020000014A10074E8B700A00037000028A30046
:102030000700320077C8BF000080FB001010880046
:10204000014078000024A10074E8B7009700370031
:10205000F00F2000101088009400370008C2BF0065
:102060000018A300910032000110800001417800A7
:102070006CC8BF000008A300070032000004A100E4
:102080006CE8B7000100780078E8B70001407800FC
:102090007968B400850037008080FB000118A30038
:1020A0001B0032000014A1006CE8B70002007800A9
:1020B0006EE8B700024078007968B400E0C5B3006C
:1020C0007848E30006003A0086E8A8000280FB009A
:1020D0000067880010C0B3007CE8B70073003700C9
:1020E00086E8A9007C68EF00818720009140780095
:1020F00080C6B30080CF50000300320000C0E9006A
:1021000080CF500069003A00C3FD07006700370028
:102110000128A300160032000024A1006CE8B700DB
:10212000020078006FE8B70086E8AB0006003200D6
:102130000280FB0010678800020078007AE8B70090
:1021400020C0B3007CE8B7006FC8BF007968B40056
:1021500001678000D0032000808F500053003A00B8
:1021600086E8AB0051003200BCFB07004F0037008F
:102170000138A300120032000034A1006CE8B7005F
:10218000020078007BE8B700024078007968B4006C
:1021900086E8AB000700320030C0B3007CE8B7002F
:1021A0000280FB0020678800024078007A68B40053
:1021B0003E003700E42CEF00F3FD07003B00370042
:1021C000C387200093417800E6CF51001A003E00FB
:1021D0000380FB000281FB000000400001CE2000D4
:1021E00002B07800608078007968B40086E8AB00BF
:1021F0002200320001678000B0032000808F500071
:1022000003003A0041C0B30081CF51000800320002
:1022100001678000C0032000808F500017003A0043
:10222000C087200031C0B30090CF100013003A00E7
:102230008AFB070011003700E7CF510008003A0081
:1022400001678000F00F2000808F500004003A00EA
:10225000024078007968B400CBFD07000700370022
:102260000380FB000281FB000000400001CE200043
:1022700002B07800608078007968B4001067800050
:10228000C1872000914078008180FB0066004000FB
:10229000808F5000040031000180400001CE2000FA
:1022A000608078007A68B4007C68EC000782A8003F
:1022B000EA00370008C2BF000018A3000600320081
:1022C00008C2BF000018A300E400320008C2BF002B
:1022D0000058A300E1003A008668A8006628EF00D5
:1022E00008C2BF000028A30003003A0008C2BF00D4
:1022F0000018A300D900320008C2BF000028A300C4
:10230000CE0032008628AB0052003200E0C5B30098
:102310007848E30004003A0001678000F00F2000D5
:10232000808F500022003A004187200091407800C1
:102330000108A3000700320070C8BF000080FB0046
:1023400010108800014078000004A10074E8B70074
:10235000AD0037000180FB000018A3000700320029
:1023600071C8BF000080FB00101088000140780099
:102370000014A10074E8B700A30037000028A300F0
:102380000700320077C8BF000080FB0010108800F3
:10239000014078000024A10074E8B7009A003700DB
:1023A0008668A900F00F2000101088009600370002
:1023B00001678000B0032000808F500004003A00C5
:1023C000C42DAB0002003A007E08E2008E0032000D
:1023D000F143800000448000808F500007003900E6
:1023E00051882000914078008180FB00001020007F
:1023F0000100500010108800140037000108A300ED
:1024000006003A00010078000000A10021D1200060
:102410006080780084E8B700060037000100E9001A
:102420000000A10021D12000608078004800DE007B
:1024300084E8B70041882000914078000180FB00CB
:1024400010108800014078008568B4007E28EC00F8
:102450006D0037008608A8008628A8008648AB00D3
:1024600011003A00E0C5B3007848E3000A003A00E2
:1024700001678000F00F2000808F500006003200BE
:1024800001678000B0032000808F500002003200FE
:10249000F2FA0700030037006C68AB00010032005D
:1024A000F8FC07008648A800001080004287200042
:1024B000124178000204E00006003A00E0C5B300D3
:1024C0007848E30006003200F00F2000101088006A
:1024D0004D003700E0C5B3007848E30004003A003F
:1024E00001678000F00F2000808F500018003A0034
:1024F00070C8BF000080FB00101088000240780008
:102500000004A10074E8B70086A8AB000600320002
:1025100010C3B3007048E30003003A0086C8A80067
:10252000E888A80038003700E0C5B3007848E30029
:1025300035003A0001678000F00F2000808F5000C6
:1025400031003A0086C8A900E888A9002E003700AB
:10255000126E80000218A3000F0032000258A30080
:102560000A003200A00A2000101088000278A300A0
:102570002500320060002000906D8800C26DA80028
:10258000C48DA800C2EDA9001F003700A00F2000D5
:10259000101088001C00370001678000B003200085
:1025A000808F500002003A00C4EDAB0016003A00E4
:1025B0009068800084E8B7008080FB0011108800DC
:1025C00085E8B70010002000F043880086C8AB0003
:1025D000070032000228A3000500320086C8A900C7
:1025E000E888A90040002000D0708800060037006D
:1025F0000248A3000400320010C3B3008448E30083
:1026000001003A0066FC07000000EB001C00070018
:1026100001678000B0032000808F500005003A0061
:10262000206E80002008B20001082000810F5000B9
:102630000A0032000782A80008003700001080005E
:1026400079E8B7000782A8008608A8008628A900B4
:102650008648A9006CE8EF008028EF000010800099
:1026600008C2A9008600A9004F03BE004F02BE00A9
:102670004F01BE004F00BE003600F90000400600CA
:102680000000E000040032008000EB008100E80060
:10269000808F5000FDFF390000000600EC02A8000A
:1026A000E802A900EC22A800E822A90020002000EE
:1026B000F3FF0700EC02A90020002000F0FF070054
:1026C000EC22A90000000600EC02A900E802A90023
:1026D00020002000EAFF0700EC22A80040002000B4
:1026E000E7FF0700EC02A80010002000E4FF07004D
:1026F00000000600889FBE000004EB008084FB0001
:102700000848DD000078A30002003200EC02A800B7
:1027100001003700EC02A900E802A900EC22A800A1
:1027200010002000D6FF0700EC22A90010002000B6
:10273000D3FF07000804E800E80F5400F0FF3A0058
:10274000E802A800EC22A800A22E20001241780086
:10275000610061000080EA008180EA00006C88006E
:10276000EC22A9004F04BE0000000600881F78007C
:10277000746EEF00E802A8000004EB00EC22A90050
:1027800020002000BEFF0700EC22A80074CEBF008E
:10279000804040000100780074EEB700EAC2BF003C
:1027A0000008A30003003200014078000004A000EC
:1027B00074EEB7000804E800E80F5400EFFF3A0099
:1027C000EC22A90020002000ADFF0700EC02A800C9
:1027D000E802A900EC22A80020002000A8FF0700C2
:1027E000EC22A90074CEBF000080FB004F047800EB
:1027F00000000600889FBE008A9FBE008C9FBE001E
:102800008E1F780080467800814578000247780066
:1028100003467800862DEF000D003700E20F5000D0
:102820001500320005003E000000E0000800320004
:10283000E10F500023003A0008003700E30F50007A
:1028400025003200E40F50001E003A001C00370043
:10285000600DA80091FF07001A00370000CAB300FE
:1028600000C04600A3FF0700800DE20015003A00FB
:10287000862DEF00130037000B4078009DFF070006
:10288000800DE2000F003A00862DEF000D003700AA
:102890000800440061C520006080780095FF0700B3
:1028A000800DE20001003A00862DEF008904E80067
:1028B0000804E8008A8F540002003100F4FF37005A
:1028C00081FF0700860DEC00306C8800E40F50009B
:1028D000D2FF3600060037000C85FB000C04E00038
:1028E000F8FF32000E84FB008004EB00E8FF3700A5
:1028F0004F0778004F06BE004F05BE004F04BE00D4
:1029000000000600889FBE008044780001447800E3
:10291000882DEF000E003700E20F50001500320046
:1029200005003E000000E00009003200E10F500009
:1029300022003A0008003700E40F50001B0032006C
:1029400012003900E50F50001C003A001A00370051
:1029500052FF07001900370000CAB30000C044004E
:1029600064FF0700800DE20014003A00882DEF009C
:1029700012003700084078005EFF0700800DE2007B
:102980000E003A00882DEF000C00370043FF0700CF
:1029900010CAB30000C0440056FF0700800DE200DB
:1029A00006003A00882DEF00040037006FFF070093
:1029B00074EEB7000100370043FF0700880DEC00FC
:1029C000406C8800E50F5000D3FF360074CEBF0086
:1029D0000080FB004F04BE0000000600881F780046
:1029E0000004EB00F86A8800B1C0B30020C0B30057
:1029F000C4FF07008080FB0091738800E14F400016
:102A00002A003A0060CDBF000008A30013003A007E
:102A10008001EB0062C520008000EB00E402200092
:102A20000380410001307900E10F540003003A00B7
:102A3000EF8F510001003A00A46388008301E80091
:102A4000F08F5100F6FF3A00C440DD000041EB007A
:102A50000240780067FF0700010037000804E90022
:102A60000804E800EF0F5400E6FF360060CDBF0019
:102A70000008A300FDFF3A008000EB0063C52000C2
:102A8000020820000180400002B079008100E800C7
:102A9000EC8F5000FBFF3A00814178000041EB00D1
:102AA0008240780020C0B30052FF070060CDBF0015
:102AB00061446000FDFF3A008840780020C0B30008
:102AC00090FF07000080FB00606A880011C0B3001F
:102AD00020C0B3008BFF07000080FB00906A8800D5
:102AE00021C0B3000140780086FF07000080FB0092
:102AF000706A880031C0B30020C0B30081FF0700B6
:102B00000080FB00E06A880041C0B30020C0B30031
:102B10007CFF07000080FB00406A880051C0B300C2
:102B200020C0B30077FF07000080FB00806A8800A8
:102B300061C0B30020C0B30072FF07000080FB003B
:102B4000506A880071C0B30020C0B3006DFF070059
:102B50000080FB00A06A880081C0B30020C0B300E1
:102B600068FF07000080FB00B06A880091C0B300D6
:102B700020C0B30063FF07000080FB00C06A88002C
:102B8000A1C0B30020C0B3005EFF07000080FB00BF
:102B9000D06A8800884078000840780059FF070014
:102BA00062EDB70011C0B3000840780055FF070080
:102BB00063EDB70021C0B3000840780051FF070063
:102BC00064EDB70031C0B300084078004DFF070046
:102BD00065EDB70041C0B3000840780049FF070029
:102BE00066EDB70051C0B3000840780045FF07000C
:102BF00067EDB70061C0B3000840780041FF0700EF
:102C000068EDB70071C0B300084078003DFF0700D1
:102C100069EDB70081C0B3000840780039FF0700B4
:102C20006AEDB70091C0B3000840780035FF070097
:102C30006BEDB700A1C0B3000840780031FF07007A
:102C40006CEDB700B1C0B300084078002DFF07005D
:102C50006DEDB700C1C0B3000840780029FF070040
:102C60006EEDB700D1C0B3000840780025FF070023
:102C70006FEDB700E1C0B3000840780021FF070006
:102C800070EDB700F1C0B300084078001DFF0700E9
:102C900071EDB70001C1B3000840780019FF0700CB
:102CA00072EDB70011C1B3000840780015FF0700AE
:102CB00073EDB7004F04780000000600881F78000D
:102CC00060CDBF00E14060005F013A005E0DE200B0
:102CD0003700320020C0B3000AFF07000080FB006D
:102CE000606A880011C0B30020C0B30005FF070070
:102CF0000080FB00906A880021C0B300014078008A
:102D000000FF07000080FB00706A880031C0B3003C
:102D100020C0B300FBFE07000080FB00E06A8800D3
:102D200041C0B30020C0B300F6FE07000080FB00E6
:102D3000406A880051C0B30020C0B300F1FE070014
:102D40000080FB00806A880061C0B30020C0B3002F
:102D5000ECFE07000080FB00506A880071C0B300E1
:102D600020C0B300E7FE07000080FB00A06A8800D7
:102D700081C0B30020C0B300E2FE07000080FB006A
:102D8000B06A880091C0B30020C0B300DDFE070028
:102D90000080FB00C06A8800A1C0B30020C0B3005F
:102DA000D8FE07000080FB00D06A88005E2DEF008F
:102DB000620CAB0040003200006B800062046000D7
:102DC0003D003A00F1C1B30008407800CDFE070095
:102DD0000081FB0072738800E1C2B300814F500094
:102DE0000B003A0081CEB30008407800C5FE070012
:102DF0000080FB00C06B880091CEB30008407800D3
:102E0000C0FE07000080FB00D06B88000B0037007D
:102E1000F84051000040EB00BAFE07000080FB00C4
:102E2000C06B880071738000F7C050000040EB0059
:102E3000B4FE07000080FB00D06B8800D16B8000DF
:102E4000C808DD00F80F2000C06B8000080060009B
:102E500080804000B16B8800E1C1B3000040EB000E
:102E6000A8FE07000080FB00A06B880021638000A3
:102E700010638000C808DD0008006000808040000A
:102E8000E16B8800F2FE210082806000B06B800060
:102E900002006000808F500006003200006B80004E
:102EA0006400600004003A00602DA800B073880040
:102EB00001003700622CEF00016B8000668060002B
:102EC00081003200B0738000E20F50003900320000
:102ED00005003E000000E00009003200E10F500054
:102EE00076003A002B003700E40F50004F0032000C
:102EF00046003900E50F500070003A0058003700D6
:102F000091C1B3000040EB007EFE0700C164800069
:102F10000080FB0001004000C0628800A1C1B30036
:102F20000040EB0077FE0700C16280000080FB00DC
:102F3000C808DE0001004000D0628800B1C1B300C3
:102F40000040EB006FFE0700D16280000080FB00B4
:102F5000C808DE0001004000E062880033C0B30012
:102F600012C0B30091C1B3000040EB0021FE070086
:102F7000142EEF00604DAB00040032006000200012
:102F8000B0738800604DA900AF003700762EEC00CA
:102F9000AD00370013002000B36288000041EB0051
:102FA000D1C1B3000240780012FE0700762EEC007B
:102FB000A5003700740DEC00B0628800B06280009C
:102FC00072002000110009000280D800216C8800E6
:102FD0000100E00001003A00226C8800236C8000B0
:102FE00083814100536C88006E801100606C880002
:102FF0000041EB00E1E620009140780002407800BB
:10300000FCFD0700762EEC008F003700526C80002C
:10301000E3E620009340410003C1B3000040EB0011
:10302000F4FD0700762EEC0087003700636C80000B
:103030000300E00008003200A1D820009140780091
:1030400070C140007073800080C04000F0C040003C
:103050000040EB00E7FD0700762EEC007A00370019
:10306000707380007E00400070738800F10F2000B4
:10307000810F500002003600E002200070738800CB
:103080000004EB0098648800740DEC00A0648800D4
:1030900071738000B164880033C0B300E2C1B30033
:1030A000D1C1B30008407800D2FD0700602DA9000F
:1030B000762EEC0018638800630037006000200063
:1030C000B0738800600037000148A300160032008A
:1030D000C1C1B3000040EB000AFE0700B1C4B30059
:1030E000814F500007003A00E086200083C1B30002
:1030F00090CF110003003E00200020008073880064
:1031000001003700702EEF0001D4200091407800BC
:1031100070CEBF00FBFD07004800DD00F0468800D0
:10312000608DA900480037000138A3002E0032004E
:10313000206A8000D064880084738000E20F52000F
:1031400013003A00106A8000EB0F500010003E00A0
:10315000C1C1B3000040EB00EAFD0700B1C4B300F9
:10316000814F50001E003A00106A8000EB0F5000A3
:103170001B00320013002000F36A880022C2B30053
:103180008040780070CEBF009AFD07001400370021
:1031900013C0B30022C2B30021D4200091407800B4
:1031A0000440780093FD0700700EE2000C003A0026
:1031B000126A8000F10F510009003E004002200019
:1031C000020040000000400061C52000D364800080
:1031D00003B07800D164800020D62000017178000F
:1031E000606DA90018003700B0748000E10F400046
:1031F00014003200C17380000100DE000008A3004B
:103200000A003A008180400040C2B30000C1400083
:1032100023C0B3000040EB0076FD07001000200043
:10322000C17380000100DD00962EB700780EEC001F
:10323000C0738800E80F500003003600782EEF00BE
:1032400001003700782EEF004F04780000000600E0
:10325000C20DA900B62DEF0000000600C20DAB00A4
:103260000C003A0000202800B0108800B0182000A0
:10327000A01088008A40A900BDC0BF0081CFB30064
:10328000014060005040B300BDE0B7009A40A80084
:10329000C20DA800000006003600F800809FBE00A6
:1032A000829FBE00849FBE00869FBE00C02DEF009F
:1032B000C2CDAB0088003A00836C8000E28F5100E1
:1032C00003003E00E18F51000C0031000300370085
:1032D000E38F510037003A001200370018E2A900CE
:1032E000000A2000901088001842E200FBFF350021
:1032F00010002000806C8800B002370018E2A9009E
:103300000301E8008200410000CE20006100780047
:10331000901088001842E200F8FF3500826C8800A7
:10332000A6023700B16D8000E68F5000A3023E0078
:10333000100020008100DD0001007800C006B2000E
:1033400010003A000148A30012003A000118A3003F
:103350009A02320001C8B30018E2A9005067800049
:103360009010880018C2BF0001406000FAFF3A00C8
:1033700040002000806C880060002000F06D880014
:103380008E0237001622A80040002000806C8800C2
:103390008A02370018E2A900526880009210880063
:1033A0001842E200FBFF350040002000806C8800DE
:1033B00082023700B16D8000E68F50007F023E0030
:1033C000100020008100DD0001007800C006B2007E
:1033D00032003A000148A3003A003A000118A30065
:1033E00076023200F16D8000206D8000808F5000E9
:1033F000110031006380600002003A000100E80023
:10340000F06D8800F06D80008000400003CE200049
:1034100002C8B30018E2A90061807900901088000A
:1034200018C2BF0002406000FAFF3A00902DEC0085
:10343000BE2DEC0061023700808F50005F023A0021
:103440000100E800F06D8800C3ADA8001642A80096
:10345000206D8000F40F50000E003A00C34DA8000C
:10346000516D8000F01F2000808F500053023E00FD
:103470004033200001004000E06C8800C800DE00FE
:10348000216788000080FB0030678800C26DA800BB
:103490004A023700B62DEF004802370018E2A900B3
:1034A000100A2000901088001842E200FBFF35004F
:1034B000C2CDA8000000EB00706C8800207388006B
:1034C0003E023700C3ADA900C34DA9001642A800B3
:1034D000B62DEF003902370018C2BF000018A30054
:1034E0002E0132008010800062EEB7001822A90081
:1034F000726C8000C06D8000800F5100BD003100F3
:10350000B06D8000E20F500030003A00247380005C
:103510008401E80023738800E16C8000A01920007A
:10352000808F500002003A00E70F51000300360080
:1035300062CEBF000080FB00AC2DB4000308A300E6
:103540000E00320062CEBF0096EDB7008480E80026
:103550006380600023003A0097EDB7008E2DEC00E9
:1035600021738800840078000100A10020D1200090
:10357000B26C8000823078001A00370062CEBF0043
:1035800097EDB7000400E9000000A10021D1200060
:10359000B26C800002B07800C30DAB0005003200B1
:1035A000EA8F510003003A00D0688000804788000D
:1035B000C30DA900C32DAB000A0032009268800041
:1035C00072478800C32DA90006003700B06D800047
:1035D000E50F500003003A0062CEBF000080FB0000
:1035E000AC2DB400726C80000201E800726C88009F
:1035F000B06D8000E30F50005D003A00EC0F510009
:103600003D003E00D16D80007D004000808F500065
:1036100002003A00E60F51000300360062CEBF0000
:103620000080FB00A62DB400D16D8000F09F20002B
:10363000808F500069003A00C06D8000EC0F500090
:1036400066003A00706C8000EC0F500008003A00F1
:1036500062CEBF000080FB00306E88004800DD00B5
:10366000416E800001004000804788005B00370009
:10367000EB0F500004003A0062CEBF000080FB0058
:10368000406E880055003700E60F500008003A00F1
:1036900062CEBF000080FB00606E88004800DD0045
:1036A000516E800001004000704788004B003700D9
:1036B000E50F500004003A0062CEBF000080FB001E
:1036C000506E880045003700E90F500004003A00B2
:1036D00062CEBF000080FB00407388003F003700CF
:1036E000E80F50003D003A0062CEBF000080FB00B2
:1036F0005073880039003700ED0F510037003A0051
:10370000C06D8000ED0F500034003A0062CEBF0063
:103710000080FB00406D8800D06D8000FF0F5000DE
:1037200004003600D16D8000F0032000808F50002F
:1037300004003600D16D8000F0072000808F50001B
:1037400026003600C40DA800406D8000A60DB40010
:103750000080FB0003003A00C3EDA800F06C880075
:103760001E003700C3EDA9009E2DEC001B003700A2
:10377000B06D8000E60F500018003A0062CEBF0026
:103780000080FB00406D8800D06D8000FF0F50006E
:1037900004003600D16D8000F0032000808F5000BF
:1037A00004003600D16D8000F0072000808F5000AB
:1037B0000A003600C40DA800406D8000A60DB400BC
:1037C0000080FB0003003A00C3EDA800F06C880005
:1037D00002003700C3EDA9009E2DEC00716C800043
:1037E000C06D8000808F50000200310016A2A90039
:1037F0001682A800716C8000C06D8000808F500020
:103800006E013A00B06D8000E20F5000600032009F
:10381000B06D8000E30F50001F003A00BA2DEC009D
:10382000C20DE20003003500F06C8000E30F500091
:103830000F003A009E2DEF00326D800002007800EC
:10384000B42DB400D16D800000022000808F5000A4
:103850004F003600D16D800000042000808F5000A2
:103860004B003E0002007800662EB400480037008E
:10387000E20F500046003E00C40DAB004400320091
:10388000C06D8000ED0F500041003A00C40DA9004A
:10389000BA2DED003E003700B06D8000E60F5000FD
:1038A0003B003A00C20DE20003003500F06C8000DE
:1038B000E30F500030003A00326D800002007800C3
:1038C000B42DB400D16D800000022000808F500024
:1038D00006003600D16D800000042000808F50006B
:1038E00002003E0002007800662EB400D16D800018
:1038F00000A02000808F500025003A004073800017
:103900004800DD00517380000100400031738000E9
:103910008101400033738800306E8000F20F200078
:103920000280B900B42DB400B40DE2000F003A00DB
:103930000300E0000D003A00804780000000E00036
:103940000A003200E10F400008003200704780009A
:103950000000E00005003200E10F400003003200EB
:10396000E848A800E868A80009003700E848A9006E
:10397000E868A80006003700E20F500004003E008F
:10398000C40DAB0002003200C40DA900BA2DED0039
:1039900016A2A8001682A80008013700716C8000EA
:1039A000C06D8000808F5000020031001662A800B8
:1039B000020137001642A800902DEF00C2CDA900E9
:1039C000B06D8000E30F500003003200B06D800046
:1039D000E60F50005C003A00D06D800003A020008C
:1039E000830F500056003E00D06D80005200200032
:1039F000110009000280D8000100E00013003A0025
:103A0000B06D8000E60F500003003A00D06D8000DA
:103A1000830F50000D003A00D06D8000520020004E
:103A2000110009000280D8000100E0001F003A00E8
:103A3000C06D8000ED0F50001C003A00D16D800079
:103A400000A02000808F50001800320030002000BD
:103A5000B06D8800D26D8000D46D800053002000CE
:103A6000110009000381D800000178004611DD0033
:103A7000110009000382D800010078006D00B90030
:103A800000014100C26C880099CDBF000080FB009E
:103A90002067880098CDBF000080FB003067880059
:103AA000C26DA800A62DEF0019003700B06D800090
:103AB000E30F500016003A00C06D8000EC0F50007C
:103AC00013003A00D06D8000520020001100090060
:103AD0000280D8000000E900E06D8800E16D800000
:103AE000F01F2000808F500009003E00E06D800034
:103AF0004033B000E06C8800C800DE002167880019
:103B00000080FB0030678800C38DA800C26DA8004C
:103B1000D06D800052002000110009000280D80002
:103B2000E48F500003003A00C0002000C06D880000
:103B3000A2003700D0002000C06D88009F00370031
:103B4000B62DEF009D003700B06D8000E20F5000F1
:103B500055003A00C26DA900B62DEF00C3CDA800F4
:103B60009E2DEC00C06D8000F00F50000E003A005A
:103B7000C36DA800516D8000F01F2000808F5000A1
:103B80008E003E004033200001004000E06C8800C1
:103B9000C800DE00216788000080FB0030678800D5
:103BA000C26DA80085003700F10F500083003A0075
:103BB000ACCDBF000080FB000000E9004F00DE003C
:103BC000610060004300DD00216E80000130A10033
:103BD00080807000216E88006881600003003A00D8
:103BE000F06C8000E30F5000020032006C80600037
:103BF000260032000128A3000F0032000000EB0075
:103C00006073880022D120008081EB00F40F200037
:103C100080004000833079000008A30001003200DA
:103C2000843079000000E800E80F5000F8FF3A0007
:103C3000607388000C0037000200E0000A003A00C0
:103C4000627388008200780022D12000A3AF2F0089
:103C500001804000033079008100E800E88F5000C7
:103C6000FBFF3A00617388009268800012108800A0
:103C70000782A800C42DA80010002000F04388008F
:103C80009068800085E8B7004C0037000200E00033
:103C90004A003A00F06C8000E20F500047003E00FE
:103CA000B7F6070045003700B06D8000E50F500003
:103CB00041003A00C26DA9000000EB00B06D880021
:103CC000AC4DE20001003A0010C0B300E10060001A
:103CD000C308DD00206E80000030A10001007000EC
:103CE000206E8800800078006801600003003A00C0
:103CF000F06C8000E30F5000020032006C80600026
:103D0000260032000128A3000F0032000000EB0063
:103D10006073880022D120008081EB00F40F200026
:103D200080004000833079000008A30001003200C9
:103D3000843079000000E800E80F5000F8FF3A00F6
:103D4000607388000C0037000200E0000A003A00AF
:103D5000627388008200780023D12000A2AF2F0078
:103D60000180400002B079008100E800E88F500037
:103D7000FBFF3A0061738800906880001010880093
:103D80000782A800C42DA80010002000F04388007E
:103D90009068800085E8B700080037000200E00066
:103DA00006003A00F06C8000E20F500003003E0075
:103DB00073F6070001003700C26DA9008210800071
:103DC000D26C880018E2A90018C2A9008A40A90094
:103DD0004F03BE004F02BE004F01BE004F00BE00A9
:103DE0003600F900004006003600F800809FBE0053
:103DF000829FBE00849FBE00869FBE00881F780001
:103E00008A9FBE00322AEC00C229EC00A04E80003E
:103E10007100600001003200C629EC00704E800085
:103E2000E10F400001003200CE29EC00205080005C
:103E3000526F80006F11B9004911DE00020050007E
:103E4000512D2000810F500012003600506F80006D
:103E5000225080006F00B9004900DE00820F500040
:103E60000C003100114F800000002600808F5000B0
:103E700008003600F249AB0006003200204F8000F7
:103E8000E10F400001003200E429EC00E629EF00D8
:103E900003003700E409E20001003200E429ED00EC
:103EA00020508000526F80006F11B9004911DE0070
:103EB00002005000712C2000810F500006003600D7
:103EC000506F8000225080006F00B9004900DE0072
:103ED000820F500006003600304F8000E10F400096
:103EE00001003200E629EC00E429EF00030037006E
:103EF000E609E20001003200E629ED0041508000B1
:103F0000A0022000808F5000040036006075800001
:103F1000E10F400001003200AC2EEC00D1448000E3
:103F200080202000808F50000F00360091508000CC
:103F3000203F2000808F50000E003600C1448000DA
:103F4000F09F2000808F50000A003600D070800063
:103F5000E30F500007003A000C48AB0005003A00A0
:103F60000D48A8000F003700301F2000808F500040
:103F70000B00360091508000D03D2000808F500013
:103F800007003600C1448000F09B2000808F500065
:103F900003003600D0708000E30F500001003200B3
:103FA0000D48A9006240800002A8A3000A00320068
:103FB000B1408000E0FF2700808F500001003E00EC
:103FC0001628EC00B0408000F40F500003003600CB
:103FD000D969A800010037001628EF00000AAB00DD
:103FE00004003200D04F8000E10F40000100320099
:103FF000FA29EC000288A30005003200104180007D
:10400000E10F4000030032002228EC0001003700DD
:104010002228EF000298A300050032002041800012
:10402000E10F4000030032002428EC0001003700BB
:104030002428EF00D0708000E10F500004003A0007
:10404000E04F8000E10F400001003200FC29EC004D
:1040500002007800000EB200060032001028EF00C7
:1040600070408000E10F4000070032000E28EC0095
:10407000050037000E28EF0080408000E10F40006F
:10408000010032001028EC000248A30005003200B5
:1040900090408000E10F4000030032001228EC0045
:1040A000010037001228EF000228A30005003200AB
:1040B000A0408000E30F400003003E001428EC0005
:1040C000010037001428EF008A28AB0016003200E8
:1040D0005A2EEC00D1728000301F2000808F5000DB
:1040E0001A0036005A2EEF00C4458000E10F42004E
:1040F00016003200F0738000E2728000F3728000DC
:1041000000004100E0804900E0728800F172880000
:10411000A04588004008DE00B04588000400E800A3
:10412000C0458800090037000000EB00D07288000D
:104130005C2EEF005E2EEF00A0458800B0458800A1
:10414000C0458800E848A900E868A9004428EC00B8
:104150004628EC004828EC0031458000700C200017
:10416000808F500007003E00D609AB0009003200E6
:1041700080428000E10F4000060032005028EC0031
:104180000400370000192000808F50000100360025
:104190005028EF00C84480006140B900E0F10700FA
:1041A0000005BE000800E00004003D000200200001
:1041B0000378240006F207000005BE00F251280033
:1041C000835224000A00BE005EF207000000E000F7
:1041D0000B003400D0428000E10F400001003200AB
:1041E0005A28EC00D142800000352C00808F50000E
:1041F0000A00360000652400D0418800070037001F
:1042000082C22D00035224000A00BE004FF20700B4
:104210000000E00001003D005A28EF003628EC00C5
:1042200060CDBF000008A30006003200582EEC004D
:10423000C0728000E70F500002003600582EEF00D9
:10424000600DA900B60DE20009003200006E80008A
:10425000E10F400001003200C02DEC00016E800033
:10426000401F2000808F500001003600B62DEF0067
:1042700008C2BF000038A3000300320008C2BF001C
:104280000018A300080032006428EC0021438000DD
:10429000301F2000808F50000300360007E2A90085
:1042A0006428EF0007E2A8008668AB000A0032002D
:1042B0006628EC003043800001192000810F500077
:1042C0000B00360007E2A900314388008668A90088
:1042D00007E2A8000600370031438000F0182000F4
:1042E000808F50000200360007E2A8006628EF0029
:1042F0008A08AB0017003200807080009170800047
:1043000061004000E0804800807088009170880063
:104310008070800091708000F2A52E00820F500006
:10432000E08F58000B003600102EEF00122EEF0029
:10433000142EEC00A1708000F0592000808F5000F6
:1043400004003600A0708000C0648800604DA800A2
:10435000762EEF00D0508000E10F500004003A00AC
:10436000B0728000E10F400001003200562EEC00D8
:10437000406F8000F00F50000F003E00306F800053
:10438000E10F40000C003200904F80004002B2006C
:10439000E40F500008003A00E62DEC00516F800059
:1043A000606F8000808F500020003100C00120002D
:1043B000EA2DB4001D003700416F8000200320006B
:1043C000808F500019003600E62DEF00506F8000FE
:1043D000E60F50000200360090FF2F00EA2DB400D7
:1043E000EA0DE20001003200EA2DED00416F80008D
:1043F00080662000808F500001003600EA2DEF001B
:10440000416F8000401F2000808F50000700360061
:10441000D789AB00050032004150800070022000B7
:10442000808F500001003E00EA2DEF0086C8AB00EF
:1044300011003200716D80008100E800716D88000C
:10444000F0A52E00808F50000E003600AE2DEF003C
:10445000806D8000FD0F500003003E000000E8006A
:10446000806D88000700370086A8A90086C8A900CB
:10447000E888A900030037000000EB00706D880099
:10448000806D8800C26DAB0006003200906D800028
:10449000E10F4000040032000000E800906D880049
:1044A00001003700B22DEF008460A9004F05BE0067
:1044B0004F0478004F03BE004F02BE004F01BE0004
:1044C0004F00BE003600F900004006003600F8003C
:1044D000809FBE00829FBE00611A800031758800F7
:1044E000721A80004275880080728000C208DE0067
:1044F000808040004200DE00808050008172880091
:10450000907280004211DE00000141004200DE0096
:104510000001510092728800C0242000808F50005A
:10452000020036000C08A8000500370070112000BA
:10453000808F500002003E000C08A900A809A800C6
:104540000C08AB00060032001A28EF00C0408000C3
:10455000E10F4000070032001828EC00050037008A
:104560001828EF00D0408000E10F40000100320029
:104570001A28EC0090072000800F5100020036003E
:104580000C28A9000400370050042000800F5100BF
:1045900001003E000C28A8000C28AB0006003200E9
:1045A0001E28EF0000418000E10F400007003200AC
:1045B0002028EC00050037002028EF00F0408000A4
:1045C000E10F4000010032001E28EC00F249AB0070
:1045D00027003200114F8000709B2500808F500013
:1045E0000A003E00114F8000703E2000808F500076
:1045F00003003E0020032000E229B4001D00370024
:1046000000102000E229B4001A003700114F80008A
:10461000F0D92500808F500003003E0000082000E4
:10462000E229B40013003700114F8000F0EF27009B
:10463000808F50000F003E00114F800000002600C8
:10464000808F50000700360041508000400A200053
:10465000808F500003003E0060002000E229B4007B
:104660000400370080022000E229B4000100370076
:10467000E229EF00B34E80000388A300040032005B
:1046800010728000E10F400001003200422EEC0069
:1046900003D8A30005003200A1728000E0FF2700CC
:1046A000808F500001003E00542EEC000328A30030
:1046B00003003200B0FF2F00F629B40019003700C4
:1046C000004AAB0017003200B14F8000F02C2000F0
:1046D000808F500008003E00FF8F500003003E0016
:1046E0000180E800B04F88000E003700668040006F
:1046F000B04F88000B003700702F2000808F5000D3
:1047000003003E0064804000B04F88000500370081
:10471000703F2000808F500002003E000180E800C2
:10472000B04F88005828EC005428EC00B0428000BC
:10473000E10F4000010032005628EC00C142800029
:1047400070252000808F5000020036005828EF00AE
:104750006148A800A1428000309C2000808F50005A
:10476000120036005428EF00904280000000E00064
:1047700002003A00304588000B003700F04280000C
:10478000E20F500003003E003041800030458800B9
:104790000500370090428000C20320000280B9006B
:1047A00002005000304588005228EF00A608E200C1
:1047B00006003200F0418000A20420001100090030
:1047C0000280D8008045880001003700B028EF0043
:1047D00003B8A30004003A00604F8000E10F4000DE
:1047E00001003200EC29EC000663A9009220A90028
:1047F0004F01BE004F00BE003600F9000040060029
:104800008144800060468000808F500002003100AB
:104810008E28A80004003700000AB000808F5000E6
:10482000010039008E28A900824480007146800072
:10483000810F5100020036008E08A80005003700E5
:1048400000F62F0000804000800F510001003E0064
:104850008E08A90081448000106B8000810F5000F9
:1048600008003100116B880062CDBF000080FB00A2
:10487000F064880063CDBF000080FB000065880005
:10488000960EA9008A28AB001800320091448000DF
:10489000206B8000810F500008003100216B8800E0
:1048A00064CDBF000080FB001065880065CDBF00AF
:1048B0000080FB0020658800962EA900A14480009E
:1048C000306B8000810F500008003100316B880090
:1048D00066CDBF000080FB003065880067CDBF005B
:1048E0000080FB0040658800964EA900000006008D
:1048F000D689AB0019003200B144800080468000A8
:10490000808F5000020031008E68A800060037003A
:104910003003B000808F500003003900C2A8AB0004
:1049200001003A008E68A900B244800091468000E0
:10493000810F5100020036008E48A80007003700A2
:10494000D0FC2F0000804000800F510003003E008B
:10495000C2A8AB0001003A008E48A9008A08AB004B
:104960000E003200C3448000A0748000808F51008C
:10497000020036008F08A800090037007300B90054
:1049800042012000110009000280D800808F5100F0
:10499000030031008F08A900010037008F08A9002B
:1049A0000000060012458000C1468000810F5100C2
:1049B000020036008E88A8000500370000EC2F00AA
:1049C00000804000800F510001003E008E88A90049
:1049D00022458000D1468000810F51000200360040
:1049E0008EA8A8000500370000EC2F0000804000D2
:1049F000800F510001003E008EA8A90000000600B3
:104A0000D0708000E10F50001B003A000000EB0066
:104A10008044880090448800A0448800B044880006
:104A2000C0448800D0448800E0448800F0448800F6
:104A3000004588002071880000718800D0728800CD
:104A40005C2EEF005E2EEF00A0458800B045880088
:104A5000C0458800D0458800E0458800F0458800C2
:104A6000004688008A28A9008B08A9008B28A90085
:104A70008B48A900F5003700E20F500006003A000D
:104A80000000EB00B0448800C0448800D044880097
:104A9000F04588008D003700E30F50008B003A008E
:104AA0001E0EAB00890032001E0EA90010508000BF
:104AB00054508000527180006371800000004100FA
:104AC000E080490004005000E080580050718800E8
:104AD000617188004A09DD004600DE0000007100B7
:104AE000C608DE00505088005150800050508000B1
:104AF000C208DD004400DE0080804000B144880030
:104B0000406B8000808F500008003600416B8800A9
:104B100068CDBF000080FB005065880069CDBF00F4
:104B20000080FB0060658800966EA90070FF07009A
:104B3000405080006450800072718000837180005A
:104B400000004100E080490004005000E08058006F
:104B500070718800817188004A09DD004600DE001E
:104B600000007100C608DE006050880040508000E0
:104B70007450800092718000A37180000000410099
:104B8000E080490004005000E080580090718800E7
:104B9000A17188004809DD004800DE0000007100B6
:104BA000C808DE00705088006450800060508000AB
:104BB000625080006322B9006900B9004400DE0041
:104BC000040040007911B9004A11DE0002004000E3
:104BD00070748800826A8000020040004104200056
:104BE000810F5000030036000100500070748800EF
:104BF000010037008E2EEF0071748000F00B200052
:104C0000808F500002003E000000E80070748800B1
:104C100071748000C14488008A08AB00050032002E
:104C2000F0458000808F500003003600F145880079
:104C300001003700BE28EF00B04480009808BC0097
:104C400082748800937488004218DD004E11DE00E3
:104C500002017000CE19DE00D2448800A04480001A
:104C6000820F500001003100D0448800C144800010
:104C7000506B8000810F500008003100516B88009C
:104C80006ACDBF000080FB00706588006BCDBF005F
:104C90000080FB0080658800968EA900D1448000CA
:104CA000606B8000810F500008003100616B88004C
:104CB0006CCDBF000080FB00906588006DCDBF000B
:104CC0000080FB00A065880096AEA90082448000A9
:104CD00000B02000800F5100020036008A28A80092
:104CE00004003700F0A92000800F510005003E00AD
:104CF0008A28A90082448000F0A92000800F51007A
:104D000008003600F0ED2E0000004100E14B2000CD
:104D1000810F500003003600001A2200800F51005E
:104D2000040036008B08A9008B28A9008B48A90035
:104D30002200370000502F0000004100015C2000DD
:104D4000810F500005003600009C2E00000041003D
:104D500001B02000810F500018003E0000D4200058
:104D6000800F510004003E008B08A8008B28A9008A
:104D70008B48A9001100370000262F0000004100D9
:104D800001322000810F500004003E008B08A90072
:104D90008B28A8008B48A90008003700009C2E0033
:104DA0000000410001B02000810F500003003E00D0
:104DB0008B08A8008B28A8008B48A90090FE07004C
:104DC00021718000600B2000808F500006003600AB
:104DD000E00320000088B90082122F00000141008A
:104DE000027188001200370040042000808F5000BC
:104DF000050036007E0050000088B9000023B00096
:104E0000007188000A003700EE8F500002003E005B
:104E1000F00020002071880020718000B203200083
:104E20000280B90002CA2F0000014100027188000F
:104E3000207180004C08B4004600DD00D201200043
:104E4000110009000280D80060458800447180008C
:104E500040102000800F5200070036006C21B9007E
:104E60006920B9004500DE0000015100620DB0006C
:104E70001245880019003700300A2000800F5200C8
:104E8000080036007220B9006721B9004611DE0023
:104E900000014100E0A42F000001410012458800FC
:104EA0000E00370080072000800F52000A003600F5
:104EB0003002200000A0B9001203200002A1B900B6
:104EC0004811DE0002005000D2FA2E00020040001D
:104ED0001045880001003700A228EF00114580002E
:104EE000706B8000810F500008003100716B8800EA
:104EF0006ECDBF000080FB00B06588006FCDBF00A5
:104F00000080FB00C065880096CEA90001804000AB
:104F100092012000110009000280D800504588004D
:104F200033718000002B2000808F51000700360075
:104F3000500320000098B9004200DE0062872F0075
:104F400002004000107188000C003700800E200025
:104F5000808F5100060036007118B9000000D100A2
:104F600082522000020040001071880003003700C8
:104F70006C18B900C023B000107188004418DD001F
:104F800092012000110009000280D80070458800BD
:104F90000171800010718000808F50000200360087
:104FA0002145880001003700204588002145800008
:104FB000806B8000810F500008003100816B8800F9
:104FC00070CDBF000080FB00D065880071CDBF00B0
:104FD0000080FB00E065880096EEA9003145800066
:104FE000906B8000810F500008003100916B8800A9
:104FF00072CDBF000080FB00F065880073CDBF005C
:105000000080FB0000668800970EA90065FE07007F
:1050100000000600004AAB000B003200B14F8000D8
:10502000700C2000808F500007003E00D5E2A800E1
:10503000000AA900FA29EF00004AA900D609A90030
:10504000D809A800006AA900A849AB0003003A00EB
:10505000A849A800D4A9A80006003700D4A9AB002D
:1050600004003200D049AB0002003200D4A9A900EC
:10507000F502A800F502A80000000600F502A9004C
:105080000000060010468000E7006000E48F50003A
:105090000200320000B8A30005003200D789AB003F
:1050A00001003A00D6E9A800D789A800110037000E
:1050B000D789AB0001003200D6E9A800D789A90042
:1050C000E58F50000200320000C8A3000500320046
:1050D000D629AB0001003A00D6E9A800D629A800DD
:1050E00004003700D629AB0001003200D6E9A80041
:1050F000D629A90000D8A3000B0032008A48AB00D3
:1051000009003A002150800060172000808F500075
:1051100005003E00D0508000E10F500002003A0030
:10512000D649A80001003700D649A900D649AB00EE
:1051300002003200B7FF070001003700CFFF070071
:10514000000006002EFE0700CEFF0700000006004C
:1051500000017800D409AB000E003A0023C2BF0062
:105160000008A300FDFF320050002000201188003D
:105170008000EB005175880010002000A04D8800D1
:10518000D409A800D429A900C24D8800D449A90097
:10519000314E8800000006000001BE00D409AB00BB
:1051A0000F003A0023C2BF000008A300FDFF320039
:1051B00000052000201188008000EB005175880058
:1051C00010002000A04D8800D409A800D429A80010
:1051D000C24D8800034E8800D449A900314E880092
:1051E00000000600C24D8000820078000100A1008E
:1051F00080982000F34D800083307800E40F510048
:105200001400320005003E000200E00008003200F9
:10521000E20F51005F003A0008003700E80F51002C
:1052200020003200FE0F51005A003A0056003700AD
:1052300010002000E073880056003700906A80005C
:105240008A09B40001F82F00010040008044880062
:1052500050003700706A80008C09B40001F82F00FC
:105260000100400000748800EF0F500002003E0073
:1052700000012000007488000174800091448800BF
:105280008A28AB0005003200E0458000808F500086
:1052900040003600E14588003E003700BC28EF00A2
:1052A0003C003700834C80001374880081448000E8
:1052B00000402100808F50000D003600C26A80003F
:1052C0000238B0000219B8004618DD004A11DE00AD
:1052D00002017000CA19DE00D06A8000000141009E
:1052E00000F82F0000014100127488000F00370001
:1052F000F02B2100808F50000C003E00A26A80003D
:105300000238B0000219B8004618DD004A11DE006C
:1053100002017000CA19DE00B06A8000000141007D
:1053200000F82F0000014100127488001074800002
:10533000F30F500003003E0040012000A04488000D
:1053400001003700A04488008A28AB000600320024
:10535000A1448000D0458000810F5000030031003F
:10536000D145880001003700BA28EF00F1738000B2
:105370009408D500010040008100D10001005000D8
:10538000F073880003003700304D80004200DE00DB
:105390002071880000000600C14D8000000220003E
:1053A000808F500002003A00904E8000804E8800AE
:1053B000000006003600F800809FBE00829FBE00FD
:1053C000849FBE00869FBE0022C2BF000018A300BB
:1053D000010032002222A90022C2BF003011800049
:1053E000B04D8800D4E9A800CE29EF00A14E80007E
:1053F0000148A300BE003A0000017800A00E200082
:10540000800F510009003A000118A30004003A007F
:10541000A04D8000E30F500004003E00B4003700B0
:10542000A04D8000E50F5000B1003600507580009F
:10543000E40F5000FA0036000108A300A900320072
:10544000A04D8000E30F50003C00320005003E00FC
:10545000E10F500009003200E20F50009D003A00B9
:105460000E003700E50F5000660032004C00390096
:10547000E60F500097003A008400370023C2BF00B7
:105480000008A300FDFF3200C04D800020118800FD
:10549000AA2EEF00B429EC00E10037000118A300A8
:1054A000EA003200100037003111800022C2BF0034
:1054B0000008A300FCFF3A00B14D880023C2BF00E2
:1054C0000008A300FDFF3200F20F2000C14D800054
:1054D0008280600000102000010050000200600087
:1054E000201188001200370023C2BF000008A3006B
:1054F000FDFF3200119C2000914078008180FB006C
:1055000021118800C04D800080804000C0C9BF00CC
:105510000080FB0080804000F20F2000828060004D
:10552000001020000100500002006000E04D8800E3
:10553000AA2EEF00B429EC00B90037000118A3002F
:105540000E003A00E70F510008003A0023C2BF00E6
:105550000008A300FDFF3200800120002011880018
:10556000AA2EEF00B429EC00AD003700D449A80002
:1055700010002000A04D8800A900370023C2BF0002
:105580000008A300FDFF3200C0C9BF000080FB007F
:1055900020118800AA2EEF00B429EC00A0003700EB
:1055A0000118A300A5003A0002007800BFE9B70087
:1055B000B04D8000D04D880023C2BF000008A3007A
:1055C000FDFF320080012000201188000A00370012
:1055D0003111800022C2BF000008A300FCFF3A0086
:1055E000B14D880023C2BF000008A300FDFF3200B8
:1055F000E04D800020118800AA2EEF00B429EC00B5
:10560000870037000118A3000C003A000200780060
:10561000BEE9B700B04D8000BA29B40023C2BF0074
:105620000008A300FDFF3200800120002011880047
:10563000AA2EEF00B429EC00790037000007200003
:10564000800F510009003A0053FF070023C2BF003A
:105650000008A300FDFF3200800120002011880017
:10566000AA2EEF00B429EC006D00370023C2BF0062
:105670000008A300FDFF320022118800AA2EEF00CF
:10568000D449A800B429EC00650037000118A30034
:1056900006003A00D04D800000004100D04D880047
:1056A0000004E00001003A00CEFE070023C2BF0064
:1056B0000008A300FDFF32008001200020118800B7
:1056C000D409A900AA2EEF0010002000A04D8800E8
:1056D0005300370010002000A04D8800D409A90015
:1056E0004F00370010002000A04D88004C0037000C
:1056F000B14D8000A00E2000808F500004003A00C1
:10570000D489A80010002000404E8800C629EF0070
:10571000404E8000E20F50001300320003003E00B4
:10572000E10F50003C003A0005003700E30F500045
:1057300017003200E40F500037003A001E00370017
:1057400023C2BF000008A300FDFF3200B14D80005E
:1057500021118800A00E2000808F500030003A00F8
:10576000C829EC002E003700B04D8000CBE9B7000F
:10577000604E880023C2BF000008A300FDFF320076
:105780008001200020118800C829EC002400370087
:10579000B04D8000CAE9B700CC29B40023C2BF00D5
:1057A0000008A300FDFF32008001200020118800C6
:1057B000C829EC001A003700B04D8000CC09B400B5
:1057C000604E88000004E0000A003A0023C2BF00D7
:1057D0000008A300FDFF3200800120002011880096
:1057E000504E8000404C880010002000E07388007C
:1057F0000500370023C2BF000008A300FDFF3200F0
:105800001008200020118800D489A9001000200071
:10581000404E88000200370010002000404E8800F3
:105820008560A9004F03BE004F02BE004F01BE00BD
:105830004F00BE003600F9000040060022C2BF0043
:105840000008A30062FF3A0066FF370022C2BF00D3
:105850000008A30014FF3A0018FF3700A001200041
:1058600040118800A9C0BF00F1C8B300014060002A
:105870000043B300A9E0B7009560A80021E2A800AA
:105880002342A800D4E9A9000000EB00704E880074
:10589000404C880088E9A80050002000404D880056
:1058A000804E8800904E880000000600704E8000F8
:1058B000F20F500005003A00D4E9A9008809A900B8
:1058C0008A28A90010002000E07388007C0EE20006
:1058D00016003200A829AB0003003200D849A80006
:1058E0008809A9000A003700424C8000614061002D
:1058F0000080EA008180EA00610060004200DD0073
:10590000C24E80000220A10000017100C24E88003A
:105910008829AB0004003A00D0708000E30F5000EB
:10592000010032008C88A8007C2EEF00A04E800081
:105930007100600038003A00824E8000414D8000C6
:10594000810F510004003200914E880000022000B7
:1059500011FE070030003700104E8000E50F5000A8
:105960002D003600C229EF00D409AB002A003A000E
:10597000D0738000E60F50001200320003003E009A
:10598000E40F5000070036000A003700E80F50000F
:10599000150032000F003900E90F50001D003A00D9
:1059A0001600370000004000E9FD07007A2EEC00E9
:1059B00019003700E0012000E5FD07007A2EEC0019
:1059C0001500370020022000E1FD07007A2EEC00D0
:1059D00011003700C144800080022000EEFD070066
:1059E0007A2EEC000C003700E16A8000C002200033
:1059F000E9FD07007A2EEC0007003700924E880080
:105A00008200780000022000E3FD07007A2EEF00FC
:105A1000010037007A2EEF00304E8000E40F500076
:105A200002003600D409A900D489A90000000600AC
:105A3000D689A900C045240030268800C3E4A90007
:105A400023E4A90023C4A90043E4A90043C4A90096
:105A5000F2A9A9008000EB00114F8800F16E8800C8
:105A6000016F88003124880041218800815088001E
:105A700091508800D729A900516F8800F4C2A8006E
:105A8000F249A900F209A900214F8800600920000D
:105A9000404F8800504F8800B004200050218800FB
:105AA0006021880050228800602288000C88A900AC
:105AB00091408800F229A900D6C9A9008A08A90046
:105AC000D582A800A8C9A800B1448800C1448800B4
:105AD000D1448800F145880000000600F2A9A80022
:105AE0000000EB00104F8800F06E880011002000CD
:105AF000016F880030248800402188008050880091
:105B000090508800A050880023E4A80023C4A80077
:105B100043E4A80043C4A800C3E4A800F249A800D5
:105B200000000600889FBE00406A8000B212280074
:105B30000200B80002A82C0043FE20000000410033
:105B400081804900CD09DE00430ADD004D01DE0001
:105B500002017200A26F8800906F8000820F5000D7
:105B60000200320042248800926F8800B94E800003
:105B700009C8A30009003200F4E2A80000FA2000DE
:105B8000606F8800516F8000004780000000400077
:105B900001004000704F8800230037000918A3005F
:105BA00011003200F4E2A800C08F2000606F88006E
:105BB000586F80006140B90059EB07000800E00011
:105BC00003003D00020020000378240080EB070062
:105BD000D2CC2C00036C24007DEB0700EDEB07001A
:105BE000704F880010003700F4E2A90000FA20008E
:105BF000606F8800586F80006140B90048EB070073
:105C00000800E00003003D000200200003782400AB
:105C10006FEB070022062100436C24006CEB0700A9
:105C2000DCEB0700704F8800784F80006140B900BE
:105C30003BEB07000800E00003003D0002002000ED
:105C40000378240062EB0700A2992900D36B24009B
:105C5000BEEB07000000E00002003D00C0EC2500A4
:105C6000704F880000082100008064000D003200A1
:105C7000D04E8000714F8000810F5000020036002E
:105C8000DA29ED0009003700D04E8000808F5000E7
:105C900002003600DA29EC0004003700D6E9A9003A
:105CA00002003700704F8000D04E8800D14E800037
:105CB000104F8000808F500007003600144F800086
:105CC00034248800F2A9A800D689A900D729A90000
:105CD000F029EF0009003700D14E8000804F80008E
:105CE000808F500004003200D04E800030248800A5
:105CF000D44E8000844F8800F2A9A9004F04BE0052
:105D0000000006007050800041508000720040008A
:105D1000810F50000B003600405080007150800011
:105D200072004000810F500006003600D769A900BC
:105D3000C0302000C06F88000080E900D06F88006C
:105D40000F00370070508000415080003002B000DA
:105D5000810F5000050039004050800071508000D4
:105D60003002B000810F500005003100D769A80053
:105D7000EC29EF0070302000C06F8800D06F8800E1
:105D8000B04E80000088A30057003A00F2A9AB0093
:105D900055003A000048A30053003200604F8000D5
:105DA000F40F500003003E004050800070728800E5
:105DB000020037007050800070728800727280009C
:105DC0000201E800801A2600110009000280D800B4
:105DD000E406200000024200746E880050FE240099
:105DE000110009000280D800A10A20008080400034
:105DF000916E8800C2448000702D2000800F5100F9
:105E000009003E00604F8000F40F5000060036008D
:105E10007911B90000742400020050004300DE0034
:105E2000A06E880001003700D42DEF00A06E800026
:105E3000808F500002003900816E88000100370019
:105E4000806E8800816E8000C05D2000808F5000D1
:105E500002003600806E88000500370050092000DF
:105E6000808F500002003E000000E800806E880035
:105E7000C05D2000800F520002003600706E880066
:105E80000500370050092000800F520002003E003C
:105E90000000E800706E8800816E8000404F800036
