:020000040000FA
:100000007C2FFF3FFF3FFF3FF7000308F80083010D
:100010000A08E2008A110A128C19BE290B19772BE3
:100020008B138312031362088A0078088300F70E8B
:10003000770E0900FF3FFF3FFF3FFF3FFF3FFF3FBE
:1000400082077934D634B034B134B234B334B434F2
:10005000B534B634B734B834B934D734D834BA3404
:10006000BB34BC34BD34D934DA347934793479349E
:10007000793479347934BE34BF34C034C134C234B5
:10008000C3347934793479347934793479347934BE
:10009000793479347934A334A034DB34DC34DD347E
:1000A000DE34DF34E034E134E234C434C534C63401
:1000B000C73479347934C834C934CD34E43479342C
:1000C0007934E534D43479347934E634E734E834B7
:1000D000E934EA34EB34EC34ED347934793479347E
:1000E0007934EE34EF34A534A634A734A834A934D7
:1000F000AA347934793482075634603474348034C5
:10010000A5348207BA34BA34BA34BA34BA34BA34F9
:100110008207D634D634D634D634D634D634820791
:100120007934793479347934793479347934793467
:100130007934793479347934793479347934793457
:100140007934793479347934793479347934793447
:100150007934793479347934793479347934793437
:100160007934793479347934793479347934793427
:100170007934793479347934793479347934793417
:100180007934793479347934793479347934793407
:10019000793479347934C9347934793479347934A7
:1001A000E534D43479347934793479347934793420
:1001B00079347934793479347934793479347934D7
:1001C000EE34EF34A534A634A734A834A934AA34C5
:1001D00079347934FF3FFF3FFF3FFF3FFF3FFF3F51
:1001E000FF3FFF3FFF3FFF3FFF3FFF3FFF3FFF3F1F
:1001F000FF3FFF3FFF3FFF3FFF3FFF3FFF3FFF3F0F
:1002000082070134013402340334043405340634E3
:10021000063407340834093409340A340B340B34F7
:100220000C340D340D340E340F340F3410341134BB
:100230001134123412341334143414341534153484
:1002400016341634173417341834193419341A3450
:100250001A341B341B341C341C341D341D341E341E
:100260001E341F341F3420342034213421342234EE
:1002700022342334233424342434253425342634BE
:1002800026342734273428342834293429342A348E
:100290002A342B342B342C342C342D342D342E345E
:1002A0002E342F342F342F34303430343134313431
:1002B0003234323433343334343434343534353402
:1002C00036343634373437343834383439343934D2
:1002D0003A343A343B343B343C343C343D343D34A2
:1002E0003E343E343F343F34403440344134413472
:1002F000423442344334443444344534453446343F
:100300004634473447344834483449344A344A340C
:100310004B344B344C344D344D344E344F344F34D5
:10032000503450345134523452345334543454349D
:1003300055345634573457345834593459345A3460
:100340005B345C345C345D345E345F34603461341F
:1003500061346234633464346534663467346834D9
:1003600069346A346B346C346D346E346F34703489
:100370007134733474347534763478347708F30018
:100380007808F4006208E400831203172630A800FE
:10039000F930A7000313F9018316941A0E2A0313E8
:1003A000831213082B11AC12AB108316141D682B8B
:1003B0008312AB14AC1DDF2957089300682B2C1F48
:1003C000E42957099300682B2C1AE929553093002A
:1003D000682B00308A005308583C0318F129593023
:1003E000D300530820208A0184000008831393005F
:1003F000C00000308A00D30A5308583C0318022A70
:100400005930D300530820208A0184000008831348
:1004100003178316D00003138312682B8312AB18C3
:10042000152A2B19662A2B15532A2B15AC1E302A98
:100430002C1A1D2AFE309300682B4008FF3C013E19
:10044000C000400893005308373C0319E0125308DA
:10045000353C031960135308333C0319E013682B30
:100460002C1A362AAA309300AC16682B5308573C36
:10047000031D4A2A83162908831203178D00831649
:100480008C130C1483120C08031383139300AC1603
:10049000C007682B031783165008031383129300B9
:1004A000AC16C007682B1308D300D40083161307BB
:1004B0008312D7002C12AC112C13D8011308013968
:1004C0000319682B5830D300D400682BD808031DBB
:1004D000732A5708FF3C013E130203192C16130818
:1004E000C100D707642B5808013C031D7B2A130861
:1004F000C200D707642B5808023C031D642B570821
:10050000FF3C013ED7001308570203198B2A2C1712
:100510001308D700642BAC1500308A005408583CEF
:100520000318942A5930D40054088F208A0184007B
:1005300041088000D40A00308A005408583C03184F
:10054000A32A5930D40054088F208A01840042081D
:1005500080005408553C031DAE2AA716C108031D90
:10056000D22AC208031DD22A5408353C031DBC2AD6
:100570008316C401C50183125408373C031DC42AE5
:100580008316C601C70183125408333C031DCC2ACD
:100590008316E101E20183125408313C031DD22A83
:1005A0002C15AC175408413C031DD82A8316092B7F
:1005B0005408453C031DDF2A8316A414092B540854
:1005C000473C031DE62A83162415092B54083D3C9D
:1005D000031DFC2AC108031DF02AC2080319FC2AC6
:1005E000A81783164817831241088316CD0083127B
:1005F00042088316E400092B5408493C031D032BD1
:100600008316A415092B54084B3C031D112B83168C
:100610002416831241088316CB00831242088316E6
:10062000CA00831254083B3C031D642BA816C11A50
:10063000212B8316A41F1E2B481A212BC8128312AC
:1006400008138312411B282B8316CD01E4014813A4
:1006500083121F30C105831648088312C200C21AD4
:10066000C116421B411741088316C8008312073088
:10067000C1050730C205410842060319642B8316E1
:1006800048080739013A0319512B0530831603171F
:10069000D4000313D400DC300317D3000313E500A8
:1006A000642B8312A7185E2B8316031754080313B9
:1006B000D400031753080313E500642B831623307B
:1006C000D4002830E500642B83120313D80A682B6A
:1006D0008312941314138C1114168B1383120313A7
:1006E00064088A0074088300F30E730E090077080B
:1006F000F5007808F6006208E3008B120B118630D3
:10070000810083168230810083128B1764006B088E
:1007100003198C2BEB03932B6C08031D912BAC144A
:10072000932BEC03EB099F18932B3D081E02BE0090
:10073000031CB22B0310BE0C0318BE0A0310BE0C20
:100740000318BE0A0310BE0C0318BE0A0310BE0C29
:100750000318BE0A3E08BF07031CCC2BBD0A0319B1
:10076000BD09CC2BBE09BE0A0310BE0C0318BE0A7D
:100770000310BE0C0318BE0A0310BE0C0318BE0AF9
:100780000310BE0C0318BE0A3E08BF020318CC2B90
:100790000130BD02031CBD0103308A0000301F1967
:1007A000013E9F19023E1F1A043E8207DE2B942C45
:1007B000CD2C2E2D2E2D2E2DDD2CEA2C1E08A60044
:1007C00083161E0883120317AF00831603176D1AD2
:1007D000FD2B831203131E08CC3C0318FD2B9F1422
:1007E0009F18F02B1E08CC3C0318FD2B8811871492
:1007F000831603176D163230CD00831203131E08C3
:10080000B03C831603176D10031C6D148312031381
:10081000A7182E2C0317EE0A6E08703C0318212C23
:10082000EE01251A192CAA0A2A08053C0318212CC6
:10083000AA0103132C148B13061587168B17A91303
:10084000682C0313891D682C0000891D682C2C144A
:100850008B13061587168B17A913682C281F3C2CA1
:100860001E08803C031C3C2C9F149F18352C1E082E
:10087000803C031C3C2C6014A91A4E2C1E08B83C6A
:10088000031C642C9F149F18432C1E08B83C031CA7
:10089000642C9530B5000130B600642C2C18682CFF
:1008A000891D642C0000891D642C2C148B130615E3
:1008B00087168B17A913A9129530B5000130B60021
:1008C0008316B4158312682CA9170317EE01AA0129
:1008D00083120313E50A6508013C03197B2C6508A4
:1008E000023C03197F2C6508033C0319892C650819
:1008F000043C03198D2C1F129F111F15322D450822
:10090000BD004408BF001F129F151F1183161F1240
:10091000322D1F169F151F11322DE5011F169F1531
:100920001F1583161F12322D1E0883120317EA00AB
:10093000831603131E0883120317EB00031383129D
:100940008618C72C2C18C72C0B301E020318B32C8A
:100950009F149F18A92C0B301E020318B32C88116A
:1009600087148512C72C0E301E02031CC72C9F143F
:100970009F18B82C0E301E02031CC72C8516831638
:1009800003176D1AC72C831203138815871083125F
:1009900003131F129F111F11322D2B1ED32C2B124C
:1009A0001E08BD00C5003D08C5003F08C4001F1259
:1009B0009F111F1183161F16322D1E08AD3C831682
:1009C0000317ED10031CED14831203131F129F1164
:1009D0001F11322D1E082608C83C031C262D861820
:1009E0001E2D6018262DE01C262D291B0B2D1E0800
:1009F000843C03181F2D83160317D50A55080A3C9B
:100A00000318262D831203132C148B130615871637
:100A10008B172917262D1E08823C031C222D9F149C
:100A20009F18102D1E08823C031C222D83160317CD
:100A3000E20A6208FA3C0318262D1F2DE0108312EB
:100A40000313291383160317D501E201831203133D
:100A50001F129F111F1183161F16322D9F121F1276
:100A60009F111F1183160317111D442D4B080319E5
:100A70003B2DCB03442D4C08031D422D8312031341
:100A80008817442DCC03CB0983120313881F562DDE
:100A9000831603174E0803194F2DCE03562D4F080A
:100AA000031D542D9114562DCF03CE098312031329
:100AB00006186B2D000006186B2D881A7F2D00007C
:100AC000881A7F2D2810281103171030EC002730CA
:100AD000ED000313832D881A812D0000881A812DC3
:100AE000A7187C2D2810281D832D8316B01C832D5C
:100AF000B2158312AB15832D2A18AB15832D28143C
:100B0000832D2814AB11831603176D1E8D2D4D08F0
:100B1000031D8C2D6D128D2DCD0383120313291807
:100B2000A42D2818982DB630AE000330AF00A42DA8
:100B30002E0803199D2DAE03A42D2F08031DA22DF1
:100B40002914AC2DAF03AE09291CAC2D281C29108B
:100B5000B630AE000330AF00861EBB2D320803193D
:100B6000B32DB203C02D3308031DB82D2915C02D98
:100B7000B303B209C02D0F30B2000030B300291109
:100B80005B080319C52DDB03CC2D5C08031DCA2DA2
:100B90002817CC2DDC03DB09291AE82D6018D52D88
:100BA0006430B7001930B800E82D37080319DA2D82
:100BB000B703E82D3808031DE62D291683163215D4
:100BC00083126430B7001930B800012EB803B7099A
:100BD000291E012E601CF12D6430B7001930B800B9
:100BE000012E37080319F62DB703012E3808031D0F
:100BF000FF2D29126430B7001930B800012EB80358
:100C0000B7093408031D062EA915072EB403A91A27
:100C1000212E861C102E9530B5000130B600212EF5
:100C200035080319152EB503212E3608013C031C87
:100C30001F2EE0143608031D1F2EA916212EB60301
:100C4000B509A91E2B2E8618A912861EA912953049
:100C5000B5000130B60023080319302EA3033F2E40
:100C60002408031D3D2E2A1E372E2A12382E2A163E
:100C7000E230A3000430A4003F2EA403A3092A1FDE
:100C8000452E2A1E492EAA124E2E2A1A4C2EAA1280
:100C90004E2E2A13AA164E2E2A17AA16071C522EBB
:100CA000AA175D2EAA1F5D2EAA13D50A031D5D2E5D
:100CB000D60A031D5D2ED509D609AA1E6E2E033055
:100CC00056020318692E5508E9005608EA00601616
:100CD0006C2E6016E901EA01D501D601A81F7D2E10
:100CE000EE0A6E08FA3C03187F2EA914EE01EF0AF3
:100CF0006F08133C03187F2EA813EE01EF01A81C08
:100D00009D2E061CB12E0000061CB12E0000061CF4
:100D1000B12E831632128312A810AC101030EB00E3
:100D20002730EC00A71CB12E2C18B12E291BB12E98
:100D30008B13061187128B17B12E0618B12E0000E7
:100D40000618B12E00000618B12E83163216831233
:100D5000A814A71CB12E2C18B12E8B1306158712C0
:100D60008B1703176C080319B72EEC03BF2E6D0801
:100D7000031DBD2E03132815BF2EED03EC0903132D
:100D800059080319C52ED903CC2E5A08031DCA2EA3
:100D90002816CC2EDA03D909A71CE02E2C18DA2E3F
:100DA0002818E02E2C148B138811851287108614B6
:100DB0008B1729102818E02E86142717A710271440
:100DC0008B13831603171E080319E82E9E030E2F9C
:100DD0001F08031D0C2FBC309E0009309F00031319
:100DE000600A031DF72E5F0A031DF72E0E2FDF0A80
:100DF0000319E00A5708DB07031C042FDC0A031D54
:100E0000042FDD0A0319DE0A5808DC07031C0E2F25
:100E1000DD0A0319DE0A0E2F9F039E098B1783122A
:100E200003132C18402F83160317240803191A2FB5
:100E3000A403402F2508031D3E2F7B30A400133050
:100E4000A500A60A26083C3C031D402FA60103135B
:100E5000AD0A0319AE0A0319AF0A0317A80A280836
:100E60003C3C031D402FA801A70A2708183C031D7E
:100E7000402FA701AA140313AD03402FA503A40913
:100E800083120313071A622F0317270803194A2F27
:100E9000A7036C2F2808031D682F831203139412D5
:100EA00083169401071287118312071687153630AF
:100EB0009400130893018316071687158312AA114D
:100EC0002A112B1003172630A800F930A7006C2F29
:100ED00083120317A803A709031383129F148B130C
:100EE0008B160B118B138312031363088A00760889
:100EF0008300F50E750E09008A150A16F62B1D30B3
:100F000045020318862F0030E8008C2FE800BC3C17
:100F100003188C2FBC30E80001308A0068080021DB
:100F20008A01D1001D305E020318992F0030E800BD
:100F30009F2FE800BC3C03189F2FBC30E800013015
:100F40008A00680800218A01DD00A71CEA2F281FFB
:100F5000EA2F8316F00100308A0070087B208A0196
:100F60007102031CBA2FF00A7008043C0318AB2F5F
:100F70000530F00083126018D42F00308A008316E9
:100F8000700888208A017202031CD02F0317AC0A54
:100F90002C08C83C0318EA2FAB010313831260141A
:100FA00003178316AC01EA2F00308A0083167008FD
:100FB00081208A0172020318E72F0317AB0A2B085E
:100FC000C83C0318EA2FAC01031383126010031707
:100FD0008316AB018A150028FF3FFF3FFF3FFF3F0D
:100FE000FF3FFF3FFF3FFF3FFF3FFF3FFF3FFF3F11
:100FF000FF3FFF3FFF3FFF3FFF3FFF3FFF3FFF3F01
:1010000003138312A7182228AB1A1628AB191C2821
:101010001430A0000317831611183128111403137C
:1010200083121E3095008316CE003128C830A200EE
:101030000317831611142528C830A100031783163F
:10104000111425280317831611100317831610088F
:1010500003138312A00020082202031C3128220857
:10106000A00003138316481F3E288312200883160E
:101070006302031C412863088312A0008316301307
:101080004228301783121508143C0318522883167F
:101090004308003C031C5228031D5B284208643CA3
:1010A00003185B288312200883164E02031C5B285A
:1010B0004E088312A000831215082002031981280C
:1010C00015082002031879289508031981280317A9
:1010D000B10AB108031D8128B20A32080A3C03187C
:1010E0008128B20103131508163C031881289503C3
:1010F00081281508C73C03188028C730950081282F
:10110000950A83160317911C9928831203138619D5
:10111000992800000000861999280000000086190F
:1011200099281508A0000317831611148A150A16AA
:10113000032C03138312E0191B29E01583160317F0
:10114000A3012A108B131F309B258316A2001E308B
:101150009B2583160313AC0019309B2583160313BC
:10116000AD001A309B2583160313AE001B309B2560
:1011700083160313AF008312881CC5280000881C47
:10118000C5280000881CC528DE2883120317831792
:10119000553084002430AD002D089B258000AD0A19
:1011A000840A2D082E3C031DCC28A5154830D100FB
:1011B0000630D2000D30D3008030D4008313831664
:1011C00003131C30A700A80127080317A00003136E
:1011D00028080317A100A82583160313A7018B175E
:1011E000831603177B30A4001330A50003132130AE
:1011F000D6000030E6000A30E700C030E8002130B9
:10120000E9000030EA000B30EB000030EC000D305C
:10121000ED008030EE000C30EF008030A50016307D
:10122000A6002730A3003330A00083120317263016
:10123000A800F930A7008312031364008B17271C42
:101240008929061E8929291C8929291D8929061C05
:10125000892903178316911C89296D123230CD001C
:10126000031383128811851687140317251203139D
:10127000831286102C148B13061587168B17C43017
:10128000DB000930DC0028139530B5000130B600D2
:10129000A9126430B7001930B8006010291250301C
:1012A000D900C330DA002812031783162912AB01C4
:1012B000AC0103138312A812AB1B63290813831616
:1012C000C8128312A816AA10AB11AB122B138316E7
:1012D000B201B301B401B501AB01A1102410831612
:1012E000CF1A7E2948080739013A031D84298B1338
:1012F0002330D4002830E5008B1784298B13530842
:10130000D4005208E5008B178312AB132713271064
:10131000A71403138312A71C5A2A64008B17861A7A
:10132000A42900000000861AA42900000000861AE3
:10133000A4292C148B1388118512871086148B17FF
:101340002717A710A715742A061AC729000000003E
:10135000061AC72900000000061AC7292C148B138F
:1013600088118512871086148B17AA142B178316E1
:10137000B214831286142717A71027150317831694
:101380002A140130A1001D30A000A8255A2A291EC8
:10139000E0292C18D2292C148B1388118512871060
:1013A00086148B1786142B172717A71027150317DA
:1013B00083162A140130A1001D30A000A8255A2A46
:1013C000AB1EFD29281FFD292C18F0292C148B1386
:1013D00088118512871086148B178316B215831215
:1013E00086142717A7102715031783162A14013010
:1013F000A1001D30A000A8255A2AAB1D1A2A281FBB
:101400001A2A2C180D2A2C148B1388118512871078
:1014100086148B178316B215831286142717A7100C
:101420002715031783162A140130A1001D30A000D0
:10143000A8255A2A83164F1B3C2AC9183C2A831216
:10144000281E3C2A2C182E2A2C148B138811851246
:10145000871086148B1783163217831286142B1766
:101460002717A7102715031783162A140130A10088
:101470001D30A000A8255A2A83128B13AA185A2AB5
:101480002C1C592A291C592AA91E592A291A592AB9
:10149000281F4A2A061C592A00000000061C592A47
:1014A000A91F592A291B592A2C108B1306118712A0
:1014B0008B178B17031383128B17271D722A640057
:1014C000061C702A861E702AAB1A722AAB19722A61
:1014D0002B1B722AF430AE000130AF002910AB177D
:1014E00027112714A71D7B2A640003172516031351
:1014F0008614A7112714031783162A18D22A031358
:101500008312A71CC92A8B132608FA0003172F0879
:10151000FB008B170310FA0CFB0C0310FA0CFB0CEE
:101520000310FA0CFB0C0310FA0CFB0C0310FA0C62
:10153000FB0C0310FA0CFB0C7B08E7070318E80A06
:101540007A08E807E90A691FD22AE9016708FB005F
:101550006808FA00E701E8010310FA0CFB0C03101D
:10156000FA0CFB0C0310FA0CFB0C0310FA0CFB0C2E
:101570001E30FB020318C02AFA080319C92AFA030D
:101580008B137B0883160313BA007A08BB008B17F2
:10159000D22A03178312E701E801E9010313831636
:1015A000BA01BB01031383121230FE001508FD00BF
:1015B0005D257A088316430283120319E42A03186F
:1015C000ED2A281EF32AF52A7B088316420283128D
:1015D0000318ED2A281EF32AF52A83125030D90069
:1015E000C330DA0028128312FB2A03138312A71CCC
:1015F000FB2A8316321783128312AC1C1C2B463035
:1016000051020318172B51083C3C031C1C2B4508A6
:101610000F3C0318172B1A304502031C1C2BAB126E
:10162000AB191C2BA7181C2B8316B2111C2BAB1645
:10163000A71C1C2B8316B21583128B13291B372B67
:10164000831632084E39031D272B3210392B4F1BBE
:101650002C2BC9182C2B342B3208403A0319392B68
:101660003208503A0319392B8312861C392B831602
:1016700032148B1783125108FD004030FE005D25A7
:1016800083168B137A08BF007B08BE008B1783126A
:101690005D08FD004030FE005D2583168B137A083F
:1016A000C1007B08C0008B178312AC1C862BAB1AC1
:1016B0006C2B5108831603172E0283120313031C8D
:1016C0006C2B831603174808831203135102031867
:1016D0006E2B831634126E2B831634168312AB19BD
:1016E000842B5D0883160317120283120313031C55
:1016F000842B831603171308831203135D02031848
:10170000862B8316B412862B8316B41683163208E2
:101710002B0603198D2B8312A81283163208AB00F7
:101720008312861E962B83163015982B8316301144
:1017300083122C1C9E2B83163010A02B8316301482
:1017400083128316B208031DA72B2413AB2B320878
:10175000103A031D241783128316B408031DB22BFD
:10176000A413B32BA41783128312601EC72B8B13F1
:101770006908FD007830FE005D257A088316C300F5
:1017800083127B088316C2008B178312D82B831613
:10179000CF1B502C8312A819D32B24080939031D01
:1017A000502CA815D82B240809390319502CA8113E
:1017B000A91CE42B0317A60A2608053C0318E82BEE
:1017C000A6010313A910E82B15082002031D502CB5
:1017D00003138316481F1E2C83120317FF30B1001A
:1017E0000B30B2000313831643086402031C182C49
:1017F000031D0B2CCF1742084D020319222C031C8A
:10180000222CCF1383120317A90A2908323C03188C
:10181000222CA9010313831220088316E300CF139F
:10182000E30A6308C83C0318222CC830E300222CCA
:101830008316E308031DE303CF17222CE301E40121
:10184000CD01CF1303138316C308031D01304302D8
:101850005402031C422C031D2E2C502C8312031700
:10186000FF30B1000B30B20003138312200883163F
:10187000CF13CE00CE0A4E08C83C0318502CC830F7
:10188000CE00502C83120317FF30B1000B30B20092
:101890000313831220088316CF17CE00031DCE0337
:1018A0008312A71E8C2CA71203138316CF19612C49
:1018B00020302702031C612C27082D3C031C612CBF
:1018C0008C2C27080317A000031328080317A10076
:1018D000A825031327081C3C031D7D2CCF11831260
:1018E0000317A5158316031328084B3C031D8C2CE6
:1018F000CF1583120317A5118C2C031327081E3C48
:10190000031D852C2808AC008C2C27081F3C031DC8
:101910008C2C28080317A20083160313321AEF2C0D
:101920008312AC1CEF2C83166608FB006708FA00D4
:101930002030FB07031CA32CFA0AFA08031DA32C72
:10194000FF30FA00FB00FA0AFA08031DAA2CFF3048
:10195000FA00FB008316031367083702031CC32C2D
:10196000031DB62C66083602031CC32C37087A0206
:10197000031CC12C031DC42C36087B02031CC12C84
:10198000C42CB410C42CB414831603136808FB00D1
:101990006908FA00A030FB020318D52CFA037A0874
:1019A000FF3C031DD52CFA01FB01831603133708F6
:1019B0006902031CEE2C031DE12C36086802031C8F
:1019C000EE2C7A083702031CEC2C031DEF2C7B084D
:1019D0003602031CEC2CEF2C3410EF2C341483163D
:1019E00003138B13B010321EB0148B17831603171A
:1019F000AA1C102DAA1003132D080317A1001930DB
:101A0000A000A82503132E080317A1001A30A00078
:101A1000A82503132F080317A1001B30A000A82539
:101A20002A1C5A2D2A19282D2A152E302202031D70
:101A30001B2DE8301D2D183022029B254E398316B0
:101A400003133205031D512DAC0A0317AA15AA145E
:101A500003178B13AC30230784000008A1008B17F9
:101A600022082307A000A825A30A23081D3C031869
:101A70005A2DA3012A102A11AA1D452DAA111E3084
:101A8000A207031C452D2E30A2002208A1001F3002
:101A9000A000A82503132C080317A1001E30A000E6
:101AA000A825831603170030A1001D30A000A8252B
:101AB0002A102A118A110A1600280310FA01FB01C4
:101AC0000830FC007D080310FE0C0318FA07FA0C1E
:101AD000FB0CFC0B642D08009901031010309D00D5
:101AE0009C0D9B0D9A0D990D1E081A0203187F2D4F
:101AF000980001301902031C802D990018089A00E3
:101B00009D0B702D9C0D9B0D08002510A510210824
:101B10001F0203198F2D0318972D031C9A2D2208DD
:101B200020020319992D0318972D031C9A2D2514B3
:101B30009A2DA5140800831603178C189D2D831267
:101B400003178D0083168C130C1483120C080800E5
:101B5000831603178C18AA2D8B13200883128D006F
:101B60008316210883128C0083168C130C155530B4
:101B70008D00AA308D008C140C118B170313831267
:101B80001A089A01980183169801831290309800E0
:101B90008316403099002030980003178316080000
:101BA000FF3FFF3FFF3FFF3FFF3FFF3FFF3FFF3F45
:101BB000FF3FFF3FFF3FFF3FFF3FFF3FFF3FFF3F35
:101BC000FF3FFF3FFF3FFF3FFF3FFF3FFF3FFF3F25
:101BD000FF3FFF3FFF3FFF3FFF3FFF3FFF3FFF3F15
:10200000031383128C1E76281A08A500611A7628FD
:10201000611B762861181A28E1184228493A0319E9
:1020200061142508563A0319E1146111E111611296
:102030006113762861192128343A031D6110611556
:1020400076286608053C031933288B13463066074B
:102050008400250880000317831297070313831257
:10206000E60A8B1776282508031783121706031331
:102070000319611661106111E6010317970103133B
:1020800083127628E11954282508343A031D4B2879
:10209000E115601176282508353A031D5228E1150F
:1020A00060157628E11076286608063C0319662834
:1020B0008B134B30660784002508800003178312BA
:1020C000960703138312E60A8B1776282508031751
:1020D000831216060313831203196117E110E1112D
:1020E000E601031783129601031383128316031765
:1020F0006D19CF28831203138B17A71BFD28611AB4
:10210000AD28611FCF2883160317111583120313FF
:102110004E0803178316B200031383124D080317EA
:102120008316B300031383124C0803178316B400FD
:10213000031383124B0803178316B500B70103136B
:1021400083124F0803178316B800CC25031383129C
:102150006113E1175008DE00CF28490803178316E2
:10216000B20003138312480803178316B300031346
:102170008312470803178316B4000313831246081B
:1021800003178316B500B701031383124A08031718
:102190008316B800CC25031383126112E1160317CE
:1021A00083166D19D92803138312E11AD928E11F68
:1021B000172C03138312A71BFD28A71703178316D9
:1021C000B308031DEE28B408031DEE283508013CB2
:1021D000031CEE28C201C301C4011C293308BF003F
:1021E000C2003408C000C3003508C100C400031099
:1021F000C20CC30CC40C0E30C500031783163F0875
:10220000B2004008B3004108B4004208B7004308D8
:10221000B8004408B900B2263408C4070318C30A3A
:102220003308C3070318C20A3208C2070310C20CDE
:10223000C30CC40CC50B172C03138312A71303176D
:1022400083166D1D29296D114408FB004308FA000F
:10225000002C031383128B17A713E11A9E29E11F89
:10226000172C031783164408831291070318900A4A
:102270008316430883129007920B9A29103092001C
:102280000310900C910C0310900C910C0310900C07
:10229000910C0310900C910C10088316B20083125D
:1022A00011088316B3000D30B7004430B8009427EE
:1022B0003308FA003408FB008312900191010317E0
:1022C00083162A189A290313831639080317B300B3
:1022D000031338080317B4000310B30CB40C031035
:1022E000B30CB40C0310B30CB40C3408FB07031884
:1022F000FA0A3308FA07031383168B137A08B70018
:102300007B08B6008B170310FB0DFA0DFB0DFA0DC1
:10231000FB0DFA0DFE30031C7A08D1003708FA00D5
:102320003608FB000310FB0DFA0DFB0DFA0D7A08C1
:102330000317980003138312E113172C0317831656
:102340004408831294070318930A831643088312E0
:102350009307950B142C103095000310930C940CDC
:102360000310930C940C0310930C940C0310930C17
:10237000940C1308FA001408FB008312031360196D
:10238000CD29031759088316B20083125808831603
:10239000B30083125A08AB00D829031756088316D6
:1023A000B200831255088316B30083125708AB009E
:1023B00083167A08B7007B08B80094278312AB1BFA
:1023C000ED29831633088312FA008316340883122A
:1023D0002B07FB000318FA0A002AAB1383163308F5
:1023E0008312FA002B08831634028312FB000318B1
:1023F000002AFA08031DFF29FA01FB01002AFA034B
:1024000003178312A5190A2A031383167B08A50054
:102410007A08A600031783125D088316B2008312A0
:102420005C088316B30083125E08AB0083167A083B
:10243000B7007B08B80094278312AB1B2B2A8316A6
:1024400033088312FA008316340883122B07FB002B
:102450000318FA0A3E2AAB13831633088312FA00D4
:102460002B08831634028312FB0003183E2AFA0855
:10247000031D3D2AFA01FB013E2AFA0383120313CE
:1024800060194F2A83160317FA08031D4F2A7B0889
:10249000183C031C4F2A1830DC00DB01552A831638
:1024A00003177B08DC007A08DB00031783125B0844
:1024B000FD0083161808FE00CE27FB1BFA0A7A08D7
:1024C000D800831203136019772A83160317FF308D
:1024D000D9001808463C031CDB2BDB08031DDB2B53
:1024E0005C08643C031CDB2B0530DC02DB2B831611
:1024F0000317DB08031DB42A5C08143C031C832A61
:102500001630E000B62A5C081B3C031C8A2A4430C3
:10251000E000B62A5C08233C031C912A5630E000F8
:10252000B62A5C082A3C031C982A7130E000B62ABF
:102530005C08313C031C9F2A7B30E000B62A5C0813
:10254000393C031CA62AAA30E000B62A5C08823C6B
:10255000031CAD2AFF30E000B62A5C08E23C031CF5
:10256000B42AC630E000B62AB830E000DB08031D0C
:10257000FF2A5C08133C031CC02A1230DF00012B29
:102580005C08193C031CC72A1A30DF00012B5C08C9
:10259000203C031CCE2A2A30DF00012B5C082A3C99
:1025A000031CD52A4730DF00012B5C08313C031C9B
:1025B000DC2A4E30DF00012B5C08383C031CE32A88
:1025C0007330DF00012B5C083F3C031CEA2A823099
:1025D000DF00012B5C084B3C031CF12AC630DF00F6
:1025E000012B5C08713C031CF82AFF30DF00012B33
:1025F0005C08C73C031CFF2AC630DF00012BB83043
:10260000DF00DB08031D892B5C08133C031C0B2B2C
:102610000E30DE008B2B5C08183C031C122B143090
:10262000DE008B2B5C081E3C031C192B1A30DE00CD
:102630008B2B5C08243C031C202B2030DE008B2BD2
:102640005C08293C031C272B3730DE008B2B5C08F1
:102650002E3C031C2E2B3C30DE008B2B5C08333CC5
:10266000031C352B4130DE008B2B5C08383C031CEF
:102670003C2B4530DE008B2B5C083E3C031C432B7F
:102680005130DE008B2B5C08443C031C4A2B5F302E
:10269000DE008B2B5C08493C031C512B7230DE00A2
:1026A0008B2B5C084C3C031C582B7630DE008B2BAC
:1026B0005C084F3C031C5F2B7A30DE008B2B5C08E0
:1026C000543C031C662B7D30DE008B2B5C08593C90
:1026D000031C6D2BAA30DE008B2B5C085D3C031CB9
:1026E000742BAE30DE008B2B5C08613C031C7B2B13
:1026F000B030DE008B2B5C08663C031C822BB130B3
:10270000DE008B2B5C086B3C031C892BB430DE0095
:102710008B2BB630DE001808733C031CB92BDD0090
:1027200060085F02031CA52BFD005D08FE00CE279C
:10273000DD2760085F02FD007B087D02031C00307E
:10274000FB0060087B07D900DB2B5F086002FD00FF
:102750005D08FE00CE27DD275F086002FD007B08D4
:102760007D020318B52B7D08FB005F087B07D900AD
:10277000DB2B73301802DD005F085E02031CC92BDF
:10278000FD005D08FE00CE27DD275F087B07D9002E
:10279000DB2B5E085F02FD005D08FE00CE27DD2713
:1027A0005E085F02FD007B087D02031C0030FB0019
:1027B0005E087B07D9005908FF3CDA005808FD0085
:1027C0005A08FE00CE270310FB0DFA0DFB1BFA0A78
:1027D0007A08FD007A08FE00CE275B08B2005C088C
:1027E000B3005B08B7005C08B80094277B08B50706
:1027F0000318FA0A7A08B4070318B30A6D15CF282C
:102800000317831293019401031783162A18142CBB
:102810007A08B2007B08B300B7015030B8009427A3
:102820003408C9003308CA0003138312E1120317E6
:1028300083162A18472D03138312A71C3B2D031759
:102840008B136A08FA006B08FB008B170310FA0C55
:10285000FB0C0310FA0CFB0C0310FA0CFB0C03101E
:10286000FA0CFB0C0310FA0CFB0C0310FA0CFB0C1B
:102870007B08E4070318E50A7A08E507E60A661FFD
:10288000472DE6016408FB00B0006508FA008312DA
:102890000313F20083120317E401E5010310FA0C9D
:1028A000FB0C0310FA0CFB0C0310FA0CFB0C0310CE
:1028B000FA0CFB0C0310FA0CFB0C0310FA0CFB0CCB
:1028C00083120317A51D142D52088316B20083121C
:1028D00051088316B300831254088316EF00831245
:1028E00053088316EE007A08B7007B08B8009427D7
:1028F000EF1B832C33086F07FA0034086E07FB00C8
:102900000318FA0A982CEF136F083302FA00031821
:102910008C2CFA01FB01982C6E083402FB00031882
:10292000982CFA08031D972CFA01FB01982CFA0346
:102930008312031783167A08013C031CAE2C031D77
:10294000A52C7B08753C031CAE2C0130B20008306E
:10295000B3000030EF000830EE00EF2C7A08033CA3
:10296000031CC12C031DB82C7B086B3C031CC12C21
:102970000030B200F830B3000030EF001830EE0045
:10298000EF2C7A08083C031CD42C031DCB2C7B08AD
:102990003A3C031CD42C0030B200F330B3000030BA
:1029A000EF002830EE00EF2C7A080F3C031CE72CD8
:1029B000031DDE2C7B08163C031CE72C0030B20004
:1029C000FA30B3000030EF000030EE00EF2C0030A2
:1029D000B200F330B3000030EF004030EE007A0870
:1029E000B7007B08B8009427EF1BFF2C33086F0754
:1029F000FA0034086E07FB000318FA0A142DEF13CF
:102A00006F083302FA000318082DFA01FB01142D98
:102A10006E083402FB000318142DFA08031D132D51
:102A2000FA01FB01142DFA03831603137A08003C04
:102A3000031C292D031D202D7B08BF3C031C292DC1
:102A40008B13BD01C030BC00031383168B174F16C8
:102A5000322D8B137B0883160313BC007A08BD004C
:102A60008B174F1283160310FB0DFA0D7A0803170C
:102A7000AD000313472D03178312E401E501E601BE
:102A800003138316BC01BD010317AD01242D0317E9
:102A900083162A186A2D03138312A71C672D831629
:102AA00047083D02031C6A2D3D084706031D5C2DA7
:102AB0003C08460203186A2D8312E01A6A2D831619
:102AC0008B133C08C6003D08C7008B176A2D831680
:102AD000C601C70103138316B01C8E2D37080317D8
:102AE000B200031336080317B3004A08B7004908B9
:102AF000B80094270310B20CB30CB40C0310B20C42
:102B0000B30CB40C0310B20CB30CB40C8B1333081D
:102B10000313A200031734080313D0008B17031705
:102B200083162A18C92D03138312A71CC52D2C1830
:102B3000C52D83163B080317B20003133A08031789
:102B4000B30003133D080317B70003133C08031732
:102B5000B80094270310B40DB30DB20D0310B40DDB
:102B6000B30DB20D8B13B208031DBD2D3308243CE9
:102B7000031CBD2D2430B300B20132080313DA0068
:102B8000031733080313D900C92D03138316D90182
:102B9000DA018A150A160028BB01BC01BA01320D00
:102BA000BC0D3808BC023708031C370FBB020301F9
:102BB000031C0130BA02B20D0730BE00320DBC0D4D
:102BC000BB0DBA0D3808321CEF2DBC023708031CB0
:102BD000370FBB020301031C0130BA02F82DBC07FA
:102BE00037080318370FBB07030103180130BA0772
:102BF000B20DBE0BDE2D330DBC0DBB0DBA0D38086A
:102C0000321C0C2EBC023708031C370FBB02030119
:102C1000031C0130BA02152EBC0737080318370F02
:102C2000BB07030103180130BA07B30D0730BE001C
:102C3000330DBC0DBB0DBA0D3808331C292EBC0258
:102C40003708031C370FBB020301031C0130BA0213
:102C5000322EBC0737080318370FBB0703010318D0
:102C60000130BA07B30DBE0B182E340DBC0DBB0DD1
:102C7000BA0D3808331C462EBC023708031C370F28
:102C8000BB020301031C0130BA024F2EBC073708F8
:102C90000318370FBB07030103180130BA07B40D3F
:102CA0000730BE00340DBC0DBB0DBA0D3808341C06
:102CB000632EBC023708031C370FBB020301031C41
:102CC0000130BA026C2EBC0737080318370FBB0758
:102CD000030103180130BA07B40DBE0B522E350D97
:102CE000BC0DBB0DBA0D3808341C802EBC02370851
:102CF000031C370FBB020301031C0130BA02892EEB
:102D0000BC0737080318370FBB070301031801304E
:102D1000BA07B50D0730BE00350DBC0DBB0DBA0DA1
:102D20003808351C9D2EBC023708031C370FBB0228
:102D30000301031C0130BA02A62EBC073708031892
:102D4000370FBB07030103180130BA07B50DBE0BDF
:102D50008C2E3518B12E3808BC0737080318370FEA
:102D6000BB070034BB01BC01BD01BA01320DBD0D72
:102D70003908BD023808031C380FBC023708031C91
:102D8000370FBB020301031C0130BA02B20D07303A
:102D9000BE00320DBD0DBC0DBB0DBA0D3908321C85
:102DA000DF2EBD023808031C380FBC023708031C95
:102DB000370FBB020301031C0130BA02EC2EBD0722
:102DC00038080318380FBC0737080318370FBB073C
:102DD000030103180130BA07B20DBE0BC92E330D23
:102DE000BD0DBC0DBB0DBA0D3908321C052FBD023F
:102DF0003808031C380FBC023708031C370FBB020E
:102E00000301031C0130BA02122FBD073808031852
:102E1000380FBC0737080318370FBB070301031827
:102E20000130BA07B30D0730BE00330DBD0DBC0D28
:102E3000BB0DBA0D3908331C2B2FBD023808031CFB
:102E4000380FBC023708031C370FBB020301031CF9
:102E50000130BA02382FBD0738080318380FBC07F5
:102E600037080318370FBB07030103180130BA07EF
:102E7000B30DBE0B152F340DBD0DBC0DBB0DBA0D22
:102E80003908331C512FBD023808031C380FBC020F
:102E90003708031C370FBB020301031C0130BA02C1
:102EA0005E2FBD0738080318380FBC073708031812
:102EB000370FBB07030103180130BA07B40D073001
:102EC000BE00340DBD0DBC0DBB0DBA0D3908341C50
:102ED000772FBD023808031C380FBC023708031CCB
:102EE000370FBB020301031C0130BA02842FBD0758
:102EF00038080318380FBC0737080318370FBB070B
:102F0000030103180130BA07B40DBE0B612F34184A
:102F1000932F3908BD0738080318380FBC07370846
:102F20000318370FBB070034B401B5013208C600DF
:102F30003308C7000830BE00B80C0318AC2FBE0B16
:102F40009C2FBE00B70C0318AA2FBE0BA22FB201F4
:102F5000B30100340310C72F0310B72FB80C031CA4
:102F6000B72F4708B30746080318460FB207B20C3D
:102F7000B30CB40CBE0BAE2F0830BE00B70C031C54
:102F8000C72F4708B30746080318460FB207B20C0D
:102F9000B30CB40CB50CBE0BBE2F00340310FA01F9
:102FA000FB010830FC007D080310FE0C0318FA0733
:102FB000FA0CFB0CFC0BD52F08000310FA0CFB0CD1
:102FC0000310FA0CFB0C0310FA0CFB0C0310FA0CA8
:102FD000FB0C0318FB0A0800FF3FFF3FFF3FFF3FCA
:102FE000FF3FFF3FFF3FFF3FFF3FFF3FFF3FFF3FF1
:102FF000FF3FFF3FFF3FFF3FFF3FFF3FFF3FFF3FE1
:1030000003138316B01C4F28A208031D2B28500859
:10301000323C03181E288312601D2B28831650088B
:10302000643C031C2B285008FB00031383167B0809
:10303000323C03181E287B08D0002B28A201323016
:10304000D0008B1303174A080313B900031749086C
:103050000313B80035288B13831603174A0803138C
:10306000B900031749080313B8008B1722085A0246
:10307000031C4B28031D432859085002031C4328F6
:10308000031943284B285A08A2005908D0000310FE
:10309000D00A0319A20A2208D8005008D7008B17BB
:1030A00083120313601EA728A7185728A7285108C2
:1030B000413C03185E28C830A2007A2851083B3CE6
:1030C000031C7A285108393C031C72285108353CEE
:1030D00003188D285108373C0318842803178312DE
:1030E000EF01A72803178312EF0A6F08193C031892
:1030F000A728EF0103138312A20A2208C83C031871
:10310000A728C830A200A72803178312EF0A6F0868
:10311000643C0318A728EF019B280313831222089D
:10312000B43C031C9B2803178312EF0A6F080A3C68
:103130000318A728EF0103138312A2080319A72875
:10314000A2032208143C031CA7281430A2008312F7
:103150000313601E0029A718AE2800295D084B3C08
:103160000318B6282A14C830A100D3282A105D08F5
:10317000413C031CD3285D083E3C031CCB285D0862
:10318000373C0318E6285D083A3C0318DD2803178E
:103190008316B001002903178316B00A30083C3C9F
:1031A00003180029B00103138312A10A2108C83CA7
:1031B00003180029C830A100002903178316B00A9C
:1031C0003008F03C03180029B001F42803138312DF
:1031D0002108B43C031CF42803178316B00A3008F6
:1031E000283C03180029B00103138312A108031916
:1031F0000029A1032108143C031C00291430A1005C
:1032000003138312210803178316900003138312FC
:10321000601E59296012271F1D29271383168B133F
:103220005408D3006508D200031754080313D400D0
:10323000031753080313E5008B178312A7183A29C5
:1032400083165408031754020313031C5929031D42
:103250002F296508031753020313031C59298B13E5
:10326000031754080313D400031753080313E5008E
:103270008B175929831648080739013A031D20295D
:103280005408031754020313031C5929031D4E2924
:103290006508031753020313031C59298B130317E3
:1032A00054080313D400031753080313E5008B17C6
:1032B000592983160313A41C7529A410013069022F
:1032C000FA004A087A02031C6B29031D7129680859
:1032D0004B02031C712901306902E7006808E6000F
:1032E00075294A08E7004B08E600A41D8F29A411A0
:1032F00001306D02FA004A087A02031C8529031D79
:103300008B296C084B02031C8B2901306D02EB00EA
:103310006C08EA008F294A08EB004B08EA00241DDC
:10332000A7292411013067074A02031C9D29031DA8
:10333000A3294B086602031CA32901306707E90093
:103340006608E800A7294A08E9004B08E800241E9F
:10335000BF29241201306B074A02031CB529031D43
:10336000BB294B086A02031CBB2901306B07ED0027
:103370006A08EC00BF294A08ED004B08EC00031373
:103380008312AA19CB29061FD229BC0BD529AA154D
:1033900083169314D229061BD229BC0BD529AA1156
:1033A0008316931083120330BC002A19DF29051EEF
:1033B000E629BB0BE9292A1583161315E629051AF8
:1033C000E629BB0BE9292A11831613118312033056
:1033D000BB002B18F329861FFA29AD0BFD292B14EE
:1033E00083169315FA29861BFA29AD0BFD292B109C
:1033F0008316931183120330AD00003067075D021E
:103400000318082A023067025D02031C082A0A2AF0
:103410005D08E7000530390772020318152A0530E8
:1034200039027202031C152A172A7208B9000030EB
:103430003A0751020318222A03303A025102031CB0
:10344000222A242A5108BA00031383160030710778
:1034500051020318312A023071025102031C312A31
:10346000332A5108F100031383168B13321A592A99
:1034700071086C3C031C432A71085A3C0318592AF2
:103480003114B1105F2A7108843C031C4A2A3110A0
:10349000B1145F2A7108B33C0318592A031718089E
:1034A0003102031C592A8330B10003133114B114C3
:1034B0005F2A03178330B10003133110B1108B174B
:1034C000031383164F1348080739023A03194F179D
:1034D0000313831648080739013A0319722A491859
:1034E000722A832AB01C802A83122719802A861EFA
:1034F0007D2A8316B208031D802A83128814892A24
:1035000083128810892A8312871A882A8814892AA4
:10351000881003138312061C932AAC1CAA2A831654
:10352000241B982AA22A8316C81283120813AA2AD7
:103530008312A81AA22A8316C81DA22AC8168312AB
:103540000817AA2A8316A41FAA2A481EAA2AC81640
:103550008312081703138316B018C52A031783169E
:103560002A18C52A03138316B601B701B801B90199
:10357000D701D801DB01DC01DD01DE01DF01E00163
:10358000E101E201C401C501CF12831603136E08E5
:10359000FB006F08FA000310FB0DFA0DFB0DFA0D8E
:1035A0007A080317AE0005302E02C80083160313F5
:1035B0002508FB002608FA000310FB0DFA0DFB0D91
:1035C000FA0D7A08031792000530120293000313D4
:1035D0008316301C4E2B6A08FB006B08FA000310A0
:1035E000FB0DFA0DFB0DFA0DFB0DFA0D7A08031712
:1035F00099005C309A0003133A08FB003B08FA007C
:103600000310FB0DFA0DFB0DFA0DFB0DFA0D7A08F8
:1036100003179D008B13831603171D0819028312CD
:1036200003130318202B831603171A081D02831295
:103630000313031C242B2C18242B8316B411242BC6
:10364000A91E242B8316B4158B17831603136C083D
:10365000FB006D08FA000310FB0DFA0DFB0DFA0DCF
:10366000FB0DFA0D7A0803179B0065309C0083164A
:1036700003171D081B0283120313031C4C2B831614
:1036800003171C081D028312031303184E2BA71CDB
:103690004E2B831634114E2B8316341503138312CD
:1036A0002C1D5D2BAC1F5D2B2C11AC138316DB0185
:1036B000DC01DD01DE01DF01E00103138312061CE2
:1036C000792B831662085802031C7C2B580862066B
:1036D000031D6E2B5708610203187C2B8312E01B1D
:1036E0007C2B83168B135708E1005808E2008B17D8
:1036F0007C2B8316E101E201031783162A18A02B05
:1037000003138312061C9D2B831645083902031CE4
:10371000A02B39084506031D912B380844020318D5
:10372000A02B8312601BA02B031383168B13390865
:10373000C5003808C4008B17A02B8316C401C5012F
:103740000313831648080739053A0319AC2B491AA5
:10375000AC2B83120816AE2B8312081203138312AC
:10376000861EB42B0814B52B0810031383120819F6
:10377000C42B861AC42B8316C91EC42B03176D18BD
:10378000C42B03138312081503138312081DD92BAE
:10379000861AD62B8316C91ED32B03176D18D62B6A
:1037A000ED1CD32BD92B03138316C91203138312D9
:1037B0000811031383163330C90503138316480811
:1037C0000739013A031DEB2B031783160C30D40085
:1037D000E430D300F12B031783160530D400DC301E
:1037E000D300031383128A110A127F2F031383124B
:1037F000A00114309500A100A200031783169001C8
:1038000011101111911064008B13031383121F30D8
:103810008500FF308600B930870003178316B0306B
:10382000911C3030031383128800073089008316FF
:103830001F308500F93086009930870020308800DD
:103840000F30890083128301233084008001840AB1
:10385000841F262CA03084008001840F2C2C831719
:10386000103084008001840A841F322C923084003E
:103870008001840F382C831383169401B030930099
:103880008312363094008C118312863081008316A7
:103890008230810083120B118B101A089A01980153
:1038A0008316980183129030980083164030990057
:1038B0002030980010309F00831280309F008316C4
:1038C000031789010F3088008312031391019501BA
:1038D0009601003092000C3097008316C73092009A
:1038E0008312121583160B178B168C153216831242
:1038F000A814B630AE000330AF000F30B200003075
:10390000B3006430B7001930B800FA30B400953015
:10391000B5000130B6000330BC00BB00AD00E230A2
:10392000A3000430A4005030D900C330DA000030C6
:10393000A50003171030EC002730ED001030920086
:10394000103095008316BC309E0009309F00031391
:1039500083122C14AC101030EB002730EC00C43074
:10396000DB000930DC002030C5002B1627140317BC
:10397000831690008430CB000D30CC003230CE0066
:103980000330CF008830D1001330D2000530D4008E
:10399000DC30D300911CD82C03138312861D032C1A
:1039A00000000000861D032C00000000861D032C73
:1039B00003138312061FE02CAA1583169314831297
:1039C000051EE62C2A15831613158312861FEC2C70
:1039D0002B14831693158312200895001F149F142F
:1039E0008B178A110A127F2FFF3FFF3FFF3FFF3FD8
:1039F000FF3FFF3FFF3FFF3FFF3FFF3FFF3FFF3FD7
:103A0000FF3FFF3FFF3FFF3FFF3FFF3FFF3FFF3FC6
:103A1000FF3FFF3FFF3FFF3FFF3FFF3FFF3FFF3FB6
:103A2000FF3FFF3FFF3FFF3FFF3FFF3FFF3FFF3FA6
:10423000000039007B002F000000000008004C0047
:104240000000000001000200620002000F00A80050
:1042500004000C00210000000100080008003900E3
:104260007B002F000600020041000000000000005B
:10427000DF000E000A00000087000C00250001008E
:10428000000006008000060000000000230000007F
:10429000BF00030000000000020030007B002F0080
:1042A000060002000500000008000000C4000E0027
:1042B00017000000CB000900AF00040080000700D9
:1042C000400008001800060023000000B8000400A9
:1042D00000000000030033007B002F0006000200F6
:1042E0000300000000000000EC000E000A000000C7
:1042F00036000C00C0000000C000070000000800ED
:10430000A8000C0023000000F700030000000000DC
:10431000040035007B002F000600020005000000AD
:1043200000000000F9000E0009000000000000007D
:104330002E002500800008004000090070000800E1
:104340000C0000002E0025000000000005003800D1
:104350007B002F00060002000300000000000000A8
:10436000F9000E000C00000035000C00C000000039
:104370008000080080000900F8000700210000000C
:10438000DB00030000000000060039007B002F0066
:10439000060002000500000000000000F9000E0009
:1043A0001500000084000900DD0004000000070083
:1043B000000007001800060027000000E6000400C7
:1043C00000000000070039007B002F0006000200FB
:1043D000030000000000000007000F000A000000BA
:1043E0003F000C00CD000000000006008000060029
:1043F0001800060027000000E40003000000000091
:04400E00CA23FF3F83
:08400000FF3FFF3FFF3FFF3FC0
:00000001FF
