:020000040000FA
:1000000000500400000000002CA3000004A3000026
:100010000AA3000010A3000016A300002CA30000F8
:100020002CA300002CA300002CA300002E8A0000AB
:100030002CA300004A7B00002CA300002CA300008E
:100040002CA300002CA300002CA300002CA3000074
:100050002CA30000308200002CA300002CA3000081
:100060002CA300002CA30000846B00002CA3000034
:100070002CA300002CA300002CA300002CA3000044
:100080002CA300002CA300002CA300002CA3000034
:100090002CA300002CA300002CA300002CA3000024
:1000A0002CA300002CA300002CA300002CA3000014
:1000B0002CA300002CA300002CA300002CA3000004
:1000C0002CA300002CA300002CA300002CA30000F4
:1000D0002CA300002CA300002CA300002CA30000E4
:1000E0002CA300002CA300002CA300002CA30000D4
:1000F000A27500002CA300002CA300002CA300007C
:100100002CA300002CA300002CA300002CA30000B3
:100110002CA300002CA300002CA300002CA30000A3
:100120002CA300002CA300002CA300002CA3000093
:100130002CA300002CA300002CA300002CA3000083
:100140002CA300002CA300002CA300002CA3000073
:100150002CA300002CA300002CA300002CA3000063
:100160002CA300002CA300002CA300002CA3000053
:100170002CA300002CA300002CA300002CA3000043
:100180002CA300002CA300002CA300002CA3000033
:100190002CA300002CA300002CA300002CA3000023
:1001A0002CA300002CA300002CA300002CA3000013
:1001B0002CA300002CA300002CA300002CA3000003
:1001C0002CA300002CA300002CA300002CA30000F3
:1001D0002CA300002CA300002CA300002CA30000E3
:1001E0002E9200009C9500002CA30000AA7E000027
:1001F000A89E0000548E00002CA300002CA3000039
:10020000FFFFFF00FFFFFF002C4700001C4700001E
:100210002047000024470000284700002C4700002A
:100220002C4700002C4700002C4700002E2E000019
:100230002C4700004A1F00002C4700002C470000FC
:100240002C4700002C4700002C4700002C470000E2
:100250002C470000302600002C4700002C470000EF
:100260002C4700002C470000840F00002C470000A2
:100270002C4700002C4700002C4700002C470000B2
:100280002C4700002C4700002C4700002C470000A2
:100290002C4700002C4700002C4700002C47000092
:1002A0002C4700002C4700002C4700002C47000082
:1002B0002C4700002C4700002C4700002C47000072
:1002C0002C4700002C4700002C4700002C47000062
:1002D0002C4700002C4700002C4700002C47000052
:1002E0002C4700002C4700002C4700002C47000042
:1002F000A21900002C4700002C4700002C470000EA
:100300002C4700002C4700002C4700002C47000021
:100310002C4700002C4700002C4700002C47000011
:100320002C4700002C4700002C4700002C47000001
:100330002C4700002C4700002C4700002C470000F1
:100340002C4700002C4700002C4700002C470000E1
:100350002C4700002C4700002C4700002C470000D1
:100360002C4700002C4700002C4700002C470000C1
:100370002C4700002C4700002C4700002C470000B1
:100380002C4700002C4700002C4700002C470000A1
:100390002C4700002C4700002C4700002C47000091
:1003A0002C4700002C4700002C4700002C47000081
:1003B0002C4700002C4700002C4700002C47000071
:1003C0002C4700002C4700002C4700002C47000061
:1003D0002C4700002C4700002C4700002C47000051
:1003E0002E3600009C3900002C470000AA22000095
:1003F000A8420000543200002C4700002C470000A7
:10040000FFFFFF00FFFFFF00FFFFFF00FFFFFF00F8
:10041000FFFFFF00FFFFFF00FFFFFF00FFFFFF00E8
:10042000FFFFFF00FFFFFF00FFFFFF00FFFFFF00D8
:10043000FFFFFF00FFFFFF00FFFFFF00FFFFFF00C8
:10080000CFEC200040FE2100000188000000000025
:100810000C000700C05F2400010020001100070049
:10082000000020000000E000020032000000020092
:10083000000000008A3D0200000000000040DA00D5
:100840000000FE004440A900000020000000E0007D
:100850000300320000002000A00188004440A800EE
:100860000000060091018800800078000000EB0085
:1008700015003700E280400032A0B4009101BA00B8
:10088000E280400032A0B4009102BA00E280400051
:1008900032A0B4000002EB00472BDE00F507B200E7
:1008A000602CE10004003A000059EB008301E900EC
:1008B000FDFF3E00040037006128E1000100320026
:1008C0000082EB00040007001101BA000200E00002
:1008D000E8FF3A00000006003159BA008301E90040
:1008E0000C0032002159BA008301E90008003200EF
:1008F0000400E00003003A00E280400032A0B400AF
:10090000F5FF370011D9BA008301E900FAFF3A0078
:100910008100E800E180400032A0B4000000060041
:10092000889FBE008A9FBE00010578000100E0009C
:100930000400350008003C000000E0002000320008
:100940000500370060001000E080180002003B0046
:1009500001F02C001A0037000004BE006011B8003E
:100960006B0920000982CF00020039000882CF0005
:100970000441B000694252000E00320008003B0002
:1009800082817100610164008904D1000884D30070
:100990008B05E8000442E800F9FF3A000500370043
:1009A0000804440089844C008B05E9000442E900F6
:1009B000FBFF3A00920007000AF0A70001F0A00038
:1009C0004F05BE004F04BE000000060003F0A20069
:1009D000889FBE008A9FBE008C1F7800AE00070073
:1009E000B50033006450E1004F0032006420E100A4
:1009F0005200320003826C0007003B000905D00062
:100A00000306D000820F54000C065D00020039007E
:100A100002003200890178000306780085825500C3
:100A200004003D000003FD008103FD008502EA0093
:100A30008B854200840F720002003B0060001000B2
:100A4000E08018006011B8000005EB007A28E10092
:100A50000A00390006007800C75DDD00F707B20024
:100A6000878075002D003700828171000A017800AF
:100A7000610560008180D1000080D3008502E9001B
:100A8000F9FF3B00060440008784480002003B0059
:100A900060041400E0841C000988A30007003200F1
:100AA0008A81710082817100610164008904D10032
:100AB0000884D3008B05E800170037000978A300ED
:100AC00013003A000B00E000130034008B05E9002E
:100AD0000804440089844C000A4474000978A30087
:100AE0000D003A000B00E000070034008B05E90020
:100AF0000804440089844C0001003A000B002000E7
:100B00000978A300F7FF32000001EB000200370074
:100B1000828171000A017800390007000CF0A700FB
:100B200001F0A0006D0037006420E10002003A00EF
:100B3000838F6C006D0033000801BE000200BE0010
:100B400066003700F4FF2F006B0037001400200010
:100B5000690037006022B800060220000000D000C3
:100B60008180D2000482D2008582D2000000A000E1
:100B70000202520083825A00030031000202420046
:100B800083824A000000A1000603E900F3FF3A0057
:100B9000000006000001BE00720007000470A700FC
:100BA00003F0A10003F8A30013003A006509B100A7
:100BB00010003200090035006928E100020035000C
:100BC000010028000000050000004000818048006E
:100BD0008502E900FCFF3A0000000600F88F4200A1
:100BE000050035008100D1000080D3008502E800B7
:100BF000FCFF3A00000006008000EB00000005004A
:100C000081002000618055000B003D000B0020009A
:100C100061FE2F000100E1001D003400828171009F
:100C2000610164008904D1000884D3000000E80059
:100C3000FAFF3A00710020006100640003007000B8
:100C4000020060000900320061044400E0844C00AE
:100C50000988A500050032008B05E8006808E1005E
:100C600002003A008904D1000884D300F20F20006A
:100C70000258E10005003D00C75DDD00F907B20044
:100C80008980750008007800000006000BF8270036
:100C90008B007800000005000004BE003100070052
:100CA0000003BE000405BE000200BE002D000700C8
:100CB000844F7500000006000200BE006450E10091
:100CC000050036006420E100020036000968A30038
:100CD00001003A000800BE000160A0004F06780045
:100CE0004F05BE004F04BE0000000600F0FF2F00BD
:100CF000F1FF2700F9FF3700889FBE008A9FBE00E2
:100D0000841F7800E4FF07004F00780011003300D3
:100D1000F0FF2F00838F6C0006003B000405650088
:100D20000A00A7000800370009F0A6001000200004
:100D300008003700820F5400838F5C0003003900E5
:100D40001000200001003E000000200009F0A70074
:100D50000000EA004F05BE004F04BE000000E000A6
:100D600000000600C70ADE00F107B200F50FB2006E
:100D700008003200E1CF4200020032000170A00002
:100D800024000500810F70000100320004080500F6
:100D900044000500810F700002003A0014000500B5
:100DA0008502E9000000400081C04800FCFF3B00D4
:100DB0000170A0002400050000A0FE00841F780040
:100DC000851F7800881F78008A1F78004400F8008B
:100DD000080F2000280288000004900010059000F1
:100DE000A000900030019000C00190000300CA00F4
:100DF0000280CA000030CB001A00CD004604C300B8
:100E00000100CA004604C0001E04C0000605C00060
:100E10000100CD0021009800050D7800EABA970086
:100E2000052578004400F9004F0578004F0478004C
:100E3000CF0278004F0278000080FE00000006001C
:100E4000801F78004000B0000008EB004F007800E1
:100E5000801F7800100090000018EB000018EB00D5
:100E60000008EB004F00780000000600686DA80045
:100E7000604380008080FB00216A88004800DE001B
:100E8000306A8800000006000400FA00881F78001D
:100E900041002000B11788008488A90000002200CA
:100EA0003044880070B3270080458800C0A8A9009E
:100EB0008808A9008868A9008888A80088A8A900CF
:100EC0000004EB005844880068448800005E21005C
:100ED00050468800001C22006046880000B02000B8
:100EE000704688000020B0008046880000C82000BE
:100EF000B046880000902100C046880030132300CF
:100F0000F0468800008A22000047880010478800C9
:100F1000E608A900E628A800F00F200090698800E4
:100F200050002000A0698800F0082000B069880007
:100F300020002000C0698800D0698800A2FF24003A
:100F400003002000D2BF9F00E3BF9F0066815700CF
:100F5000E0CD2000091E0700E0CCBF000080FB00B0
:100F6000E0698800DFCCBF000080FB00F0698800EA
:100F700084A8A900E03F2E00B04B880000E02200CA
:100F8000C04B880000002600D04B88007000200075
:100F9000E04B8800F84B8800084C8800184C88000B
:100FA000284C88004F0478000080FA0000000600FA
:100FB000C0508000E10F500026003A00A17280006E
:100FC000301F2000808F500022003600542EEF008A
:100FD000F005200080668800DBC2BF000018A30077
:100FE00002003A00E005200080668800DBC2BF00F6
:100FF0000028A30002003A00D0072000D02CB60041
:10100000DAC2BF000038A30002003A00B007200097
:10101000D02CB600F0072000816680008080600040
:10102000511088008488AB000A003A0000042900AF
:10103000301088008600A900ACC0BF0081CFB3008B
:10104000014060000024A000ACE0B7009600A800BA
:101050008488A800000006000000EB00E043880040
:10106000F04388001067800000448800106780000B
:10107000E10F50000400360011678000900320004B
:10108000808F50001000360011678000D0032000D0
:10109000808F50000400360011678000F00D2000A2
:1010A000808F50000800360011678000F00E20008D
:1010B000808F500007003600116780006F004000ED
:1010C000808F500003003E00200020000044880074
:1010D000120037007AC8BF00E24F50000B003A0000
:1010E00011678000F00D2000808F50000B0036004B
:1010F0001167800070004000808F500007003E00A4
:10110000300020000044880004003700E14F500008
:1011100002003A00400020000044880001448000A2
:1011200060FC2F0000804000E30F500005003E00EF
:10113000CACDA900CA2DA900CAADA900CA4DA900EF
:10114000CA8DA900E48F5000AC00320004003E00BC
:10115000E18F50005D003200A3003E000F00370019
:10116000B0032000808F50000A01320004003E00CE
:101170000000E900808F50004F013A00A3003700C3
:10118000C0032000808F5000270132000000E800DB
:10119000808F500048013A003A013700E60CE20027
:1011A0001100320030678000EF0F50000E003E004B
:1011B000306780002167800000004000010040008F
:1011C00001102000810F500007003E007748E20028
:1011D00005003A008000EB00A087200042C0B30069
:1011E000904F11000100320011002000C808DD00FE
:1011F000204480000080A10001007000204488008D
:10120000E60CE20003003A0010002000306788007E
:101210000500370030678000EF0F500002003600F5
:10122000F000200030678800402DEF00316780001B
:10123000006A8000808F50001F0136002544800026
:101240000510B20044D12000F34380000500E00007
:1012500005003200006A800000004000A1AF2F00AE
:1012600001307A0011003700E40CAB0005003200B9
:10127000006A8000000040008000EB0001307A002E
:101280000A003700026A800020678000016A80003F
:101290000000D100010040000000400002014100B8
:1012A00061882000E080780001317A008381E800C5
:1012B000402DEC0031678000006A8000808F500074
:1012C000E2FF3E00F3438800FB0037007AC8BF000E
:1012D00063405000EE4F500003003E000000EB0062
:1012E0007748E2000100320010002000C800DD0055
:1012F000204480000080A10001007000204488008C
:101300007AC8BF00E24F500003003E0030C0B30077
:101310007AE8B70004003700F14F500002003600B1
:1013200010C1B3007AE8B700402DEF00016A8000D9
:101330007AC8BF000080FB000080E900810F5000E8
:10134000DD003600264480000610B20045D12000A2
:1013500027CE20007AC8BF000080FB000082E90091
:10136000F34380000600E00005003200006A8000C0
:1013700000004000A1AF2F0001B07A001300370039
:10138000400DEC000000400060807B000008A300DE
:1013900005003200006A8000000040008000EB0081
:1013A00001B07A0009003700026A8000400DEC00AD
:1013B0000000400060807B000000A10002014100AD
:1013C00061882000E080780001B17A008381E80024
:1013D000402DEC00006A8000800F5200E1FF3E00CB
:1013E000F3438800B400370050552500A0688800FA
:1013F00020002000F0438800AF003700142DEF00DC
:1014000020002000F0438800AB003700CA2DA80060
:10141000CA6DA9007748E2005C003A007848E20013
:101420005A003A0084C8AB0058003200BE0DE200FA
:1014300056003A00CAADA80050678000E40F500083
:101440009D003200556780000500E0004D003A0025
:1014500020678000F00F50004A003A00306780009B
:10146000416780004800DD00010040004402DE00CA
:10147000246D88000004200000005200F1032000C9
:10148000810F50008C003600CBADA900CB4DA900D8
:1014900061688000206780003267800043678000B9
:1014A0000200400003004000808040006168880026
:1014B0008401780000022000800F520010003A00E2
:1014C000E566880050002000D06688008000780023
:1014D0000501780024CE20000180400060007A00E1
:1014E000000141008100E800ED8F5000FAFF3A0052
:1014F000D1668800E2668800020078000C2DB400F6
:1015000052002000110009008281D80001007800FB
:10151000E40F500003003A0040012000606D880095
:101520000200370060012000606D8800226D80009D
:1015300053002000110009000381D8000001780049
:1015400001007800926D88004611DD006D00B90041
:1015500000014100226D88004810DE0030678800DD
:101560000281FB0042678800CAEDA800982DEF00B9
:1015700010002000F06D8800E648A900E668A90088
:101580004D003700506780004B003700CAADA900FE
:10159000490037007748E2000E003A0020678000DB
:1015A000F00F50000B003E00F06D80000000E000E6
:1015B00008003A00CCEDA80031678000516D88002A
:1015C00042678000426D8800306D88006B00070024
:1015D00039003700CCEDA900402DEF0020678000D6
:1015E000016A80000000D100808F50000B003100A4
:1015F00043D12000A2AF2F00006A8000000040000D
:1016000002B07900402DEC0020678000016A800064
:101610000000D100810F5000F7FF3E0020678000DE
:10162000F04388002400370084C8AB001200320069
:101630007748E2000C003A00216780000005200096
:10164000808F500008003A00316780006800500029
:10165000808F500004003A0077005000A068880096
:10166000CA4DA8001400370050052000A06888006B
:10167000CA4DA90010003700A00F2000A068880004
:101680000D0037007748E20006003A00BE0DE20088
:1016900004003A0010032000A0688800CA8DA8004A
:1016A0000300370050052000A0688800CA8DA900FB
:1016B00010002000F043880000000600506D8000FC
:1016C0004800DD00416D8000010040004400DE0064
:1016D000206D880052002000110009000280D8000F
:1016E000906D8800E48F500003003A000001200054
:1016F000006E88000200370010012000006E880094
:10170000236D800052002000110009008281D80062
:101710008001780001007800C619DD006D00B90075
:1017200080814100236D88004818DE003067880002
:101730000380FB00406788000000EB00C06C88005D
:10174000A06D8800CBCDA900CB6DA900CC2DA90040
:10175000B06C880060748800CC4DA900CC6DA900E5
:10176000C0CC2F008081410020332000808F5100A9
:1017700001003E00CC4DA80000000600CFFF07008E
:1017800020002000F06D880020678000F043880072
:101790007C28EF00CCADA80000000600E648A800B9
:1017A000E668A900C0002000206788008000EB00E8
:1017B000C16C8800B16C8800E16D8800717488008C
:1017C000016D8800A1CDBF000080FB00306788005C
:1017D000A0CDBF000080FB0040678800CACDA900F3
:1017E000116E8800D0002000006E8800CC0DA9008A
:1017F000316D8800716D8800CBEDA900716E880095
:1018000030002000F06D88001602A800CA6DA90003
:10181000000006007748E20018003A00BE0DE20022
:1018200016003A00618720009140780060C6B3003E
:1018300080CF50000300320000C0E80080CF50008D
:101840000E003A00982DEF00CA6DA900F0072000A5
:1018500030678800800F200040678800200020004B
:10186000F06D8800F0438800A0002000006E880022
:10187000CB0DA800CB2DA8001602A8000000060082
:101880000800FA0070C0B30072E8B7007748E200C1
:1018900036003A0061872000914078000108A300DB
:1018A000040032000000EB007043880075E8B700C8
:1018B0003200370040C6B30080CF50000F003A001E
:1018C00068815700E0FF24000100200000A9BE004D
:1018D00041002000E0CD2000A81B070001CE200021
:1018E00091407800C808DD00DFCCBF000080FB001D
:1018F00080804000514788001200370020C6B300A6
:1019000080CF50000F003A00A0FF2400010020000B
:10191000C0BF9F00D1BF9F006881570041002000D9
:10192000E0CD2000951B070001CE200091407800FB
:10193000C808DD00DFCCBF000080FB0080804000D5
:101940004147880076C8BF00E00FB20061882000E0
:1019500060807800704388006FC8BF006E48B40094
:101960000040EA0075E8B7000400370050A52A00DF
:1019700070438800E0CFB30075E8B7000080FA003C
:1019800000000600889FBE00E0C5B3007648E30073
:1019900003003A0020C0B30072E8B700020037002D
:1019A00010C0B30072E8B7007748E20049013A007E
:1019B00079C8BF006EE8B700688720001844780037
:1019C0000808A3004E013A00F0C2B300804F540053
:1019D0004B013600E0C5B300804F540048013E0083
:1019E0000880FB00010020002002B1000180B1004E
:1019F000C2032000820F5000E08F58002D013E00EE
:101A000000600100250137002A013700230137005B
:101A10002801370021013700260137001F01370058
:101A2000240137002301370022013700210137004C
:101A3000200137001F0137001E0137006300370007
:101A40001C0137001B0137001A013700190137004C
:101A5000180137001701370016013700150137004C
:101A60001401370062003700120137008C00370084
:101A7000100137000F0137000E0137008E003700CC
:101A80000C0137000B0137000A0137001A0037003C
:101A90000801370025003700060137003000370005
:101AA000040137003C003700020137000101370014
:101AB00000013700FF003700FE00370082003700CA
:101AC000FC00370080003700FA0037009200370032
:101AD000F8003700AE003700F6003700800037000E
:101AE000F4003700AE003700F2003700AC003700DA
:101AF000F0003700C20037006146800000F02F0080
:101B00000081400060438000820F500004003900D3
:101B1000F00F2000808F50000100360062438800E3
:101B20006043800050468800F50037005146800031
:101B3000021020000101410060438000820F50002C
:101B400004003E00F0EF2F00808F500001003E00A7
:101B5000624388006143800061468800E8003700E6
:101B600081468000604380000010B000810F50006B
:101B700006003900F00F2000808F5000030036006F
:101B800000F02F0000804000604388006243800026
:101B900072468800DA00370071468000021020008B
:101BA0000101410060438000820F500004003E00AC
:101BB000F0EF2F00808F500001003E00624388004C
:101BC0006043800080468800CD0037006C08E2004A
:101BD000CB003A000000EB00B04588005A2EEF0021
:101BE0005C2EEF0090458800A0458800C4003700B7
:101BF000C1862000914078000181FB00020078003E
:101C0000000AB200BE003A006DC8BF00400CB2002E
:101C1000BB003A0067016100E50F5100B8003C00CD
:101C2000E30F5100B600320064438000F037230018
:101C30008001620000042000808F510003003A0000
:101C40000046800003006000AD0032008180FB0090
:101C5000004680000080FB00808F500005003200AD
:101C6000E20F510002003400E50F510001003A007C
:101C70005E28A800C0C8AB0004003A000400780049
:101C80000060A1000046880001003700044688007B
:101C9000C0A8AB009A003A00DC22A90098003700E7
:101CA000604380000000E00095003200104688008C
:101CB000C0C8A80092003700614380003146880008
:101CC0005E48A8008E00370088007800E10FB2005F
:101CD00060882000624380008230780088003700EE
:101CE0006143800030132300808F500002003600D3
:101CF000F046880082003700F0FF2200808F5000FD
:101D000003003E000000E800F04688007C00370039
:101D1000F14688007A0037006CC8BF00FC4F5000C5
:101D200008003200F84F50000D003600C1C1B3006A
:101D30000040EB00FF020700B1C4B300814F500028
:101D400003003A00982EEF0048FC07006C003700B3
:101D5000C086200081C1B30090CF100068003E0013
:101D6000C1C1B3000040EB00F2020700B1C4B300F0
:101D7000814F500003003A0020002000C07488000A
:101D800001003700982EEF0038FC07005C00370098
:101D9000688DA80062438000126A880058003700EE
:101DA000694380006148B900DDFA07000900E000DE
:101DB00003003D00020020000378240004FB07001C
:101DC000020028002362240060FB07000000E000FE
:101DD00005003C0088007800E10FB2006088200018
:101DE000893078004600370008017800E20FB20021
:101DF000018A22006088200001317800400037000D
:101E000084A8A800402DEF00006A8000E60F500073
:101E100016003E0014C0B30023CE200022D32000C1
:101E2000006A800000004000E0807900006A8000C5
:101E30000000400060007900808F500001003200F7
:101E40000042EB00402DEC00006A8000E60F5000DD
:101E5000F3FF3600E1006200C508DD002044800089
:101E60000050A100010070002044880084A8AB004D
:101E70000500320010C3B3006EE8B700F0CCB30029
:101E80006FE8B7001E00370050C5B3006EE8B7001A
:101E9000B0CAB3006FE8B7001900370088007800B7
:101EA000E10FB20060882000624380008230780039
:101EB000130037006C08E20011003A0008017800B6
:101EC000E20FB2008000EB00608820000131780052
:101ED0000B00370079C8BF000080EA008180EA006B
:101EE0006EE8B700E0C5B3007648E30004003A00AE
:101EF000694050006EE8B700B0CAB3006FE8B700A1
:101F00004F04BE00000006003600F800809FBE00AF
:101F1000829FBE00849FBE00869FBE006228EF00A5
:101F200008C2BF000048A3002C00320020448000FB
:101F300063006000E10F50001D003A0007C2BF00BF
:101F40000048A300010032000842A9006AC8BF008F
:101F50008080FB000128A300090032000118A300C3
:101F6000050032000014A1006AE8B70000108000EC
:101F70006CE8B7007768B40041FE0700080037003E
:101F80000138A300050032000034A1006AE8B70060
:101F90000010800079E8B7007768B40079FE070088
:101FA0008448A8007768EF006AE8EF00B7013700BF
:101FB0008408A9008428A9008448A9008468A9008D
:101FC0006AE8EF000040EB0072E8B70077E8B7007E
:101FD00000FC2F000822B600AC01370008C2BF0089
:101FE0000018A300BF00320008C2BF000058A300C1
:101FF000BC00320008C2BF000028A300230032004A
:102000008428AB0021003200218720009140780015
:102010000108A300070032006EC8BF000080FB006B
:1020200010108800014078000004A10072E8B70099
:10203000AA0037000180FB000018A300070032004F
:102040006FC8BF000080FB001010880001407800BE
:102050000014A10072E8B700A00037000028A30018
:102060000700320075C8BF000080FB001010880018
:10207000014078000024A10072E8B7009700370003
:10208000F00F2000101088009400370008C2BF0035
:102090000018A30091003200011080000141780077
:1020A0006AC8BF000008A300070032000004A100B6
:1020B0006AE8B7000100780076E8B70001407800D0
:1020C0007768B400850037008080FB000118A3000A
:1020D0001B0032000014A1006AE8B700020078007B
:1020E0006CE8B700024078007768B400E0C5B30040
:1020F0007648E30006003A0084E8A8000280FB006E
:102100001067880010C0B3007AE8B700730037008A
:1021100084E8A9007A68EF00618720009140780088
:1021200080C6B30080CF50000300320000C0E90039
:1021300080CF500069003A00B6FD07006700370005
:102140000128A300160032000024A1006AE8B700AD
:10215000020078006DE8B70084E8AB0006003200AA
:102160000280FB00206788000200780078E8B70052
:1021700020C0B3007AE8B7006DC8BF007768B4002C
:1021800011678000D0032000808F500053003A0078
:1021900084E8AB0051003200AFFB07004F0037006E
:1021A0000138A300120032000034A1006AE8B70031
:1021B0000200780079E8B700024078007768B40040
:1021C00084E8AB000700320030C0B3007AE8B70003
:1021D0000280FB0030678800024078007868B40015
:1021E0003E003700E62CEF00E6FD07003B0037001D
:1021F000A387200093417800E6CF51001A003E00EB
:102200000380FB000281FB000000400021CE200083
:1022100002B07800608078007768B40084E8AB0092
:102220002200320011678000B0032000808F500030
:1022300003003A0041C0B30081CF510008003200D2
:1022400011678000C0032000808F500017003A0003
:10225000A087200031C0B30090CF100013003A00D7
:102260007DFB070011003700E7CF510008003A005E
:1022700011678000F00F2000808F500004003A00AA
:10228000024078007768B400BEFD07000700370001
:102290000380FB000281FB000000400021CE2000F3
:1022A00002B07800608078007768B4002067800012
:1022B000A1872000914078008180FB0066004000EB
:1022C000808F5000040031000180400021CE2000AA
:1022D000608078007868B4007A68EC000782A80013
:1022E000EA00370008C2BF000018A3000600320051
:1022F00008C2BF000018A300E400320008C2BF00FB
:102300000058A300E1003A008468A8006428EF00A8
:1023100008C2BF000028A30003003A0008C2BF00A3
:102320000018A300D900320008C2BF000028A30093
:10233000CE0032008428AB0052003200E0C5B3006A
:102340007648E30004003A0011678000F00F200097
:10235000808F500022003A002187200091407800B1
:102360000108A300070032006EC8BF000080FB0018
:1023700010108800014078000004A10072E8B70046
:10238000AD0037000180FB000018A30007003200F9
:102390006FC8BF000080FB0010108800014078006B
:1023A0000014A10072E8B700A30037000028A300C2
:1023B0000700320075C8BF000080FB0010108800C5
:1023C000014078000024A10072E8B7009A003700AD
:1023D0008468A900F00F20001010880096003700D4
:1023E00011678000B0032000808F500004003A0085
:1023F000CC2DAB0002003A007C08E2008E003200D7
:10240000E1438000F0438000808F500007003900D6
:1024100031882000914078008180FB00001020006E
:102420000100500010108800140037000108A300BC
:1024300006003A00010078000000A10041D1200010
:102440006080780082E8B700060037000100E900EC
:102450000000A10041D12000608078004800DE002B
:1024600082E8B70021882000914078000180FB00BD
:1024700010108800014078008368B4007C28EC00CC
:102480006D0037008408A8008428A8008448AB00A9
:1024900011003A00E0C5B3007648E3000A003A00B4
:1024A00011678000F00F2000808F5000060032007E
:1024B00011678000B0032000808F500002003200BE
:1024C000E5FA0700030037006A68AB00010032003C
:1024D000EBFC07008448A800001080002287200041
:1024E000124178000204E00006003A00E0C5B300A3
:1024F0007648E30006003200F00F2000101088003C
:102500004D003700E0C5B3007648E30004003A0010
:1025100011678000F00F2000808F500018003A00F3
:102520006EC8BF000080FB001010880002407800D9
:102530000004A10072E8B70084A8AB0006003200D6
:1025400010C3B3006E48E30003003A0084C8A8003B
:10255000E688A80038003700E0C5B3007648E300FD
:1025600035003A0011678000F00F2000808F500086
:1025700031003A0084C8A900E688A9002E0037007F
:10258000526E80000218A3000F0032000258A30010
:102590000A003200A00A2000101088000278A30070
:1025A0002500320060002000D06D8800CA6DA800B0
:1025B000CC8DA800CAEDA9001F003700A00F200095
:1025C000101088001C00370011678000B003200045
:1025D000808F500002003A00CCEDAB0016003A00AC
:1025E000A068800082E8B7008080FB00111088009E
:1025F00083E8B70010002000E043880084C8AB00E7
:10260000070032000228A3000500320084C8A90098
:10261000E688A9004000200000718800060037000D
:102620000248A3000400320010C3B3008248E30054
:1026300001003A0059FC07000000EB001C000700F5
:1026400011678000B0032000808F500005003A0021
:10265000606E80002008B20001082000810F500049
:102660000A0032000782A80008003700001080002E
:1026700077E8B7000782A8008408A8008428A9008A
:102680008448A9006AE8EF007E28EF00001080006F
:1026900008C2A9008600A9004F03BE004F02BE0079
:1026A0004F01BE004F00BE003600F900004006009A
:1026B0000000E000040032008000EB008100E80030
:1026C000808F5000FDFF390000000600EC02A800DA
:1026D000E802A900EC22A800E822A90020002000BE
:1026E000F3FF0700EC02A90020002000F0FF070024
:1026F000EC22A90000000600EC02A900E802A900F3
:1027000020002000EAFF0700EC22A8004000200083
:10271000E7FF0700EC02A80010002000E4FF07001C
:1027200000000600889FBE000004EB008084FB00D0
:102730000848DD000078A30002003200EC02A80087
:1027400001003700EC02A900E802A900EC22A80071
:1027500010002000D6FF0700EC22A9001000200086
:10276000D3FF07000804E800E80F5400F0FF3A0028
:10277000E802A800EC22A800A22E20001241780056
:10278000610061000080EA008180EA00406C8800FE
:10279000EC22A9004F04BE0000000600881F78004C
:1027A0009C6EEF00E802A8000004EB00EC22A900F8
:1027B00020002000BEFF0700EC22A8009CCEBF0036
:1027C00080404000010078009CEEB700EAC2BF00E4
:1027D0000008A30003003200014078000004A000BC
:1027E0009CEEB7000804E800E80F5400EFFF3A0041
:1027F000EC22A90020002000ADFF0700EC02A80099
:10280000E802A900EC22A80020002000A8FF070091
:10281000EC22A9009CCEBF000080FB004F04780092
:1028200000000600889FBE008A9FBE008C9FBE00ED
:102830008E1F780080467800814578000247780036
:10284000034678008E2DEF000D003700E20F500098
:102850001500320005003E000000E00008003200D4
:10286000E10F500023003A0008003700E30F50004A
:1028700025003200E40F50001E003A001C00370013
:10288000680DA80091FF07001A00370000CAB300C6
:1028900000C04600A3FF0700880DE20015003A00C3
:1028A0008E2DEF00130037000B4078009DFF0700CE
:1028B000880DE2000F003A008E2DEF000D0037006A
:1028C0000800440061C520006080780095FF070083
:1028D000880DE20001003A008E2DEF008904E80027
:1028E0000804E8008A8F540002003100F4FF37002A
:1028F00081FF07008E0DEC00706C8800E40F500023
:10290000D2FF3600060037000C85FB000C04E00007
:10291000F8FF32000E84FB008004EB00E8FF370074
:102920004F0778004F06BE004F05BE004F04BE00A3
:1029300000000600889FBE008044780001447800B3
:10294000902DEF000E003700E20F5000150032000E
:1029500005003E000000E00009003200E10F5000D9
:1029600022003A0008003700E40F50001B0032003C
:1029700012003900E50F50001C003A001A00370021
:1029800052FF07001900370000CAB30000C044001E
:1029900064FF0700880DE20014003A00902DEF005C
:1029A00012003700084078005EFF0700880DE20043
:1029B0000E003A00902DEF000C00370043FF070097
:1029C00010CAB30000C0440056FF0700880DE200A3
:1029D00006003A00902DEF00040037006FFF07005B
:1029E0009CEEB7000100370043FF0700900DEC009C
:1029F000806C8800E50F5000D3FF36009CCEBF00EE
:102A00000080FB004F04BE0000000600881F780015
:102A10000004EB00386B8800B1C0B30020C0B300E5
:102A2000C4FF07008080FB00D1748800E14F4000A4
:102A30002A003A0068CDBF000008A30013003A0046
:102A40008001EB0062C520008000EB00E402200062
:102A50000380410001307900E10F540003003A0087
:102A6000EF8F510001003A00A46388008301E80061
:102A7000F08F5100F6FF3A00C440DD000041EB004A
:102A80000240780067FF0700010037000804E900F2
:102A90000804E800EF0F5400E6FF360068CDBF00E1
:102AA0000008A300FDFF3A008000EB0063C5200092
:102AB000020820000180400002B079008100E80097
:102AC000EF8F5000FBFF3A00814178000041EB009E
:102AD0008240780020C0B30052FF070068CDBF00DD
:102AE00061446000FDFF3A0011C0B30020C0B30094
:102AF00090FF07000080FB00D06A880021C0B3006F
:102B0000014078008BFF07000080FB00806A88008E
:102B100031C0B30020C0B30086FF07000080FB0077
:102B2000206B880041C0B30020C0B30081FF0700C4
:102B30000080FB00506A880051C0B30020C0B30081
:102B40007CFF07000080FB00C06A880061C0B30002
:102B500020C0B30077FF07000080FB00606A880098
:102B600071C0B30020C0B30072FF07000080FB00FB
:102B7000E06A880081C0B30020C0B3006DFF070089
:102B80000080FB00F06A880091C0B30020C0B30051
:102B900068FF07000080FB00006B8800A1C0B30045
:102BA00020C0B30063FF07000080FB00106B8800AB
:102BB0008840780020C0B3005EFF07000080FB0063
:102BC000906A8800C1C0B30020C0B30059FF07005D
:102BD0000080FB00A06A8800D1C0B30020C0B30011
:102BE00054FF07000080FB00B06A8800E1C0B3001A
:102BF00020C0B3004FFF07000080FB00706A880010
:102C000088407800084078004AFF07006AEDB70066
:102C100011C0B3000840780046FF07006BEDB70015
:102C200021C0B3000840780042FF07006CEDB700F8
:102C300031C0B300084078003EFF07006DEDB700DB
:102C400041C0B300084078003AFF07006EEDB700BE
:102C500051C0B3000840780036FF07006FEDB700A1
:102C600061C0B3000840780032FF070070EDB70084
:102C700071C0B300084078002EFF070071EDB70067
:102C800081C0B300084078002AFF070072EDB7004A
:102C900091C0B3000840780026FF070073EDB7002D
:102CA000A1C0B3000840780022FF070074EDB70010
:102CB000B1C0B300084078001EFF070075EDB700F3
:102CC000C1C0B300084078001AFF070076EDB700D6
:102CD000D1C0B3000840780016FF070077EDB700B9
:102CE000E1C0B3000840780012FF070078EDB7009C
:102CF000F1C0B300084078000EFF070079EDB7007F
:102D000001C1B300084078000AFF07007AEDB70060
:102D100011C1B3000840780006FF07007BEDB70043
:102D20004F04780000000600881F780068CDBF00BF
:102D3000614460006F013A00660DE2004700320016
:102D400011C0B30020C0B300FAFE07000080FB00F2
:102D5000D06A880021C0B30001407800F5FE07006A
:102D60000080FB00806A880031C0B30020C0B3003F
:102D7000F0FE07000080FB00206B880041C0B3001C
:102D800020C0B300EBFE07000080FB00506A880003
:102D900051C0B30020C0B300E6FE07000080FB0076
:102DA000C06A880061C0B30020C0B300E1FE070024
:102DB0000080FB00606A880071C0B30020C0B300CF
:102DC000DCFE07000080FB00E06A880081C0B300E1
:102DD00020C0B300D7FE07000080FB00F06A880027
:102DE00091C0B30020C0B300D2FE07000080FB00FA
:102DF000006B8800A1C0B30020C0B300CDFE070067
:102E00000080FB00106B88008840780020C0B30071
:102E1000C8FE07000080FB00906A8800C1C0B300B4
:102E200020C0B300C3FE07000080FB00A06A88003A
:102E3000D1C0B30020C0B300BEFE07000080FB007D
:102E4000B06A8800E1C0B30020C0B300B9FE07003B
:102E50000080FB00706A8800662DEF00620CAB00FA
:102E600040003200406B8000620460003D003A0088
:102E7000F1C1B30008407800AEFE07000081FB00FE
:102E8000B2748800E1C2B300814F50000B003A00D9
:102E900081CEB30008407800A6FE07000080FB004A
:102EA000006C880091CEB30008407800A1FE0700B6
:102EB0000080FB00106C88000B003700F8405100C8
:102EC0000040EB009BFE07000080FB00006C8800C8
:102ED000B1748000F7C050000040EB0095FE070081
:102EE0000080FB00106C8800116C8000C808DD00B9
:102EF000F80F2000006C8000080060008080400017
:102F0000F16B8800E1C1B3000040EB0089FE0700CF
:102F10000080FB00E06B880021638000106380006C
:102F2000C808DD000800600080804000216C880037
:102F3000F2FE210082806000F06B800002006000E1
:102F4000808F500006003200406B800064006000FB
:102F500004003A00682DA800F074880001003700D2
:102F6000622CEF00416B80006680600081003200BF
:102F7000F0748000E20F50003900320005003E007E
:102F80000000E00009003200E10F500076003A0036
:102F90002B003700E40F50004F003200460039008C
:102FA000E50F500070003A005800370091C1B3009F
:102FB0000040EB005FFE0700C16480000080FB0062
:102FC00001004000C0628800A1C1B3000040EB00D6
:102FD00058FE0700C16280000080FB00C808DE00C8
:102FE00001004000D0628800B1C1B3000040EB0096
:102FF00050FE0700D16280000080FB00C808DE00A0
:1030000001004000E062880033C0B30012C0B3008A
:1030100091C1B3000040EB0002FE07001A2EEF0042
:10302000684DAB000400320060002000F07488009E
:10303000684DA900AF0037009E2EEC00AD003700B0
:1030400013002000B36288000041EB00D1C1B3003F
:1030500002407800F3FD07009E2EEC00A50037002B
:103060007C0DEC00B0628800B0628000720020002D
:10307000110009000280D800616C88000100E000A6
:1030800001003A00626C8800636C8000838141001B
:10309000936C88006E801100A06C88000041EB00EA
:1030A00061E920009140780002407800DDFD0700D2
:1030B0009E2EEC008F003700926C800063E92000A8
:1030C0009340410003C1B3000040EB00D5FD070071
:1030D0009E2EEC0087003700A36C80000300E00008
:1030E0000800320021D920009140780070C14000D2
:1030F000B074800080C04000F0C040000040EB0091
:10310000C8FD07009E2EEC007A003700B0748000E6
:103110007E004000B0748800F10F2000810F500045
:1031200002003600E0022000B07488000004EB00CA
:10313000986488007C0DEC00A0648800B174800065
:10314000B164880033C0B300E2C1B300D1C1B300A1
:1031500008407800B3FD0700682DA9009E2EEC0002
:10316000186388006300370060002000F074880056
:10317000600037000148A30016003200C1C1B3004F
:103180000040EB00EBFD0700B1C4B300814F5000DD
:1031900007003A00C086200083C1B30090CF110021
:1031A00003003E0020002000C074880001003700AA
:1031B000982EEF0021D420009140780098CEBF00D7
:1031C000DCFD07004800DD00E0468800688DA900AE
:1031D000480037000138A3002E003200306A80001A
:1031E000D0648800C4748000E20F520013003A00DB
:1031F000206A8000EE0F500010003E00C1C1B300F5
:103200000040EB00CBFD0700B1C4B300814F50007C
:103210001E003A00206A8000EB0F50001B003200B5
:1032200013002000336B880022C2B3008040780076
:1032300098CEBF007BFD07001400370013C0B30019
:1032400022C2B30041D420009140780004407800AD
:1032500074FD0700980EE2000C003A00226A80001C
:10326000F10F510009003E00400220000200400022
:103270000000400061C52000D364800003B07800E6
:10328000D1648000A0D6200001717800686DA9008B
:1032900018003700F0758000E10F40001400320084
:1032A000017580000100DE000008A3000A003A005A
:1032B0008180400040C2B30000C1400023C0B30081
:1032C0000040EB0057FD0700100020000175800052
:1032D0000100DD00BE2EB700A00EEC0000758800D6
:1032E000E80F500003003600A02EEF000100370069
:1032F000A02EEF004F04780000000600CA0DA900C0
:10330000BE2DEF0000000600CA0DAB000C003A0015
:1033100000202800B0108800B0182000A0108800FD
:103320008A40A900BDC0BF0081CFB300014060004A
:103330005040B300BDE0B7009A40A800CA0DA800F5
:10334000000006003600F800809FBE00829FBE008D
:10335000849FBE00869FBE00C82DEF00CACDAB0083
:1033600088003A00C36C8000E28F510003003E00E9
:10337000E18F51000C00310003003700E38F510052
:1033800037003A001200370018E2A900000A2000B6
:10339000901088001842E200FBFF3500100020006A
:1033A000C06C8800B002370018E2A9000301E800F1
:1033B0008200410020CE200061007800901088003B
:1033C0001842E200F8FF3500C26C8800A602370000
:1033D000F16D8000E68F5000A3023E001000200037
:1033E0008100DD0001007800C006B20010003A0044
:1033F0000148A30012003A000118A3009A0232000B
:1034000001C8B30018E2A90060678000901088002E
:1034100018C2BF0001406000FAFF3A0040002000DF
:10342000C06C880060002000306E88008E0237007B
:103430001622A80040002000C06C88008A023700D5
:1034400018E2A90062688000921088001842E20029
:10345000FBFF350040002000C06C8800820237006E
:10346000F16D8000E68F50007F023E0010002000CA
:103470008100DD0001007800C006B20032003A0091
:103480000148A3003A003A000118A3007602320076
:10349000316E8000606D8000808F5000110031001F
:1034A0006380600002003A000100E800306E88008E
:1034B000306E80008000400023CE200002C8B300A0
:1034C00018E2A900618079009010880018C2BF003E
:1034D00002406000FAFF3A00982DEC00C62DEC0087
:1034E00061023700808F50005F023A000100E8005F
:1034F000306E8800CBADA8001642A800606D800039
:10350000F40F50000E003A00CB4DA800916D8000E2
:10351000F01F2000808F500053023E0040332000F7
:1035200001004000206D8800C800DE00316788007F
:103530000080FB0040678800CA6DA8004A0237007F
:10354000BE2DEF004802370018E2A900100A200043
:10355000901088001842E200FBFF3500CACDA80099
:103560000000EB00B06C8800607488003E023700F9
:10357000CBADA900CB4DA9001642A800BE2DEF008F
:103580003902370018C2BF000018A3002E01320014
:10359000801080008AEEB7001822A900B26C80006B
:1035A000006E8000800F5100BD003100F06D800082
:1035B000E20F500030003A00647480008401E8009B
:1035C00063748800216D8000A0192000808F500056
:1035D00002003A00E70F5100030036008ACEBF0018
:1035E0000080FB00B42DB4000308A3000E003200DD
:1035F0008ACEBF009EEDB7008480E8006380600043
:1036000023003A009FEDB700962DEC00617488000E
:10361000840078000100A10040D12000F26C8000FD
:10362000823078001A0037008ACEBF009FEDB700C5
:103630000400E9000000A10041D12000F26C8000EC
:1036400002B07800CB0DAB0005003200EA8F5100CC
:1036500003003A00E068800070478800CB0DA900A5
:10366000CB2DAB000A003200A268800062478800C0
:10367000CB2DA90006003700F06D8000E50F50004B
:1036800003003A008ACEBF000080FB00B42DB400D6
:10369000B26C80000201E800B26C8800F06D80001E
:1036A000E30F50005D003A00EC0F51003D003E007A
:1036B000116E80007D004000808F500002003A00B3
:1036C000E60F5100030036008ACEBF000080FB00E9
:1036D000AE2DB400116E8000F09F2000808F50004E
:1036E00069003A00006E8000EC0F500066003A005E
:1036F000B06C8000EC0F500008003A008ACEBF008A
:103700000080FB00706E88004800DD00816E800044
:1037100001004000704788005B003700EB0F50004D
:1037200004003A008ACEBF000080FB00806E880053
:1037300055003700E60F500008003A008ACEBF005F
:103740000080FB00A06E88004800DD00916E8000C4
:1037500001004000604788004B003700E50F500033
:1037600004003A008ACEBF000080FB00906E880003
:1037700045003700E90F500004003A008ACEBF0030
:103780000080FB00807488003F003700E80F500085
:103790003D003A008ACEBF000080FB009074880094
:1037A00039003700ED0F510037003A00006E8000FD
:1037B000ED0F500034003A008ACEBF000080FB00BD
:1037C000806D8800106E8000FF0F500004003600EE
:1037D000116E8000F0032000808F5000040036003E
:1037E000116E8000F0072000808F50002600360008
:1037F000CC0DA800806D8000AE0DB4000080FB00F1
:1038000003003A00CBEDA800306D88001E003700A1
:10381000CBEDA900A62DEC001B003700F06D800059
:10382000E60F500018003A008ACEBF000080FB006F
:10383000806D8800106E8000FF0F5000040036007D
:10384000116E8000F0032000808F500004003600CD
:10385000116E8000F0072000808F50000A003600B3
:10386000CC0DA800806D8000AE0DB4000080FB0080
:1038700003003A00CBEDA800306D8800020037004D
:10388000CBEDA900A62DEC00B16C8000006E80008D
:10389000808F50000200310016A2A9001682A800F5
:1038A000B16C8000006E8000808F50006E013A0085
:1038B000F06D8000E20F500060003200F06D80007B
:1038C000E30F50001F003A00C22DEC00CA0DE200C9
:1038D00003003500306D8000E30F50000F003A0008
:1038E000A62DEF00726D800002007800BC2DB400A0
:1038F000116E800000022000808F50004F003600C3
:10390000116E800000042000808F50004B003E00AC
:10391000020078008E2EB40048003700E20F5000FD
:1039200046003E00CC0DAB0044003200006E80002B
:10393000ED0F500041003A00CC0DA900C22DED0062
:103940003E003700F06D8000E60F50003B003A006B
:10395000CA0DE20003003500306D8000E30F500017
:1039600030003A00726D800002007800BC2DB40077
:10397000116E800000022000808F5000060036008B
:10398000116E800000042000808F500002003E0075
:10399000020078008E2EB400116E800000A020007E
:1039A000808F500025003A00807480004800DD00C0
:1039B000917480000100400071748000810140001A
:1039C00073748800706E8000F20F20000280B900CE
:1039D000BC2DB400BC0DE2000F003A000300E00073
:1039E0000D003A00704780000000E0000A0032003D
:1039F000E10F400008003200604780000000E00056
:103A000005003200E10F400003003200E648A80044
:103A1000E668A80009003700E648A900E668A800A3
:103A200006003700E20F500004003E00CC0DAB0052
:103A300002003200CC0DA900C22DED0016A2A80094
:103A40001682A80008013700B16C8000006E80006B
:103A5000808F5000020031001662A800020137007A
:103A60001642A800982DEF00CACDA900F06D800085
:103A7000E30F500003003200F06D8000E60F5000AD
:103A80005C003A00106E800003A02000830F5000FD
:103A900056003E00106E8000520020001100090008
:103AA0000280D8000100E00013003A00F06D8000B1
:103AB000E60F500003003A00106E8000830F5000A4
:103AC0000D003A00106E8000520020001100090025
:103AD0000280D8000100E0001F003A00006E800064
:103AE000ED0F50001C003A00116E800000A0200075
:103AF000808F50001800320030002000F06D8800E8
:103B0000126E8000146E8000530020001100090026
:103B10000381D800000178004611DD001100090082
:103B20000382D800010078006D00B9000001410057
:103B3000026D8800A1CDBF000080FB0030678800C7
:103B4000A0CDBF000080FB0040678800CA6DA800C0
:103B5000AE2DEF0019003700F06D8000E30F50002C
:103B600016003A00006E8000EC0F500013003A007F
:103B7000106E800052002000110009000280D80061
:103B80000000E900206E8800216E8000F01F2000F8
:103B9000808F500009003E00206E80004033B0004E
:103BA000206D8800C800DE00316788000080FB00BF
:103BB00040678800CB8DA800CA6DA800106E8000F9
:103BC00052002000110009000280D800E48F50004C
:103BD00003003A00C0002000006E8800A2003700F9
:103BE000D0002000006E88009F003700BE2DEF003F
:103BF0009D003700F06D8000E20F500055003A0044
:103C0000CA6DA900BE2DEF00CBCDA800A62DEC00FB
:103C1000006E8000F00F50000E003A00CB6DA8003F
:103C2000916D8000F01F2000808F50008E003E00BC
:103C30004033200001004000206D8800C800DE00F5
:103C4000316788000080FB0040678800CA6DA800CB
:103C500085003700F10F500083003A00B4CDBF005B
:103C60000080FB000000E9004F00DE006100600002
:103C70004300DD00616E80000130A1008080700093
:103C8000616E88006881600003003A00306D80003A
:103C9000E30F5000020032006C806000260032000A
:103CA0000128A3000F0032000000EB00A074880080
:103CB00042D120008081EB00F40F20008000400002
:103CC000833079000008A3000100320084307900BD
:103CD0000000E800E80F5000F8FF3A00A0748800E8
:103CE0000C0037000200E0000A003A00A2748800CD
:103CF0008200780042D12000A3AF2F000180400055
:103D0000033079008100E800E88F5000FBFF3A00A3
:103D1000A1748800A2688000121088000782A800A1
:103D2000CC2DA80010002000E0438800A06880008F
:103D300083E8B7004C0037000200E0004A003A0078
:103D4000306D8000E20F500047003E008BF6070008
:103D500045003700F06D8000E50F500041003A004B
:103D6000CA6DA9000000EB00F06D8800B44DE200C0
:103D700001003A0010C0B300E1006000C308DD009C
:103D8000606E80000030A10001007000606E88004D
:103D9000800078006801600003003A00306D800008
:103DA000E30F5000020032006C80600026003200F9
:103DB0000128A3000F0032000000EB00A07488006F
:103DC00042D120008081EB00F40F200080004000F1
:103DD000833079000008A3000100320084307900AC
:103DE0000000E800E80F5000F8FF3A00A0748800D7
:103DF0000C0037000200E0000A003A00A2748800BC
:103E00008200780043D12000A2AF2F000180400043
:103E100002B079008100E800E88F5000FBFF3A0013
:103E2000A1748800A0688000101088000782A80094
:103E3000CC2DA80010002000E0438800A06880007E
:103E400083E8B700080037000200E00006003A00EF
:103E5000306D8000E20F500003003E0047F607007F
:103E600001003700CA6DA90082108000126D880021
:103E700018E2A90018C2A9008A40A9004F03BE0099
:103E80004F02BE004F01BE004F00BE003600F900D9
:103E9000004006003600F800809FBE00829FBE00F2
:103EA000849FBE00869FBE00881F78008A9FBE0048
:103EB000302AEC00C029EC00904E800071006000B8
:103EC00001003200C429EC00604E8000E10F400088
:103ED00001003200CC29EC0010508000726F80008D
:103EE0006F11B9004911DE0002005000512D200071
:103EF000810F500012003600706F80001250800059
:103F00006F00B9004900DE00820F50000C00310044
:103F1000014F800000002600808F5000080036000E
:103F2000F049AB0006003200104F8000E10F400066
:103F300001003200E229EC00E429EF000300370021
:103F4000E209E20001003200E229ED001050800099
:103F5000726F80006F11B9004911DE00020050003D
:103F6000712C2000810F500006003600706F800019
:103F7000125080006F00B9004900DE00820F50002F
:103F800006003600204F8000E10F400001003200A3
:103F9000E429EC00E229EF0003003700E409E20025
:103FA00001003200E429ED00315080003002200091
:103FB000808F50000400360050768000E10F4000F2
:103FC00001003200CA2EEC00E629EC00314F8000DF
:103FD00040062000808F50000F003600E629EF00D9
:103FE000F06F8000F40F500004003600F0E9AB00E1
:103FF00002003A00F0E9A80006003700F06F8000E8
:10400000F10F500003003E00F0E9AB000100320068
:10401000F0E9A900FE2DEF00FE09AB00040032001C
:10402000C04F8000E10F400001003200F829EC0091
:10403000614080000188A30005003200004180003B
:10404000E10F4000030032002028EC00010037009F
:104050002028EF000198A3000500320010418000E5
:10406000E10F4000030032002228EC00010037007D
:104070002228EF0000718000E10F500004003A0098
:10408000D04F8000E10F400001003200FA29EC001F
:1040900001007800000EB200060032001028EF0088
:1040A00070408000E10F4000070032000E28EC0055
:1040B000050037000E28EF0080408000E10F40002F
:1040C000010032001028EC000148A3000500320076
:1040D00090408000E10F4000030032001228EC0005
:1040E000010037001228EF000128A300050032006C
:1040F000A0408000E30F400003003E001428EC00C5
:10410000010037001428EF008828AB0016003200A9
:10411000582EEC00C1728000301F2000808F5000AC
:104120001A003600582EEF00B4458000E10F42001F
:104130001600320030758000D2728000E372800079
:1041400000004100E0804900D0728800E1728800E0
:10415000904588004008DE00A04588000400E80083
:10416000B0458800090037000000EB00C0728800ED
:104170005A2EEF005C2EEF0090458800A045880085
:10418000B0458800E648A900E668A9004228EC008E
:104190004428EC004628EC0021458000700C2000EB
:1041A000808F500007003E00D409AB0009003200A8
:1041B00070428000E10F4000060032004E28EC0003
:1041C0000400370000192000808F500001003600E5
:1041D0004E28EF0050728000E10F500009003A00B5
:1041E000D409AB000A00320041728000E0FF2700D2
:1041F000808F500006003E000100E80040728800F9
:10420000030037000000E00001003A00407288001F
:10421000B84480006140B900C1F107000005BE004C
:104220000800E00004003D000200200003782400A4
:10423000E7F107000005BE00020020002360240013
:104240000A00BE003FF207000000E0000400340056
:104250006048AB0002003A006048A800090037003F
:1042600002002000F35F24000A00BE0037F20700BE
:104270000000E00003003D006048AB000300320096
:104280006048A9006048AB0007003A005828EF00DA
:10429000015F2500C0418000810F50000C003600F6
:1042A000C14188000A003700C0428000E10F400091
:1042B000010032005828EC00C14280000053270062
:1042C000808F500002003600005F2500C04188004A
:1042D0003428EC0068CDBF000008A30006003200BF
:1042E000562EEC00B0728000E70F5000020036003E
:1042F000562EEF00680DA900BE0DE2000900320045
:10430000406E8000E10F400001003200C82DEC003B
:10431000416E8000401F2000808F50000100360059
:10432000BE2DEF0008C2BF000038A300030032001A
:1043300008C2BF000018A300080032006228EC0089
:1043400011438000301F2000808F50000300360092
:1043500007E2A9006228EF0007E2A8008468AB002A
:104360000A0032006428EC0020438000011920007C
:10437000810F50000B00360007E2A900214388009E
:104380008468A90007E2A8000600370021438000E6
:10439000F0182000808F50000200360007E2A800CD
:1043A0006428EF008808AB0017003200B07080006E
:1043B000C170800061004000E0804800B07088005B
:1043C000C1708800B0708000C1708000F2A52E001E
:1043D000820F5000E08F58000B003600162EEF00C1
:1043E000182EEF001A2EEC00D1708000F05920003A
:1043F000808F500004003600D0708000C0648800B8
:10440000684DA8009E2EEF00C0508000E10F5000C4
:1044100004003A00A0728000E10F40000100320069
:10442000542EEC00606F8000F00F50000F003E0033
:10443000506F8000E10F40000C003200804F800080
:104440004002B200E40F500008003A00EA2DEC00F0
:10445000716F8000806F8000808F500015003100E8
:10446000C0012000EE2DB40012003700616F800003
:1044700020032000808F50000E003600EA2DEF0050
:10448000706F8000E60F50000200360090FF2F0092
:10449000EE2DB400EE0DE20001003200EE2DED0035
:1044A000616F8000C05D2000808F500001003600E9
:1044B000EE2DEF0084C8AB0011003200B16D80001A
:1044C0008100E800B16D8800F0A52E00808F5000BB
:1044D0000E003600B62DEF00C06D8000FD0F5000BD
:1044E00003003E000000E800C06D880007003700B0
:1044F00084A8A90084C8A900E688A90003003700A1
:104500000000EB00B06D8800C06D8800CA6DAB0084
:1045100006003200D06D8000E10F40000400320040
:104520000000E800D06D880001003700BA2DEF00D0
:104530008460A9004F05BE004F0478004F03BE0001
:104540004F02BE004F01BE004F00BE003600F90012
:10455000004006003600F800809FBE00829FBE002B
:10456000849FBE00869FBE00611A8000017688008D
:10457000721A80001276880020728000C208DE0065
:10458000808040004200DE00808050002172880060
:10459000307280004211DE00000141004200DE0066
:1045A0000001510032728800C0242000808F50002A
:1045B000020036000C08A80005003700701120002A
:1045C000808F500002003E000C08A900A609A80038
:1045D0000C08AB00060032001828EF00B040800045
:1045E000E10F4000070032001628EC0005003700FC
:1045F0001628EF00C0408000E10F400001003200AB
:104600001828EC0090072000800F510002003600AF
:104610000C28A9000400370050042000800F51002E
:1046200001003E000C28A8000C28AB000600320058
:104630001C28EF00F0408000E10F4000070032002E
:104640001E28EC00050037001E28EF00E040800027
:10465000E10F4000010032001C28EC00F049AB00E3
:1046600020003200014F8000709B2500808F500099
:1046700003003E0000102000E029B4001A003700BB
:10468000014F8000F0D92500808F500003003E00CC
:1046900000082000E029B40013003700014F80001B
:1046A000F0EF2700808F50000F003E00014F800088
:1046B00000002600808F5000070036003150800037
:1046C000400A2000808F500003003E006000200060
:1046D000E029B4000400370080022000E029B40083
:1046E00001003700E029EF00D509AB0004003200DB
:1046F00040738000E10F400001003200682EEC00A2
:1047000000718000E30F500001003A00F20B070037
:10471000A24E80000200E00005003D009172800082
:10472000E0FF2700808F500001003E00522EEC0079
:104730000228A30003003200B0FF2F00F429B400C8
:1047400008003700FE49AB0006003200A14F800090
:10475000703F2000808F500002003E0068804000C3
:10476000A04F8800DBC2BF004300DE006100600094
:1047700061728000810F50000A003200DBC2BF006E
:104780004300DE006100600060728800717280008A
:10479000E0FF2700808F500002003E000100E8008B
:1047A00070728800817280008100E8008172880048
:1047B00070382100808F50000C003600707280002D
:1047C000ED0F500003003E001000200050728800E2
:1047D00003003700FC0F5000010036004A2EEF00A6
:1047E0000000EB0080728800707288005628EC0090
:1047F0005228EC00A0428000E10F4000010032008E
:104800005428EC00B142800070252000808F5000B9
:10481000020036005628EF005F48A8009142800051
:10482000309C2000808F5000140036005228EF008A
:104830005008E2000300320050728000E10F500087
:1048400002003A00A428EF000B003700E04280008D
:10485000E20F500003003E00204180002045880008
:104860000500370080428000C20320000280B900AA
:1048700002005000204588005028EF00A408E20004
:1048800006003200E0418000A2042000110009006F
:104890000280D8007045880001003700AE28EF0084
:1048A000F1508000A00A2000808F500005003600E3
:1048B000A689A80020172000808F500006003E0027
:1048C0000700370010082000808F500007003E00CE
:1048D000A689A90005003700FEE9A90004003700F9
:1048E00090142000808F500001003E00FEE9A800D7
:1048F0000663A9009220A9004F03BE004F02BE002C
:104900004F01BE004F00BE003600F9000040060017
:1049100000017800D209AB000E003A0023C2BF00AC
:104920000008A300FDFF3200500020002011880085
:104930008000EB004176880010002000904D880038
:10494000D209A800D229A900B24D8800D249A900F5
:10495000214E8800000006000001BE00D209AB0015
:104960000F003A0023C2BF000008A300FDFF320081
:1049700000052000201188008000EB0041768800AF
:1049800010002000904D8800D209A800D229A8006C
:10499000B24D8800F34D8800D249A900214E88000D
:1049A00000000600B24D8000820078000100A100E6
:1049B00060982000E34D800083307800E40F5100C0
:1049C0001A00320005003E000200E000080032003C
:1049D000E20F51009A003A0008003700E80F51003A
:1049E00042003200FE0F510095003A00910037005E
:1049F000100020002075880091003700D16A8000E7
:104A0000404C800080804000F0072000808F5000E4
:104A10000400360000F82F00008040007044880039
:104A2000870037008E28EF00850037007144800032
:104A300000402100808F500010003600816A800005
:104A4000534C800083804000F0072000808F50008E
:104A50000400360000F82F000080400040758800F8
:104A600001003700A82EEF0040758000FC0F5000B9
:104A700002003E000080E80040758800417580001B
:104A800050022000808F500008003E00A06A800085
:104A900080804000F0072000808F50000300360027
:104AA00000F82F00008040004075880040758000AD
:104AB000EF0F500002003E0000012000407588000A
:104AC00041758000814488008828AB0005003200D1
:104AD000D0458000808F500059003600D1458800B5
:104AE00057003700BA28EF0055003700734C80009C
:104AF000537588007144800000402100808F500071
:104B000026003600026B8000146B80000038200005
:104B1000020040000018B800C609DD004A00DE00AF
:104B200000807100CA08DE008000420000F82F00FB
:104B30000080400050758800A0F62F0000804000E3
:104B4000F60F500024003E0000082000800F5100A6
:104B500002003A00820F52001F003200FEE9AB0053
:104B60001D003200D0F72F00808040005175880072
:104B7000FF8F500018003E00B06A80008080400027
:104B8000F0072000808F5000130036000000E8007E
:104B900000805000507588000F003700F02B210076
:104BA000808F50000C003E00E26A80000238B000A6
:104BB0000219B8004618DD004A11DE00020170003B
:104BC000CA19DE00F06A80000001410000F82F00E1
:104BD000000141005275880050758000F30F5000AD
:104BE00003003E004001200090448800010037008F
:104BF000904488008828AB00060032009144800071
:104C0000C0458000810F500003003100C14588007D
:104C100001003700B828EF00317580009208D500F8
:104C2000010040008100D100010050003075880073
:104C300003003700204D80004200DE0050718800E4
:104C400000000600B14D800000022000808F50005F
:104C500002003A00804E8000704E8800000006007E
:104C60003600F800809FBE00829FBE00849FBE0079
:104C7000869FBE0022C2BF000018A30001003200C0
:104C80002222A90022C2BF0030118000A04D88005E
:104C9000D2E9A800CC29EF00914E80000148A30082
:104CA000BE003A0000017800A00E2000800F5100E5
:104CB00009003A000118A30004003A00904D80005A
:104CC000E30F500004003E00B4003700904D800018
:104CD000E50F5000B100360040768000E40F500030
:104CE000FA0036000108A300A9003200904D8000B0
:104CF000E30F50003C00320005003E00E10F500081
:104D000009003200E20F50009D003A000E0037000B
:104D1000E50F5000660032004C003900E60F5000ED
:104D200097003A008400370023C2BF000008A300A8
:104D3000FDFF3200B04D800020118800C82EEF002A
:104D4000B229EC00E10037000118A300EA003200AC
:104D5000100037003111800022C2BF000008A300FC
:104D6000FCFF3A00A14D880023C2BF000008A30049
:104D7000FDFF3200F20F2000B14D80008280600004
:104D80000010200001005000020060002011880087
:104D90001200370023C2BF000008A300FDFF32004D
:104DA000F19B2000914078008180FB002111880058
:104DB000B04D800080804000BEC9BF000080FB0075
:104DC00080804000F20F20008280600000102000F0
:104DD0000100500002006000D04D8800C82EEF0096
:104DE000B229EC00B90037000118A3000E003A0008
:104DF000E70F510008003A0023C2BF000008A300DB
:104E0000FDFF32008001200020118800C82EEF0035
:104E1000B229EC00AD003700D249A80010002000F4
:104E2000904D8800A900370023C2BF000008A300EE
:104E3000FDFF3200BEC9BF000080FB0020118800CA
:104E4000C82EEF00B229EC00A00037000118A30023
:104E5000A5003A0002007800BDE9B700A04D80002F
:104E6000C04D880023C2BF000008A300FDFF320030
:104E700080012000201188000A00370031118000D5
:104E800022C2BF000008A300FCFF3A00A14D880029
:104E900023C2BF000008A300FDFF3200D04D8000F8
:104EA00020118800C82EEF00B229EC0087003700DF
:104EB0000118A3000C003A0002007800BCE9B7001A
:104EC000A04D8000B829B40023C2BF000008A30091
:104ED000FDFF32008001200020118800C82EEF0065
:104EE000B229EC007900370000072000800F510044
:104EF00009003A0053FF070023C2BF000008A300C7
:104F0000FDFF32008001200020118800C82EEF0034
:104F1000B229EC006D00370023C2BF000008A300D7
:104F2000FDFF320022118800C82EEF00D249A800F0
:104F3000B229EC00650037000118A30006003A0012
:104F4000C04D800000004100C04D88000004E0001A
:104F500001003A0093FE070023C2BF000008A3002F
:104F6000FDFF32008001200020118800D209A90035
:104F7000C82EEF0010002000904D8800530037002D
:104F800010002000904D8800D209A9004F00370082
:104F900010002000904D88004C003700A14D80008B
:104FA000A00E2000808F500004003A00D289A80093
:104FB00010002000304E8800C429EF00304E8000E1
:104FC000E20F50001300320003003E00E10F5000DA
:104FD0003C003A0005003700E30F50001700320094
:104FE000E40F500037003A001E00370023C2BF0014
:104FF0000008A300FDFF3200A14D800021118800B0
:10500000A00E2000808F500030003A00C629EC002E
:105010002E003700A04D8000C9E9B700504E88002F
:1050200023C2BF000008A300FDFF32008001200062
:1050300020118800C629EC0024003700A04D800014
:10504000C8E9B700CA29B40023C2BF000008A30002
:10505000FDFF32008001200020118800C629EC00ED
:105060001A003700A04D8000CA09B400504E8800D5
:105070000004E0000A003A0023C2BF000008A300B9
:10508000FDFF32008001200020118800404E80008A
:10509000304C880010002000207588000500370083
:1050A00023C2BF000008A300FDFF3200100820004B
:1050B00020118800D289A90010002000304E8800FD
:1050C0000200370010002000304E88008560A900E3
:1050D0004F03BE004F02BE004F01BE004F00BE0096
:1050E0003600F9000040060022C2BF000008A300FD
:1050F00062FF3A0066FF370022C2BF000008A3002B
:1051000014FF3A0018FF3700A0012000401188006A
:10511000A9C0BF00F1C8B300014060000043B30064
:10512000A9E0B7009560A80021E2A8002342A800EA
:10513000D2E9A9000000EB00604E8800304C8800E6
:1051400086E9A80050002000304D8800704E88008D
:10515000804E880000000600604E8000F20F500074
:1051600005003A00D2E9A9008609A9008828A9000B
:105170001000200020758800A40EE2001600320006
:10518000A629AB0003003200D649A8008609A90071
:105190000A003700324C8000614061000080EA0064
:1051A0008180EA00610060004200DD00B24E8000B4
:1051B0000220A10000017100B24E88008629AB00D8
:1051C00004003A0000718000E30F5000010032003B
:1051D0008A88A800A42EEF00904E80007100600025
:1051E0002F003A00314D8000704E8000810F50003A
:1051F00004003200814E880000022000D6FD070026
:1052000027003700004E8000E50F500024003600D4
:10521000C029EF00D209AB0021003A0010758000D0
:10522000E50F50000B00320006003900E70F500078
:10523000100032000B003900E80F500017003A0050
:105240001100370000004000B1FD0700A22EEC0065
:1052500013003700E0012000ADFD0700A22EEC0096
:105260000F00370020022000A9FD0700A22EEC004D
:105270000B003700B144800080022000B6FD07001B
:10528000A22EEC0006003700216B8000C002200037
:10529000B1FD0700A22EEF0001003700A22EEF00A3
:1052A000204E8000E40F500002003600D209A90011
:1052B000D289A90000000600714480005046800099
:1052C000808F5000020031008C28A80004003700B5
:1052D0000008B000808F5000010039008C28A90020
:1052E0007244800061468000810F51000200360048
:1052F0008C08A8000500370000F62F000080400051
:10530000800F510001003E008C08A900714480000C
:10531000506B8000810F500008003100516B8800F5
:105320006ACDBF000080FB00F06488006BCDBF0039
:105330000080FB0000658800BE0EA9008828AB0035
:105340001800320081448000606B8000810F5000A3
:1053500008003100616B88006CCDBF000080FB004D
:10536000106588006DCDBF000080FB0020658800BF
:10537000BE2EA90091448000706B8000810F500008
:1053800008003100716B88006ECDBF000080FB000B
:10539000306588006FCDBF000080FB00406588004D
:1053A000BE4EA90000000600D489AB0019003200EF
:1053B000A144800070468000808F500002003100C0
:1053C0008C68A800060037003003B000808F5000C2
:1053D00003003900C0A8AB0001003A008C68A900A6
:1053E000A244800081468000810F510002003600F7
:1053F0008C48A80007003700D0FC2F000080400038
:10540000800F510003003E00C0A8AB0001003A002D
:105410008C48A9008808AB0016003200B444800014
:10542000E3758000830F5200020036008D08A8004B
:10543000110037004318DD0042012000110009006F
:105440000280D800801F7800110009008281D800F6
:10545000000178004F007800020040008300D10076
:1054600001004000800F5200030031008D08A900A8
:10547000010037008D08A9000000060002458000E9
:10548000B1468000810F5100020036008C88A800D0
:105490000500370000EC2F0000804000800F510015
:1054A00001003E008C88A90012458000C1468000A2
:1054B000810F5100020036008CA8A80005003700BB
:1054C00000EC2F0000804000800F510001003E00E2
:1054D0008CA8A90000000600881F780000718000D9
:1054E000E10F50001C003A000000EB0070448800FF
:1054F0008044880090448800A0448800B04488001C
:10550000C0448800D0448800E0448800F04488000B
:10551000507188008071880030718800C0728800E6
:105520005A2EEF005C2EEF0090458800A0458800C1
:10553000B0458800C0458800D0458800E045880017
:10554000F04588008828A9008908A9008928A900B1
:105550008948A900F9003700E20F500006003A0020
:105560000000EB00A0448800B0448800C0448800DC
:10557000E04588008D003700E30F50008B003A00B3
:10558000240EAB0089003200240EA90000508000D8
:1055900044508000B2718000C3718000000041005F
:1055A000E080490004005000E0805800B07188009D
:1055B000C17188004A09DD004600DE00000071006C
:1055C000C608DE00405088004150800040508000F6
:1055D000C208DD004400DE0080804000A144880055
:1055E000806B8000808F500008003600816B88003F
:1055F00070CDBF000080FB005065880071CDBF00FA
:105600000080FB0060658800BE6EA90066FF070091
:105610003050800054508000D2718000E3718000CF
:1056200000004100E080490004005000E080580084
:10563000D0718800E17188004A09DD004600DE0073
:1056400000007100C608DE005050880050508000F5
:1056500064508000F27180000372800000004100FD
:10566000E080490004005000E0805800F07188009C
:10567000017288004A09DD004600DE00000071006A
:10568000C608DE00605088005450800050508000F2
:10569000525080006B22B9006B00B9004400DE005C
:1056A000040040006511B9004811DE00020040000E
:1056B000B0758800C26A80000200400041042000EA
:1056C000810F50000300360001005000B0758800C3
:1056D00001003700B62EEF00B1758000F00B2000FE
:1056E000808F500002003E000000E800B075880086
:1056F000B1758000B14488008808AB000500320015
:10570000E0458000808F500003003600E1458800AE
:1057100001003700BC28EF00A04480009608BC00C0
:10572000C2758800D37588004218DD004E11DE0076
:1057300002017000CE19DE00C2448800904480004F
:10574000820F500001003100C0448800B144800045
:10575000906B8000810F500008003100916B880031
:1057600072CDBF000080FB007065880073CDBF0064
:105770000080FB0080658800BE8EA900C1448000C7
:10578000A06B8000810F500008003100A16B8800E1
:1057900074CDBF000080FB009065880075CDBF0010
:1057A0000080FB00A0658800BEAEA90072448000A6
:1057B00000B02000800F5100020036008828A800A9
:1057C00004003700F0A92000800F510005003E00C2
:1057D0008828A90072448000F0A92000800F5100A1
:1057E00008003600F0ED2E0000004100E14B2000E3
:1057F000810F500003003600001A2200800F510074
:10580000040036008908A9008928A9008948A90050
:105810002200370000502F0000004100015C2000F2
:10582000810F500005003600009C2E000000410052
:1058300001B02000810F500018003E0000D420006D
:10584000800F510004003E008908A8008928A900A3
:105850008948A9001100370000262F0000004100F0
:1058600001322000810F500004003E008908A90089
:105870008928A8008948A90008003700009C2E004C
:105880000000410001B02000810F500003003E00E5
:105890008908A8008928A8008948A90086FE070071
:1058A0005171800081718800600B2000808F500052
:1058B00006003600E00320000088B90082122F00A5
:1058C00000014100327188001200370040042000BE
:1058D000808F5000050036007E0050000088B9001F
:1058E0000023B000307188000A003700EE8F5000AE
:1058F00002003E00F000200080718800807180006E
:10590000B20320000280B90002CA2F00000141004A
:10591000327188003071800001002000C808DD006D
:105920000080FD00804078000040EB002234210020
:105930000300200087EC0700504588007471800048
:10594000A471880040102000800F5200070036002C
:105950006C21B9006920B9004500DE00000151004A
:10596000620DB0000245880019003700300A20009F
:10597000800F5200080036007220B9006721B9007C
:105980004611DE0000014100E0A42F0000014100AB
:10599000024588000E00370080072000800F52006B
:1059A0000A0036003002200000A0B90012032000D7
:1059B00002A1B9004811DE0002005000D2FA2E0008
:1059C000020040000045880001003700A028EF00D9
:1059D00001458000B06B8000810F5000080031004D
:1059E000B16B880076CDBF000080FB00B0658800F9
:1059F00077CDBF000080FB00C0658800BECEA90047
:105A00000180400092012000110009000280D800AE
:105A1000404588006171800091718800002B200052
:105A2000808F500007003600500320000088B90026
:105A30004200DE0062872F000200400040718800B3
:105A40000C003700800E2000808F500006003600CA
:105A50007108B9000000D10082522000020040000D
:105A600040718800030037006C08B900C023B00003
:105A700040718800487180006140B800C808DD00AE
:105A80000080FD00804078000040EB0002272100EC
:105A9000030020002FEC0700604588003071800073
:105AA000800F5400020031001045880001003700CB
:105AB0001845880011458000C06B8000810F5000A0
:105AC00008003100C16B880078CDBF000080FB006A
:105AD000D065880079CDBF000080FB00E0658800BC
:105AE000BEEEA90021458000D06B8000810F5000E0
:105AF00008003100D16B88007ACDBF000080FB0028
:105B0000F06588007BCDBF000080FB000066880048
:105B1000BF0EA90059FE07004F04780000000600E0
:105B2000FE49AB000B003200A14F8000700C20003A
:105B3000808F500007003E00D5E2A800FE09A900B2
:105B4000F829EF00FE49A900D409A900D609A80048
:105B5000FE69A900A649AB0003003A00A649A800C7
:105B6000D2A9A80006003700D2A9AB000400320079
:105B7000CE49AB0002003200D2A9A900F502A8006C
:105B8000F502A80000000600F502A90000000600CA
:105B900000468000E7006000E48F50000200320001
:105BA00000B8A30005003200D589AB0001003A001F
:105BB000D4E9A800D589A80011003700D589AB0029
:105BC00001003200D4E9A800D589A900E58F500072
:105BD0000200320000C8A30005003200D429AB0047
:105BE00001003A00D4E9A800D429A8000400370035
:105BF000D429AB0001003200D4E9A800D429A900BF
:105C000000D8A3000B0032008848AB0009003A001E
:105C10001150800060172000808F500005003E006A
:105C2000C0508000E10F500002003A00D449A800A3
:105C300001003700D449A900D449AB00020032006A
:105C4000B7FF070001003700CFFF07000000060084
:105C500021FE0700CEFF0700000006003600F80016
:105C6000809FBE00829FBE00849FBE00869FBE00B4
:105C70005028EC005408E20002003A001000200016
:105C8000A0428800A242800003002000009F240060
:105C900021002000AFEB0700D0428800025F250002
:105CA000800F510001003100D2428800D3428000B1
:105CB000D0738000E173800003004000E080480062
:105CC0002241800002025000E0825800D473880014
:105CD000E5738800309C2000808F510003003E0057
:105CE00010002000E042880015003700B0E62E00CA
:105CF00000804100219C2000810F500003003E00E5
:105D000020002000E04288000D00370070CD2D00FB
:105D100000804100A15D2000810F500003003E0083
:105D200030002000E042880005003700408A230050
:105D3000808F51000200360040002000E0428800C1
:105D40005C88EC000000E900030033008502D1000C
:105D50000482D300FBFF3700F4738800D242800036
:105D6000C310DE0001005100800F52000400360015
:105D700001004100800F52000100310024418800E1
:105D80005428EF008420A9004F03BE004F02BE003C
:105D90004F01BE004F00BE003600F9000040060073
:105DA00050428000E20F50000200360063005000B5
:105DB00050428800B144800020102200808F5000A3
:105DC000020036006008A8000400370030042200FA
:105DD000808F500001003E006008A9006008AB0001
:105DE00003003200803E20003828B4000C00370049
:105DF00071718000C1738800C0042000808F500042
:105E000006003600C04180000080400051FB2F009A
:105E100001004000C0418800010037003828EC0034
:105E20006048AB0006003A00015F2500C0418000D9
:105E3000810F500007003600C1418800050037007F
:105E4000015F2500C0418000810F50000100360035
:105E5000C141880000000600324180008107200017
:105E600082804000C0418000810F50000F0036004A
:105E70004828EC0040428000E80F50000700360040
:105E80004828EF0051428000E00F2000808F500032
:105E900002003E000100E80050428800707180005E
