:020000040000FA
:100000000002040000000000EE230000B623000000
:10001000BE230000C6230000CE230000EE23000014
:10002000EE230000EE230000EE230000EE2300008C
:10003000EE2300004A1D0000EE230000EE23000026
:10004000EE230000EE230000EE230000EE2300006C
:10005000EE230000FC100000EE230000EE23000061
:10006000EE230000EE230000EE230000EE2300004C
:100070000C100000EE230000EE230000EE23000031
:10008000EE230000EE230000EE230000EE2300002C
:10009000EE230000EE230000EE230000EE2300001C
:1000A000EE230000EE230000EE230000EE2300000C
:1000B000EE230000EE230000EE230000EE230000FC
:1000C000EE230000EE230000EE230000EE230000EC
:1000D000EE230000EE230000EE230000EE230000DC
:1000E000EE230000EE230000EE230000EE230000CC
:1000F000EE230000EE230000EE230000EE230000BC
:10010000EE230000EE230000EE230000EE230000AB
:10011000EE230000EE230000EE230000EE2300009B
:10012000EE230000EE230000EE230000EE2300008B
:10013000EE230000EE230000EE230000EE2300007B
:10014000EE230000EE230000EE230000EE2300006B
:10015000EE230000EE230000EE230000EE2300005B
:10016000EE230000EE230000EE230000EE2300004B
:10017000EE230000EE230000EE230000EE2300003B
:10018000EE230000EE230000EE230000EE2300002B
:10019000EE230000EE230000EE230000EE2300001B
:1001A000EE230000EE230000EE230000EE2300000B
:1001B000EE230000EE230000EE230000EE230000FB
:1001C000EE230000EE230000EE230000EE230000EB
:1001D000EE230000EE230000EE230000EE230000DB
:1001E000C01400006A1500001E200000AC220000B0
:1001F000EE230000EE230000EE230000EE230000BB
:10020000FFFFFF00FFFFFF00EE230000D6230000EA
:10021000DC230000E2230000E8230000EE230000BE
:10022000EE230000EE230000EE230000EE2300008A
:10023000EE2300004A1D0000EE230000EE23000024
:10024000EE230000EE230000EE230000EE2300006A
:10025000EE230000FC100000EE230000EE2300005F
:10026000EE230000EE230000EE230000EE2300004A
:100270000C100000EE230000EE230000EE2300002F
:10028000EE230000EE230000EE230000EE2300002A
:10029000EE230000EE230000EE230000EE2300001A
:1002A000EE230000EE230000EE230000EE2300000A
:1002B000EE230000EE230000EE230000EE230000FA
:1002C000EE230000EE230000EE230000EE230000EA
:1002D000EE230000EE230000EE230000EE230000DA
:1002E000EE230000EE230000EE230000EE230000CA
:1002F000EE230000EE230000EE230000EE230000BA
:10030000EE230000EE230000EE230000EE230000A9
:10031000EE230000EE230000EE230000EE23000099
:10032000EE230000EE230000EE230000EE23000089
:10033000EE230000EE230000EE230000EE23000079
:10034000EE230000EE230000EE230000EE23000069
:10035000EE230000EE230000EE230000EE23000059
:10036000EE230000EE230000EE230000EE23000049
:10037000EE230000EE230000EE230000EE23000039
:10038000EE230000EE230000EE230000EE23000029
:10039000EE230000EE230000EE230000EE23000019
:1003A000EE230000EE230000EE230000EE23000009
:1003B000EE230000EE230000EE230000EE230000F9
:1003C000EE230000EE230000EE230000EE230000E9
:1003D000EE230000EE230000EE230000EE230000D9
:1003E000C01400006A1500001E200000AC220000AE
:1003F000EE230000EE230000EE230000EE230000B9
:100400008FC72000C0FD2000000188000000000010
:100410000C000700A07C2100010020001100070053
:10042000000020000000E000020032000000020096
:1004300000000000B81A0200000000000040DA00CE
:100440000000FE004440A900000020000000E00081
:100450000300320000002000A00188004440A800F2
:100460000000060091018800800078000000EB0089
:1004700015003700E280400032A0B4009101BA00BC
:10048000E280400032A0B4009102BA00E280400055
:1004900032A0B4000002EB00472BDE00F507B200EB
:1004A000602CE10004003A000059EB008301E900F0
:1004B000FDFF3E00040037006128E100010032002A
:1004C0000082EB00040007001101BA000200E00006
:1004D000E8FF3A00000006003159BA008301E90044
:1004E0000C0032002159BA008301E90008003200F3
:1004F0000400E00003003A00E280400032A0B400B3
:10050000F5FF370011D9BA008301E900FAFF3A007C
:100510008100E800E180400032A0B4000000060045
:10052000889FBE008A9FBE00010578000100E000A0
:100530000400350008003C000000E000200032000C
:100540000500370060001000E080180002003B004A
:1005500001F02C001A0037000004BE006011B80042
:100560006B0920000982CF00020039000882CF0009
:100570000441B000694252000E00320008003B0006
:1005800082817100610164008904D1000884D30074
:100590008B05E8000442E800F9FF3A000500370047
:1005A0000804440089844C008B05E9000442E900FA
:1005B000FBFF3A00770007000AF0A70001F0A00057
:1005C0004F05BE004F04BE000000060003F0A2006D
:1005D000889FBE008A9FBE008C1F78009300070092
:1005E0009A0033006450E1004F0032006420E100C3
:1005F0005200320003826C0007003B000905D00066
:100600000306D000820F54000C065D000200390082
:1006100002003200890178000306780085825500C7
:1006200004003D000003FD008103FD008502EA0097
:100630008B854200840F720002003B0060001000B6
:10064000E08018006011B8000005EB007A28E10096
:100650000A00390006007800C75DDD00F707B20028
:10066000878075002D003700828171000A017800B3
:10067000610560008180D1000080D3008502E9001F
:10068000F9FF3B00060440008784480002003B005D
:1006900060041400E0841C000988A30007003200F5
:1006A0008A81710082817100610164008904D10036
:1006B0000884D3008B05E800170037000978A300F1
:1006C00013003A000B00E000130034008B05E90032
:1006D0000804440089844C000A4474000978A3008B
:1006E0000D003A000B00E000070034008B05E90024
:1006F0000804440089844C0001003A000B002000EB
:100700000978A300F7FF32000001EB000200370078
:10071000828171000A0178001E0007000CF0A7001A
:1007200001F0A000520037006420E10002003A000E
:10073000838F6C00520033000801BE000200BE002F
:100740004B00370014002000500037006022B80032
:10075000060220000000D0008180D2000482D20076
:100760008582D2000000A0000202520083825A005B
:10077000030031000202420083824A000000A1000F
:100780000603E900F3FF3A0000000600F4FF2F0023
:100790003E00370081002000618055000B003D00C5
:1007A0000B00200061FE2F000100E1001D0034005D
:1007B00082817100610164008904D1000884D30042
:1007C0000000E800FAFF3A007100200061006400B8
:1007D0000300700002006000090032006104440060
:1007E000E0844C000988A500050032008B05E80074
:1007F0006808E10002003A008904D1000884D300AF
:10080000F20F20000258E10005003D00C75DDD0049
:10081000F907B20089807500080078000000060022
:100820000BF827008B007800000005000004BE00D4
:10083000310007000003BE000405BE000200BE0038
:100840002D000700844F7500000006000200BE0066
:100850006450E100050036006420E100020036002B
:100860000968A30001003A000800BE000160A00072
:100870004F0678004F05BE004F04BE000000060082
:10088000F0FF2F00F1FF2700F9FF3700889FBE001F
:100890008A9FBE00841F7800E4FF07004F007800A5
:1008A00011003300F0FF2F00838F6C0006003B0027
:1008B000040565000A00A7000800370009F0A6003B
:1008C0001000200008003700820F5400838F5C0066
:1008D000030039001000200001003E00000020004D
:1008E00009F0A7000000EA004F05BE004F04BE005B
:1008F0000000E00000000600C70ADE00F107B200B9
:10090000F50FB20008003200E1CF420002003200D1
:100910000170A00024000500810F7000010032006A
:100920000408050044000500810F700002003A0031
:10093000140005008502E9000000400081C0480065
:10094000FCFF3B000170A0002400050000A0FE0099
:10095000841F7800851F7800881F78008A1F780020
:100960004400F800080F2000280288004400A90075
:100970000004900010059000A0009000300190004D
:10098000C00190000300CA000280CA000030CB0002
:100990001A00CD004604C3000100CA004604C0008E
:1009A0001E04C0000605C0000100CD002100980013
:1009B000050D7800EABA9700052578004400F90093
:1009C0004F0578004F047800CF0278004F0278007E
:1009D0000080FE000000060000A0FE00841F7800DA
:1009E000851F7800881F78008A1F78004400F8006F
:1009F000080F2000280288004400A900000490008D
:100A000010059000A000900030019000C0019000FF
:100A10000200CA000380CA000030CB001A00CD00DB
:100A20004604C3000100CA004604C0001E04C00002
:100A30000605C0000100CD0021009800050D7800DA
:100A4000EABA9700052578004400F9004F057800C0
:100A50004F047800CF0278004F0278000080FE003B
:100A600000000600801F78004000B0000008EB0086
:100A70004F007800801F7800100090000018EB00F5
:100A80000018EB000008EB004F00780000000600A3
:100A90000000FA00008020004061880020FF200054
:100AA0005061880080C22000EEFF07004161800095
:100AB00070EB270080087800406180008080E800AB
:100AC000E07A28008008780040618000E40040005F
:100AD0000000EB0080087800100020008061880092
:100AE0000000EB00706188000080FA000000060042
:100AF0000000FA00608020009061880080FF2000E4
:100B0000A061880020C32000D6FF0700916180000B
:100B1000F028240080087800906180008080E80040
:100B200060662C008008780090618000E40040003E
:100B30000000EB00800878000000EB00D061880026
:100B40000080FA00000006000000FA0023E4A9007B
:100B500023C4A90023A4A90023C4BF00C040B3003C
:100B600023E4B70020C4BF00F043B20001C8B300C3
:100B70000140700020E4B7002024A9002004A80050
:100B80002124A80024C4BF003040B30024E4B700EF
:100B900035C4BF006F40600035E4B700414320001A
:100BA0009140780000CCB30000C0600034E4B7008E
:100BB000509D2100402188000000EB00302188007A
:100BC000302180000000D100902188000080FA00D0
:100BD000000006000000FA00C5FF0700ACFF070098
:100BE000D9FF0700264CA900262CA900266CA900D5
:100BF00000E226007060880026ACA90076ECA9000F
:100C00000080FA00000006000000FA00705B80001F
:100C1000EA0F500005003600705B8000C500DD0063
:100C200000EC2F0000804000906088009060800001
:100C3000806188000000EB00905B88000000EB0002
:100C4000D061880080C2200086FF070020C32000FA
:100C500084FF070023E4A800264CA800764CA800D7
:100C6000268CA8000000EB00E0608800415E800058
:100C700000082000008060000000E0000200320058
:100C8000C8EBA900C88BA80076ECA8000080FA0089
:100C9000000006000000FA0076ECA9000000EB005E
:100CA000905B88000000EB00906088000000EB0083
:100CB0003021880023E4A9000000EB00A060880038
:100CC000264CA900764CA900268CA900415E800024
:100CD00000082000008060000000E00002003A00F0
:100CE000C8EBA800C88BA8000080FA00000006002E
:100CF0000400FA00881F7800815A8000B026200086
:100D0000808F50004A003E00D15A8000D00220005F
:100D1000808F500006003E0030638000E10F5000DD
:100D200003003200C05B8000E10F500020003A0059
:100D3000815F8000008C2000808F50000C00360006
:100D400091618000F0282400800878009061800084
:100D50008080E80060662C00800878009061800048
:100D6000E40040000000EB00800878001E0037001F
:100D7000815F8000F0832000808F50001A003E00C9
:100D800091618000703D24008008780090618000AF
:100D90008080E800608F2C008008780090618000DF
:100DA000E40040000000EB00800878000E003700EF
:100DB000D05A8000FD0F50000B003E009161800072
:100DC0003033250080087800906180008080E80042
:100DD00000002C008008780090618000E400400052
:100DE0000000EB0080087800815F80000044200054
:100DF000808F500004003600D05980000000A00011
:100E0000D059880008003700815F8000F03B200047
:100E1000808F500004003E00D0598000E1FF2F0079
:100E200001006000D0598800CD82A80092003700F0
:100E3000815A800000282000808F50008E003600EC
:100E4000D15A800070032000808F500012003E00B5
:100E5000815A800010312000808F50000E003E002B
:100E600030638000E10F50000B003200C05B800057
:100E7000E10F500008003200815F80000030200048
:100E8000808F500004003E00405F800070006000D2
:100E90000000E00026003200825F8000F05A8000EF
:100EA000C600DD0000FC2F0000804000800F5100D4
:100EB0000C003600916180007014260080087800D4
:100EC000906180008080E80040E12A00800878007E
:100ED00090618000E40040000000EB008008780092
:100EE0003E003700825F8000F05A8000C600DD00BF
:100EF00000F02F0000804000800F510037003100CB
:100F00009161800000D72500800878009061800002
:100F10008080E80030332B008008780090618000EA
:100F2000E40040000000EB00800878002B00370050
:100F3000D15A800020022000808F500027003E0000
:100F4000815A800020302000808F500023003E0016
:100F5000815F8000F02B2000808F50001F003E003A
:100F6000815F800000182000808F50000C00360048
:100F700091618000F0FF250080087800906180007A
:100F80008080E80000002C008008780090618000DC
:100F9000E40040000000EB00800878000F003700FC
:100FA000815F8000F0132000808F50000B003E0016
:100FB0009161800000D72500800878009061800052
:100FC0008080E80030332B0080087800906180003A
:100FD000E40040000000EB0080087800805F8000A3
:100FE000F15A8000C608DD00810F500004003E0069
:100FF000815A800010312000808F5000040036009C
:10100000D05980000000A000D05988000F003700A0
:10101000825F8000F05A8000C600DD0000F42F00DF
:1010200000804000800F510008003100815A80008C
:1010300020302000808F500004003E00D0598000F6
:10104000E1FF2F0001006000D0598800815F80001F
:1010500000242000808F500002003600CD82A800BE
:1010600005003700815F8000F01F2000808F500056
:1010700001003E00CD82A900815A8000B0122000FC
:10108000808F500003003E0010012000E0598800CE
:1010900006003700815A800000142000808F500025
:1010A0000200360060042000E0598800805F800064
:1010B000E1598000C608DD00810F500004003600B1
:1010C000D05980000010A000D05988000B003700D4
:1010D000825F8000E0598000C600DD0000F02F0034
:1010E00000804000800F510004003100D059800082
:1010F000D1FF2F0001006000D0598800815F80007F
:1011000000342000808F500004003600D059800049
:101110000030A000D059880008003700815F8000AF
:10112000F02B2000808F500004003E00D05980003A
:1011300071FF2F0001006000D0598800815A8000A3
:10114000B0262000808F500004003E00D05980005F
:10115000F1FE2F0001006000D0598800815A800004
:10116000B0122000808F500004003600815A8000A9
:10117000A0322000808F500015003600D05980002A
:101180000020A000D0598800815F800000D020009E
:10119000808F500005003600D059800001102000DB
:1011A00001007000D059880015003700815F800071
:1011B000F0C72000808F500011003E00D059800001
:1011C000F1EF2F0001006000D05988000C003700BB
:1011D000815A800000142000808F500008003600E3
:1011E000815A800050312000808F500004003E0062
:1011F000D0598000B1FF2F0001006000D059880055
:101200003061800001022000010060000000E00069
:1012100008003200815F800000242000808F500091
:1012200004003600D05980000040A000D05988004A
:101230000D003700306180000102200001006000D5
:101240000000E00004003200815F8000F01F2000F9
:10125000808F500004003E00D0598000F1FE2F0026
:1012600001006000D0598800815F800000142000D8
:10127000808F500005003600D05980000102200008
:1012800001007000D059880016003700885F800088
:101290006140B900A2FC0700008FBE000800E0001A
:1012A00005003D0002002000037824001E00BE005F
:1012B000C7FC0700008FBE00D2CC2C00C334240032
:1012C0001E00BE001FFD07000000E0000100350009
:1012D00004003700D0598000F1FD2F0001006000AC
:1012E000D0598800815F8000F0132000808F50006B
:1012F00009003E00815A800010312000808F50008C
:1013000005003600D0598000010420000100700063
:10131000D05988000C003700815F8000F00F20005A
:10132000808F500004003600815A80002030200059
:10133000808F500004003E00D0598000F1FB2F0048
:1013400001006000D05988004F0478000080FA0046
:10135000000006000200FA00405E8000011020003C
:10136000010060000000E0000500320050638000D2
:10137000E70F50000A003600C90BA900080037002B
:101380007159800030062000808F50000400360024
:10139000506380000000E00001003A00C90BA80083
:1013A000405E8000620060000000E0000F0032003C
:1013B000625D8000735D800080722100010020006A
:1013C000800F5100818F590013003E00C82BA900E7
:1013D000C8CBA900C88BA8000000EB00205A8800E9
:1013E000260CA900762CA9000B003700625D800056
:1013F000735D800090C3210001002000800F510028
:10140000818F590004003600C82BA800C88BA800A3
:101410000000EB0050638800405E80000110200057
:10142000010060000000E0000C003200405E80001F
:10143000620060000000E0000800320030618000BF
:1014400001402000010060000000E00003003A00BD
:1014500010002000000F7800020037000000EB00B1
:10146000000F78001E40780061406000614060001D
:101470004301DD00D12C20009140780070CFB300F3
:1014800000C0600002407000CDE2B700A1588000AB
:10149000F00E2000808F500006003600B15880000A
:1014A000F00E2000808F5000020036000000EB009C
:1014B000B06088000080FA00000006000000FA001A
:1014C000706080004500DE006F00B900C400DE00DF
:1014D000705B8000808F50000D0031003061800013
:1014E000700060000000E00009003A00A0408000A9
:1014F000E20F500006003A00306180006400600096
:101500000000E00002003200262CA8002500370071
:10151000715B800030292000808F50000B00360066
:10152000A0408000E40F500004003A00B160800049
:10153000905F8000808F500004003E00405F80007C
:10154000620060000000E00016003200262CA900B6
:101550000000EB00A0608800405E80006100600039
:101560000000E00003003200C80BA900CD02A90072
:10157000C88BA800715B8000B0122000808F5000E3
:1015800008003E00405E8000010220000100600073
:101590000000E00003003200C8ABA900CCA2A90003
:1015A000C88BA800A1608000D0152000808F50005B
:1015B00008003600405E8000610060000000E0002E
:1015C00004003A00C80BA800C8ABA800CCA2A80031
:1015D000C88BA800405E8000610060000000E00051
:1015E0000300320050002000505A880002003700EB
:1015F000800C2000505A8800405E8000640060002B
:101600000000E00006003A00B06380006100600066
:101610000000E00002003200C84BA800C88BA80000
:101620000080FA00000006000000FA00F059800077
:101630000000E0000C003200105A8000E10F500062
:101640000900360020002000105A8800F059800060
:101650000000E000040032000000EB00F0598800B8
:1016600010002000005A8800005A80000000E000AE
:1016700004003A00015B800040022000808F50008F
:10168000D2003600005B8000E30F5000CF00360030
:10169000005B80000000E00005003200025B80007B
:1016A000C05D2000110009000280D800905E880013
:1016B00090598000C200DE00A05980008080400068
:1016C000A05980004200DE0000805000A059880030
:1016D0000000EB0090598800A05980006101B8001B
:1016E00000802A00B100200018FC0700B0598800D3
:1016F000445D8000555D8000005B80006101B800A2
:101700000400BE0011FC07000002BE00D000200053
:101710000023B8006020B9000701780000014100F3
:101720006D28B90000014100820378004A39DD00CC
:101730004630DE0000007100C638DE00605D8800C3
:10174000715D88006000B800405D8800515D8800D0
:10175000A45D8000B55D8000900120000023B800EA
:101760006020B90007017800000141007928B90024
:101770000001410082037800005B80006101B80035
:101780000600BE00F1FB07004C09DD004400DE004E
:1017900000007100C408DE00605A88006000B800D4
:1017A000A05D8800B15D88000000EB00005A880051
:1017B0000000EB00005B8800705A8000805A8800AF
:1017C000C05A8000D05A88000000EB00705A880090
:1017D0000000EB00C05A8800CAC2BF006840600029
:1017E0000004E0000E003A00405E800062006000ED
:1017F0000000E0000A003200215A8000505A8000A8
:10180000808F500006003600705B8000F9004000B9
:1018100070598000808F500001003600CC62A80013
:10182000815A8000501F2000808F50000900360030
:101830003061800001022000010060000000E00033
:1018400004003A0026ACA80026CCA80076CCA8005C
:101850000E003700815A8000501D2000808F5000FC
:101860000A003E003061800001022000010060009B
:101870000000E0000500320026ACA90026CCA8003C
:1018800076CCA900F03F2000102A880018FD070040
:10189000915A8000905A80000000D1008080500052
:1018A000805A80000000D10000804000905A8800DB
:1018B000605A80008102200080804000905A8000A1
:1018C000808F50000E003100A0408000E40F5000D7
:1018D00008003A00405E8000011020000100600016
:1018E0000000E00003003A00905A8000A05A8800EF
:1018F00005003700605A8000A05A880002003700B7
:10190000905A8000A05A8800905A8000B05A8800EF
:10191000905A80006300B9004500DE007800500056
:10192000F05A8800316180000004200000806000CF
:101930000000E0000F003200805A8000A05A8800AA
:1019400091618000F0282400800878009061800078
:101950008080E80060662C0080087800906180003C
:10196000E40040000000EB008008780026CCA900CD
:101970000F0037003061800001022000010060008C
:101980000000E00003003A00F03F2000102A880029
:101990000700370030618000010220000100600074
:1019A0000000E0000200320040292000102A8800D8
:1019B00030618000610060000000E000050032003E
:1019C000905A8000C0608800020037000000EB00E1
:1019D000005A88000080FA00000006000C00FA009F
:1019E000881F780030618000640060000000E00023
:1019F0008601320030638000E10F500003003200A6
:101A0000C05B8000E10F500021003A00306180008F
:101A100001022000010060000000E0000C003A001C
:101A200091618000F0282400800878009061800097
:101A30008080E80060662C0080087800906180005B
:101A4000E40040000000EB00800878001000370040
:101A50003061800001022000010060000000E00011
:101A60000B0032009161800000D7250080087800CB
:101A7000906180008080E80030332B00800878007F
:101A800090618000E40040000000EB0080087800D6
:101A9000815A8000102C2000808F500004003600F6
:101AA000815A8000F02D2000808F50000800360001
:101AB000815A800090152000808F5000060036006B
:101AC000815A800070172000808F500002003E0075
:101AD00026ECA80011003700815A80004014200035
:101AE000808F50000C003600815A8000C018200002
:101AF000808F500004003600815A8000C02A2000E8
:101B0000808F500004003600815A8000402F200052
:101B1000808F50000100360026ECA900405F800055
:101B2000610060000000E00004003A00C062800034
:101B3000640060000000E00006013A00A05F800041
:101B4000B05B8800B15B800040092000808F5000AE
:101B50000200360040092000B05B8800B15B8000C5
:101B6000B0062000808F500002003E00C00620001A
:101B7000B05B8800B0638000700060000000E0008F
:101B800006003200768CA900B05B8000C500DD0045
:101B900000E2250000804000706088003061800015
:101BA00001022000010060000000E0005E003A0039
:101BB000815F800000842000808F50000600360086
:101BC000815F8000F09B2000808F500002003E006B
:101BD000270CA80009003700815F8000F077200003
:101BE000808F500004003600815F800000A8200034
:101BF000808F500001003600270CA900885F80000C
:101C00006140B90046FA0700400798005107980064
:101C10000800E00007003D000200200003782400D7
:101C20004E009000DE00900069FA0700400798001F
:101C3000510798000040EB00604798000200200028
:101C4000834424004E009000DE009000CFFA07008D
:101C50000000E00001003C000200370010C0B300AB
:101C6000604798006E4090000004A2000004E0006D
:101C700020003A00885F80006140B90028FA070020
:101C800010079800210798000800E00007003D00B9
:101C900002002000037824001E009000AE00900097
:101CA0004BFA070010079800210798000040EB004E
:101CB000004F780002002000434824001E009000DE
:101CC000AE0090009FFA07000000E0000100350020
:101CD0000200370010C0B300004F78001E407800AB
:101CE0000004A2000004E00002003A00276CA800F3
:101CF00009003700815F8000002C2000808F500099
:101D000004003600815F800000482000808F500072
:101D100001003600276CA900272CA90010392000EB
:101D2000F05B88003800370030618000010220003D
:101D3000010060000000E00033003200815F80009D
:101D400000B42000808F500006003600815F8000C4
:101D5000F0CF2000808F500002003E00270CA8002A
:101D600009003700815F8000F0A72000808F5000BD
:101D700004003600815F800000DC2000808F50006E
:101D800001003600270CA900276CA900815F8000A4
:101D900000702100808F50000C003600815F8000B1
:101DA000F0B72100808F500008003E00815A80006B
:101DB000C02C2000808F500004003E00272CA8007B
:101DC000C0392000F05B88000F003700815F800081
:101DD000F05F2100808F500008003600815F800096
:101DE00000C82100808F500004003E00815A80000E
:101DF000602D2000808F500003003600272CA900A2
:101E000010392000F05B880030618000010820005C
:101E1000010060000000E0000B0032003061800033
:101E200001102000010060000000E0000600320008
:101E3000B05B8000C500DD0000562500008040003A
:101E40008060880020003700306180000108200099
:101E5000010060000000E0000B00320030618000F3
:101E600001802000010060000000E0000600320058
:101E7000B05B8000C500DD00004825000080400008
:101E80008060880010003700306180000120200051
:101E9000010060000000E00006003200B05B80003E
:101EA000C500DD0000F8250000804000806088004B
:101EB00005003700B05B8000C500DD0000E22500B2
:101EC0000080400080608800816080007060800039
:101ED000808F500009003100E0608000E40F500066
:101EE000120036000000EB00E060880070608000A7
:101EF0000000E900706088000C00370081608000FD
:101F000070608000808F500008003600E060800024
:101F1000E40F5000050036000000EB00E060880090
:101F2000706080000000E80070608800766CA90096
:101F300023C4BF0001C8B300014060000004E000FA
:101F40001F003A0023E4A800008625009060880066
:101F50001B003700768CA800270CA9000000EB00BE
:101F6000E06088003161800000082000008060008F
:101F70000000E00003003200008625007060880049
:101F80000200370000E2260070608800815A80005D
:101F9000302C2000808F500007003600766CA8009F
:101FA00020C32000AFFA0700805A800090608800AC
:101FB00023E4A90002003700766CA90023E4A800FE
:101FC00070608000C500DE00D0FD2F000080400062
:101FD000D05B8800A0408000E20F500008003A006B
:101FE0009160800070608000808F5000040031009C
:101FF0009060800080618800268CA8000300370074
:102000007060800080618800268CA9004F047800F1
:102010000080FA00000006000000FA008640A900D7
:102020000080FA00004006000000FA0060608000B6
:10203000610060000000E000030032000C0CA90009
:1020400010002000B05F88000C4CA8000C6CA900A8
:102050000C8CA900405E80003060880007CCBF0077
:102060008080FB0006CCBF000080FB008080400029
:10207000F00F200080806000001020000100500060
:1020800080007800F00F2000008060004060880031
:1020900023C2BF00614060000004E000FCFF32008A
:1020A000A00E2000201188000000EB009063880043
:1020B00010002000206088000080FA000000060068
:1020C0000200FA00D05F80000000D10002608000B2
:1020D0008000400080BC20000080400002087800A2
:1020E000D05F8000000F7800000220009E00780082
:1020F000808F500005003200800220009E00780092
:10210000808F500003003200390037007609070045
:102110003700370030618000610060000000E0009F
:1021200033003200815F8000F0DF2000808F50009C
:102130000D003600805F80006500B9004900DE00B8
:10214000A0638800A1638000E0052000808F50001C
:1021500022003E00A0638000F105200000805000B6
:10216000905F88001D003700815F80002083200081
:10217000808F50000D003600805F80006500B90040
:102180004800DE00A0638800A1638000F007200003
:10219000808F500011003E00A063800001082000E5
:1021A00000805000905F88000C003700805F800046
:1021B0006500B9004700DE00A0638800A1638000CD
:1021C000800A2000808F500004003E00A063800041
:1021D000910A200000805000905F8800905F80008E
:1021E000FD0F500002003E00E0012000905F8800DB
:1021F0000080FA00000006003600F800809FBE0054
:10220000829FBE00849FBE00869FBE000400FA002D
:1022100022C2BF00624060000004E0000100320002
:102220002222A90022C2BF0030118000C05F8800B6
:1022300060608000640060000000E00031013A004E
:10224000B05F8000100798001E009000E40F50005F
:102250008B0032001E009000E40F50000A003E0088
:102260001E009000E20F5000290032001E00900076
:10227000E20F500046003E001E009000E10F5000AB
:102280000B0032001C0137001E009000E60F5000CA
:10229000E70032001E009000E60F5000A500390054
:1022A0001E009000E70F50000801320012013700B5
:1022B000C05F8000E50F500004003200C15F800065
:1022C00000052000808F50006F013A0023C2BF003C
:1022D000614060000004E000FCFF3200800120004B
:1022E00020118800B05F80000000E800B05F880027
:1022F000C05F8000E50F500002003A000C2CA900DE
:10230000010037000C2CA8000C0CA8005E0137005F
:1023100060608000610060000000E0001900320091
:1023200023C2BF00614060000004E000FCFF3200F7
:102330008001200020118800B05F80000000E800CC
:10234000B05F8800C05F8000D05F8800C05F800001
:10235000E05F880060608000620060000000E000D4
:1023600049013A00D05F80000000D10080004000A9
:1023700080BC2000008040001000780010608800C1
:102380004101370010002000B05F88003E01370097
:1023900060608000610060000000E00035003200F5
:1023A00060608000620060000000E0001D003A00F4
:1023B000E15F8000C05F800000804000E05F880037
:1023C000E15F8000F00F2000008060000000E0006E
:1023D0000A003A0023C2BF00614060000004E00030
:1023E000FCFF32007000200020118800B05F8000E8
:1023F0000000E800B05F88002301370023C2BF005F
:10240000614060000004E000FCFF32001008200082
:102410002011880010002000B05F88000C0CA9007B
:102420001901370060608000620060000000E00079
:102430001501320023C2BF00614060000004E000CB
:10244000FCFF32008001200020118800B05F800076
:102450000000E800B05F8800C05F800001ECB700BA
:10246000E15F8000C05F800000804000E05F880086
:102470000501370010002000B05F8800020137001E
:1024800060608000610060000000E0002600320013
:1024900060608000620060000000E0000E003A0012
:1024A00023C2BF00614060000004E000FCFF320076
:1024B00003CCBF000080FB002011880003CCBF00CC
:1024C0000080FB00F05F8800B05F80000000E80043
:1024D000B05F8800EC003700606080006200600040
:1024E0000000E000E800320023C2BF00614060004D
:1024F0000004E000FCFF3200800120002011880071
:10250000B05F80000000E800B05F8800C05F80001E
:1025100000ECB700E15F8000C05F800000804000F9
:10252000E05F8800D800370010002000B05F88000E
:10253000D500370060608000610060000000E000AE
:102540003800320060608000620060000000E0003F
:1025500010003A0023C2BF00614060000004E000A8
:10256000FCFF320002CCBF000080FB00201188007D
:10257000F15F800002CCBF000080FB0000804000C3
:10258000F05F8800B05F80000000E800B05F880066
:10259000BD00370060608000620060000000E00065
:1025A000B9003200E15F8000C05F80000080400021
:1025B000E05F8800E15F8000F00F20000080600095
:1025C0000000E0000D003A0023C2BF00614060003F
:1025D0000004E000FCFF320000072000201188000A
:1025E000B05F80000000E800B05F8800C05F80003E
:1025F000E05F8800B2FE0700A300370023C2BF00DF
:10260000614060000004E000FCFF32001008200080
:102610002011880010002000B05F88000C0CA90079
:102620009900370010002000B05F88009600370046
:1026300060608000610060000000E0002000320067
:1026400060608000620060000000E0000E003A0060
:1026500023C2BF00614060000004E000FCFF3200C4
:10266000F15F80000010200081005000F00F20007A
:102670000080600020118800B05F80000000E8004A
:10268000B05F8800800037006060800062006000FA
:102690000000E0007C00320023C2BF006140600007
:1026A0000004E000FCFF3200E05F800020118800A1
:1026B000B05F80000000E800B05F88007200370063
:1026C00010002000B05F88006F003700606080005D
:1026D000610060000000E0000400320010002000F3
:1026E000B05F88000C0CA9006700370010002000C4
:1026F000B05F88006400370010002000B05F8800E1
:102700006100370090638000E40F50005E003600E7
:1027100020608000000F78001E007800E20F50005B
:10272000260032001E007800E20F500004003E0038
:102730001E007800E10F5000080032005000370002
:102740001E007800E30F5000290032001E007800C0
:10275000E40F50003200320049003700C15F8000B2
:10276000A00E2000808F50000700320023C2BF005F
:10277000614060000004E000FCFF3200A00E200079
:10278000201188000A00370023C2BF0061406000AA
:102790000004E000FCFF320007CCBF000080FB001B
:1027A00020118800206080000000E8002060880080
:1027B0000000EB00906388003300370023C2BF00A5
:1027C000614060000004E000FCFF320006CCBF0066
:1027D0000080FB0020118800206080000000E800DD
:1027E000206088000000EB0090638800260037001E
:1027F00023C2BF00614060000004E000FCFF320023
:102800004060800020118800206080000000E80007
:10281000206088000000EB00906388001A003700F9
:10282000C05F8000F80F500007003A001000200041
:1028300020608800C88BA9000C6CA8000C8CA90033
:102840000C4CA90010003700100020002060880008
:1028500023C2BF00614060000004E000FCFF3200C2
:10286000A00E200020118800C88BA8000C6CA800C6
:102870000C8CA8000000EB00906388000200370079
:1028800010002000206088008560A9000080FA0008
:102890004F03BE004F02BE004F01BE004F00BE00FE
:1028A0003600F900004006000000FA00416A2000EE
:1028B0009140780000CCB30000C06000F040B3004D
:1028C000A4E6B700D16D20009140780000CCB300A1
:1028D00000C060003040B300DDE6B7002062A90010
:1028E00022A2A900A0012000401188008560A90053
:1028F000910A200091407800F0C8B30000C0600049
:1029000001C4B30001407000A9E0B7009560A800C1
:1029100021E2A8002342A80010002000B05F880038
:102920000C8CA9000C6CA900E0012000905F8800CD
:10293000C80BA900C8ABA900C82BA900C90BA900E6
:10294000C84BA900C86BA800C8EBA800C88BA8009A
:1029500000082000A05F8800E80BA800E82BA90071
:10296000E8CBA900E84BA800E88BA800E86BA90019
:10297000300020003C0407000080FA000000060040
:10298000801F7800811F7800821F7800831F7800E5
:10299000841F7800851F7800440120009563800023
:1029A0000428E600722CEC00041980001519800040
:1029B0008480520001003D00850052000400200088
:1029C000555980006559880045598000555988003F
:1029D00035598000455988002559800035598800AF
:1029E000155980002559880005598000155988001F
:1029F00005024200F5588000055988000502420092
:102A0000E5588000F558880005024200D55880003E
:102A1000E558880005024200C5588000D558880056
:102A200005024200B5588000C558880005024200E2
:102A3000A5588000B558880005024200A1588800BA
:102A40000102420043A2DE0074598800302BEC00E2
:102A5000322BEC00705A80000020E60003003700A3
:102A6000745A880076ACA8000100370076ACA90043
:102A7000255980001401200004A8E6000C0037004E
:102A80001559800004A8E60009003700B5588000F9
:102A90000428E60006003700A55880000428E60058
:102AA000030037003E0BA800422BEF00302BEF0055
:102AB0000603A90091C0A900CF0278004F02780058
:102AC000CF0178004F017800CF0078004F007800E8
:102AD00000400600801F7800811F7800821F780068
:102AE000831F7800841F7800851F7800881F780076
:102AF0008A1F78004400F8004400A800CA82AE0093
:102B00000800370041062000145B80000120E60029
:102B1000622BEC003100200001A0E600760CA8003A
:102B200001003700622BEF00764CAF0023E4A800D1
:102B3000515B800034198000746288002419800081
:102B4000C4598800655B800085824000745B80000A
:102B500084825200655B8800C2AADE00755B880033
:102B6000643B200004A8E600760CA800760CAE00BA
:102B7000C2150400000000002624EF00B217040074
:102B800000000000F45B8000048250000600340066
:102B9000650920001301C000180180004245DD00D6
:102BA000D815040000000000080020000805780087
:102BB00075628000041E200004825200050034006B
:102BC000C50020001301C00015018000EC150400B1
:102BD000000000000500200008844200742BED0076
:102BE00038003A0044062000780BA900768CAF002C
:102BF00008003700D25B80000208E60003003700BF
:102C0000441F2000780BA90002003700780BA800B1
:102C100034002000A45B880080C22000C508DD00CD
:102C2000768CAF001900370040019000828150007F
:102C30000B003D0081015100411ADD000408E6004F
:102C400012003700847020000498E6008380500052
:102C5000845720000498E600838050000B00370062
:102C6000F4FF270001025200C11ADD000520E60032
:102C700006003700847020000498E600838040003E
:102C8000845720000498E6008380400031009800BB
:102C90004480A800A604020000000000A0009000EC
:102CA000020020000208E60022009800A000900028
:102CB0000A08E600010578008A805000210098008B
:102CC000914088003A4BAE00080037007C2BEC00A6
:102CD000E45B8000250020003B0BAE0015002000C7
:102CE0000520E6009F0037007C2BEF004400F80031
:102CF0004580A8004400A80095408000A4588000AA
:102D00003A0BAF0064598000B25A800002A0E6007E
:102D1000020278001301C0007C00C800210180007D
:102D200010018000A45A8000621D2000A558800078
:102D30000228E600021020000220E60002027800CD
:102D400004017800840278001301C0004400C80028
:102D500014018000110009004488D8008002780026
:102D60003416200076CCAE00C40D20001301C00044
:102D70002101800010018000041920000410E600E9
:102D800004017800441F20000490E600040178004C
:102D9000110009004288D80080017800001E200040
:102DA0004500DD000098E600800178007462800034
:102DB00076ACAF00C45A88003AEBAE000900370089
:102DC0003A0BAF0007003700C45980004220DD00F5
:102DD0004122DD003AABAF000400200000024200B7
:102DE00002003700746280004522DD0020C320000D
:102DF00034009800430098004400F9004480A80083
:102E0000A6040200000000003A4BAE00A604020037
:102E1000000000003A2BAE00A604020000000000F3
:102E2000A00090000808E600880078008880500024
:102E300021009800020020000208E600220098000D
:102E4000A00090003AEBAE00220037003A0BAF0032
:102E50001700370033588000C119DD003A6BAE000F
:102E60001C0037004558800085824100545880007E
:102E70008482520045588800C3AADE005558880055
:102E80008501780065588000858241007458800073
:102E90008482520065588800C3AADE0075588800F5
:102EA00001A8E60085007800858050000900370001
:102EB0003ACBAF000700370075598000C22ADD0009
:102EC000C129DD008582410001A8E6008500780067
:102ED0008580500094588000810278001301C00062
:102EE0004E00C80011018000A53D20001301C00064
:102EF0004900C8001301800076CCAE000A003700FC
:102F0000925B80000390E600020037005000200032
:102F10000001410076ECAE0002002000925B8800C8
:102F20000110E60082007800200020000008E60082
:102F300080007800030078000088E60080007800B8
:102F4000C188DE0031218800C108DE00912188009F
:102F5000549D21003A8BAE0034A62100945888007D
:102F6000442188000623A90091E0A9004400F9004B
:102F70004F0578004F047800CF0278004F027800A8
:102F8000CF0178004F017800CF0078004F00780023
:102F900000400600640C00000E000000020000006B
:102FA000000001000000000000000000000C000014
:102FB0000000000012080000FE02000002000000F5
:102FC00000000100000000000200040000060000F4
:102FD00009000B00000D00000F001100001300009D
:102FE00016001800001A00001C001E00002000003F
:102FF000220025000027000029002B00002D0000E2
:103000002F0031000034000036003800003A000084
:103010003C003E000040000042004400004600002A
:1030200049004B00004D00004F00510000530000CC
:1030300055005700005900005B005D00005F000074
:10304000610063000065000067006900006B00001C
:103050006D006F00007100007300750000770000C4
:1030600078007A00007C00007E0080000082000072
:10307000840086000087000089008B00008D00001E
:103080008F009000009200009400960000980000CD
:1030900099009B00009D00009E00A00000A200007F
:1030A000A300A50000A70000A800AA0000AC000033
:1030B000AD00AF0000B00000B200B30000B50000EA
:1030C000B700B80000BA0000BB00BC0000BE0000A2
:1030D000BF00C10000C20000C400C50000C600005F
:1030E000C800C90000CA0000CC00CD0000CE00001E
:1030F000D000D10000D20000D300D50000D60000DF
:10310000D700D80000D90000DA00DC0000DD0000A4
:10311000DE00DF0000E00000E100E20000E300006C
:10312000E400E50000E60000E700E80000E9000038
:10313000EA00EA0000EB0000EC00ED0000EE000009
:10314000EF00EF0000F00000F100F20000F20000DC
:10315000F300F40000F40000F500F60000F60000B3
:10316000F700F70000F80000F800F90000F900008F
:10317000FA00FA0000FB0000FB00FC0000FC00006D
:10318000FC00FD0000FD0000FD00FE0000FE000050
:10319000FE00FE0000FF0000FF00FF0000FF000037
:1031A000FF0000000100010000010000010001001B
:1031B0000001000001000100000100000100010009
:1031C00000010000010001000001FF0000FF0000FD
:1031D000FF00FF0000FF0000FE00FE0000FE0000F8
:1031E000FE00FD0000FD0000FD00FC0000FC0000F2
:1031F000FC00FB0000FB0000FA00FA0000F90000F0
:10320000F900F80000F80000F700F70000F60000F1
:10321000F600F50000F40000F400F30000F20000F6
:10322000F200F10000F00000EF00EF0000EE0000FF
:10323000ED00EC0000EB0000EA00EA0000E900000D
:10324000E800E70000E60000E500E40000E300001D
:10325000E200E10000E00000DF00DE0000DD000031
:10326000DC00DA0000D90000D800D70000D600004A
:10327000D500D30000D20000D100D00000CE000065
:10328000CD00CC0000CA0000C900C80000C6000084
:10329000C500C40000C20000C100BF0000BE0000A5
:1032A000BC00BB0000BA0000B800B70000B50000C9
:1032B000B300B20000B00000AF00AD0000AC0000F1
:1032C000AA00A80000A70000A500A30000A200001B
:1032D000A0009E00009D00009B0099000098000047
:1032E000960094000092000090008F00008D000076
:1032F0008B008900008700008600840000820000A7
:1033000080007E00007C00007A00780000770000DA
:1033100075007300007100006F006D00006B00000D
:10332000690067000065000063006100005F000045
:103330005D005B000059000057005500005300007D
:1033400051004F00004D00004B00490000460000B6
:1033500044004200004000003E003C00003A0000F3
:10336000380036000034000031002F00002D00002E
:103370002B0029000027000025002200002000006B
:103380001E001C00001A00001800160000130000A8
:1033900011000F00000D00000B00090000060000E6
:1033A0000400020000000000000000000000000017
:1033B000000000000000000000000000000000000D
:1033C000760C00000200000000000000100B00005E
:1033D000700000000200000000004D001900000015
:1033E00000000000000000000000000000000000DD
:1033F00000000000000000000000000000000000CD
:103400000000000000000000BC02000000000000FE
:103410000100140000000000000000000000000097
:103420000000010000C800000000000000000000D3
:10343000000000000000000000000000000000008C
:10344000000000000000000000000000000000007C
:10345000000000000000000001000000000100006A
:103460008000000000000000000091000300000048
:103470000E0C00002E0000000000000000080000FC
:103480000C00000000000000F20F00000C00000023
:1034900000000000720C00000400000002000000A8
:1034A0000000000000000000C80B00004600000003
:1034B00000000000800B0000480000000200000037
:1034C00000000000000000000000000000000000FC
:1034D00000000000000000000000010000000000EB
:1034E00000000000000000000000000000000000DC
:1034F00001000000000000000000000000000000CB
:1035000001000000000000000000000000000000BA
:1035100000000000000000000000000000000000AB
:103520003C0C00001400000002000000000000003D
:10353000000000000000000000DC0500DC055E006B
:103540000100000000000000500C0000140000000A
:10355000000000000C080000060000000000000051
:10356000EC0F00000600000000000000000000005A
:103570000200FA004D030700910307009F030700B4
:10358000C9FC070093F50700A303070077030700B2
:10359000200020003401070001E3A80020002000E3
:1035A0003101070001E4A800100020002E010700EF
:1035B000030037009CFA0700200020002A010700C2
:1035C00060608000680060000000E000F9FF3200E9
:1035D00060F70700B9F70700405E800070006000E8
:1035E0000000E000050032006060800068006000BC
:1035F0000000E000010032008BFA0700805D8000CF
:10360000915D8000505F8800B15980008059800032
:103610000100B8004609DD004A00DE00000071002C
:10362000CA08DE0010588800105880000000D10041
:1036300000588800005880004006B00000588800FC
:103640000400370000588000B1E82F00010040005E
:10365000005888000158800040172000808F5000DB
:10366000F8FF3E00105880004010B000105888004D
:103670000400370010588000B1E82F00010040001E
:10368000105888001158800040172000808F50008B
:10369000F8FF3E000058800080004000608120005C
:1036A0000080400090007800905A80000100B8002F
:1036B0004909DD004700DE0000007100C708DE0098
:1036C0002058880010588000800040006081200051
:1036D0000080400090007800905A80000100B800FF
:1036E0004909DD004700DE0000007100C708DE0068
:1036F00030588800A0408000000F78001E0178003C
:10370000E20F51001F0032001E007800E20F50004F
:1037100004003E001E017800E10F51000800320055
:10372000C80037001E007800E30F50004B00320045
:103730001E017800E40F51008A003200C1003700FA
:1037400030618000610060000000E0000300320092
:1037500020002000A0408800C0003700205A8000D0
:10376000E90F5000BD003E00405F800001042000D2
:10377000010060000000E000B8003200CC62A90047
:10378000B6003700405E8000620060000000E0008C
:103790000E003A0030618000640060000000E0002C
:1037A000010032003BF50700405F8000010420006B
:1037B000010060000000E00001003200CC62A900BE
:1037C00010002000A0408800A40037003061800075
:1037D000640060000000E0000E003A00405F8000DE
:1037E000620060000000E0009C003A00405E800043
:1037F000640060000000E00098003A003061800042
:10380000610060000000E00094003200FEF4070058
:1038100092003700405F8000620060000000E0001E
:1038200004003A00405E8000640060000000E00098
:103830000200320017F507008800370067F807001C
:10384000405E8000610060000000E0008300320004
:1038500030002000A040880080003700405E8000DB
:1038600001102000010060000000E00004003200B0
:10387000405E8000620060000000E0000A003A0044
:10388000405F800001042000010060000000E000B3
:1038900005003A000000EB00B06088004000200006
:1038A000A04088006D003700405E8000640060002A
:1038B0000000E00011003A00405E800061006000FE
:1038C0000000E0000D003200405F800062006000F8
:1038D0000000E00009003A00405E800062006000E5
:1038E0000000E0000F003A00405F8000010420006B
:1038F000010060000000E0000A003200E5F407006B
:10390000405F800001042000010060000000E00032
:1039100001003200CC62A90020002000A0408800F5
:103920004E0037002DF80700C06280006400600080
:103930000000E00049003200405F80006800600045
:103940000000E00045003A00405F800001022000D6
:10395000010060000000E00040003A00CD02A80035
:103960003E003700405E8000011020000100600032
:103970000000E00007003200405E8000620060004E
:103980000000E0000300320030002000A04088006A
:1039900032003700405E8000610060000000E000FF
:1039A00004003200405F8000620060000000E00020
:1039B0000A003200B7F40700405F800001042000D5
:1039C000010060000000E00001003200CC62A900AC
:1039D00010002000A040880020003700405E8000DA
:1039E000640060000000E00002003200A9F407005B
:1039F0001A003700C0608000715B80006109B00070
:103A0000810F500008003600B06380006200600043
:103A10000000E00009003200405E800061006000AC
:103A20000000E00005003200405F8000010420003B
:103A3000010060000000E00008003200CC62A90034
:103A40000600370010002000A0408800C82BA90005
:103A5000C80BA900C8ABA900CCA2A900F2F60700C8
:103A600015010700DAFE37000200FA00000F7800A7
:103A70000000EB00806388000000EB0020638800FA
:103A8000206380009E0F5000FDFF39000080FA0087
:103A900000000600809FBE000000FA003061800038
:103AA00001022000010060000000E00007003A0071
:103AB000C00A2000106188004001200020618800B9
:103AC000B0002000706388000B0037003061800078
:103AD00001022000010060000000E000060032004A
:103AE000E00B200010618800F000200020618800B9
:103AF00010022000706388001161800070598000FE
:103B0000808F50000E003600F0608000E10F400012
:103B100003003200F06080000000E800F0608800E0
:103B2000F160800020618000808F50000F0036001F
:103B3000274CA8000000EB00006188000B00370054
:103B400010618000F000400070598000808F5000AC
:103B5000060031000000EB00F0608800006180008A
:103B6000F60F500001003600274CA900806380004A
:103B70000000E8008063880080638000E20F50004E
:103B80006F0036000000EB00806388002063800037
:103B90000000E80020638800D0608000E10F400052
:103BA00003003200D06080000000E800D060880090
:103BB000D0608000EA0F5000010036009640A80057
:103BC000405E8000620060000000E0002F003200D4
:103BD00000618000E10F40000300320000618000BE
:103BE0000000E80000618800205A8000E10F4000DA
:103BF00003003200205A80000000E800205A8800AC
:103C0000205A8000FD0F500006003600CAC2BF00D7
:103C1000684060000004E00002003200260CA800AA
:103C2000762CA800205A8000E90F500007003600CB
:103C3000405E800001042000010060000000E00000
:103C400002003A00C8CBA800C88BA80040638000DF
:103C5000E10F400003003200406380000000E800F4
:103C6000406388004163800030062000808F500050
:103C70000A00360030638000E10F500007003A0070
:103C80000000EB00306388000400370010002000C3
:103C9000306388000000EB004063880030618000E2
:103CA000620060000000E0000A0032003061800025
:103CB000640060000000E00006003200A0608000A8
:103CC000E10F400003003200A06080000000E80027
:103CD000A0608800405F80000104200001006000B7
:103CE0000000E00007003200D1598000F0F72F00FB
:103CF00000806000D05988000000EB0060638800FD
:103D00000F00370061638000E0FF2000808F5000CB
:103D100003003E00606380000000E80060638800EC
:103D20006163800040062000808F50000400360050
:103D3000D05980000108200001007000D05988008F
:103D4000A0408000E40F50000B003A00A158800012
:103D5000E0062000808F500007003E00B158800030
:103D6000E0062000808F500003003E00B06080001D
:103D70000000E800B0608800F05980000000E0001A
:103D800003003200105A80000000E800105A88003A
:103D9000005B80000000E800005B8800506080004D
:103DA0000000E8005060880091608000F0C72600A5
:103DB000808F500012003E0090608000C700DE003F
:103DC000400D200001005000805B8800805B800077
:103DD000E20F500003003E0030002000805B8800AE
:103DE00009003700815B800000052000808F5000B3
:103DF0000500360000052000805B880002003700C7
:103E000010002000805B880030618000640060004A
:103E10000000E0000800320091608000E0FF270011
:103E2000808F500004003E0090608000815B800025
:103E30000100400090608800E0608000E10F4000D9
:103E400003003200E06080000000E800E0608800CD
:103E50007159800070638000808F5000070031002E
:103E600050638000E70F50000F003E005063800059
:103E70000000E800506388000B003700706380008A
:103E8000F400400070598000808F5000060031001F
:103E9000506380000000E0000300320050638000A7
:103EA0000000E900506388008460A9000080FA00E7
:103EB0004F00BE00004006000000FA00805C800059
:103EC000915C8000A25C8000B35C80001FF2070060
:103ED0000001BE00A05C8000B15C800002004000D8
:103EE000838048008100D1000080D300A05C88005E
:103EF000B15C8800A05C8000B15C8000E00F5000E5
:103F0000E08F580004003A0010002000010020005B
:103F1000A05C8800B15C8800005D8000115D8000BD
:103F2000225D8000335D800008F207000001BE00C2
:103F3000205D8000315D80000200400083804800E9
:103F40008100D1000080D300205D8800315D8800B1
:103F5000205D8000315D8000E00F5000E08F580050
:103F600004003A001000200001002000205D8800BD
:103F7000315D88000000EB00305C8800A05C8000B0
:103F8000B15C800080007800305C800000804000E0
:103F9000605E8800005E8000115E8000805E8800A8
:103FA000225D8000335D8000700E20000012B8009A
:103FB0006010B9000503780000034300700E200074
:103FC0000098B90000034300860278004C29DD0008
:103FD0004420DE0000007100C428DE00505E88002E
:103FE000205C8000305F8800005E8000115E8000F1
:103FF000225D8000335D8000D4F10700205E8800E0
:10400000315E8800205E8000315E80004F0ADD0056
:10401000C102DE00850272004F02DD00A05C80005C
:10402000B15C80006101B8000400BE00C7F1070068
:10403000705E88000080FA0000000600809FBE00CD
:10404000829FBE00841F7800869FBE00889FBE00AE
:104050000000FA0040198000005C880050198000C0
:10406000205C8800A058800065004000105C88003B
:10407000005C80006D00B900C600DE00005C8000BE
:1040800000804000005C8800005C80006104B80093
:10409000005C80006101B8000243B80003C0B900B1
:1040A00007027800000242000990B90000024200B5
:1040B00084037800465C8800575C8800625C80005E
:1040C000735C8000405C8000515C80000201400015
:1040D00083814800805C8000915C8000000051007A
:1040E00081805900605C8800715C8800605C8000A1
:1040F000715C80004709DD004900DE0000007100AE
:10410000C908DE00805C8800915C8800105C80003B
:104110006104B800105C80006101B8000243B8007F
:1041200003C0B90007027800000242000990B900FC
:104130000002420084037800C65C8800D75C8800D7
:10414000E25C8000F35C8000C05C8000D15C800099
:104150000201400083814800005D8000115D800005
:104160000000510081805900E05C8800F15C88000B
:10417000E05C8000F15C8000470ADD004900DE0061
:1041800000007200C908DE00005D8800115D880033
:10419000425D8000535D8000C05C8000D15C800087
:1041A0000200400083804800405D8800515D880027
:1041B000105C80006101B800A05D8000B15D8000EE
:1041C0000200400083804800A05D8800B15D880047
:1041D000005C80006103B800105C80006101B800E1
:1041E0000234B80003B0B9000902780000024200AE
:1041F0000790B9000002420084047800700E20008D
:104200000041B8006040B90003027800000242009B
:10421000700E200000C8B90000024200840178003E
:10422000411ADD004F10DE0000007200CF18DE00E2
:10423000C05D8800D15D8800E25D8000F35D800094
:10424000C05D8000D15D8000020140008381480094
:10425000005E8000115E80000000510081805900E6
:10426000E05D8800F15D8800E05D8000F15D800028
:104270004709DD004900DE0000007100C908DE00CA
:10428000005E8800115E88000643A9009200A90024
:104290000080FA004F04BE004F03BE004F027800BA
:1042A0004F01BE004F00BE00004006000000FA00B3
:1042B00090022000303A880044C7BF00F043B200AB
:1042C00044E7B700417420009140780000CEB3006D
:1042D00000C0600044E7B700120020008107200002
:1042E000A0092000337420008149780080497800BB
:1042F000824978001200200061042000700520002F
:104300002374200081497800804978008249780030
:1043100043C7BF000047B200F04F5000FCFF3A0017
:1043200042C7BF000042B2000004E000FCFF3200C0
:1043300050C7A80051A7A80011752000914078002F
:1043400080CFB30000C060006040B30051E7B70009
:1043500051E7A80051C7BF000044B2000004E000CC
:10436000FCFF32000080FA00000006000000FA00A6
:10437000015420009140780000CCB30000C07000D0
:1043800040E5B70040A5A9004005A800F03F200087
:10439000102A88008640A9009640A800D10A200073
:1043A0009140780080CFB30000C060006040B3004F
:1043B000ADE0B70041E5A8000080FA00000006006B
:1043C0000000FA000000EB0060168800CD02A90092
:1043D000CD62A900CCA2A900CD82A900306D2A002F
:1043E00040168800C482A900C082A900C462A90046
:1043F000C062A9000080FA00000006000000FA0078
:1044000050412300100888009460A80005E1A8002E
:104410000080FA00000006000000FA000000EB0037
:1044200010188800013020009140780080CFB30040
:1044300000C060000014A00000E3B700A13020001D
:104440009140780000CEB30000C060000024A000BE
:104450000AE3B700B13020009140780000CEB300ED
:1044600000C060000024A0000BE3B700C1302000B2
:104470009140780000CEB30000C06000C040B3009F
:104480000CE3B700D13020009140780000CEB3009B
:1044900000C060000024A0000DE3B7000603A900DF
:1044A0000623A9000643A9000663A9000AE3A800A1
:1044B0000BE3A8000CE3A8000DE3A80091C0A9003D
:1044C000B10D20009140780080CFB30000C06000A3
:1044D0005040B300DBE0B700A1C0A80091E0A90004
:1044E000B10D200091407800F0C8B30000C060001A
:1044F00001C5B30001407000DBE0B700A1E0A800F7
:104500009200A900C10D20009140780080CFB30037
:1045100000C060000024A000DCE0B700A200A800FA
:104520009220A900C10D200091407800F0C8B3008E
:1045300000C0600001C5B30001407000DCE0B700BE
:10454000A220A8000080FA00000006000000FA0087
:104550000080FA0000000600809FBE000000FA0004
:1045600060198000505B8800515B80003033200070
:10457000808F50000C003E00A0408000E30F5000F0
:1045800009003A00805A8000EA004000905A8000FA
:10459000808F500004003100905A80006500B900FF
:1045A0004300DE00A05A8800815A8000B026200017
:1045B000808F500022003E009061800090007800C3
:1045C00030332500808F500015003A009061800044
:1045D0000080E8009000780000002C00808F5000E0
:1045E0000F003A007162800000052000808F5000AB
:1045F0000B00360091618000F028240080087800CC
:10460000906180008080E80060662C00800878005F
:1046100090618000E40040000000EB00800878001A
:104620007162800070082000808F500029003600E1
:10463000D05980000000A000D05988002500370024
:10464000815A800000282000808F50002100360011
:104650009061800090007800F0FF2500808F50006E
:1046600015003A00906180000080E800900078001A
:1046700000002C00808F50000F003A007162800013
:1046800060042000808F50000B0036009161800094
:104690007014260080087800906180008080E80017
:1046A00040E12A008008780090618000E40040002A
:1046B0000000EB0080087800716280001009200083
:1046C000808F500003003600D05980000000A00009
:1046D000D05988000663A9009220A9000080FA0042
:1046E0004F00BE00004006000000FA00405F80005E
:1046F000640060000000E00007003200C06280003B
:10470000640060000000E00003003200584CA90083
:10471000CD02A90009003700405F800064006000FE
:104720000000E00005003A00C06280006400600004
:104730000000E00001003A00584CA800405F8000F3
:10474000680060000000E00005003A00405F800063
:1047500001022000010060000000E00001003200C2
:10476000CD02A9000080FA00000006000000FA0057
:104770008020A90001E4A900FFFF37000000FA0033
:104780008060A90001E4A900FFFF37000000FA00E3
:104790008040A90001E4A900FFFF37000000FA00F3
:1047A0008080A90001E4A900FFFF37000000FA00A3
:1047B0008020A900FFFF37000000FA008060A900F8
:1047C000FFFF37000000FA008040A900FFFF37001C
:1047D0000000FA008080A900FFFF37000000FE0003
:1047E000FFFFFF00FFFFFF00FFFFFF00FFFFFF00D5
:1047F000FFFFFF00FFFFFF00FFFFFF00FFFFFF00C5
:10480000FFFFFF00FFFFFF00FFFFFF00FFFFFF00B4
:10481000FFFFFF00FFFFFF00FFFFFF00FFFFFF00A4
:0200000401F009
:100000000F0000000000000006000000800000005B
:10001000670000005F0000000F000000C300000048
:08002000FF000000FF000000DA
:00000001FF
