:020000040000FA
:100000000002040000000000B8020000B802000076
:10001000B8020000B8020000B8020000B8020000F8
:10002000B8020000B8020000260D0000C20D00005A
:10003000C60D0000340D0000920D0000C40D00003C
:10004000D00D0000500D00005A0D0000B802000055
:100050008E0D0000B00D0000B20D0000B80D0000C4
:100060009C0D0000B8020000640D00006E0D000041
:10007000DA0D0000B8020000280D0000B8020000F0
:10008000B8020000B8020000A60D0000B80200008F
:10009000B8020000B8020000B8020000B802000078
:1000A000B40D0000B60D0000B8020000900D000075
:1000B000B8020000B8020000B8020000B802000058
:1000C000B8020000B8020000B8020000B802000048
:1000D000B8020000B8020000B8020000B802000038
:1000E000B8020000B8020000B8020000700D000065
:1000F0008C0D0000B8020000B8020000B802000039
:10010000B8020000B8020000B80200002A0D00008A
:10011000B8020000B8020000B8020000B8020000F7
:10012000B8020000B8020000B8020000B8020000E7
:10013000B8020000B8020000B8020000B8020000D7
:10014000B8020000B8020000B8020000B8020000C7
:10015000B8020000B8020000B8020000B8020000B7
:10016000B8020000B8020000B8020000B8020000A7
:10017000B8020000B8020000B8020000B802000097
:10018000B8020000B8020000B8020000B802000087
:10019000B8020000B8020000B8020000B802000077
:1001A000B8020000B8020000B8020000B802000067
:1001B000B8020000B8020000B8020000B802000057
:1001C000B8020000E40D0000B8020000B802000010
:1001D000B8020000B8020000B8020000B802000037
:1001E000B8020000B8020000B8020000B802000027
:1001F000B8020000B8020000B8020000B802000017
:10020000FFFFFF00FFFFFF00B8020000B802000080
:10021000B8020000B8020000B8020000B8020000F6
:10022000B8020000B8020000B8020000B8020000E6
:10023000B8020000B8020000B8020000B8020000D6
:10024000B8020000B8020000B8020000B8020000C6
:10025000B8020000B8020000B8020000B8020000B6
:10026000B8020000B8020000B8020000B8020000A6
:10027000B8020000B8020000B8020000B802000096
:10028000B8020000B8020000B8020000B802000086
:10029000B8020000B8020000B8020000B802000076
:1002A000B8020000B8020000B8020000B802000066
:1002B000B8020000B8020000B8020000B802000056
:1002C000B8020000B8020000B8020000B802000046
:1002D000B8020000B8020000B8020000B802000036
:1002E000B8020000B8020000B8020000B802000026
:1002F000B8020000B8020000B8020000B802000016
:10030000B8020000B8020000B8020000B802000005
:10031000B8020000B8020000B8020000B8020000F5
:10032000B8020000B8020000B8020000B8020000E5
:10033000B8020000B8020000B8020000B8020000D5
:10034000B8020000B8020000B8020000B8020000C5
:10035000B8020000B8020000B8020000B8020000B5
:10036000B8020000B8020000B8020000B8020000A5
:10037000B8020000B8020000B8020000B802000095
:10038000B8020000B8020000B8020000B802000085
:10039000B8020000B8020000B8020000B802000075
:1003A000B8020000B8020000B8020000B802000065
:1003B000B8020000B8020000B8020000B802000055
:1003C000B8020000B8020000B8020000B802000045
:1003D000B8020000B8020000B8020000B802000035
:1003E000B8020000B8020000B8020000B802000025
:1003F000B8020000B8020000B8020000B802000015
:100400008F8520000E7E22000E0188000000000073
:100410000C00070020F1200001002000110007005F
:10042000000020000000E000020032000000020096
:1004300000000000E0070200000000000040DA00B9
:100440000000FE004440A900802220000000E000DF
:100450000300320000002000A00188004440A800F2
:100460000000060091018800800078000000EB0089
:1004700015003700E280400032A0B4009101BA00BC
:10048000E280400032A0B4009102BA00E280400055
:1004900032A0B4000002EB00472BDE00F507B200EB
:1004A000602CE10004003A000059EB008301E900F0
:1004B000FDFF3E00040037006128E100010032002A
:1004C0000082EB00040007001101BA000200E00006
:1004D000E8FF3A00000006003159BA008301E90044
:1004E0000C0032002159BA008301E90008003200F3
:1004F0000400E00003003A00E280400032A0B400B3
:10050000F5FF370011D9BA008301E900FAFF3A007C
:100510008100E800E180400032A0B4000000060045
:1005200000000000000000000000000000000000CB
:1005300000000000000000000000000000000000BB
:1005400000000000000000000000000000000000AB
:10055000000000000000000000000000000000009B
:10056000000000000000000000000000000000008B
:100570000040DA000000FE008001EB0002003700BE
:10058000817178008301E800828F5100FCFF3A00FE
:100590000000060000000000C1C0000081C1000092
:1005A0004001000001C30000C00300008002000001
:1005B00041C2000001C60000C00600008007000024
:1005C00041C7000000050000C1C5000081C4000053
:1005D0004004000001CC0000C00C0000800D0000B1
:1005E00041CD0000000F0000C1CF000081CE00000F
:1005F000400E0000000A0000C1CA000081CB0000CC
:10060000400B000001C90000C00900008008000084
:1006100041C8000001D80000C01800008019000087
:1006200041D90000001B0000C1DB000081DA00009E
:10063000401A0000001E0000C1DE000081DF000043
:10064000401F000001DD0000C01D0000801C0000F4
:1006500041DC000000140000C1D4000081D500007E
:100660004015000001D70000C017000080160000F0
:1006700041D6000001D20000C0120000801300002B
:1006800041D3000000110000C1D1000081D0000062
:100690004010000001F00000C03000008031000078
:1006A00041F1000000330000C1F3000081F20000BE
:1006B0004032000000360000C1F6000081F7000063
:1006C0004037000001F50000C03500008034000014
:1006D00041F40000003C0000C1FC000081FD00006E
:1006E000403D000001FF0000C03F0000803E0000D0
:1006F00041FE000001FA0000C03A0000803B00000B
:1007000041FB000000390000C1F9000081F8000041
:100710004038000000280000C1E8000081E9000026
:100720004029000001EB0000C02B0000802A0000DF
:1007300041EA000001EE0000C02E0000802F000002
:1007400041EF0000002D0000C1ED000081EC000031
:10075000402C000001E40000C024000080250000BF
:1007600041E5000000270000C1E7000081E600002D
:100770004026000000220000C1E2000081E30000EA
:100780004023000001E10000C021000080200000A3
:1007900041E0000001A00000C06000008061000096
:1007A00041A1000000630000C1A3000081A200007D
:1007B0004062000000660000C1A6000081A70000A2
:1007C0004067000001A50000C065000080640000D3
:1007D00041A40000006C0000C1AC000081AD00002D
:1007E000406D000001AF0000C06F0000806E00008F
:1007F00041AE000001AA0000C06A0000806B00004A
:1008000041AB000000690000C1A9000081A8000000
:100810004068000000780000C1B8000081B9000005
:100820004079000001BB0000C07B0000807A00001E
:1008300041BA000001BE0000C07E0000807F0000C1
:1008400041BF0000007D0000C1BD000081BC000070
:10085000407C000001B40000C074000080750000FE
:1008600041B5000000770000C1B7000081B600006C
:100870004076000000720000C1B2000081B30000A9
:100880004073000001B10000C071000080700000E2
:1008900041B0000000500000C190000081910000B4
:1008A0004051000001930000C0530000805200003E
:1008B0004192000001960000C056000080570000E1
:1008C0004197000000550000C19500008194000090
:1008D00040540000019C0000C05C0000805D0000EE
:1008E000419D0000005F0000C19F0000819E00004C
:1008F000405E0000005A0000C19A0000819B000089
:10090000405B000001990000C059000080580000C1
:100910004198000001880000C048000080490000A4
:1009200041890000004B0000C18B0000818A00005B
:10093000404A0000004E0000C18E0000818F000080
:10094000404F0000018D0000C04D0000804C0000B1
:10095000418C000000440000C1840000818500003B
:100960004045000001870000C047000080460000AD
:100970004186000001820000C04200008043000068
:100980004183000000410000C1810000818000001F
:100990004040000070000000640A00007100000088
:1009A000680A0000720000006C0A0000730000007A
:1009B000700A000074000000740A0000700000005B
:1009C0008A08000071000000B408000072000000F6
:1009D000DE08000073000000080900007400000039
:1009E0003209000060012000303A880044C7BF008F
:1009F00001CEB3000140600044E7B70044C7BF0028
:100A0000F043B20044E7B70032002000A109200003
:100A100080072000337420008049780081497800E5
:100A20008249780012002000710520006004200037
:100A30002374200080497800814978008249780039
:100A400001C3B30043C7BF000047B200814F50004D
:100A5000FCFF3A0042C7BF000058A300FDFF320070
:100A6000000006000000EB00200888000008880055
:100A70003075200010088800A5C0BF00F1C8B30081
:100A8000014060000044A000A5E0B7008460A90018
:100A90009460A80004C1BF00F1CCB3000140600025
:100AA0000044A00004E1B70005E1A8000000060032
:100AB000ECFF07003808020000000000400C0400B2
:100AC000000000005468EF00000006000400FA0077
:100AD0000001BE001100200064805700D40C020009
:100AE000000000006FB897000080FA0000000600C8
:100AF0000208FA00889FBE008A1F7800807F2F00BE
:100B00000F0040000018EB00080022000900200040
:100B1000028020008000EB00BC0202000000000008
:100B20001C003700A07F2F00008547000120200017
:100B30000801BE000A007800D40C0200000000008A
:100B40000040200001002000080440008984480083
:100B5000F1FF2900810F5400E08F5C0005003E008A
:100B6000817F2F008F804000028020000300200042
:100B700004003700817F2F008F804000C27F20005B
:100B8000030020000A007800CE0E020000000000E2
:100B90000060FE00F0FF2900800F5400E08F5C0031
:100BA000E0FF3600817F2F006F8078004F057800CE
:100BB0004F04BE000080FA00000006000001FA00A9
:100BC000889FBE008A9FBE008C9FBE00E0FF290068
:100BD00001002000BDFF070000067800C4FF0700E9
:100BE00080067800A0FF290001002000B7FF070061
:100BF0008005780041EF2F008F804000F01F20001B
:100C0000BC0B0200000000008FE897008180FB0011
:100C10001FE897004800DD0000844000CFE89700FF
:100C20008180FB005FE897004800DD000085400000
:100C30008FF097008180FB001FF097004800DD00D7
:100C4000808440000800E900E30F40000100360006
:100C50000B047800080078004E0E0200000000002F
:100C60008D0F56000C003A00888F55000A003A009C
:100C70000C007800360E020000000000C0FF2900C2
:100C80000100200091FF07002E0E0200000000006E
:100C9000100020000700370009007800360E02001F
:100CA000000000000A0078002E0E02000000000084
:100CB0000000EB004F06BE004F05BE004F04BE0013
:100CC0000080FA0000000600CF3FB000CF3FB00028
:100CD000EE874700889FBE008A9FBE008C9FBE00A3
:100CE0008E1F7800000778000206BE00F4B79F0050
:100CF00085BF9F000204BE002800370002202000AC
:100D00000800BE000C0D0200000000000280200060
:100D10008000EB00E07E2F000F004000BC020200CC
:100D2000000000000C0054008D805C004909DD00CB
:100D30004700DE0000007100C708DE000E0540001D
:100D4000EB7E2F008F8545000A00BE00BC0B020021
:100D5000000000000A05E8000B10B0000080200031
:100D6000E37E2F008F81410000804100808F55007D
:100D7000F5FF3A000801BE00E07E2F000F004000A2
:100D8000560C0200000000000060FE000040200041
:100D90000100200008044000898448007FB19700CA
:100DA0008FB997000C0041008D804900800F5400DE
:100DB000818F5C00D1FF39004F0778004F06BE00DD
:100DC0004F05BE004F04BE00EF1FB100EF1FB10082
:100DD000EF1FB100EF1FB100EF00B10000000600EF
:100DE000881F780075FF0700000478000000E0000D
:100DF0000A00320020002000F60D02000000000072
:100E000010002000F20D0200000000000041EB0085
:100E10008240780020C0B300100037000060FE0060
:100E2000040028000500200002002200030020002A
:100E300000102000A4FF070030002000F60D020083
:100E40000000000010002000F20D02000000000071
:100E5000084178008840780030C0B300FA0D0200E5
:100E60000000000000200400000000004F04780093
:100E700000000600881F780040C7BF000008A300DC
:100E800003003A0040C7BF000018A3001900320059
:100E90000000EB00F60D0200000000000000EB0077
:100EA000F20D0200000000000041EB0082407800DB
:100EB00002407800FA0D0200000000000000EB0084
:100EC0002E0E0200000000000000EB00360E0200B3
:100ED000000000000000EB003E0E020000000000D9
:100EE0000000EB00460E0200000000004007A900D1
:100EF0004027A9004027EF00EE0D0200000000008F
:100F000000047800F60E020000000000E8FE070072
:100F1000E10F540002003A00000000000100370019
:100F2000AFFF07004F0478000000060040C7BF0075
:100F30000068A30002003200CDE2A800C9E2A900C7
:100F4000000006003600F800809FBE00829FBE00B1
:100F5000849FBE00869FBE003400F8000000200081
:100F6000A0018800914280008100E8009142880041
:100F7000F07C2000808F5000090036005228EF00DE
:100F8000814280008100E8008142880080252000A5
:100F9000808F5000020036005028EF0090FF0700BD
:100FA0008460A9003400F9004F03BE004F02BE0068
:100FB0004F01BE004F00BE003600F90000400600A1
:100FC00000CEB3004260B700D8FF070085FE0700DF
:100FD0005468EF00A7FF070042C0BF007F406000D9
:100FE00042E0B7000060FE000808020000000000B8
:100FF0000400280005002000020022000300200059
:101000000000EB0030FF070075FF0700F5FF370019
:10101000DBC2BF00E4006000DBC2BF000018A30019
:10102000010032008180E800DBC2BF000008A3009D
:10103000010032008100E800F10FB20080052000BD
:1010400001004000D010880000000600F0FF0700FB
:1010500016C2A8001782A80017E2A80000C7B300B4
:10106000BC60B7008A20A9009A20A80000000600F2
:101070004E68EF00F5FF370017E2A90000000600F8
:10108000C1842000914078000104E000200032007B
:101090000680200016437800A34C28000001EB00D6
:1010A00025002000130078004802DE00E4814100A2
:1010B000804F530012003A000181FB008200E900DA
:1010C0000480FB00808F500011003A000080200057
:1010D000E24078004848EE00814F500006003A0098
:1010E0004E08A900A04C2800650078000000E00030
:1010F00007003200004001004E08A8000000060072
:101100000201E800E4824200E50F5100E5FF3A00E9
:10111000000006004EC8BF0071406000F04F500054
:1011200007003A002A0E02000000000024E8B70081
:101130004800DE0025E8B70020C0B30008003700F3
:1011400050C5B30024E8B700A0CAB30025E8B70033
:10115000E0CFB30026E8B7004E28A80030C0B300A7
:101160004AE8B700000006004EC8BF0071406000AA
:10117000F04F500007003A00320E0200000000005D
:1011800024E8B7004800DE0025E8B70020C0B3001F
:101190000800370050C5B30024E8B700A0CAB30068
:1011A00025E8B700E0CFB30026E8B7004E28A80036
:1011B00030C0B3004AE8B700000006004EC8BF00C8
:1011C00071406000F04F500007003A003A0E0200F4
:1011D0000000000024E8B7004800DE0025E8B70062
:1011E00020C0B3000800370050C5B30024E8B700A2
:1011F000A0CAB30025E8B700E0CFB30026E8B700E7
:101200004E28A80030C0B3004AE8B700000006002E
:101210004EC8BF0071406000F04F500007003A0018
:10122000420E02000000000024E8B7004800DE0083
:1012300025E8B70020C0B3000800370050C5B30050
:1012400024E8B700A0CAB30025E8B700E0CFB30098
:1012500026E8B7004E28A80030C0B3004AE8B7001F
:10126000000006004EC8BF0071406000F04F500003
:1012700007003A004A0E02000000000024E8B70010
:101280004800DE0025E8B70020C0B30008003700A2
:1012900050C5B30024E8B700A0CAB30025E8B700E2
:1012A000E0CFB30026E8B7004E28A80030C0B30056
:1012B0004AE8B70000000600881F78004C48E200AA
:1012C0001C00320000C8BF000082FB00E24D280075
:1012D0008000EB0023002000120078006401410030
:1012E000800F520006003A00E04D280063007800AD
:1012F0000000E0000E003200000001000C0037008A
:101300008100E800E4814100E58F5000F2FF3A00DF
:1013100048022000080178008000EB004082200095
:10132000BC02020000000000080078004AE8B70094
:101330004C68EF004F047800000006003600F8000B
:10134000809FBE00829FBE00849FBE00869FBE001D
:101350003400F80000002000A00188008010800008
:101360004BE8B70018C2A90018C2BF000028A300AC
:1013700009003A0018C2BF000042B20006003A005D
:101380004CE8B7004E88A900D01080000000400053
:10139000404288004300370018C2BF000028A30065
:1013A00016003A0018C2BF000058A3001300320014
:1013B00082108000020078004BE8B7004CC8BF00E4
:1013C0000080FB000180200002F078002CFF070065
:1013D0004BC8BF000080FB004828B4004C48EC001C
:1013E0004CE8B70031C2B300814F50002D003600E9
:1013F000010078004CE8B7002A00370018C2BF008F
:101400000028A3000800320018C2BF000042B2004A
:1014100005003A004DE8B7004828EF004E28A90023
:10142000A5FF07000600370018C2BF000028A30070
:101430001C00320018C2BF000058A300190032007F
:10144000D2842000124178004AC8BF00804F51006A
:10145000070031008280FB0040822000614078005C
:101460000080FB00901088004828B4000900370075
:10147000804F51000A003A004E28AB0002003200B3
:101480001222EF00030037004848EE000080FB0006
:10149000901088000240E8004DE8B70001003700D6
:1014A0001222EF008A20A9001782A8003400F90058
:1014B0004F03BE004F02BE004F01BE004F00BE00F2
:1014C0003600F900004006004E88A8000000060023
:1014D0004E88A800000006004E88A8000000060004
:1014E0004E88A800000006004E88A80000000600F4
:1014F0008000EB00011388002012200010138800E8
:101500002113880061E2A80000000600F522A9006E
:1015100040138000700D20004013880060C2BF009F
:101520000008A300FDFF3200401380006822EF0096
:1015300060C2BF000008A300FDFF3200401380001E
:10154000F522A8000080FB0000000600EFFF070066
:1015500056E8B7000004E000FCFF3D00F522A900BA
:1015600040138000D00320004013880060C2BF00F9
:101570000008A300FDFF320040138000A0022000FD
:101580004013880060C2BF000008A300FDFF3200C6
:1015900040138000000820004013880060C2BF0094
:1015A0000008A300FDFF320040138000600A200005
:1015B0004013880060C2BF000008A300FDFF320096
:1015C000F522A80000000600881F780000047800BB
:1015D000CEFF070056E8B7000004E000FCFF3D0026
:1015E000F522A90040138000100820004013880055
:1015F00060C2BF000008A300FDFF3200401380005E
:101600004840DE004013880060C2BF000008A3000D
:10161000FDFF320040138000F80FB200481388002D
:1016200060C2BF000008A300FDFF3200401380002D
:101630006822EF0060C2BF000008A300FDFF320077
:10164000F522A8004F04780000000600889FBE0025
:101650000004BE00ADFF070056E8B7000004E0003C
:10166000FCFF3D00F522A900401380004008200047
:101670004013880060C2BF000008A300FDFF3200D5
:10168000401380006822EF0060C2BF000008A30082
:10169000FDFF3200401380006822EF0060C2BF00EF
:1016A0000008A300FDFF3200401380006822EF0015
:1016B00060C2BF000008A300FDFF32008000EB0005
:1016C000021020004013800069C078000080FB00F9
:1016D0004013880060C2BF000008A300FDFF320075
:1016E0008100E800828F5000F6FF3A00F522A80042
:1016F00000000000000000000000000083FF070061
:1017000056E8B7000004E000FCFF3D00F522A90008
:1017100040138000800820004013880060C2BF0092
:101720000008A300FDFF3200401380004840DE00A7
:101730004013880060C2BF000008A300FDFF320014
:1017400040138000F80FB2004813880060C2BF0049
:101750000008A300FDFF3200401380006822EF0064
:1017600060C2BF000008A300FDFF3200F522A80000
:101770004F04BE0000000600889FBE000004BE00AB
:1017800062FF070056E8B7000004E000FCFF3D00E0
:10179000F522A90040138000200D2000401388008E
:1017A00060C2BF000008A300FDFF320040138000AC
:1017B0004840DE00630060004013880060C2BF0044
:1017C0000008A300FDFF320040138000F80FB200B4
:1017D0004813880060C2BF000008A300FDFF32006C
:1017E000401380006822EF0060C2BF000008A30021
:1017F000FDFF3200401380006822EF0060C2BF008E
:101800000008A300FDFF3200401380006822EF00B3
:1018100060C2BF000008A300FDFF3200401380003B
:101820006822EF0060C2BF000008A300FDFF320085
:10183000401380006822EF0060C2BF000008A300D0
:10184000FDFF32008000EB000210200040138000FA
:101850006822EF0060C2BF000008A300FDFF320055
:101860004013800080F478008100E800828F5000EF
:10187000F6FF3A00F522A8004F04BE000000060063
:101880006022EF0020122000101388006422EF0075
:1018900061E2A8001DFF070056E8B7000008A3009A
:1018A00001003A0029FF0700000006000800FA00C6
:1018B000889FBE008A9FBE008C9FBE006044B80017
:1018C0000205BE00000678008006EB001C80FB00CD
:1018D00001F02F0001046400000474001C4090001B
:1018E0004800DD00F80FB200000474002C409000A6
:1018F0000080FB0081846400808474003C40900080
:101900004800DD00F90FB20080847400880178007F
:10191000090178008A0078000B007800860E02002A
:10192000000000007F006500F80F500004003A003E
:10193000EAB79F00FBB79F0088BF9F0099BF9F0039
:101940000D00E0000C0032000D00E800F003B200D2
:1019500009003A008FB997001FB99700EFB09700C0
:101960007FB09700860E02000000000010002400E7
:101970006E0E02000000000062054500E0854D008B
:101980008D06E8006406460000202000808F560087
:10199000CEFF3A004F06BE004F05BE004F04BE000A
:1019A0000080FA0000000600889FBE008A9FBE00EB
:1019B0008C1F7800000578000204BE000106780044
:1019C0008005EB000E0037008800780009007800E1
:1019D0008E0E020000000000004D78004881DE00FD
:1019E00012459800214598000040EB0030459800D2
:1019F0006405450062044400E0844C008B05E80067
:101A00008C8F5500F0FF35004F0678004F05BE0063
:101A10004F04BE00000006000002BE008000EB0084
:101A200000202000800F510006003A00220424000C
:101A300084007800050078009C0E02000000000081
:101A400011002000010078000000060000000600E0
:101A500000000600801F78004F0078000C20040072
:101A60000000000000000600801F7800F03F8100A9
:101A7000E20F500002003200E30F500004003A0071
:101A80004F00780010200400000000000000060055
:101A90004F007800A20704000000000000000600CC
:101AA000801F78004F007800142004000000000020
:101AB00000000600801F78004F0078001820040006
:101AC0000000000000000600801F78004F00780032
:101AD0001C200400000000000000060000000600BA
:101AE000801F7800F03F8100E20F500002003200BA
:101AF000E30F500004003A004F0078002420040057
:101B000000000000000006004F0078009E0904005D
:101B100000000000000006000000060000000600B3
:101B200000000600801F78004F0078003420040079
:101B30000000000000000600801F78004F007800C1
:101B4000382004000000000000000600801F78001C
:101B50004F0078003C200400000000000000060058
:101B6000000006000000060000000600000006005D
:101B7000801F78004F007800502004000000000013
:101B8000000006000000060000000600801F78002C
:101B90004F0078005C2004000000000000000600F8
:101BA000801F78004F0078006020040000000000D3
:101BB00000000600801F78004F00780064200400B9
:101BC0000000000000000600801F78004F00780031
:101BD000682004000000000000000600F03F8100C3
:101BE00000000600E03F890000000600F03F890089
:101BF00000000600D33F8100FF816100E14F4000FB
:101C00000300320063006000FC816100808171008C
:101C1000E1CF400005003200638060004200DD003B
:101C200031FF2F008181610080817100E14F41000F
:101C300004003200610061004400DD000340A100A7
:101C400080817100D33F890000000600E03F8100E1
:101C500000000600D03F810000000600C03F890060
:101C600000000600C03F810000000600B03F890070
:101C700000000600B03F810000000600A03F890080
:101C800000000600A03F810000000600903F890090
:101C900000000600903F810000000600803F8900A0
:101CA00000000600803F810000000600F03F810038
:101CB000E03F890010002000F03F89000041EB0068
:101CC00080C0EB00CBFF07000000FE000000060014
:101CD000900188008100780000000600003B880029
:101CE0000600FC0050052000303B8800A00A2000C0
:101CF000303B880061E7A800000000000000000001
:101D000061E7AF00FEFF3700000006009001880089
:101D10008308BB008288BB00000006009001880099
:101D20001100BA009180BA0000000600020C040005
:101D300000000000000006003200F800023B8800AE
:101D4000900188008108BB000600FC0050052000BF
:101D5000303B8800A00A2000303B880061E7A800E3
:101D6000000000000000000061E7AF00FEFF370048
:101D70003200F9000000060011017800C811DE00F1
:101D8000024068000080FB0000004000A22C2800F8
:101D9000600079008088690000000600889FBE000E
:101DA0008A9FBE008C9FBE00800678000205BE00A0
:101DB000010678006044B800050037008C00780008
:101DC0006D407C00ECFF070061044400E0844C009F
:101DD0008A0F54008B8F5C00F8FF39004F06BE005D
:101DE0004F05BE004F04BE0000000600C542A9001A
:101DF000C142A900D902A800D922A800D942A8004E
:101E0000C1C2A800C1E2A800F522A800F122A900E1
:101E1000D802A900D822A900D842A900D862A900F6
:101E20000000060000080000500000000000000054
:101E300050080000060000000000000056080000E6
:101E4000020000000000000000000000FFFFFF0093
:101E5000FFFFFF00FFFFFF00FFFFFF00FFFFFF008E
:101E6000FFFFFF00FFFFFF00FFFFFF00FFFFFF007E
:101E7000FFFFFF00FFFFFF00FFFFFF00FFFFFF006E
:101E8000FFFFFF00FFFFFF00FFFFFF00FFFFFF005E
:103FF000FFFFFF000000000000010000CA78000081
:1040000070200400000000000021040000000000F7
:104010000021040000000000506B040000000000BC
:10402000B4600400000000005E60040000000000B6
:104030000021040000000000002104000000000036
:1040400000210400000000006E4104000000000098
:104050000021040000000000002104000000000016
:104060000021040000000000002104000000000006
:1040700000210400000000000021040000000000F6
:1040800000210400000000000021040000000000E6
:1040900000210400000000000021040000000000D6
:1040A00000210400000000000021040000000000C6
:1040B00000210400000000000021040000000000B6
:1040C00000210400000000000021040000000000A6
:1040D0000021040000000000FFFFFF00FFFFFF00C1
:1040E0006F3D21000E7E22000E01880000000000BE
:1040F0000C00070040982600010020001100070076
:10410000000020000000E000020032000000020079
:1041100000000000E46A0200000000000040DA0035
:104120000000FE004440A90020CB20000000E00079
:104130000300320000002000A00188004440A800D5
:104140000000060091018800800078000000EB006C
:1041500015003700E280400032A0B4009101BA009F
:10416000E280400032A0B4009102BA00E280400038
:1041700032A0B4000002EB00472BDE00F507B200CE
:10418000602CE10004003A000059EB008301E900D3
:10419000FDFF3E00040037006128E100010032000D
:1041A0000082EB00040007001101BA000200E000E9
:1041B000E8FF3A00000006003159BA008301E90027
:1041C0000C0032002159BA008301E90008003200D6
:1041D0000400E00003003A00E280400032A0B40096
:1041E000F5FF370011D9BA008301E900FAFF3A0060
:1041F0008100E800E180400032A0B4000000060029
:104200000040DA000000FE00020AB900001BB900FD
:104210000200B80081004200810043000000060057
:10422000000000000C000000190000002500000044
:10423000320000003E0000004B000000570000006C
:1042400064000000710000007D0000008A00000092
:1042500096000000A3000000AF000000BC000000BA
:10426000C8000000D5000000E2000000EE000000E1
:10427000FB00000007010000140100002001000005
:104280002D0100003901000046010000520100002C
:104290005F0100006B010000780100008401000054
:1042A000910100009D010000AA010000B60100007C
:1042B000C3010000CF010000DC010000E8010000A4
:1042C000F5010000010200000E0200001A020000C9
:1042D0002702000033020000400200004C020000F0
:1042E0005902000065020000710200007E02000019
:1042F0008A02000097020000A3020000AF02000043
:10430000BC020000C8020000D5020000E10200006B
:10431000ED020000FA020000060300001203000094
:104320001F0300002B0300003703000044030000BC
:10433000500300005C0300006803000075030000E8
:10434000810300008D03000099030000A603000014
:10435000B2030000BE030000CA030000D703000040
:10436000E3030000EF030000FB030000070400006C
:1043700013040000200400002C0400003804000096
:1043800044040000500400005C04000068040000C5
:1043900074040000800400008C04000098040000F5
:1043A000A5040000B1040000BD040000C904000021
:1043B000D5040000E0040000EC040000F804000054
:1043C00004050000100500001C0500002805000081
:1043D00034050000400500004C05000058050000B1
:1043E000630500006F0500007B05000087050000E5
:1043F000930500009E050000AA050000B605000018
:10440000C2050000CD050000D9050000E50500004B
:10441000F0050000FC05000008060000130600007F
:104420001F0600002B0600003606000042060000B2
:104430004D060000590600006406000070060000EA
:104440007B06000087060000920600009E06000022
:10445000A9060000B5060000C0060000CB0600005B
:10446000D7060000E2060000ED060000F906000095
:10447000040700000F0700001B07000026070000CC
:10448000310700003C070000480700005307000008
:104490005E07000069070000740700007F07000046
:1044A0008A07000095070000A0070000AC07000085
:1044B000B7070000C2070000CD070000D7070000C3
:1044C000E2070000ED070000F80700000308000005
:1044D0000E08000019080000240800002E08000043
:1044E00039080000440800004F0800005A08000086
:1044F000640800006F0800007A08000084080000CB
:104500008F08000099080000A4080000AF08000010
:10451000B9080000C4080000CE080000D908000057
:10452000E3080000EE080000F8080000020900009F
:104530000D09000017090000210900002C090000E6
:1045400036090000400900004B0900005509000031
:104550005F09000069090000730900007D0900007F
:1045600087090000920900009C090000A6090000CC
:10457000B0090000BA090000C4090000CE0900001B
:10458000D7090000E1090000EB090000F50900006F
:10459000FF090000090A0000120A00001C0A0000BE
:1045A000260A0000300A0000390A0000430A000011
:1045B0004D0A0000560A0000600A0000690A000067
:1045C000730A00007C0A0000860A00008F0A0000BF
:1045D000990A0000A20A0000AC0A0000B50A000017
:1045E000BE0A0000C80A0000D10A0000DA0A000072
:1045F000E30A0000EC0A0000F60A0000FF0A0000CF
:10460000080B0000110B00001A0B0000230B000028
:104610002C0B0000350B00003E0B0000470B000088
:10462000500B0000590B0000620B00006A0B0000E9
:10463000730B00007C0B0000850B00008D0B00004D
:10464000960B00009F0B0000A70B0000B00B0000B2
:10465000B80B0000C10B0000CA0B0000D20B000019
:10466000DA0B0000E30B0000EB0B0000F40B000082
:10467000FC0B0000040C00000D0C0000150C0000E9
:104680001D0C0000250C00002D0C0000360C000055
:104690003E0C0000460C00004E0C0000560C0000C2
:1046A0005E0C0000660C00006E0C0000760C000032
:1046B0007D0C0000850C00008D0C0000950C0000A6
:1046C0009D0C0000A40C0000AC0C0000B40C000019
:1046D000BB0C0000C30C0000CA0C0000D20C000090
:1046E000D90C0000E10C0000E80C0000F00C000008
:1046F000F70C0000FE0C0000060D00000D0D000080
:10470000140D00001C0D0000230D00002A0D0000F8
:10471000310D0000380D00003F0D0000460D000077
:104720004D0D0000540D00005B0D0000620D0000F7
:10473000690D0000700D0000770D00007D0D000078
:10474000840D00008B0D0000910D0000980D0000FD
:104750009F0D0000A50D0000AC0D0000B20D000083
:10476000B90D0000BF0D0000C60D0000CC0D00000B
:10477000D20D0000D90D0000DF0D0000E50D000096
:10478000EB0D0000F20D0000F80D0000FE0D000022
:10479000040E00000A0E0000100E0000160E0000AD
:1047A0001C0E0000220E0000280E00002D0E00003E
:1047B000330E0000390E00003F0E0000440E0000D2
:1047C0004A0E0000500E0000550E00005B0E000067
:1047D000600E0000660E00006B0E0000710E0000FF
:1047E000760E00007C0E0000810E0000860E000098
:1047F0008B0E0000910E0000960E00009B0E000034
:10480000A00E0000A50E0000AA0E0000AF0E0000D2
:10481000B40E0000B90E0000BE0E0000C30E000072
:10482000C80E0000CD0E0000D10E0000D60E000014
:10483000DB0E0000DF0E0000E40E0000E80E0000BA
:10484000ED0E0000F20E0000F60E0000FA0E000061
:10485000FF0E0000030F0000080F00000C0F000007
:10486000100F0000140F0000180F00001D0F0000B3
:10487000210F0000250F0000290F00002D0F000060
:10488000310F0000350F0000390F00003C0F000011
:10489000400F0000440F0000480F00004B0F0000C5
:1048A0004F0F0000530F0000560F00005A0F00007A
:1048B0005D0F0000610F0000640F0000680F000032
:1048C0006B0F00006E0F0000720F0000750F0000EC
:1048D000780F00007B0F00007F0F0000820F0000A8
:1048E000850F0000880F00008B0F00008E0F000066
:1048F000910F0000940F0000960F0000990F000028
:104900009C0F00009F0F0000A10F0000A40F0000EB
:10491000A70F0000A90F0000AC0F0000AE0F0000B1
:10492000B10F0000B30F0000B60F0000B80F000079
:10493000BA0F0000BD0F0000BF0F0000C10F000044
:10494000C30F0000C50F0000C70F0000C90F000013
:10495000CB0F0000CD0F0000CF0F0000D10F0000E3
:10496000D30F0000D50F0000D70F0000D90F0000B3
:10497000DA0F0000DC0F0000DE0F0000DF0F000088
:10498000E10F0000E20F0000E40F0000E50F00005F
:10499000E70F0000E80F0000E90F0000EB0F000038
:1049A000EC0F0000ED0F0000EE0F0000EF0F000015
:1049B000F00F0000F10F0000F20F0000F30F0000F5
:1049C000F40F0000F50F0000F60F0000F70F0000D5
:1049D000F80F0000F90F0000F90F0000FA0F0000B7
:1049E000FB0F0000FB0F0000FC0F0000FC0F00009D
:1049F000FD0F0000FD0F0000FE0F0000FE0F000085
:104A0000FE0F0000FF0F0000FF0F0000FF0F00006F
:104A1000FF0F0000FF0F0000FF0F0000FF0F00005E
:104A2000FF0F0000FF0F0000FF0F0000FF0F00004E
:104A3000FF0F0000FF0F0000FF0F0000FF0F00003E
:104A4000FE0F0000FE0F0000FE0F0000FD0F000033
:104A5000FD0F0000FC0F0000FC0F0000FB0F00002A
:104A6000FB0F0000FA0F0000F90F0000F90F000023
:104A7000F80F0000F70F0000F60F0000F50F000020
:104A8000F40F0000F30F0000F20F0000F10F000020
:104A9000F00F0000EF0F0000EE0F0000ED0F000020
:104AA000EC0F0000EB0F0000E90F0000E80F000022
:104AB000E70F0000E50F0000E40F0000E20F000028
:104AC000E10F0000DF0F0000DE0F0000DC0F000030
:104AD000DA0F0000D90F0000D70F0000D50F00003B
:104AE000D30F0000D10F0000CF0F0000CD0F00004A
:104AF000CB0F0000C90F0000C70F0000C50F00005A
:104B0000C30F0000C10F0000BF0F0000BD0F000069
:104B1000BA0F0000B80F0000B60F0000B30F00007E
:104B2000B10F0000AE0F0000AC0F0000A90F000095
:104B3000A70F0000A40F0000A10F00009F0F0000AE
:104B40009C0F0000990F0000960F0000940F0000CA
:104B5000910F00008E0F00008B0F0000880F0000E7
:104B6000850F0000820F00007F0F00007B0F000008
:104B7000780F0000750F0000720F00006E0F00002C
:104B80006B0F0000680F0000640F0000610F000051
:104B90005D0F00005A0F0000560F0000530F000079
:104BA0004F0F00004B0F0000480F0000440F0000A3
:104BB000400F00003C0F0000390F0000350F0000CF
:104BC000310F00002D0F0000290F0000250F0000FD
:104BD000210F00001D0F0000180F0000140F00002F
:104BE000100F00000C0F0000080F0000030F000062
:104BF000FF0E0000FA0E0000F60E0000F20E00009C
:104C0000ED0E0000E80E0000E40E0000DF0E0000D4
:104C1000DB0E0000D60E0000D10E0000CD0E00000D
:104C2000C80E0000C30E0000BE0E0000B90E00004A
:104C3000B40E0000AF0E0000AA0E0000A50E00008A
:104C4000A00E00009B0E0000960E0000910E0000CA
:104C50008B0E0000860E0000810E00007C0E00000E
:104C6000760E0000710E00006B0E0000660E000054
:104C7000600E00005B0E0000550E0000500E00009C
:104C80004A0E0000440E00003F0E0000390E0000E6
:104C9000330E00002D0E0000280E0000220E000032
:104CA0001C0E0000160E0000100E00000A0E000080
:104CB000040E0000FE0D0000F80D0000F20D0000D3
:104CC000EB0D0000E50D0000DF0D0000D90D000028
:104CD000D20D0000CC0D0000C60D0000BF0D00007D
:104CE000B90D0000B20D0000AC0D0000A50D0000D4
:104CF0009F0D0000980D0000910D00008B0D00002D
:104D0000840D00007D0D0000770D0000700D000087
:104D1000690D0000620D00005B0D0000540D0000E5
:104D20004D0D0000460D00003F0D0000380D000045
:104D3000310D00002A0D0000230D00001C0D0000A5
:104D4000140D00000D0D0000060D0000FE0C00000B
:104D5000F70C0000F00C0000E80C0000E10C000073
:104D6000D90C0000D20C0000CA0C0000C30C0000DB
:104D7000BB0C0000B40C0000AC0C0000A40C000044
:104D80009D0C0000950C00008D0C0000850C0000AF
:104D90007D0C0000760C00006E0C0000660C00001C
:104DA0005E0C0000560C00004E0C0000460C00008B
:104DB0003E0C0000360C00002D0C0000250C0000FD
:104DC0001D0C0000150C00000D0C0000040C000070
:104DD000FC0B0000F40B0000EB0B0000E30B0000E9
:104DE000DA0B0000D20B0000CA0B0000C10B000060
:104DF000B80B0000B00B0000A70B00009F0B0000D9
:104E0000960B00008D0B0000850B00007C0B000052
:104E1000730B00006A0B0000620B0000590B0000CE
:104E2000500B0000470B00003E0B0000350B00004C
:104E30002C0B0000230B00001A0B0000110B0000CC
:104E4000080B0000FF0A0000F60A0000EC0A000050
:104E5000E30A0000DA0A0000D10A0000C80A0000D4
:104E6000BE0A0000B50A0000AC0A0000A20A000059
:104E7000990A00008F0A0000860A00007C0A0000E0
:104E8000730A0000690A0000600A0000560A000068
:104E90004D0A0000430A0000390A0000300A0000F1
:104EA000260A00001C0A0000120A0000090A00007D
:104EB000FF090000F5090000EB090000E10900000E
:104EC000D7090000CE090000C4090000BA0900009B
:104ED000B0090000A60900009C090000920900002A
:104EE000870900007D0900007309000069090000BE
:104EF0005F090000550900004B090000400900004F
:104F0000360900002C0900002109000017090000E3
:104F10000D09000002090000F8080000EE0800007A
:104F2000E3080000D9080000CE080000C408000013
:104F3000B9080000AF080000A408000099080000AC
:104F40008F080000840800007A0800006F08000045
:104F5000640800005A0800004F08000044080000E0
:104F6000390800002E08000024080000190800007D
:104F70000E08000003080000F8070000ED0700001D
:104F8000E2070000D7070000CD070000C2070000BD
:104F9000B7070000AC070000A0070000950700005D
:104FA0008A0700007F0700007407000069070000FF
:104FB0005E07000053070000480700003C070000A0
:104FC00031070000260700001B0700000F07000044
:104FD00004070000F9060000ED060000E2060000EC
:104FE000D7060000CB060000C0060000B506000092
:104FF000A90600009E060000920600008706000039
:105000007B060000700600006406000059060000E0
:105010004D06000042060000360600002B06000088
:105020001F0600001306000008060000FC05000033
:10503000F0050000E5050000D9050000CD050000E1
:10504000C2050000B6050000AA0500009E0500008C
:1050500093050000870500007B0500006F05000038
:1050600063050000580500004C05000040050000E5
:1050700034050000280500001C0500001005000094
:1050800004050000F8040000EC040000E004000047
:10509000D5040000C9040000BD040000B1040000F4
:1050A000A5040000980400008C04000080040000A7
:1050B00074040000680400005C0400005004000058
:1050C00044040000380400002C0400002004000008
:1050D0001304000007040000FB030000EF030000BE
:1050E000E3030000D7030000CA030000BE03000072
:1050F000B2030000A6030000990300008D03000026
:105100008103000075030000680300005C030000D9
:105110005003000044030000370300002B0300008D
:105120001F0300001203000006030000FA02000043
:10513000ED020000E1020000D5020000C8020000FC
:10514000BC020000AF020000A302000097020000B2
:105150008A0200007E020000710200006502000069
:10516000590200004C02000040020000330200001F
:10517000270200001A0200000E02000001020000D7
:10518000F5010000E8010000DC010000CF01000093
:10519000C3010000B6010000AA0100009D0100004B
:1051A0009101000084010000780100006B01000003
:1051B0005F010000520100004601000039010000BB
:1051C0002D01000020010000140100000701000073
:1051D000FB000000EE000000E2000000D50000002F
:1051E000C8000000BC000000AF000000A3000000E9
:1051F000960000008A0000007D00000071000000A1
:1052000064000000570000004B0000003E0000005A
:105210003200000025000000190000000C00000012
:10522000F6FF0000F7FF0000F8FF0000F9FF0000A4
:10523000FAFF0000FBFF0000FCFF0000FDFF000084
:10524000FEFF0000FFFF0000000000000100000062
:105250000200000003000000030000000400000042
:105260000500000006000000070000000700000025
:105270000800000009000000090000000A0000000A
:105280000B0000000B0000000C0000000D000000EF
:105290000D0000000E0000000F0000000F000000D5
:1052A00010000000110000001100000012000000BA
:1052B00012000000130000001400000014000000A1
:1052C0001500000015000000160000001600000088
:1052D000170000001700000018000000190000006F
:1052E000190000001A0000001A0000001B00000056
:1052F0001B0000001C0000001C0000001D0000003E
:105300001D0000001E0000001E0000001F00000025
:105310001F0000002000000020000000210000000D
:1053200021000000220000002200000023000000F5
:1053300023000000240000002400000025000000DD
:1053400025000000260000002600000027000000C5
:1053500027000000280000002800000029000000AD
:10536000290000002A0000002A0000002B00000095
:105370002B0000002C0000002C0000002D0000007D
:105380002D0000002E0000002E0000002F00000065
:105390002F0000002F00000030000000300000004F
:1053A0003100000031000000320000003200000037
:1053B000330000003300000034000000340000001F
:1053C0003500000035000000360000003600000007
:1053D00037000000370000003800000038000000EF
:1053E00039000000390000003A0000003A000000D7
:1053F0003B0000003B0000003C0000003C000000BF
:105400003D0000003D0000003E0000003E000000A6
:105410003F0000003F00000040000000400000008E
:105420004100000041000000420000004200000076
:10543000430000004400000044000000450000005C
:105440004500000046000000460000004700000044
:10545000470000004800000049000000490000002B
:105460004A0000004B0000004B0000004C00000010
:105470004C0000004D0000004D0000004E000000F8
:105480004F0000004F0000005000000051000000DD
:1054900051000000520000005200000053000000C4
:1054A00054000000550000005500000056000000A8
:1054B000570000005700000058000000590000008D
:1054C0005A0000005A0000005B0000005C00000071
:1054D0005D0000005D0000005E0000005F00000055
:1054E0006000000061000000620000006200000037
:1054F000630000006400000065000000660000001A
:105500006700000068000000690000006A000000F9
:105510006B0000006C0000006D0000006E000000D9
:105520006F000000700000007200000073000000B7
:105530007400000075000000770000007800000093
:10554000790000007B0000007C0000007D0000006E
:105550007D000000F6FF0000F7FF0000F8FF0000EC
:10556000F9FF0000FAFF0000FBFF0000FCFF000055
:10557000FDFF0000FEFF0000FFFF00000000000034
:105580000100000002000000030000000300000012
:1055900004000000050000000600000007000000F5
:1055A00007000000080000000900000009000000DA
:1055B0000A0000000B0000000B0000000C000000BF
:1055C0000D0000000D0000000E0000000F000000A4
:1055D0000F0000001000000011000000110000008A
:1055E0001200000012000000130000001400000070
:1055F0001400000015000000150000001600000057
:10560000160000001700000017000000180000003E
:1056100019000000190000001A0000001A00000024
:105620001B0000001B0000001C0000001C0000000C
:105630001D0000001D0000001E0000001E000000F4
:105640001F0000001F0000002000000020000000DC
:1056500021000000210000002200000022000000C4
:1056600023000000230000002400000024000000AC
:105670002500000025000000260000002600000094
:10568000270000002700000028000000280000007C
:1056900029000000290000002A0000002A00000064
:1056A0002B0000002B0000002C0000002C0000004C
:1056B0002D0000002D0000002E0000002E00000034
:1056C0002F0000002F0000002F000000300000001D
:1056D0003000000031000000310000003200000006
:1056E00032000000330000003300000034000000EE
:1056F00034000000350000003500000036000000D6
:1057000036000000370000003700000038000000BD
:105710003800000039000000390000003A000000A5
:105720003A0000003B0000003B0000003C0000008D
:105730003C0000003D0000003D0000003E00000075
:105740003E0000003F0000003F000000400000005D
:105750004000000041000000410000004200000045
:10576000420000004300000044000000440000002C
:105770004500000045000000460000004600000013
:105780004700000000000000C1C0000081C100000F
:105790004001000001C30000C003000080020000BF
:1057A00041C2000001C60000C006000080070000E2
:1057B00041C7000000050000C1C5000081C4000011
:1057C0004004000001CC0000C00C0000800D00006F
:1057D00041CD0000000F0000C1CF000081CE0000CD
:1057E000400E0000000A0000C1CA000081CB00008A
:1057F000400B000001C90000C00900008008000043
:1058000041C8000001D80000C01800008019000045
:1058100041D90000001B0000C1DB000081DA00005C
:10582000401A0000001E0000C1DE000081DF000001
:10583000401F000001DD0000C01D0000801C0000B2
:1058400041DC000000140000C1D4000081D500003C
:105850004015000001D70000C017000080160000AE
:1058600041D6000001D20000C012000080130000E9
:1058700041D3000000110000C1D1000081D0000020
:105880004010000001F00000C03000008031000036
:1058900041F1000000330000C1F3000081F200007C
:1058A0004032000000360000C1F6000081F7000021
:1058B0004037000001F50000C035000080340000D2
:1058C00041F40000003C0000C1FC000081FD00002C
:1058D000403D000001FF0000C03F0000803E00008E
:1058E00041FE000001FA0000C03A0000803B0000C9
:1058F00041FB000000390000C1F9000081F8000000
:105900004038000000280000C1E8000081E90000E4
:105910004029000001EB0000C02B0000802A00009D
:1059200041EA000001EE0000C02E0000802F0000C0
:1059300041EF0000002D0000C1ED000081EC0000EF
:10594000402C000001E40000C0240000802500007D
:1059500041E5000000270000C1E7000081E60000EB
:105960004026000000220000C1E2000081E30000A8
:105970004023000001E10000C02100008020000061
:1059800041E0000001A00000C06000008061000054
:1059900041A1000000630000C1A3000081A200003B
:1059A0004062000000660000C1A6000081A7000060
:1059B0004067000001A50000C06500008064000091
:1059C00041A40000006C0000C1AC000081AD0000EB
:1059D000406D000001AF0000C06F0000806E00004D
:1059E00041AE000001AA0000C06A0000806B000008
:1059F00041AB000000690000C1A9000081A80000BF
:105A00004068000000780000C1B8000081B90000C3
:105A10004079000001BB0000C07B0000807A0000DC
:105A200041BA000001BE0000C07E0000807F00007F
:105A300041BF0000007D0000C1BD000081BC00002E
:105A4000407C000001B40000C074000080750000BC
:105A500041B5000000770000C1B7000081B600002A
:105A60004076000000720000C1B2000081B3000067
:105A70004073000001B10000C071000080700000A0
:105A800041B0000000500000C19000008191000072
:105A90004051000001930000C053000080520000FC
:105AA0004192000001960000C0560000805700009F
:105AB0004197000000550000C1950000819400004E
:105AC00040540000019C0000C05C0000805D0000AC
:105AD000419D0000005F0000C19F0000819E00000A
:105AE000405E0000005A0000C19A0000819B000047
:105AF000405B000001990000C05900008058000080
:105B00004198000001880000C04800008049000062
:105B100041890000004B0000C18B0000818A000019
:105B2000404A0000004E0000C18E0000818F00003E
:105B3000404F0000018D0000C04D0000804C00006F
:105B4000418C000000440000C184000081850000F9
:105B50004045000001870000C0470000804600006B
:105B60004186000001820000C04200008043000026
:105B70004183000000410000C181000081800000DD
:105B800040400000707880000008EB00C15D2000FC
:105B9000807880000108780061718800811A2600F1
:105BA000907880000108780001B82300A078800078
:105BB00001087800B078800001087800015C2100BD
:105BC000C078800001087800011C2200D078800095
:105BD0000108780001B02000E0788000010878001A
:105BE0000120B000F07880000108780041612300B6
:105BF000007980000108780001DC20001079800025
:105C00000108780001282000207980000108780030
:105C1000307980000108780000000600C00D2100E6
:105C200070738800800A21008073880040E620009D
:105C300090738800200A2100A0738800600A210068
:105C4000B0738800000D2100C0738800E00C2100B3
:105C5000D0738800C00C2100E0738800A00C2100E4
:105C6000F0738800800C210000748800600C210013
:105C700010748800400A210060748800E009210047
:105C800070748800C009210080748800A009210078
:105C90009074880020E62000A0748800A0E0200016
:105CA000B0748800C0E02000C0748800C0072100E4
:105CB000D0748800A0072100E074880080092100CA
:105CC00070758800600921008075880040092100F6
:105CD0009075880080072100A0758800600721006A
:105CE000B0758800E0082100C07588008008210098
:105CF00070768800A0E620008076880040082100A9
:105D00009076880080E62000A076880060E620007B
:105D1000B0768800C0082100C0768800C0E6200068
:105D2000D0768800A00D2100E0768800A0E2200057
:105D30002077880080E2200030778800E00621008C
:105D400040778800800D210080778800600D210059
:105D50009077880060E22000C077880040E2200051
:105D6000D077880020E22000E077880000E2200061
:105D7000F0778800000A210070788800400D21002B
:105D800080788800200D210090788800C0E42000F1
:105D9000A0788800A0E42000B078880000E6200009
:105DA000C0788800E0E52000D0788800C0E52000B9
:105DB000E0788800A0E52000F078880080E52000E9
:105DC0000079880060E520001079880040E5200017
:105DD0002079880020E52000307988000007210024
:105DE000707A880080E42000807A880060E42000D7
:105DF000907A880040E42000A07A880020E4200007
:105E0000B07A8800C0E12000C07A8800609E20003F
:105E1000707B8800409E2000807B8800209E2000B0
:105E2000907B8800009E2000A07B8800E09D2000E1
:105E3000B07B8800C09D2000C07B8800A09D200012
:105E4000D07B8800809D2000E07B8800609D200042
:105E5000F07B8800409D2000007C880000E5200049
:105E6000507C8800E0E42000607C8800000C210069
:105E7000707C8800E00B2100807C8800C00B210032
:105E8000907C8800A00B2100A07C8800E09C200072
:105E9000B07C8800C09C2000C07C8800800B210062
:105EA000D07C8800600B2100E07C8800400B210042
:105EB000F07C8800200B2100007D8800000B210071
:105EC000107D8800E00A2100207D8800C00A2100A2
:105ED000307D8800A00A2100407D8800E0E120009C
:105EE000507D880000E4200070828800E0E32000FC
:105EF00080828800C0E3200090828800A0E3200018
:105F0000A082880080E32000B082880060E3200047
:105F1000C082880020E32000E082880000E32000A7
:105F2000F0828800E0E2200000838800E1E62000A3
:105F3000E2062100310078000008EB00828F50005B
:105F4000FCFF3A0010102200E0868800A870A8002C
:105F5000F003200020738800300620003073880092
:105F6000006821007083880000F42100107188000F
:105F70000071880003FF07002E6C02000000000083
:105F800080838800366C02000000000040728800A8
:105F90003E6C02000000000030728800466C020077
:105FA00000000000207288004E6C0200000000001B
:105FB0001072880010002000E0708800F27F20003E
:105FC000027288003E2EEF003EEEEF00F10120004D
:105FD000E17188003AAEEF00C2718800F0FF250041
:105FE000B071880091718800F03F200080718800B6
:105FF000F0FF270070718800102EEF000E2EEF00CA
:10600000082EEF0060C5B300E3F0B70020C3B30073
:10601000E4F0B700E5F0B70000C0E900E6F0B70033
:1060200076404000E7F0B70000000600FBFE0700E6
:1060300000042900B010880080052000D0108800DE
:10604000BCC0BF00F1C8B300014060000043B30012
:10605000BCE0B7008A20EF009A20A80000000600EC
:1060600080027800D0108000000040008501780098
:106070000001EB000102E90002003700330040009C
:106080000201E800840F5100FCFF39000001EB0021
:1060900081804000858040008180E9000000EA00A6
:1060A000F00FB200910F100001003A001200200022
:1060B0000200780000000600881F780054878000E6
:1060C000638780004818DD0000014200418780009E
:1060D00020052000808F5000AF00320022003E00DB
:1060E000F38F5000610032000E003E00E78F500039
:1060F0004E00320005003E00E58F500042003200A5
:10610000E68F5000F8003A0043003700E98F500056
:106110004E00320049003900EA8F5000F2003A0088
:106120004E00370030022000808F50005F003200A8
:1061300005003E00F68F500054003200F78F5000EB
:10614000E9003A005500370000052000808F50001C
:106150005E0032006E003E0040022000808F500042
:10616000E1003A005500370090052000808F500074
:10617000B300320010003E0064005000808F5000D9
:106180009400320007003E000080E900808F50003C
:10619000880032000000E800808F5000D2003A00F2
:1061A0008600370070052000808F50009300320079
:1061B00099003E008C003700E0082000808F5000DE
:1061C000B700320008003E00B0052000808F50006C
:1061D0009F0032009C0039000000E800808F5000D2
:1061E000C1003A009C00370000092000808F500059
:1061F0009B003200B40039006E004000808F5000D8
:10620000B9003A009B0037000200E000B6003A00F7
:10621000C0738000030037000200E000B2003A00C3
:10622000D073800002087800AF0037000200E00061
:10623000AD003A00E0738000FAFF37000200E00092
:10624000A9003A00F0738000F6FF37000200E0007A
:10625000A5003A0000748000F2FF37000200E00061
:10626000A1003A0010748000EEFF37000200E00049
:106270009D003A00A074800002087800B07480008D
:1062800002087800C0748000E6FF37000200E000DA
:1062900095003A00D0748000E2FF37000200E00071
:1062A00091003A00E0748000DEFF37000200E00059
:1062B0008D003A00A0758000DAFF37000200E00090
:1062C00089003A00B0758000D6FF37000208A300AD
:1062D00008003A00A010AB00060032005A73A90073
:1062E000C05D200060718800811A260090788000CF
:1062F00001087800E203B20070788000020878009C
:10630000A030AB00780032001EFE07007600370098
:10631000A090AB0010003200F00F2000800F510061
:1063200071003E00A010A800907880001000780056
:10633000800F51000100360000017800EF0F51007E
:1063400002003E005A73A800010037005A73A900EA
:1063500080788000B3FF37000200E0006200320066
:10636000A010A800C05D2000800F510002003E0078
:1063700060718800010037006271880090788000A9
:106380009000780060718000810F50005600390045
:1063900061718800540037000200E00052003200B2
:1063A000A010A8008078800010007800917880000C
:1063B0001D003700A178800001003700B17880000F
:1063C000F0B72300800F51001B0036000000E800EA
:1063D00017003700D178800000F02F001100400036
:1063E000C178800009003700C078800001102000CB
:1063F00010804000D17880000B003700F1788000D9
:1064000000F02F0011004000E1788000800F510063
:106410000700310008003700E078800001102000FC
:1064200010804000F1788000800F510002003E0093
:10643000800878002C003700820878002A00370096
:106440000079800077FF37001079800075FF3700F2
:106450002079800073FF37003079800071FF3700AA
:10646000E03F2000800F51001F003E00707C800044
:106470006CFF3700A0552A00800F51001A003A0027
:106480005853A800E1F82000A2FA2000310078005B
:106490000008EB00828F500013003200FBFF370032
:1064A000504E800066006000E60F50000E003A007B
:1064B000A483880093838800C450A800A0CF200044
:1064C0000372780008003700687C8000504E80001E
:1064D0006200600003003200020078009A47020068
:1064E00000000000000C78004F0478000000060057
:1064F000A833EF0010AEA900529D8000F80F5100A4
:1065000003003A0080108000C08888000600370031
:1065100002004100810E21008310800003B078004A
:106520000200E800509D880042878000519D800055
:10653000E0052000800F51004A003A0010AEA8008C
:10654000E38F500033003A0051878000F00F2000A5
:10655000808F500002003A00400020000400370005
:10656000A0032000808F500003003A00500020005C
:10657000B070880000000600B0032000808F50003B
:1065800002003A0060002000F9FF3700C00320003D
:10659000808F500002003A0070002000F4FF3700A6
:1065A000D0032000808F500002003A0080002000BD
:1065B000EFFF37000100E00002003200E18F5000E1
:1065C00002003A00B170880000000600100E2000A2
:1065D000808F500002003A00A0002000E4FF370046
:1065E000000E2000808F500006003200200E200098
:1065F000808F500003003200300E2000808F50004A
:1066000002003A0090002000D9FF3700200020004F
:10661000D7FF3700E58F50003D003A00B070800092
:10662000E60F50003A003A00708780004800DD0015
:10663000828780000200400001002000304E880068
:10664000414E8800E10F4000E08F58000300360003
:1066500010002000404E8800C629EF00C430A8007A
:1066600000000600E18F50001A003A0010092000D7
:10667000800F510001003A00C470A800E0F62F001E
:1066800000004100E10F500001003E00C4B0A8002E
:10669000A0F62F0000004100E30F500001003E0073
:1066A000C4B0A80060F62F0000004100E30F5000C6
:1066B00001003E00C4B0A80020072000800F510058
:1066C00013003A005953AB0011003200C4D0A800A7
:1066D00000000600E48F50000D003A00100EA800E4
:1066E000800E21005EFE0700610060004200DD00B8
:1066F000817080000120A10080807000817088007E
:106700000128A300010032006BFE0700AA33EF004E
:1067100000000600509D8000E50F500007003A0081
:106720006087800000004000E1E620006080780083
:1067300010007800C0708800040037000000E000FE
:1067400002003200AA33EF00108EA9006387800098
:106750007287800002004100008041008080E900D3
:106760000200E900EE0F500005003E00F00F20008F
:10677000808F500002003E0010CEA80001003700BC
:1067800010CEA900807080000005B2000105200035
:10679000810F500020003A00419D8000020041001E
:1067A000808F500003003A001A0EEE00F00FB20086
:1067B0001A0037006180600003003200E10F5000D2
:1067C00017003A0006003700C0708000F00FB200DA
:1067D00090108800901080001A2EB400100037002E
:1067E000C07080004800DE0090108800901080008B
:1067F0001A2EB400018041000000E800F00FB20042
:1068000000004000E1E62000608078001000780081
:10681000C070880002003700A00F20009010880090
:10682000419D80008100E800419D880002004100F8
:106830000000E800808F500002003900108EA9008F
:10684000A833EF0000000600509D8000E30F5000C9
:106850000E00360063005000D06F8800EF0F50002C
:1068600002003E00106EA80001003700106EA90063
:106870006087800000004000E1E620006080780032
:1068800010007800C0708800040037000000E000AD
:1068900002003200AA33EF00108EA9008070800041
:1068A00078006000F80F500028003A00419D8000F9
:1068B000D06F800000004000808F500003003A003D
:1068C0001A0EEE00F00FB200210037006180600068
:1068D00003003200E10F50001E003A0006003700AE
:1068E000C0708000F00FB2009010880090108000FF
:1068F0001A2EB40017003700F20F2000C07080007D
:106900004800DE0090108800901080001A2EB4001D
:106910000100E8000000D1000080E800820F500074
:10692000010036000200780080004000800E210047
:106930006100780000004000E1E6200060807800FF
:1069400010007800C070880002003700A00F2000FF
:1069500090108800D06F8000000040000000E80028
:10696000419D80008100E800419D8800808F50009B
:1069700002003900108EA900A833EF0000000600C5
:10698000509D8000E10F5000020036000000000022
:10699000040037000000E00002003200AA33EF00DC
:1069A000108EA90050052000108EAB0001003A00A7
:1069B000A00F20009010880000000600509D80006D
:1069C000E80F50000200360000000000040037000D
:1069D0000000E00002003200AA33EF00108EA90090
:1069E000A00F2000108EAB003600320060878000C0
:1069F000E50F50001D003A0070878000E10F500045
:106A00001A003A0080878000E20F500017003A0019
:106A100090878000E10F500014003A00427280001D
:106A2000C810DE00A0878000810F50000F003A00E0
:106A3000F20FB200B0878000820F50000B003A00C6
:106A4000419D8000100320000100E0001D00320085
:106A5000E18F500019003A00F00C200090108800DF
:106A60005933A800014178000C003700409D800098
:106A70000000E00003003200E10F50000F003A0078
:106A800002003700500520000E003700B00A200039
:106A9000901088005933A9000041EB0080C0EB0042
:106AA00001407800FE6B0200000000002E6C020026
:106AB000000000008083880003003700A833EF0047
:106AC0000100370090108800A813EC00409D88005A
:106AD000E10F500002003600108EA900A833EF002D
:106AE00000000600549D8000E70F5200250036008C
:106AF0006387800065814100D07080002100200004
:106B0000C50E210002003700350040008100E8007A
:106B1000828F5000FCFF36000001EA00F20FB20045
:106B2000D2708800038041006C004000810E21007B
:106B300060807800800F510002003A00082EA80003
:106B400001003700082EA900E80F520005003600AA
:106B50000300E900EF0F500002003600084EA900C4
:106B600001003700084EA800F210E20002003A00CF
:106B7000086EA80001003700086EA9001A2EEF0069
:106B8000040037000400E00002003200AA33EF00E6
:106B9000108EA900108EAB003900320040708000CA
:106BA000E6006000E68F500035003A005933AB0034
:106BB000330032000038A3002A00320064878000CE
:106BC00065014200430F210045AE2000030037005D
:106BD0003300780080F278008100E800828F500056
:106BE000FBFF3600E44D8800708780004800DD0020
:106BF000828780000200400001002000104E8800C3
:106C0000214E8800E10F4000E08F5800030036005D
:106C100010002000204E8800C229EF00C2C9BF002A
:106C20008081FB00E16F8000A0AF20000081410067
:106C30000000EB00A5AE20000300370083004000F9
:106C400060D97A000000E800840F5000FBFF390093
:106C5000E16F8800F00F2000808F500001003A00A3
:106C6000C410A80000C1EB008040EB000240780097
:106C7000FE6B020000000000A00A200001003700A7
:106C8000A00F200090108800A813EC00409D880001
:106C900002003200108EA900A833EF0000000600A9
:106CA000509D8000E50F50000B003600EE10E20012
:106CB00007003A00F010E20005003A00608780000B
:106CC000F00F500002003200086EA90006003700E5
:106CD000086EA800040037000000E0000200320047
:106CE000AA33EF00108EA900A00F2000108EAB0079
:106CF0001300320040708000680060001000320015
:106D0000419D8000D270800060878000808F50009D
:106D100003003A000200EA00F00FB200080037005A
:106D2000A0BF2000614078000080FB009010880028
:106D3000020078001202B400D07088000100370011
:106D400090108800618780008100E800A813EC00A3
:106D5000409D8800810F500002003900108EA9006C
:106D6000A833EF0000000600509D8000E40F5000A3
:106D70000200360000000000040037000000E000C0
:106D800002003200AA33EF00108EA900108EAB0073
:106D9000240032005933AB002200320061878000AA
:106DA00000052000808F500010003A00718780009D
:106DB00068005000808F50000C003A00409D800019
:106DC0000000E00003003200E10F500013003A0021
:106DD000020037001003200013003700F00C2000E1
:106DE000901088005813A80010003700409D8000C4
:106DF0000000E00003003200E10F500007003A00FD
:106E0000020037005005200007003700B00A2000BC
:106E1000901088005813A90004003700A833EF0031
:106E200002003700A00F200090108800A813EC008B
:106E3000409D8800E10F500002003600108EA9002E
:106E4000A833EF0000000600509D8000E20F5000C4
:106E50000200360000000000040037000000E000DF
:106E600002003200AA33EF00108EA900409D80007E
:106E7000108EAB00180032000000E000030032006A
:106E8000E10F500012003A0002003700100320000A
:106E90001B003700F00C200090108800C09A800082
:106EA0000010B20017003A005913A800D04D880016
:106EB000BE29EF00C029EF0000C1EB0011C0B300F4
:106EC00002407800FE6B0200000000000D00370059
:106ED000A833EF000B0037000000E0000300320091
:106EE000E10F500005003A00020037005005200075
:106EF00003003700B00A200001003700A00F200077
:106F000090108800A813EC00409D8800E10F50000D
:106F100003003600108EA90020002000409D88004C
:106F200000000600509D8000E20F50000200360075
:106F300000000000040037000000E0000200320002
:106F4000AA33EF00108EA900A00F2000108EAB0016
:106F50002200320051878000000E2000808F5000F8
:106F600008003A0061878000B0042000808F500044
:106F700002003A00CA49A80017003700CA49A90010
:106F800015003700200E2000808F500008003A00C6
:106F90006187800080082000808F500002003A0046
:106FA000CA29A8000C003700CA29A9000A00370026
:106FB000300E2000808F500007003A00618780006B
:106FC00080082000808F500002003A005953A8002A
:106FD000010037005953A9001003200090108800C9
:106FE00000000600509D8000E20F500002003600B5
:106FF00000000000040037000000E0000200320042
:10700000AA33EF00108EA900108EAB0012003200E0
:10701000419D8000D2708000E98F5000060036004C
:107020000200EA00F00FB20090108800108EA90054
:10703000A833EF000A003700E00D2100614078001E
:107040000080FB0090108800020078001202B4005B
:10705000D070880002003700A00F20009010880038
:10706000A833EC0000000600519D80000100E00004
:107070000A0032001A2EEF00108EA900800E2100A7
:10708000F7FB0700610060004400DD0081708000B4
:107090000140A1008080700081708800509D8000B8
:1070A000E20F500001003A0010AEA9005953AB00A6
:1070B00008003200A1BF2000914078008180FB00D1
:1070C000FBCBBF004800DD008080400031728800AB
:1070D000030037003E6C02000000000030728800A0
:1070E000807080000008A3000C003200100EA90080
:1070F000A833EF0071878000104EAB000200320011
:107100009110880003003700F00F200001005000AC
:1071100090108800104EA9007D0037000058A30091
:1071200025003200B070800001002000EA0F5000FE
:10713000E08F580076003E00006001000A00370032
:107140000B0037000C003700710037000C003700CF
:107150000D0037000E0037000F0037001000370019
:1071600011003700120037006AFD07006800370081
:10717000B5FD07006600370001FE07006400370018
:107180000EFE07006200370056FE07006000370061
:10719000C3FE07005E003700F3FE07005C00370007
:1071A00029FF07005A0037005EFF0700580037002C
:1071B0008CFF070056003700439D80000300E0006D
:1071C00012003A00D010800042878000000040008A
:1071D000020040000000EA00F00FB200D07088000A
:1071E00051878000810F500007003A00102EA80040
:1071F00002004100E1E62000608078001000780085
:10720000C070880001003700102EA9008070800037
:10721000620060002B003200E18F51001400320048
:1072200003003900E28F510024003A0020003700AB
:10723000B0708000EA0F500007003A0041878000DC
:10724000E0052000808F500003003A00E1D0BF002D
:107250000080FB0002003700C0708000F00FB20019
:107260009010880090108000D070880023003700B4
:10727000B0708000EA0F500007003A00418780009C
:10728000E0052000808F500003003A00E6D0BF00E8
:107290000080FB0002003700C07080004800DE0064
:1072A00090108800901080001A2EB4001300370050
:1072B0001A0EEE00F00FB20009003700A833EF00FD
:1072C0000E003700E18F5100070032000300390043
:1072D000E28F510008003A000500370050052000F9
:1072E0009010880005003700A00A2000FCFF37003E
:1072F000E00F2000FAFF3700409D8800A813EC0043
:10730000409D8800E20F500001003600A833EF00D6
:10731000AA33EF00000006008040EB00E39A8000F3
:10732000030078000003B2000100320011C0B30076
:107330006180600000004000318580000110A100E4
:1073400080807000618061004200DD000120A100AA
:10735000808070004319DE000300D100020070003D
:10736000610060004300DD000130A10080807000FA
:1073700031858800D29A8000E1006100C208DD00FA
:10738000408580000020A100010070004085880039
:107390000218A30003003200A830A800A690A9009C
:1073A00002003700A830A900A690A8002E6C0200A9
:1073B0000000000080838800366C0200000000009E
:1073C00040728800466C02000000000020728800B5
:1073D0004E6C0200000000001072880000000600E1
:1073E000889FBE008A9FBE00E20F2000B08B800005
:1073F0000280B900CA09DD004600DE00008071008D
:10740000C608DE0070848800F99A8000E18F54007D
:1074100056003A00D38B80000298B900480ADD007C
:107420004800DE0000007200C808DE00C08488004A
:10743000C08B80000280B9004809DD004800DE00F2
:1074400000007100C808DE0090708800028C800087
:10745000007424000090B900460ADD004A00DE00F6
:1074600000007200CA08DE0004082000800F5200ED
:1074700002003900B484880001003700B08488001D
:10748000611DB900CF91DE000A00BE000421020098
:10749000000000004809DD004800DE000000710027
:1074A000C888DE00021D2100030020000421020024
:1074B00000000000C209DD004E00DE000080710007
:1074C000CE88DE0000047800F90F500001003E0075
:1074D00090012000A0848800B297800000742400EE
:1074E0000010B800460ADD004A00DE00000072000D
:1074F000CA08DE0090848800030020000A00BE0055
:1075000004210200000000004809DD004800DE0000
:1075100000007100C888DE00021D21000300200069
:107520000421020000000000CE89DE00420ADD00D6
:107530004E01DE00020172008284880020032000D8
:1075400008004000800F510004003E00200320008E
:1075500002004000800F54000200360002938800B1
:107560000900370008938800070037009830EF00C3
:107570009630EF009430EF00122EEF009230EF00C3
:107580009030EF006032EF0040858000E102600043
:1075900029003200E18F540027003A00E272800097
:1075A000C4FC2F00B0FC2F00800F510002003E00F1
:1075B0003403200002024200D37280003003200016
:1075C0000003EB00808F5100010036000083510062
:1075D00091708000828F5000040031004813E20057
:1075E00002003A00A270A8000900370000B820008D
:1075F000808F500006003600ECC2BF000008A300D8
:1076000003003200848F500001003900A270A900ED
:10761000838F500002003600A250A80006003700F9
:1076200080C92000808F500003003E00868F5000EC
:1076300001003E00A250A900C3728000D0032000C8
:107640000018B8004A09DD004600DE0000007100A5
:10765000C608DE000500E00009003200E18F54009A
:1076600007003A00B2848000830F51000200360008
:10767000A2F0A80003003700800F510001003E0077
:10768000A2F0A9004F05BE004F04BE000000060096
:107690004600DD00000006004085800062006000BA
:1076A0000A003200C2928000F2848800B09280000A
:1076B000E0848800A192800000002F00808F50009D
:1076C00006003E00D184880004003700F084880062
:1076D000E0848800D084880000000600D413E20013
:1076E0001B003A00017380008081EB00E0F52F0061
:1076F000808F500002003E00030A2000818141007B
:10770000810F510002003100A230A80003003700B1
:10771000830F510001003600A230A900F0728000F2
:10772000010A20008001EB00810F500001003600AB
:1077300081015000800F510002003600A210A80005
:1077400000000600830F510001003100A210A900C3
:1077500000000600B19A80000100E00002003C0039
:107760006C2EEF0008003700704A20000088B90036
:107770004809DD004800DE0000007100C808DE0096
:107780000000E8006073880041848000003220001F
:10779000808F500002003E006A2EEF000800370084
:1077A000300C8000220220000200B8004809DD00F1
:1077B0004800DE0000007100C808DE005073880039
:1077C0002184800000322000808F500002003E00A3
:1077D000682EEF0008003700900C80002202200085
:1077E0000200B8004809DD004800DE00000071001A
:1077F000C808DE0040738800738380004619DE00ED
:10780000E09280004800DD00110009000280D800ED
:10781000801F780001007800CF007800F00F200072
:10782000808F5000030036000000E800507188008F
:107830000100370051718800D0868000808F510090
:1078400003003900008051004071880001003700BA
:10785000282EEF00127180004611DE00A39A8000EE
:107860004818DD00110009000280D800801F780050
:1078700001007800CF007800F00F2000808F5000CA
:10788000030036000000E800307188000100370076
:1078900031718800D0072000808F510004003E0025
:1078A000030050004600DD00207188000000060043
:1078B000242EEF000000060000B82300709D880011
:1078C000609D8800F59A8000E18F5200020032002E
:1078D0000EAEA80005003700A810AB0002003A0069
:1078E0005A33AB0001003A000EAEA900A810AB005D
:1078F00002003A000EAEAB0002003A005AF3A900B3
:10790000010037005AF3A8005AF3AB00030032001D
:1079100061728000E4012000020037005172800093
:1079200034112000F0B72300808F50000100360092
:1079300001B8230093848000818F51000100390039
:107940005BB3A8000001EB00F01F2000808F500007
:107950000200360000E02F0000814000828F5100BD
:1079600001003E005BB3A900E18F520037003A00EE
:10797000D19A800040002200008060003100320077
:10798000FE0DEC00F06F8800840F500030003900CD
:107990005C13A8000178A30002003200A770A800C1
:1079A00001003700A790A800C013E20028003D00A6
:1079B000A2F0A800008D8000E20F20000281B90033
:1079C000C818DD004811DE0002817000C819DE0011
:1079D000C2848800D48C80000274240002A1B90003
:1079E000C618DD004A11DE0002817000CA19DE00EF
:1079F000B2848800C2838800F24E88000480B900F7
:107A00004809DD004800DE0000007100C888DE0083
:107A1000021D2100030020000421020000000000DC
:107A20004209DD004E00DE0000007100CE88DE005D
:107A3000A0848800B0838800E04E8800E849A80050
:107A400000000600F06F880000000600FE2DEF0029
:107A50000000060043858000628061004E00320015
:107A600000CEBF00D29A80000220B2002D003A0062
:107A7000E14F500004003A0000562F009E10B40061
:107A8000013220000B003700E24F500004003A00A2
:107A9000002E2F009E10B40001402000050037008A
:107AA000E34F500005003A0000A22E009E10B400E3
:107AB000010E2100810F5000020036000200780004
:107AC00000EEB700004EE20034003A00F18480007E
:107AD000F0B32000808F5000300036001024B0003A
:107AE000808F500002003E0010C0B3002A00370013
:107AF00000082100808F500002003E0020C0B3002B
:107B000025003700F0672100808F500023003600E9
:107B100000622200808F500020003E0030C0B30081
:107B20001D003700E64F500004003A0000102F00FF
:107B30009E10B4000168210005003700E74F500097
:107B400005003A0000802D009E10B40001C82000FE
:107B5000810F500001003600006EEF00004EE20081
:107B60000E003A00F184800000F02000808F500069
:107B70000A003600006C2200808F500002003E0098
:107B800060C0B3000400370000482300808F50001D
:107B900002003E0070C0B30000EEB70000CEBF0090
:107BA00003B8A300020032000034A0000100370037
:107BB00067406000A9F0B700000006004085800023
:107BC000620060000B003200D1848000D08380000E
:107BD000808F500001003900D1838800E18480004B
:107BE000E0838000808F500004003900E18388002A
:107BF00000000600D0838800E083880000000600B3
:107C0000408580006100600006003200B184800081
:107C1000C0838000808F500003003900C18388003A
:107C200000000600C0838800000006004085800038
:107C30006100600006003200A1848000B0838000F3
